:100000000C947B000C94A3000C94A3000C94CB0DD7
:100010000C94CB0D0C94CB0D0C94A3000C94A3006A
:100020000C94A3000C94A3000C94A3000C94A110B6
:100030000C94A3000C94A3000C94A3000C94A300B4
:100040000C941D090C94A3000C948D090C94670961
:100050000C94A3000C94A3000C94A3000C94A30094
:100060000C94F30E0C94A300C703EC03B503050432
:10007000240456044B045604560456048104D60343
:1000800005081B086C071B08BC071B084A07F0067D
:100090001B081B081B081B081B08BC051B0899062E
:1000A0001B08360700000000240027002A0000007B
:1000B0000000250028002B000404040404040404A8
:1000C0000202020202020303030303030102040803
:1000D00010204080010204081020010204081020B2
:1000E00000000008000201000003040700000000F7
:1000F00000000000191511241FBECFEFD8E0DEBFAD
:10010000CDBF11E0A0E0B1E0E0EBFFE202C005905E
:100110000D92AE3FB107D9F725E0AEEFB1E001C0D7
:100120001D92A132B207E1F710E0CBE7D0E004C0A6
:100130002197FE010E949B16CA37D107C9F70E947A
:1001400062110C94D6170C940000A82FB0E0A856AA
:10015000BB4F9C91292F30E0F901EE0FFF1F2E0FAE
:100160003F1FF901EE58FB4FE081F0E09F01220FA5
:10017000331FE20FF31FE35BFB4F80818F7B808394
:1001800080919604981306C0992379F0915090932A
:1001900096040BC0882349F0E0919704EF5FE09349
:1001A0009704F0E0E350FE4F90838FEF8C93089517
:1001B0009EEF980F923180F4E82FF0E0DF01AC5F02
:1001C000BB4F9C91913041F4EE0FFF1FE85EFB4F57
:1001D000608371830C94570B0895CF93863080F51C
:1001E00040918A0250918B0221E030E0672B81F42C
:1001F000B90102C0660F771F8A95E2F7CB0180959F
:1002000090958423952390938B0280938A0218C043
:10021000082E02C0220F331F0A94E2F7242B352B3D
:1002200030938B0220938A029091B004911108C000
:10023000C82F0E94E00BBC018C2FCF910C94BF09FA
:10024000CF9108958F929F92AF92BF92CF92DF92FB
:10025000EF92FF920F931F93CF93DF93833008F0B9
:1002600084C0982F990F990F990F58E0952E990EE9
:1002700094E1991510F444E1942E8B01D82FC82EE7
:10028000CC0CCC0CCC0CC0E0882483945B01BB2448
:10029000C91430F58EEF8C0D8231F8F44C2D50E0FE
:1002A000FA01EC5FFB4F20812230B8F4882D90E0FA
:1002B0008A219B21DD24D394009709F4D12C7A0163
:1002C000EE0CFF1C213009F040C0C829F701E85EA0
:1002D000FB4F8D2D90E091838083880CC394D8CF01
:1002E000D11108C0F8946BB106270C7FC023C62734
:1002F000CBB929C0D130D1F40C23F89495B18C2F0F
:100300008F7380958923902F9F73892B85B998B11E
:10031000C295C695C695C370C0958C2F892302954A
:10032000069506950370C02FC82B0CC0CF70F894AB
:1003300088B16C2F660F660F60956823C023CC0FC1
:10034000CC0FC62BC8B9789410C0892B09F4BECF46
:10035000F701E85EFB4F80819181019709F4B6CFE8
:1003600062E08C2D0E94A40BB1CFDF91CF911F9141
:100370000F91FF90EF90DF90CF90BF90AF909F9044
:100380008F9008958F929F92AF92BF92CF92DF92FB
:10039000EF92FF920F931F93CF93DF93EB01843182
:1003A00008F00AC1082F10E0F801EC5FFB4F9081C4
:1003B000933009F496C0943009F0FEC08250823127
:1003C00008F087C0F801E856FB4FE080F12C670188
:1003D000CC0CDD1C603282E078070CF042C077FD67
:1003E00005C0653B710524F4DB0104C0A0E001C039
:1003F000A4EBB0E0F601EE0DFF1DEE58FB4F81813E
:1004000028E830E04901881A910887FD9394880C08
:10041000991C880C991C092C000CAA08BB08828125
:1004200028E532E0281B310987FD3395220F331F61
:10043000220F331FA901330F660B770B9A01AB0113
:10044000281939094A095B090E94561624EB30E045
:1004500040E050E00E942C16820E931EA41EB51E92
:1004600001C04B01F601EE0DFF1DEE58FB4F208140
:100470002C3078F5318188E890E0831B910937FDB5
:100480009395880F991F880F991F8816990684F0F5
:10049000828148E552E0481B510987FD5395440F7E
:1004A000551F440F551FC401481559050CF4CA01C6
:1004B0000297880F991F4FB7F89430E0F901EE0FBB
:1004C000FF1F2E0F3F1FF901E35BFB4F92838183D8
:1004D0004FBF000F111FF801E85EFB4FD183C083AF
:1004E0006BC07B01D82F833049F08BEF800F8230B7
:1004F00028F087EF800F833008F057C061E08D2F20
:100500000E94A40BE114F10411F460E005C08FEF28
:10051000E816F10429F461E08D2F0E94570B45C0C5
:10052000F801E052FF4FE491E330F9F048F4E13094
:10053000B9F0E230A1F584B5806284BDE8BC35C075
:10054000E730E9F0E83019F1E43049F580918000B6
:10055000806280938000F0928B00E0928A0025C038
:1005600084B5806884BDE7BC20C08091800080682D
:1005700080938000F0928900E092880016C08091FC
:10058000B00080688093B000E092B3000EC080910C
:10059000B00080628093B000E092B40006C080E8B2
:1005A000E816F1040CF0B7CFB0CF000F111FF8011F
:1005B000E85EFB4FF182E082DF91CF911F910F91B6
:1005C000FF90EF90DF90CF90BF90AF909F908F9073
:1005D0000895DB01909196049C30A8F53091970422
:1005E000682F70E0332369F0E32FF0E0E350FE4F13
:1005F0008081FB01E856FB4F808331503093970494
:1006000007C0FB01E856FB4F90839F5F90939604D1
:10061000FB01E856FB4F808190E09C01220F331FC5
:10062000820F931F1A161B0634F4141615061CF4B9
:100630009A01AD0104C020E639E040E252E08E5854
:100640009B4F0C9421108DE291E00C94700A8F92D4
:100650009F92BF92CF92DF92EF92FF920F931F93E0
:10066000CF93DF93C82ED12CE601CF57DC4FFE018C
:10067000ED57FF4F90819F3709F443C1963041F405
:100680009091AF04992321F06630710509F01DC1E6
:100690007B01182F0EEF080F0231F8F4643071055A
:1006A000E1F0F601E856FB4F80818C30B0F490E029
:1006B000FC01EE0FFF1F8E0F9F1FFC01EE58FB4F3A
:1006C000808190E0FC01EE0FFF1F8E0F9F1FFC0149
:1006D000E35BFB4F808186FDFEC052EFB52EB10E6D
:1006E00085E08B1558F061E070E082E0E816F104D7
:1006F00011F060E070E08B2D0E94ED00023118F5E2
:10070000E12FE695E695E695212F2770F0E0E45A73
:10071000FD4FE114F10421F08BE0E816F10449F4F7
:1007200081E090E001C0880F2A95EAF79081892B3B
:1007300009C081E090E001C0880F2A95EAF7809512
:100740009081892380834601880C991CF401E85E1E
:10075000FB4F118210828CE0E816F10408F0A6C06D
:10076000F701EC5CFF4F0C949B1685E08B1508F4A9
:10077000C8C0023120F460E0812F0E94A40BCD5745
:10078000DF4F88818F3709F4BCC082E08DC0023111
:1007900008F0B7C060E0812F0E94A40BCD57DF4F57
:1007A00088818F3709F4ADC01882ABC0023108F0E0
:1007B000A8C062E0812F0E94A40BCD57DF4F888133
:1007C0008F3711F08BE08883F401E85EFB4F81E006
:1007D00090E09183808395C0023108F092C0FE01C1
:1007E000ED57FF4F8081833021F460E0812F0E941C
:1007F000570B61E0812F0E94A40BCD57DF4F8881FA
:100800008F3709F47EC081E04FC0133049F08BEF81
:10081000810F823028F087EF810F833008F071C09C
:1008200061E0812F0E94A40B61E0812F0E94A40B44
:1008300060E0812F0E94570BCD57DF4F88818F37A3
:1008400009F45FC083E030C0023108F05AC0CD57D0
:10085000DF4F88818F3711F084E08883F601E856F6
:10086000FB4F80818F3FD9F190E0FC01EE0FFF1F1D
:100870008E0F9F1FFC01EE58FB4F808190E0FC0122
:10088000EE0FFF1F8E0F9F1FFC01E35BFB4F80816C
:1008900086FD37C024C01251123098F5CD57DF4F76
:1008A00088818F3771F186E088832BC081E491E0E5
:1008B000DF91CF911F910F91FF90EF90DF90CF903C
:1008C000BF909F908F900C94700A1092AF049FEF8E
:1008D00090930001DDCE812F0E94A500FECE4FEF48
:1008E0005FEF6FEF7FEF812FDF91CF911F910F911E
:1008F000FF90EF90DF90CF90BF909F908F900C94DF
:10090000E902DF91CF911F910F91FF90EF90DF905F
:10091000CF90BF909F908F900895FF920F931F9359
:10092000CF93DF9300D0CDB7DEB7082F10E0F801EA
:10093000E45AFD4F9081F62EF92204551B4F4111C8
:1009400004C0F8019081F91611F12F2D30E03A839F
:100950002983A091C103B091C2031097B1F0682F11
:100960006F706069ED91FC9111970190F081E02D1D
:10097000CD01099522E030E0AE014F5F5F4F62E0AC
:1009800070E081EC93E00E94D50DF801F0820F90A9
:100990000F90DF91CF911F910F91FF9008958330B9
:1009A00020F5282F30E0F901E15AFD4F6083672BD5
:1009B000E1F0F901E45AFD4F9081811103C069B162
:1009C0006C7F0FC0813049F463B136B16F7340E47E
:1009D000349F90011124622B04C066B16C7366953C
:1009E0006695692341E00C948D040895EF92FF927F
:1009F0000F931F93CF93DF93D82F8B01C42FF22E29
:100A00006F3F8FEF7807F9F081E08093C002D093B9
:100A1000E2021092C1021092E30281E494E00E948B
:100A2000240D8F2D0E94B30A80914A0290914B02AF
:100A30008230910550F0880F991F880F991F0597F4
:100A40000197F1F702C000E010E08091BF02811130
:100A5000FCCF9C2FC13208F090E281E08093BF026E
:100A60008093BE022FEF2093BD021092BC02290F8B
:100A70002093BB0280939A0280919A022D2F220F1D
:100A8000822B80939A0280919902813061F41092B6
:100A9000990280919A028093BB008091BC0083FDF3
:100AA000F8CF85EC01C085EE8093BC008091BF0239
:100AB0008130E1F38091BC02891710F49091BC025F
:100AC000EBE9F2E0A1EBB4E080E0891721F021919D
:100AD0002D938F5FFACF1092D2048093D104EC2E25
:100AE000F12C90E0E816F9061CF482E591E005C0CF
:100AF0008E159F0524F48FE691E00E94700AD09332
:100B00000A0200930B020AE012E0C8018A509240E8
:100B10008E159F057CF40F5F1F4F9091D10480913B
:100B2000D204981739F081E494E00E94DB0CF801BC
:100B30008183EBCFCE5F6C2F70E04AE052E087E715
:100B4000DF91CF911F910F91FF90EF900C94230AAA
:100B5000EF92FF920F931F93CF93DF9390E0FC01EE
:100B6000E956F109E231F10508F065C2EA01162FF4
:100B7000E05CFF4F0C949B162981922F987125FF02
:100B800003C08BE891E059C0888131E026FB222721
:100B900020F92327983061F160F491114CC2309311
:100BA000C0028093E2021092C1021092E30202E0BE
:100BB00006C09031E1F1983109F46EC03CC20117D2
:100BC00078F4FE01E00FF11D618167956627679556
:100BD0008081680F81E494E00E94240D0E5FEFCFC6
:100BE00081E00E94B30A83E191E00197F1F723C20B
:100BF0004B816A81163069F470E030E8439F600DE4
:100C0000711D11244D814795442747959C81490FBB
:100C100006C0479544274795460F6FEF7FEFDF915A
:100C2000CF911F910F91FF90EF900C94F604E091FB
:100C30000001E73054F08BEA91E0DF91CF911F91F2
:100C40000F91FF90EF900C94700A9B813A8166306F
:100C500071F4632F70E0F0E89F9F600D711D112407
:100C60009D819795992797954C81940F06C09795EC
:100C700099279795930F6FEF7FEFEF5FE093000158
:100C800035E0E302F0011124EE59FD4F80837283B9
:100C9000618393832483CFC12091000112163CF419
:100CA00090E0622F022E000C770B35E00FC08FEF23
:100CB00080930001C0C1349FF001359FF00D1124D5
:100CC000EE59FD4F4081841739F09F5F492F50E066
:100CD0006417750784F790E085E022C09830F8F437
:100CE000FA0131968E9FD0018F9FB00D1124AE591D
:100CF000BD4F3C91849FF001859FF00D1124EE596A
:100D0000FD4F308311964D915C9112975283418330
:100D100013963C911397338314963C9134839F5FD1
:100D2000492F50E064177507CCF62150209300013D
:100D300082C1623070F02981888190E0E0E82E9FC6
:100D4000800D911D1124009721F090934B02809308
:100D50004A028091AF0481116EC1C0E08EEE8C0F0B
:100D6000823028F466E070E08C2F0E942703CF5F6A
:100D7000C431A1F781E08093AF041092D2041092A5
:100D8000D1041092C1021092E3021092BF0280932C
:100D9000BE021092990261E082E10E94570B61E06D
:100DA00083E10E94570B8091B9008E7F8093B90038
:100DB0008091B9008D7F8093B90088E48093B8005A
:100DC00085E48093BC0089EC9CE09093D4048093EC
:100DD000D3048AEC9CE09093D6048093D5042BC175
:100DE000653008F428C118818EEF810F823108F038
:100DF00022C10981EA80FB80CC81E12FF0E0E85636
:100E0000FB4F80818C30B0F490E0FC01EE0FFF1FAF
:100E10008E0F9F1FFC01EE58FB4F808190E0FC017C
:100E2000EE0FFF1F8E0F9F1FFC01E35BFB4F8081C6
:100E300086FDFDC04F2D50E0F0E8CF9F400D511DC5
:100E40001124602F70E020E8E29E600D711D1124D6
:100E5000812F0E94E90264E070E0812FDF91CF9141
:100E60001F910F91FF90EF900C942703623008F4CC
:100E7000E2C02981888190E030E8239F800D911D98
:100E80001124009711F481E090E090930201809387
:100E90000101D1C0623008F4CEC0698170E0123027
:100EA00091F08A81E0E88E9FC0011124682B792B94
:100EB000133049F08B8190E090E4899F902D882732
:100EC0001124682B792B8881DF91CF911F910F918D
:100ED000FF90EF900C94C20180EF0E94A60A8CE66E
:100EE0000E94A60ACEEF84EF8C0F863038F482E0A1
:100EF0000E94A60A8AE00E94A60A09C0C13039F4FD
:100F000083E00E94A60A88E00E94A60A08C08DEF2E
:100F10008C0F8230A8F389EF8C0F833088F3C231B5
:100F200030F484E00E94A60A8EE00E94A60A80EFB8
:100F30008C0F823030F486E00E94A60A81E00E9485
:100F4000A60A8FE70E94A60ACF5FC23121F1C23103
:100F500050F680E00E94A60A81E00E94A60A8BE07B
:100F60000E94A60A81E00E94A60A81E00E94A60AC9
:100F700081E00E94A60AB7CF662309F45CC0C8814D
:100F800080EF0E94A60A8EE60E94A60A8C2F0E947D
:100F9000A60AC43148F087EFDF91CF911F910F91DE
:100FA000FF90EF900C94A60AD0E0FE01EC5FFB4F9F
:100FB00080810E94A60ACC0FDD1F8E01085E1B4FA8
:100FC000F80180818F770E94A60AF80180819181C3
:100FD0009C012078232B39F0880F892F881F990BCB
:100FE0008F770E94A60AC85EDB4F888199819C0199
:100FF0002227307C232B79F2990F880B990F982F99
:10100000881F8F770E94A60AC6CF80EF0E94A60A8B
:101010008AE60E94A60AC2EFC63010F48C2F01C0E7
:101020008FE70E94A60ACF5FC630B1F7B4CF812FF9
:101030000E94A500FFCEDF91CF911F910F91FF90ED
:10104000EF900895CF92DF92EF92FF920F931F934C
:10105000CF93DF936C017A018B01C0E0D0E0CE1515
:10106000DF0581F0D8016D918D01D601ED91FC91E4
:101070000190F081E02DC6010995892B11F0219690
:10108000EECF7E01C701DF91CF911F910F91FF90AD
:10109000EF90DF90CF900895FC01538D448D252F64
:1010A00030E0842F90E0821B930B541710F0CF9602
:1010B000089501970895FC01918D828D981761F034
:1010C000828DDF01A80FB11D5D968C91928D9F5F7F
:1010D0009F73928F90E008958FEF9FEF0895FC012A
:1010E000918D828D981731F0828DE80FF11D858DDD
:1010F00090E008958FEF9FEF08950E94C21784EE4D
:1011000092E00E94310C21E0892B09F420E0822F2B
:101110000895EF92FF920F931F93CF93DF93EC010B
:1011200081E0888F9B8D8C8D981305C0E889F989A3
:10113000808185FD26C0F62E0B8D10E00F5F1F4FBE
:101140000F731127E02E8C8DE8120CC00FB607FC30
:10115000FACFE889F989808185FFF5CFCE010E9419
:10116000A90DF1CF8B8DFE01E80FF11DE35AFF4F62
:10117000F0829FB7F8940B8FEA89FB8980818062A7
:101180000AC09FB7F894EE89FF896083E889F989DE
:1011900080818370806480839FBF81E090E0DF91D5
:1011A000CF911F910F91FF90EF900895CF93DF9310
:1011B000EC01888D8823C9F0EA89FB89808185FD4F
:1011C00005C0A889B9898C9186FD0FC00FB607FCB0
:1011D000F5CF808185FFF2CFA889B9898C9185FFF1
:1011E000EDCFCE010E94A90DE7CFDF91CF910895F9
:1011F0003FB7F8948091950290919602A091970242
:10120000B091980226B5A89B05C02F3F19F0019612
:10121000A11DB11D3FBFBA2FA92F982F8827820F7C
:10122000911DA11DB11DBC01CD0142E0660F771FCC
:10123000881F991F4A95D1F708951F920F920FB6F4
:101240000F9211242F933F938F939F93AF93BF934C
:101250008091910290919202A0919302B091940298
:101260003091900223E0230F2D3720F40196A11D29
:10127000B11D05C026E8230F0296A11DB11D2093C4
:1012800090028093910290939202A0939302B09364
:1012900094028091950290919602A0919702B0914C
:1012A00098020196A11DB11D80939502909396021C
:1012B000A0939702B0939802BF91AF919F918F91A5
:1012C0003F912F910F900FBE0F901F9018951F9276
:1012D0000F920FB60F9211242F933F934F935F936A
:1012E0006F937F938F939F93AF93BF93EF93FF93EE
:1012F00084EE92E00E94A90DFF91EF91BF91AF9112
:101300009F918F917F916F915F914F913F912F911D
:101310000F900FBE0F901F9018951F920F920FB64F
:101320000F9211242F938F939F93EF93FF93E0914C
:10133000F402F091F5028081E091FA02F091FB0253
:1013400082FD12C090818091FD028F5F8F7320918A
:10135000FE02821751F0E091FD02F0E0EC51FD4FEA
:10136000958F8093FD0201C08081FF91EF919F9145
:101370008F912F910F900FBE0F901F9018951F9374
:10138000CF93DF9300D0CDB7DEB7182F7A83698370
:101390008091C1039091C203009709F44EC0DC0113
:1013A000ED91FC911031A8F46115704490F4612F17
:1013B000606E0190F081E02D099522E030E0AE01F1
:1013C0004F5F5F4F62E070E081EC93E00E94D50DCB
:1013D00034C00190F081E02D60EF09958091C10348
:1013E0009091C203DC01ED91FC910190F081E02D20
:1013F0006FE609958091C1039091C203DC01ED91E4
:10140000FC910190F081E02D612F099522E030E000
:10141000AE014F5F5F4F62E070E081EC93E00E94AD
:10142000D50D8091C1039091C203DC01ED91FC9137
:101430000190F081E02D67EF09950F900F90DF91FB
:10144000CF911F910895EF92FF920F931F93CF9327
:10145000DF93C82F8091C1039091C2030097C9F117
:101460007A018B01DC01ED91FC910190F081E02D7E
:1014700060EF09958091C1039091C203DC01ED9169
:10148000FC910190F081E02D6C2F0995E7010E0D84
:101490001F1DC017D10759F020E030E0AE0161E018
:1014A00070E081EC93E00E94D50D2196F2CF8091FF
:1014B000C1039091C203DC01ED91FC910190F08198
:1014C000E02D67EFDF91CF911F910F91FF90EF908B
:1014D0000994DF91CF911F910F91FF90EF900895A4
:1014E000FC0101900020E9F73197BF01681B790BDF
:1014F000AC0181E70C94230ACF93DF93FC01A08118
:10150000B181109701F1EC01ED91FC9111970190DF
:10151000F081E02D69EFCD01099588819981DC0189
:10152000ED91FC910190F081E02D62E009958881B8
:101530009981DC01ED91FC910190F081E02D65E055
:10154000DF91CF910994DF91CF910895A091FF038E
:10155000B0910004ED91FC9111970190F081E02D84
:10156000682FCD010994282F3091E302313208F021
:101570004AC08091BF028111FCCF9091E20242E00B
:101580004093BF022093BE022FEF2093BD02109222
:10159000BC023093BB02E2ECF2E0ABE9B2E020E047
:1015A000321721F041914D932F5FFACF10929A029A
:1015B00020919A02990F922B90939A0290919902FE
:1015C000913061F41092990290919A029093BB002D
:1015D0009091BC0093FDF8CF95EC01C095EE9093EF
:1015E000BC009091BF029230E1F39091BD029F3F09
:1015F00079F08091BD02803241F08091BD0280334C
:1016000031F084E005C081E003C082E001C083E0E6
:101610001092C1021092E3021092C00208951F932B
:10162000CF93DF93182FEB018091C6039091C703EE
:1016300068177907A8F0E091F303F091F40381E0D3
:101640003097C1F08093C3038091DF039091E00352
:1016500009958091C6039091C703C817D90748F42C
:101660008091C4039091C503C80FD91F188380E0EF
:1016700001C081E0DF91CF911F910895AC01FB0182
:1016800080E090E09C01220F331F2417350770F48F
:10169000DB012C91208311963C91379533273795A8
:1016A000232B219301966E5F7F4FECCF089590E03E
:1016B000FC01E052FF4F2491FC01E453FF4F3491B1
:1016C000FC01E854FF4FE491EE2309F43CC02223CF
:1016D00039F1233091F038F42130A9F0223001F5AE
:1016E00084B58F7D12C0273091F02830A1F02430CE
:1016F000B9F4809180008F7D03C0809180008F7746
:10170000809380000DC084B58F7784BD09C080911F
:10171000B0008F7703C08091B0008F7D8093B000C0
:10172000F0E0EE0FFF1FE255FF4FA591B4919FB778
:10173000F894611104C08C913095382302C0EC916B
:101740003E2B3C939FBF0895CF93DF9390E0FC0125
:10175000E453FF4F2491FC01E854FF4F8491882308
:1017600061F190E0880F991FFC01EC55FF4FC59186
:10177000D491FC01E255FF4FA591B491611109C0CC
:101780009FB7F8948881209582238883EC912E233B
:101790000BC0623061F49FB7F8948881322F309586
:1017A00083238883EC912E2B2C939FBF06C08FB789
:1017B000F894E8812E2B28838FBFDF91CF91089575
:1017C0008E3008F08E508770806480937C0080910A
:1017D0007A00806480937A0080917A0086FDFCCF45
:1017E000809178002091790090E0922B08958F925B
:1017F0009F92AF92BF92CF92DF92EF92FF926B01D6
:101800007C010E94F8084B015C01C114D104E10481
:10181000F104F1F00E94F808DC01CB018819990964
:10182000AA09BB09883E9340A105B10570F321E0E8
:10183000C21AD108E108F10888EE880E83E0981EEC
:10184000A11CB11CC114D104E104F10419F7DDCFCE
:10185000FF90EF90DF90CF90BF90AF909F908F90D0
:101860000895FC01918D228D892F90E0805C9F4F1F
:10187000821B91098F739927089580E090E0892B4E
:1018800029F00E947F0881110C9400000895E091D6
:101890005A02F0915B02309709F009940895862F5F
:1018A000642FE0915802F0915902309711F0A9018C
:1018B000099408950895862FE0915002F091510205
:1018C000309711F0BA0109940895862FE0915202E1
:1018D000F0915302309711F0BA0109940895862FC0
:1018E000E0914C02F0914D02309711F0BA01099449
:1018F0000895862FE0914E02F0914F02309711F03B
:10190000BA0109940895862FE0915402F09155028E
:10191000309711F0BA0109940895862FE09156028C
:10192000F0915702309711F0BA010994089585EDAE
:101930008093BC008091BC0084FDFCCF1092BF025C
:1019400008954091F804262F30E0240F311D2132F4
:101950003105DCF42091BF022430C9F4FC0180E0A1
:1019600090E0861758F43091F8042191DC01A852D8
:10197000BB4FA30FB11D2C930196F3CF8091F804B8
:10198000680F6093F80480E0089581E0089582E094
:101990000895089508950895E091D2048091D104A6
:1019A000E81730F4F0E0EF54FB4F808190E00895A9
:1019B0008FEF9FEF08959091D2048091D1049817F2
:1019C00050F4E92FF0E0EF54FB4F208130E09F5FAF
:1019D0009093D20402C02FEF3FEFC9010895809188
:1019E000D10490E02091D204821B91090895CF92F6
:1019F000DF92EF92FF920F931F93CF93DF937C01BF
:101A0000CB018A012091C002222389F0EB016B01F6
:101A1000C40ED51ECC15DD0569F06991D701ED9195
:101A2000FC910190F081E02DC7010995F3CF642F5F
:101A30000E94A10CC801DF91CF911F910F91FF90DF
:101A4000EF90DF90CF900895CF93DF931F92CDB7A3
:101A5000DEB769832091C0022223D1F02091E302F6
:101A6000203240F021E030E0FC013383228380E02B
:101A700090E015C08091C102E82FF0E0EE53FD4FD9
:101A8000998190838F5F8093C1028093E30205C0A8
:101A900061E0CE0101960E94A10C81E090E00F90E0
:101AA000DF91CF910895089580E090E00895009728
:101AB00021F0805C9F4F0C947C0A08950F931F9334
:101AC000CF93DF9381E08093B0048091AF048823AB
:101AD00029F01092AF048FEF8093000110925F0203
:101AE00010925C021092AC041092600210925D029F
:101AF0001092AD041092610210925E021092AE0438
:101B000008E914E0C0E0DFEF82EF8C0F863018F4B4
:101B100062E070E006C08EEF8C0F823128F461E045
:101B200070E08C2F0E942703F801D1938F01CF5FC3
:101B3000C43151F710928B0210928A0210929704CE
:101B4000109296041092B004DF91CF911F910F91E3
:101B50000895FC01848DDF01A80FB11DA35ABF4F6A
:101B60002C91848D90E001968F739927848FA6899C
:101B7000B7892C93A089B1898C91837080648C93F0
:101B8000938D848D981306C00288F389E02D80819F
:101B90008F7D808308951F920F920FB60F921124AC
:101BA0000F900FBE0F901F9018953F924F925F922B
:101BB0006F927F928F929F92AF92BF92CF92DF925D
:101BC000EF92FF920F931F93CF93DF935C01690114
:101BD000DA013C90232B19F4CC24CA94DC2C7A0132
:101BE0002A01460E571EC0E0D0E000E010E087E07A
:101BF000682E712CE414F50409F443C00C151D057E
:101C000008F067C04701F50180819181D7016D918E
:101C10007D010C2E01C0660F0A94EAF763296F77E5
:101C2000DC01ED91FC910190F081E02D09950F5FB1
:101C30001F4FF401608170E0C3018C1B9D0B02C03B
:101C4000759567958A95E2F7362E2196C730D105AE
:101C500088F2C016D10699F0D5018D919C91632D23
:101C60006F77DC01ED91FC910190F081E02D0995F9
:101C70000F5F1F4F331C3324331C2797E7CF860198
:101C8000B9CF209731F10C151D0518F5F5018081AC
:101C9000918161E070E001C0660FCA95EAF761507A
:101CA0006321DC01ED91FC910190F081E02DDF9149
:101CB000CF911F910F91FF90EF90DF90CF90BF9049
:101CC000AF909F908F907F906F905F904F903F90DC
:101CD0000994DF91CF911F910F91FF90EF90DF90CA
:101CE000CF90BF90AF909F908F907F906F905F90BC
:101CF0004F903F900895DF92EF92FF920F931F93C2
:101D0000CF93DF93FC01E058FF4FD080DD2009F432
:101D10005DC0EC01C05CDF4FA881B981109709F468
:101D200055C0FC01EF57FF4F00811181F801F18090
:101D3000E080ED91FC9111970190F081E02D60EF32
:101D4000CD01099588819981DC01ED91FC9101908B
:101D5000F081E02D69E7099588819981DC01ED9199
:101D6000FC910190F081E02D6E2D0995888199817B
:101D7000DC01ED91FC910190F081E02D6F2D099532
:101D80007801B2E0EB0EF11C0D0D111DE016F1060D
:101D900061F020E030E0A70161E070E0CE010E9438
:101DA000D50DEFEFEE1AFE0AF1CF88819981DC01A3
:101DB000ED91FC910190F081E02D67EFDF91CF91E3
:101DC0001F910F91FF90EF90DF900994DF91CF91D9
:101DD0001F910F91FF90EF90DF900895009711F001
:101DE0000C947B0E08951F920F920FB60F92112440
:101DF0002F933F934F935F936F937F938F939F9313
:101E0000AF93BF93EF93FF938091B900887F8036A3
:101E100009F49CC068F5883209F45BC090F4803105
:101E200009F454C038F4882309F4F6C0883009F462
:101E30004DC0F6C0883109F44CC0803209F45DC051
:101E4000EFC0803409F468C048F4803309F455C009
:101E5000883309F0E5C08093BD02D8C0803509F40D
:101E60004FC0883509F45DC0883409F0D9C0D6C0A8
:101E7000883909F4C7C0A8F4883709F467C038F472
:101E8000883609F463C0803709F460C0C9C0883857
:101E900009F4B8C0803909F45FC0803809F0C0C0C7
:101EA0005BC0803B09F486C038F4803A09F466C010
:101EB000883A09F47FC0B4C0803C09F4A7C0883CCC
:101EC00009F4A4C0883B09F48AC0AAC080919A0290
:101ED00010C09091BC028091BB02981770F5E09100
:101EE000BC0281E08E0F8093BC02F0E0E556FD4F0E
:101EF00080818093BB0085EC86C08093BD028EC03C
:101F0000E091BC0281E08E0F8093BC028091BB0007
:101F1000F0E0E556FD4F80839091BC028091BB02BA
:101F20006EC0E091BC0281E08E0F8093BC02809174
:101F3000BB00F0E0E556FD4F80838091BE02811129
:101F40006DC081E08093990284EA61C083E0809350
:101F5000BF0210921A05CFCF80911A05803208F087
:101F600051C0E0911A0581E08E0F80931A0580918F
:101F7000BB00F0E0E650FB4F8083BDCF85EC809343
:101F8000BC001092BF0280911A05803230F4E091BB
:101F90001A05F0E0E650FB4F108260911A0570E0E0
:101FA000E091D504F091D6048AEF94E0099510925F
:101FB0001A0536C084E08093BF021092F904109293
:101FC000F804E091D304F091D40409958091F804C9
:101FD000811105C081E08093F8041092D804E0914B
:101FE000F90481E08E0F8093F904F0E0E852FB4F92
:101FF00080818093BB009091F9048091F804981738
:1020000008F479CF85E88093BC000AC085EC809302
:10201000BC001092BF0204C01092BD020E94970C37
:10202000FF91EF91BF91AF919F918F917F916F91B0
:102030005F914F913F912F910F900FBE0F901F9086
:102040001895DF92EF92FF920F931F93CF93DF9338
:10205000EC01D62E7A01890188818C3008F068C0A5
:1020600061E08D2D0E94A40B8881E82FF0E09F0194
:10207000220F331FE20FF31FE35BFB4F9D2D9F7376
:102080002081207CD22ED92AD08220E232E02E1963
:102090003F0937FF02C02D5F3F4F35952795359596
:1020A0002795298320E639E0201B310B37FF02C03A
:1020B0002D5F3F4F35952795359527952A836CE001
:1020C0000E948F169CE0899FB001112440E050E0EF
:1020D0009B01240F351FF901EE0FFF1F2E0F3F1F2D
:1020E000F901E35BFB4F908196FD16C04F5F5F4F98
:1020F0004C30510569F781110FC01092800082E0C9
:10210000809381001092850010928400B19A809192
:102110006F00826080936F00E881F0E0CF01880F4C
:10212000991FE80FF91FE35BFB4F80818064808378
:102130008881DF91CF911F910F91FF90EF90DF90F9
:1021400008951F920F920FB60F9211242F933F9371
:102150004F935F936F937F938F939F93AF93BF93AF
:10216000EF93FF938091D70487FF05C010928500FD
:10217000109284001BC02091D704022E000C330B58
:102180008091710490E02817390784F48091D70476
:10219000082E000C990BFC01EE0FFF1F8E0F9F1FE6
:1021A000FC01E35BFB4F808186FD15C08091D70465
:1021B0008F5F8093D7042091D704022E000C330B3D
:1021C0008091710490E028173907C4F48091D704F6
:1021D0008C3064F113C08091D704082E000C990B49
:1021E000FC01EE0FFF1F8E0F9F1FFC01E35BFB4FF7
:1021F000808160E08F730E94570BD8CF809184005C
:1022000090918500049680349C4918F480E49CE900
:1022100005C0809184009091850004969093890078
:10222000809388008FEF8093D7043BC02091840077
:10223000309185008091D704082E000C990BFC0189
:10224000EE0FFF1F8E0F9F1FFC01E35BFB4F818191
:102250009281820F931F90938900809388008091D0
:10226000D704082E000C990BFC01EE0FFF1F8E0FF8
:102270009F1FFC01E35BFB4F808186FF12C08091B2
:10228000D704082E000C990BFC01EE0FFF1F8E0FD8
:102290009F1FFC01E35BFB4F808161E08F730E9415
:1022A000570BFF91EF91BF91AF919F918F917F91CC
:1022B0006F915F914F913F912F910F900FBE0F90B3
:1022C0001F901895789484B5826084BD84B5816030
:1022D00084BD85B5826085BD85B5816085BD8091F1
:1022E0006E00816080936E00109281008091810069
:1022F0008260809381008091810081608093810061
:10230000809180008160809380008091B100846022
:102310008093B1008091B00081608093B000809183
:102320007A00846080937A0080917A008260809342
:102330007A0080917A00816080937A0080917A009F
:10234000806880937A001092C10085E18093010437
:1023500080910204909103040E943917C0910104F6
:10236000D0E0CE0101960E94A116909303048093C1
:102370000204FC01EC0FFD1F108212E0DC011C9333
:1023800025E011962C93AE01425051096AEE71E09E
:1023900002960E94C71782EC91E0909357028093B7
:1023A000560282E291E090935502809354028DEEA2
:1023B00090E090935302809352028FEC94E09093BC
:1023C00051028093500287E293E090934F028093F2
:1023D0004E0288ED90E090934D0280934C0288EA83
:1023E00095E090935902809358028EE59DE090937A
:1023F0005B0280935A02E091F402F091F50210839F
:10240000E091F402F091F5021082E091F002F09177
:10241000F1021082E091F202F091F30280E18083F8
:102420001092FC02E091F802F091F90286E08083BC
:10243000E091F602F091F702808180618083E09163
:10244000F602F091F702808188608083E091F602C5
:10245000F091F702808180688083E091F602F0912C
:10246000F70280818F7D808380914004811140C07C
:1024700061E08DE00E94A40BC0E062ED70E080E0BE
:1024800090E00E94F70B61E08DE00E94570B68E23C
:1024900070E080E090E00E94F70B60E08DE00E9429
:1024A000570BCF5FC23049F76AEF70E080E090E0F1
:1024B0000E94F70BC0E062ED70E080E090E00E94C7
:1024C000F70B61E08DE00E94570B68E270E080E05E
:1024D00090E00E94F70B60E08DE00E94570BCF5F09
:1024E000C53049F76DE770E080E090E00E94F70B9F
:1024F00084EE92E0909300048093FF039093C203D4
:102500008093C10381EC93E00E947C0A81E893E010
:102510000E947B0E0E945E0DEE24E394C2E0D0E0A8
:1025200001E010E025E0D22E80915F02882349F07F
:1025300069B180915C0268236C7F40E080E00E947A
:102540008D0480916002882381F083B196B1682F59
:102550006F73B0E49B9FC0011124862B60915D02D4
:10256000682340E081E00E948D048091610288230D
:1025700059F066B16C736695669580915E0268232A
:1025800040E082E00E948D048091FF03909100045E
:10259000DC01ED91FC910084F185E02D0995892BFA
:1025A00009F4CEC18091FF0390910004DC01ED910C
:1025B000FC910284F385E02D09959C018F3FBFEFCC
:1025C0009B0711F3982F8091CC03882309F492C0C4
:1025D000973F09F07EC01092CC03A091C403B09144
:1025E000C5036C916137C1F1693709F05CC0E091B6
:1025F000F903F091FA03309739F28091CD0390916D
:10260000CE038330910538F420E030E040E050E024
:1026100060E070E01BC0BD016D5F7F4F03970E94BB
:102620003E0BBC016D5F7F4F80E00E940F0BE0917D
:10263000C403F091C5039F012D5F3F4F428150E0DD
:10264000618170E0E091F903F091FA038091DB037E
:102650009091DC03099598CF8091F5039091F60352
:10266000892B09F491CFBD016F5F7F4F8091CD031E
:102670009091CE0301970E943E0BBC016F5F7F4F8C
:1026800080E00E940F0B6091C4037091C5036F5FDF
:102690007F4FE091F503F091F6038091E103909173
:1026A000E203099571CFE091F703F091F8033097B9
:1026B00009F46ACF9D012F5F3F4F4091CD035091A8
:1026C000CE03415051098091E3039091E4030995B1
:1026D0005BCF6091CD037091CE03822F0E940F0BD0
:1026E0008091CD039091CE0301969093CE03809379
:1026F000CD034ACF6091CA037091CB036115710578
:1027000009F4AFC027FDADC0615071097093CB03D0
:102710006093CA03822F0E940F0B8091CA0390918D
:10272000CB03892B09F030CF8091C803882309F4AB
:102730002BCF803D09F47FC030F4803939F1803CE3
:1027400009F466C08BC0843FE1F1853F09F44DC0B8
:10275000803E09F083C0E091E703F091E8033097F1
:1027600009F47CC0A091C403B091C5038C9111966B
:102770004C9150E020E8829F400D511D1124609142
:10278000C9038091CF039091D00367C0E091E90322
:10279000F091EA03309709F461C0A091C403B091AD
:1027A000C5038C9111964C9150E090E8899F400DA3
:1027B000511D11246091C9038091D1039091D203DE
:1027C0004CC0E091EF03F091F003309709F446C05C
:1027D000A091C403B091C5034C9150E011966C9147
:1027E0008091D7039091D80338C0E091F103F09124
:1027F000F203309799F1A091C403B091C5034C91B5
:1028000050E011966C918091D9039091DA0325C024
:10281000E091EB03F091EC03309701F1A091C40338
:10282000B091C5034C9150E06091C9038091D303EE
:102830009091D40312C0E091ED03F091EE03309734
:1028400069F0A091C403B091C5034C9150E0609130
:10285000C9038091D5039091D60309951092C803BE
:1028600093CE903F30F4822F8F708093C903922FC4
:10287000907F903F79F158F4903C29F118F4903909
:10288000E9F082CE903DF9F0903EC1F07DCE993FC7
:1028900009F449C028F48CE0890F823078F074CEB6
:1028A0009F3F09F071CE1092CB031092CA03109291
:1028B000C8031092C90380E090E013C0D093CB030B
:1028C000C093CA0304C01093CB030093CA03909330
:1028D000C8035ACEE092CC031092CE031092CD03DF
:1028E00053CE2091C6033091C7038217930748F453
:1028F000E091C403F091C503E80FF91F108201961F
:10290000F0CF1092CC031092CE031092CD03E09141
:10291000FD03F091FE03309709F436CE8091E50374
:102920009091E6030BC0E091FB03F091FC0330971C
:1029300009F42ACE8091DD039091DE03099524CE1F
:102940008FB7F89440919102509192026091930256
:10295000709194028FBF80908C0290908D02A09015
:102960008E02B0908F022091010130910201C901C5
:10297000A0E0B0E0481959096A097B098417950756
:10298000A607B70708F052C0880D991DAA1DBB1DE8
:1029900080938C0290938D02A0938E02B0938F024D
:1029A00084E0A82E84E0B82E92EFF92EA5E0AF15B2
:1029B000B8F0F5018081823099F480918A0290917B
:1029C0008B020F2C02C0959587950A94E2F780FF41
:1029D00007C08F2D0E94E00BBC018F2D0E94BF0904
:1029E000F394FFEFAF1ABF0A26E0F212DFCF809117
:1029F000000187FD1BC0F12C2F2D30E080910001DC
:102A0000082E000C990B8217930784F0D29EF001D8
:102A1000D39EF00D1124EE59FD4F61817281248106
:102A2000438180810E94F604F394E6CF0E943D0C1E
:102A30007BCD1092E7021092E60248EE53E060E090
:102A400070E04093E8025093E9026093EA027093C9
:102A5000EB028DE091E09093E5028093E40285EC37
:102A600090E09093F1028093F00284EC90E09093D8
:102A7000F3028093F20280EC90E09093F502809351
:102A8000F40281EC90E09093F7028093F60282ECDE
:102A900090E09093F9028093F80286EC90E0909396
:102AA000FB028093FA021092FD021092FE02109235
:102AB000FF021092000381E893E01092C20310928B
:102AC000C1039093C5038093C40320E430E03093A6
:102AD000C7032093C6031092C8031092C903109233
:102AE000CB031092CA031092CC031092CE03109223
:102AF000CD031092D0031092CF031092D203109204
:102B0000D1031092D4031092D3031092D6031092E3
:102B1000D5031092D8031092D7031092DA031092C3
:102B2000D9031092E0031092DF031092E203109297
:102B3000E1031092E4031092E3031092E603109273
:102B4000E5031092F4031092F3031092C303109262
:102B500001041092030410920204109240042DE824
:102B60003CE03093E8032093E70323E83CE0309314
:102B7000EA032093E90325E63CE03093EC0320933D
:102B8000EB032BE53CE03093EE032093ED0329E7C4
:102B90003CE03093F0032093EF032FE63CE03093CA
:102BA000F2032093F1032AE53CE03093F6032093EF
:102BB000F5032FE43CE03093F8032093F7032EEE67
:102BC0003EE03093FA032093F9039093DC03809363
:102BD000DB0327E53DE03093FC032093FB03909358
:102BE000DE038093DD0387E49CE09093FE038093F3
:102BF000FD03109244041092430440934504509303
:102C0000460460934704709348048FE191E09093E9
:102C100042048093410480917104A2E7B4E09FEFE5
:102C200048EB5BE08C3078F48C93282F30E0F9018E
:102C3000EE0FFF1F2E0F3F1FF901E35BFB4F528387
:102C400041838F5F01C09C93139624E0A639B2079D
:102C500049F7809371040895052E97FB1EF40094A4
:102C60000E94431657FD07D00E945E1607FC03D052
:102C70004EF40C94431650954095309521953F4F56
:102C80004F4F5F4F089590958095709561957F4F58
:102C90008F4F9F4F08950E948016A59F900DB49F5F
:102CA000900DA49F800D911D11240895B7FF0C94E1
:102CB0004B160E944B16821B930B0895A1E21A2E0D
:102CC000AA1BBB1BFD010DC0AA1FBB1FEE1FFF1FD0
:102CD000A217B307E407F50720F0A21BB30BE40B20
:102CE000F50B661F771F881F991F1A9469F7609567
:102CF0007095809590959B01AC01BD01CF01089521
:102D0000A29FB001B39FC001A39F700D811D11242C
:102D1000911DB29F700D811D1124911D0895991B65
:102D200079E004C0991F961708F0961B881F7A95C2
:102D3000C9F780950895EE0FFF1F0590F491E02DDF
:102D400009940F931F93CF93DF938230910510F472
:102D500082E090E0E0911F05F091200520E030E056
:102D6000A0E0B0E0309719F14081518102811381D8
:102D700048175907C8F08417950769F4109731F080
:102D800012960C93129713961C9327C000931F055D
:102D90001093200522C02115310519F04217530761
:102DA00018F49A01BD01EF01DF01F801DBCF211515
:102DB0003105F9F0281B390B2430310580F48A8164
:102DC0009B816115710521F0FB019383828304C00F
:102DD0009093200580931F05FE01329644C0FE01AA
:102DE000E20FF31F81939193225031093983288395
:102DF0003AC020911D0530911E05232B41F42091EE
:102E000005013091060130931E0520931D05209188
:102E10000301309104012115310541F42DB73EB76E
:102E20004091070150910801241B350BE0911D05CD
:102E3000F0911E05E217F307A0F42E1B3F0B281795
:102E4000390778F0AC014E5F5F4F2417350748F023
:102E50004E0F5F1F50931E0540931D058193919364
:102E600002C0E0E0F0E0CF01DF91CF911F910F9120
:102E70000895CF93DF93009709F481C0FC01329746
:102E800013821282A0911F05B0912005109781F442
:102E900020813181820F931F20911D0530911E05E5
:102EA0002817390751F5F0931E05E0931D0567C0FB
:102EB000ED0120E030E0CE17DF0740F44A815B816E
:102EC0009E0141155105F1F0EA01F5CFD383C2838C
:102ED00040815181840F951FC817D90759F4888103
:102EE0009981840F951F0296918380838A819B81AB
:102EF000938382832115310529F4F0932005E09313
:102F00001F053DC0E901FB83EA8349915991C40F34
:102F1000D51FEC17FD0761F480819181840F951F07
:102F20000296E90199838883828193819B838A83B6
:102F3000E0E0F0E012968D919C911397009719F0C4
:102F4000FD01DC01F7CF8D919C9111979D012E5FC2
:102F50003F4F820F931F20911D0530911E052817AA
:102F6000390769F4309729F41092200510921F0553
:102F700002C013821282B0931E05A0931D05DF913B
:102F8000CF91089581E090E0F8940C94D617FB015E
:102F9000DC014150504048F001900D920020C9F7EB
:102FA00001C01D9241505040E0F70895F894FFCFC2
:102FB000FF130000002105800000000000890822A6
:102FC000084C08D608310C5B086F0800000000248C
:102FD0000DF70C540DCB0CEF0CDB0CCC0C4D6178C9
:102FE00020736572766F73206174746163686564C1
:102FF00000556E6B6E6F776E2070696E206D6F641A
:1030000065004932433A20546F6F206D616E79201C
:1030100062797465732072656365697665640049D9
:1030200032433A20546F6F20666577206279746569
:10303000732072656365697665640031302D62695D
:10304000742061646472657373696E67206E6F7457
:1030500020737570706F7274656400746F6F206D8B
:10306000616E79207175657269657300433A5C55CC
:10307000736572735C68705C446F63756D656E74C4
:10308000735C41726475696E6F5C5374616E6461E8
:1030900072644669726D6174615C5374616E6461DF
:0E30A00072644669726D6174612E696E6F0014
:00000001FF
