:100000000C945D000C9485000C9485000C94A71052
:100010000C94A7100C94A7100C9485000C948500E8
:100020000C9485000C9485000C9485000C94D011E0
:100030000C9485000C9485000C9485000C9485002C
:100040000C945D100C9485000C942B100C940510EE
:100050000C9485000C9485000C9485000C9485000C
:100060000C94B1100C9485000000000024002700BF
:100070002A0000000000250028002B0004040404CE
:100080000404040402020202020203030303030342
:10009000010204081020408001020408102001021F
:1000A00004081020000000080002010000030407FB
:1000B00000000000000000008C1211241FBECFEFD2
:1000C000D8E0DEBFCDBF11E0A0E0B1E0E8E3F2E3AD
:1000D00002C005900D92A43EB107D9F725E0A4EE29
:1000E000B1E001C01D92A531B207E1F710E0CDE506
:1000F000D0E004C02197FE010E94E017CC35D10763
:10010000C9F70E94A0130C941A190C940000862FB2
:10011000E091CB02F091CC02309711F0BA01099432
:100120000895862FE091C902F091CA02309711F02C
:10013000BA0109940895862FE091C702F091C80290
:10014000309711F0BA0109940895862FE091C50205
:10015000F091C602309711F0BA0109940895862FE4
:10016000E091C302F091C402309711F0BA010994F2
:100170000895862FE091C102F091C202309711F0EC
:10018000BA01099408950895862F642FE091CD0255
:10019000F091CE02309711F0A90109940895E091F1
:1001A000CF02F091D002309709F009940895CF93CF
:1001B000DF93FC01A081B181109701F1EC01ED9179
:1001C000FC9111970190F081E02D69EFCD01099527
:1001D00088819981DC01ED91FC910190F081E02D05
:1001E00062E0099588819981DC01ED91FC91019093
:1001F000F081E02D65E0DF91CF910994DF91CF91FF
:100200000895A0917404B0917504ED91FC9111973B
:100210000190F081E02D682FCD0109941F93CF93B9
:10022000DF93182FEB0180913B0490913C046817F9
:10023000790760F48091390490913A04C80FD91F6E
:10024000188380E0DF91CF911F910895E0916804B9
:10025000F0916904309711F481E0F4CF81E080934C
:1002600038048091540490915504099580913B0481
:1002700090913C04C817D90778F7DCCFCF93DF9370
:10028000EC01FB0130E020E0C901880F991F8C17B9
:100290009D0778F44081DB014D93BD011197918159
:1002A000979599279795942B9C932F5F3F4F329664
:1002B000EBCFC901DF91CF910895009721F0805CC9
:1002C0009F4F0C94D7000895AF92BF92CF92DF92C8
:1002D000EF92FF920F931F93CF93DF936C017B01FB
:1002E0008B01040F151FEB015E01AE18BF08C0178C
:1002F000D10759F06991D601ED91FC910190F081FF
:10030000E02DC6010995892B79F7C501DF91CF91C1
:100310001F910F91FF90EF90DF90CF90BF90AF9023
:100320000895FC01538D448D252F30E0842F90E0FB
:10033000821B930B541710F0CF96089501970895E0
:10034000FC01918D828D981761F0A28DAE0FBF2FA9
:10035000B11D5D968C91928D9F5F9F73928F90E0FF
:1003600008958FEF9FEF0895FC01918D828D98176E
:1003700031F0828DE80FF11D858D90E008958FEFAB
:100380009FEF0895FC01918D228D892F90E0805C74
:100390009F4F821B91098F739927089589E593E0F8
:1003A0000E94C20121E0892B09F420E0822F0895E8
:1003B00080E090E0892B29F00E94CE0181110C94FD
:1003C00000000895FC01A48DA80FB92FB11DA35AF8
:1003D000BF4F2C91848D90E001968F739927848F65
:1003E000A689B7892C93A089B1898C918370806488
:1003F0008C93938D848D981306C00288F389E02D29
:1004000080818F7D80830895EF92FF920F931F93D9
:10041000CF93DF93EC0181E0888F9B8D8C8D9813B7
:100420001AC0E889F989808185FF15C09FB7F894C3
:10043000EE89FF896083E889F9898081837080640F
:1004400080839FBF81E090E0DF91CF911F910F915A
:10045000FF90EF900895F62E0B8D10E00F5F1F4F69
:100460000F731127E02E8C8D8E110CC00FB607FC78
:10047000FACFE889F989808185FFF5CFCE010E9406
:10048000E201F1CFEB8DEC0FFD2FF11DE35AFF4F91
:10049000F0829FB7F8940B8FEA89FB898081806294
:1004A000CFCFCF93DF93EC01888D8823B9F0AA8951
:1004B000BB89E889F9898C9185FD03C0808186FD1F
:1004C0000DC00FB607FCF7CF8C9185FFF2CF80816E
:1004D00085FFEDCFCE010E94E201E9CFDF91CF9100
:1004E000089590E0FC01EC55FF4F2491FC01E0578A
:1004F000FF4F3491FC01E458FF4FE491EE23C9F023
:10050000222339F0233001F1A8F4213019F12230EF
:1005100029F1F0E0EE0FFF1FEE58FF4FA591B491C7
:100520008FB7F894EC91611126C030953E233C932F
:100530008FBF08952730A9F02830C9F0243049F73B
:10054000809180008F7D03C0809180008F778093A1
:100550008000DFCF84B58F7784BDDBCF84B58F7DFE
:10056000FBCF8091B0008F778093B000D2CF809185
:10057000B0008F7DF9CF3E2BDACFCF93DF9390E0A1
:10058000FC01E057FF4F249184589F4FFC01849158
:100590008823C9F090E0880F991FFC01E859FF4FAC
:1005A000A591B491FC01EE58FF4FC591D491611112
:1005B0000DC09FB7F8948C91209582238C938881ED
:1005C000282328839FBFDF91CF910895623051F493
:1005D0009FB7F8943C91822F809583238C93E88178
:1005E0002E2BEFCF8FB7F894EC912E2B2C938FBF3F
:1005F000EACF8E3008F08E508770806480937C0044
:1006000080917A00806480937A0080917A0086FDE0
:10061000FCCF809178009091790008953FB7F894CD
:100620008091BD029091BE02A091BF02B091C00224
:1006300026B5A89B05C02F3F19F00196A11DB11D3D
:100640003FBFBA2FA92F982F8827BC01CD01620F79
:10065000711D811D911D42E0660F771F881F991F34
:100660004A95D1F708958F929F92AF92BF92CF9201
:10067000DF92EF92FF926B017C010E940E034B010F
:100680005C01C114D104E104F104B9F00E940E032D
:10069000681979098A099B09683E734081059105AB
:1006A00080F321E0C21AD108E108F10888EE880E33
:1006B00083E0981EA11CB11CE4CFFF90EF90DF9067
:1006C000CF90BF90AF909F908F9008955F926F9260
:1006D0007F928F929F92AF92BF92CF92DF92EF92D2
:1006E000FF920F931F93CF93DF935C016901DA01AF
:1006F0005C90232B19F4CC24CA94DC2C8A013A0197
:10070000660E771ED0E0C0E0F12CE12C87E0882E49
:10071000912CF50180819181D8016C910C2E01C042
:10072000660F0A94EAF765296F77DC01ED91FC9179
:100730000190F081E02D0995BFEFEB1AFB0AF8015B
:10074000608170E0C4018C1B9D0B02C0759567959C
:100750008A95E2F7562E2196C730D10558F1CE146E
:10076000DF0441F1D5018D919C91652D6F77DC01FE
:10077000ED91FC910190F081E02D0995BFEFEB1A0E
:10078000FB0A551C5524551C2797E6CFEC14FD0495
:1007900008F4BFCFDF91CF911F910F91FF90EF90A1
:1007A000DF90CF90BF90AF909F908F907F906F9091
:1007B0005F9008950F5F1F4F6016710639F72097FD
:1007C00049F3EC14FD0430F7F5018081918161E07B
:1007D00070E001C0660FCA95EAF761506521DC013F
:1007E000ED91FC910190F081E02DDF91CF911F916F
:1007F0000F91FF90EF90DF90CF90BF90AF909F90C0
:100800008F907F906F905F9009941F93CF93DF93A9
:1008100000D0CDB7DEB7182F7A8369838091360474
:10082000909137040097C9F0DC01ED91FC910190A3
:10083000F081E02D1031B8F461157044A0F4612FFF
:10084000606E099522E030E0AE014F5F5F4F62E0DD
:1008500070E086E394E00E9466030F900F90DF91B2
:10086000CF911F91089560EF099580913604909182
:100870003704DC01ED91FC910190F081E02D6FE6F1
:1008800009958091360490913704DC01ED91FC913B
:100890000190F081E02D612F099522E030E0AE015A
:1008A0004F5F5F4F62E070E086E394E00E94660372
:1008B0008091360490913704DC01ED91FC91019018
:1008C000F081E02D67EF0995C8CFEF92FF920F936B
:1008D0001F93CF93DF93C82F8091360490913704F4
:1008E0000097C9F17A018B01DC01ED91FC91019037
:1008F000F081E02D60EF09958091360490913704E6
:10090000DC01ED91FC910190F081E02D6C2F0995B7
:10091000E7010E0D1F1DC017D10759F030E020E090
:10092000AE0161E070E086E394E00E9466032196E8
:10093000F2CF8091360490913704DC01ED91FC9167
:100940000190F081E02D67EFDF91CF911F910F9122
:10095000FF90EF900994DF91CF911F910F91FF903D
:10096000EF900895CF92DF92EF92FF920F931F9333
:10097000CF93DF93FC01E058FF4FE080EE2009F4B5
:100980005CC0EC01C05CDF4FA881B981109709F40D
:1009900054C0FC01EF57FF4FC080D180F601118198
:1009A0000081ED91FC9111970190F081E02D60EFB5
:1009B000CD01099588819981DC01ED91FC9101902F
:1009C000F081E02D69E7099588819981DC01ED913D
:1009D000FC910190F081E02D602F0995888199812B
:1009E000DC01ED91FC910190F081E02D612F0995E2
:1009F000F12C01E010E00F5F1F4FE016F10659F0F7
:100A000030E020E0A601400F511F61E070E0CE0110
:100A10000E946603F0CF88819981DC01ED91FC9101
:100A20000190F081E02D67EFDF91CF911F910F9141
:100A3000FF90EF90DF90CF900994DF91CF911F91BD
:100A40000F91FF90EF90DF90CF900895009711F0F5
:100A50000C94B204089520919502260F3327331F7A
:100A600021323105ECF420912F03FC0190E080E06D
:100A7000243069F082E00895A09195022191AC01A3
:100A80004D585D4FA40FB52FB11D2C9301968617BD
:100A900098F380919502680F6093950280E0089525
:100AA00081E0089510922F0381E080932E0310922D
:100AB000090361E082E10E94710261E083E10E942A
:100AC0007102E9EBF0E080818E7F808380818D7FF1
:100AD000808388E48093B80085E48093BC00089507
:100AE000CF93DF9391E0909372028823B9F0C09185
:100AF000B800D091BA008091BC008A7B8093BC0082
:100B000060E082E10E94710260E083E10E94710274
:100B10000E945205D093BA00C093B800DF91CF91E4
:100B200008958F929F92AF92BF92CF92DF92EF92F1
:100B3000FF920F931F93CF93DF93D0915803D1323D
:100B400008F0D7C0182FC09157030E940E036B0105
:100B50007C0180912F0381116BC082E080932F0371
:100B600010932E038FEF80932D0310922C03D093BC
:100B70002B03A7E3B3E0EBE0F3E080E0D81391C0F0
:100B800010920A0380910A03CC0FC82BC0930A036A
:100B900080910903813009F088C0109209030E94F6
:100BA0000E036B017C0180910A038093BB0080914E
:100BB000310390913203A0913303B0913403892B18
:100BC0008A2B8B2BA1F00E940E0300913103109110
:100BD000320320913303309134036C197D098E095F
:100BE0009F09061717072807390708F442C08091A4
:100BF000BC0083FDD8CF85EC8093BC000E940E031F
:100C00006B017C0180912F03823009F450C08091E8
:100C10002D038F3F09F46FC080912D03803209F4BA
:100C20006CC080912D03803309F469C084E026C034
:100C30008091310390913203A0913303B09134033A
:100C4000892B8A2B8B2B09F484CF0E940E03809072
:100C5000310390903203A0903303B09034036C19A9
:100C60007D098E099F0986169706A806B90608F021
:100C700070CF809130030E94700585E0109236039A
:100C80001092580310923503DF91CF911F910F916D
:100C9000FF90EF90DF90CF90BF90AF909F908F909C
:100CA00008959D9191938F5F69CF85EEA5CF809137
:100CB000310390913203A0913303B0913403892B17
:100CC0008A2B8B2B09F49ECF0E940E0300913103D7
:100CD0001091320320913303309134036C197D0954
:100CE0008E099F09061717072807390708F08ACFCA
:100CF000C0CF81E0C3CF80E0C1CF82E0BFCF83E02F
:100D0000BDCF089508950895E09171028091700219
:100D1000E81730F4F0E0E05BFD4F808190E008954B
:100D20008FEF9FEF089590917102809170022FEFE5
:100D30003FEF981748F4E92FF0E0E05BFD4F20818A
:100D400030E09F5F90937102C90108958091700215
:100D500090917102891B990B0895CF92DF92EF92C7
:100D6000FF920F931F93CF93DF937C01CB018A01F6
:100D700020913503222389F0EB016B01C40ED51EAF
:100D8000CC15DD0569F06991D701ED91FC910190D9
:100D9000F081E02DC7010995F3CF642F0E942B0548
:100DA000C801DF91CF911F910F91FF90EF90DF90DD
:100DB000CF900895CF93DF931F92CDB7DEB76983AD
:100DC000209135032223F9F020915803203258F066
:100DD00021E030E0FC013383228390E080E00F903B
:100DE000DF91CF91089580913603E82FF0E0E95C20
:100DF000FC4F998190838F5F8093360380935803D3
:100E000081E090E0ECCF61E0CE0101960E942B05DD
:100E1000F7CF90E080E00895DF92EF92FF920F937A
:100E20001F93CF93DF93EC01D62E7A01890188813D
:100E30008C3008F067C061E08D2D0E94BD02888172
:100E4000282F30E0F901EE0FFF1FE20FF31FE853E8
:100E5000FB4F9D2D9F736081607C692B608320E236
:100E600032E02E193F0937FF02C02D5F3F4F359505
:100E7000279535952795298320E639E0201B310BEE
:100E800037FF02C02D5F3F4F359527953595279544
:100E90002A832CE0622F0E94D417829FB001112474
:100EA00030E020E0AB01420F531FFA01EE0FFF1FAD
:100EB000E40FF51FE853FB4F908196FD16C02F5F9E
:100EC0003F4F2C30310571F781110FC01092800017
:100ED00082E0809381001092850010928400B19A84
:100EE00080916F00826080936F00E8818E2F90E088
:100EF000FC01EE0FFF1FE80FF91FE853FB4F808145
:100F0000806480838881DF91CF911F910F91FF9042
:100F1000EF90DF900895CF938830B0F421E030E077
:100F2000082E02C0220F331F0A94E2F740910303F8
:100F300050910403672B51F42095309524233523D9
:100F40003093040320930303CF910895242B352B72
:100F5000309304032093030390914E029111F4CF38
:100F6000C82F0E94F902BC018C2FCF910C9405046C
:100F70005F926F927F928F929F92AF92BF92CF9229
:100F8000DF92EF92FF920F931F93CF93DF93833003
:100F900008F061C0D1E0D80FDD0FDD0FDD0F5D2E51
:100FA000D73110F046E1542EC62F082FD8508D2E81
:100FB000912CC401880F991F9C012A503C4F590164
:100FC000D12CC12C10E077247394D515C8F58EEF81
:100FD0008D0F8231F8F4F601E80DF91DE758FB4F4B
:100FE00090819230B8F48C2F87216624639481110C
:100FF00001C0612C7601EE0CFF1C913089F4172999
:1010000039E9E30EF11CF501EE0DFF1D862D90E090
:1010100091838083770CDF5F8FEFC81AD80AD5CF12
:10102000882371F3F701E756FF4FEA0DFB1D80811E
:101030009181019729F362E08D2F0E94BD02E0CFDC
:10104000011119C0F8948BB16C2F68276C7F612354
:1010500068276BB97894DF91CF911F910F91FF9022
:10106000EF90DF90CF90BF90AF909F908F907F9048
:101070006F905F9008950130D1F4C123F89495B139
:10108000812F8F73809589239C2F9F73892B85B91E
:1010900088B1612F62956695669563706095682347
:1010A000C295C695C695C370C62BC8B9D3CF1F705D
:1010B000F89498B1812F880F880F80958923C123D8
:1010C000CC0FCC0FC82BF1CF8F929F92AF92BF92D3
:1010D000CF92DF92EF92FF920F931F93CF93DF9304
:1010E000EB01863108F098C0082F10E0F801E758AE
:1010F000FB4F9081933009F49CC0943009F08CC070
:101100008250823108F081C0F801EC5CFD4FC08054
:10111000D12C7601EE0CFF1C4B01603282E0780787
:101120000CF03EC0F701EC0DFD1DE351FB4F81813A
:10113000A8E88A2E912C881A910887FD9394880C30
:10114000991C880C991C092C000CAA08BB088281E8
:1011500028E532E0281B310987FD3395220F331F24
:10116000220F331F032E000C440B550B281939098D
:101170004A095B09DB01653B710514F0A4EBB0E0A3
:10118000B7FF02C0B0E0A0E00E949B1724EB30E064
:1011900040E050E00E947117820E931EA41EB51EFF
:1011A000F701EC0DFD1DE351FB4F20812C3068F55C
:1011B000318188E890E0831B910937FD9395880F72
:1011C000991F880F991F881699067CF0328188E54F
:1011D00092E0831B910937FD9395880F991F880F23
:1011E000991F881699060CF4C4010297880F991F5D
:1011F0004FB7F89430E0F901EE0FFF1FE20FF31F35
:10120000E853FB4F928381834FBF000F111FF801FA
:10121000E157FB4FD183C083DF91CF911F910F9195
:10122000FF90EF90DF90CF90BF90AF909F908F9006
:1012300008957B01D82F833041F08BEF800F8230EF
:1012400020F087EF800F833058F461E08D2F0E94EB
:10125000BD02E114F10461F460E08D2F0E9471027F
:10126000000F111FF801E157FB4FF182E082D4CF4C
:101270008FEFE816F10411F461E0EFCFF801EC55BF
:10128000FF4FE491E33021F148F4E130B9F0E2306E
:10129000D1F080E8E816F1047CF7DECFE73011F1F9
:1012A000E83041F1E430A9F78091800080628093BA
:1012B0008000F0928B00E0928A00D2CF84B58068E3
:1012C00084BDE7BCCDCF84B5806284BDE8BCC8CF07
:1012D00080918000806880938000F0928900E09285
:1012E0008800BECF8091B00080688093B000E0920B
:1012F000B300B6CF8091B00080628093B000E092DE
:10130000B400AECF9EEF980F923180F4E82FF0E05A
:10131000DF01A758BB4F9C91913041F4EE0FFF1FA6
:10132000E157FB4F608371830C9471020895FF9223
:101330000F931F93CF93DF9300D0CDB7DEB7082F65
:1013400010E0F801EF52FD4F9081F62EF922065B76
:101350001D4F411104C0F80190819F1511F12F2DEF
:1013600030E03A832983A0913604B0913704109776
:10137000B1F0682F6F706069ED91FC911197019049
:10138000F081E02DCD01099522E030E0AE014F5F04
:101390005F4F62E070E086E394E00E946603F8012C
:1013A000F0820F900F90DF91CF911F910F91FF90DE
:1013B0000895833040F5282F30E0F901EC52FD4FBD
:1013C0006083672B01F12F523D4FF901608181113C
:1013D00006C099B19C7F692341E00C949709813044
:1013E00049F493B126B19F73F0E42F9F900111242B
:1013F000922BF1CF26B130E035952795359527957D
:101400002F706223E9CF0895A82FB0E0AC5CBD4FE8
:101410009C91292F30E0F901EE0FFF1FE20FF31F1F
:10142000E351FB4FE0812E2F30E0F901EE0FFF1F5B
:10143000E20FF31FE853FB4F80818F7B8083809105
:101440003202981308C0992319F0915090933202F8
:101450008FEF8C9308958823D9F3E0913302EF5FE7
:10146000E0933302F0E0ED51FE4F9083F1CFFC01A9
:1014700001900020E9F73197BF01681B790BAC019F
:1014800081E70C946504CF93DF93DB0190913202E6
:101490009C3078F530913302682F70E0FB01EC5CF2
:1014A000FD4F3323E1F0C32FD0E0CD51DE4F8881D3
:1014B0008083315030933302808123E0829FC001CA
:1014C000112483519B4F1A161B0674F4141615062B
:1014D0005CF49A01AD01DF91CF910C940C079083DD
:1014E0009F5F90933202E8CF20E639E040E252E07D
:1014F000F2CF8DE291E0DF91CF910C94370A85ED28
:101500008093BC008091310390913203A09133030A
:10151000B09134030796A11DB11D23E0B695A795A0
:10152000979587952A95D1F72091BC0024FD03C09B
:1015300010922F030895409131035091320360912E
:10154000330370913403452B462B472B69F30097E7
:10155000A105B10541F025E32A95F1F700000197B7
:10156000A109B109E1CF809130030C9470059F92DD
:10157000AF92BF92CF92DF92EF92FF920F931F93A1
:10158000CF93DF93C82ED12CE601CA50DC4FFE0169
:10159000ED57FF4F90819F3709F49FC0963061F45B
:1015A00090914D02992341F06630710529F0109217
:1015B0004D029FEF909300017B01182F0EEF080F53
:1015C000023108F564307105F1F0F601EC5CFD4F75
:1015D00080818C30C0F490E0FC01EE0FFF1FE80F1B
:1015E000F91FE351FB4FE0818E2F90E0FC01EE0FDD
:1015F000FF1FE80FF91FE853FB4F808186FF03C0F0
:10160000812F0E94040A52EF952E910E87E08915D2
:1016100058F061E070E032E0E316F10411F070E0A0
:1016200060E0892D0E948B070231C8F4E12FE69516
:10163000E695E695F0E0EF52FD4F2081312F3770AF
:1016400081E090E001C0880F3A95EAF7E114F104D7
:1016500021F03BE0E316F10401F5822B8083560173
:10166000AA0CBB1CF501E157FB4F118210828CE0E4
:10167000E816F10408F0CBC0F701EF5BF44F0C94CF
:10168000E017610B8E0B500BA50BC40B070CFB0B6B
:10169000070C070C070C6D0B790B80958223DECFAE
:1016A00037E03915D0F0023120F460E0812F0E943C
:1016B000BD02CD57DF4F88818F3779F082E0888374
:1016C0000CC0023150F460E0812F0E94BD02CD5762
:1016D000DF4F88818F3709F01882DF91CF911F91FA
:1016E0000F91FF90EF90DF90CF90BF90AF909F90C1
:1016F0000895023190F762E0812F0E94BD02CD571C
:10170000DF4F88818F3711F08BE08883F501E15737
:10171000FB4F81E090E091838083DFCF0231E8F6D8
:10172000FE01ED57FF4F8081833021F460E0812F6F
:101730000E94710261E0812F0E94BD02CD57DF4FF0
:1017400088818F3751F281E0BACF133049F08BEFA7
:10175000810F823028F087EF810F833008F0BDCFF2
:1017600061E0812F0E94BD0261E0812F0E94BD02D5
:1017700060E0812F0E947102CD57DF4F88818F3743
:1017800009F4ABCF83E09BCF023108F0A6CFCD5751
:10179000DF4F88818F3711F084E08883F601EC5C9D
:1017A000FD4F80818F3FA9F090E0FC01EE0FFF1FFD
:1017B000E80FF91FE351FB4FE0818E2F90E0FC0111
:1017C000EE0FFF1FE80FF91FE853FB4F808186FDE6
:1017D00084CF4FEF5FEF6FEF7FEF812FDF91CF91DE
:1017E0001F910F91FF90EF90DF90CF90BF90AF903F
:1017F0009F900C94430A1251123008F06ECFCD57CF
:10180000DF4F88818F3709F468CF86E058CF81E4B5
:1018100091E0DF91CF911F910F91FF90EF90DF90BA
:10182000CF90BF90AF909F900C94370A0F931F9367
:10183000CF93DF9381E080934E0280914D02882305
:1018400029F010924D028FEF809300011092D40284
:101850001092D10210924A021092D5021092D20236
:1018600010924B021092D6021092D30210924C02A8
:1018700004E312E0C0E0DFEF82EF8C0F62E070E083
:10188000883030F08EEF8C0F823128F461E070E008
:101890008C2F0E94B70AF801D1938F01CF5FC63118
:1018A00059F710920403109203031092330210921E
:1018B000320210924E02DF91CF911F910F91089545
:1018C0004F925F926F927F928F929F92AF92BF9250
:1018D000DF92EF92FF920F931F93CF93DF93D82E57
:1018E0008B01D42FC22F6F3F760709F490C081E09F
:1018F00080933503D0925703109236031092580309
:101900008CEB94E00E94DA068C2F0E949105809166
:101910003002909131028230910538F0880F991F82
:10192000880F991F05970197F1F70E940E034B014D
:101930005C0180912F0381116CC0CD2FD13208F052
:10194000C0E281E080932F0380932E039FEF90935A
:101950002D0310922C039C0F90932B0380930A036A
:1019600090910A038D2D880F892B80930A03809113
:101970000903813009F09EC0109209030E940E03F2
:101980004B015C0180910A038093BB00809131037D
:1019900090913203A0913303B0913403892B8A2BA9
:1019A0008B2BA1F00E940E03409031035090320324
:1019B0006090330370903403681979098A099B0990
:1019C000461657066806790608F444C08091BC00A4
:1019D00083FDD8CF85EC8093BC000E940E034B01A1
:1019E0005C0180912F03813009F466C080912C0343
:1019F0008C1710F4C0912C03ABE0B3E0E0E5F2E00B
:101A000080E08C1761F19D9191938F5FFACF00E098
:101A10008CCF8091310390913203A0913303B09128
:101A20003403892B8A2B8B2B09F483CF0E940E035E
:101A30004090310350903203609033037090340330
:101A4000681979098A099B094616570668067906B6
:101A500008F06FCF809130030E947005C0E01092B3
:101A60007102C0937002ED2EF12C8C2F90E0E816DD
:101A7000F9060CF043C082E591E00E94370AD0924B
:101A8000F0010093F10100EF11E0C801805F914087
:101A90008E159F05D4F50F5F1F4F909170028091B6
:101AA0007102981791F18CEB94E00E949306F80173
:101AB0008183EBCF85EE8FCF8091310390913203FC
:101AC000A0913303B0913403892B8A2B8B2B09F41B
:101AD00088CF0E940E0340903103509032036090F3
:101AE000330370903403681979098A099B094616F3
:101AF00057066806790608F074CFACCF8E159F059F
:101B00000CF0BDCF8FE691E0B8CFDE5F6D2F70E0B7
:101B100040EF51E087E7DF91CF911F910F91FF9048
:101B2000EF90DF90BF90AF909F908F907F906F90DD
:101B30005F904F900C946504EF92FF920F931F9368
:101B4000CF93DF938956823108F033C0EA01162F14
:101B5000E82FF0E0E255F24F0C94E017F40FD90DA6
:101B60005B0FD90DB30FD90D390FDD0ED90DD90D7E
:101B7000D90DD90DD90DC00DD90DA10ED90D230F39
:101B8000998195FF0AC08BE891E0DF91CF911F9179
:101B90000F91FF90EF900C94370A888131E096FB0B
:101BA000222720F9232798719830D1F148F49923FE
:101BB000A9F0DF91CF911F910F91FF90EF900895C1
:101BC000903109F44CC09831A1F720910001121610
:101BD0000CF472C08FEF80930001EBCF309335038C
:101BE00080935703109236031092580302E00117B6
:101BF00078F4FE01E00FF11D618167956627679516
:101C00008081680F8CEB94E00E94DA060E5FEFCFC4
:101C100081E00E94910583E191E00197F1F7C9CF3E
:101C20009A814B816630A1F430E8439FB0011124C2
:101C3000690F711D4D814795442747959C81490F38
:101C4000DF91CF911F910F91FF90EF900C94600C5A
:101C5000479544274795490F6FEF7FEFF1CFE0910C
:101C60000001E7301CF08BEA91E08FCF3A819B8135
:101C70006630D9F460E8969FA0011124430F511DEE
:101C80009D819795992797953C81930FEF5FE093FE
:101C9000000135E0E302F0011124E552FD4F80839D
:101CA000528341839383248384CF97959927979573
:101CB000930F4FEF5FEFEACF90E0622F022E000C00
:101CC000770B35E0492F50E06417750764F0349FB7
:101CD000F001359FF00D1124E552FD4F408148176A
:101CE00019F09F5FEFCF90E085E0492F50E0641737
:101CF00075071CF19830F8F4FA0131968E9FD001E7
:101D00008F9FB00D1124A552BD4F3C91849FF001CF
:101D1000859FF00D1124E552FD4F308311964D91B2
:101D20005C9112975283418313963C9113973383AE
:101D300014963C9134839F5FD8CF215020930001AB
:101D400038CF623078F0898160E8869F9001112455
:101D50008881820F932F911D009721F0909331027B
:101D60008093300280914D02811123CFC0E08EEE2E
:101D70008C0F823028F466E070E08C2F0E94B70A46
:101D8000CF5FC631A1F781E080934D0210927102BE
:101D90001092700210923603109258030E9452055E
:101DA00081E896E0909394028093930282E896E013
:101DB0009093980280939702FCCE653008F4F9CE98
:101DC00018818EEF810F823108F0F3CE0981EA800D
:101DD000FB80CC81E12FF0E0EC5CFD4F80818C300A
:101DE000C0F490E0FC01EE0FFF1FE80FF91FE35174
:101DF000FB4FE0818E2F90E0FC01EE0FFF1FE80FFC
:101E0000F91FE853FB4F808186FF03C0812F0E949A
:101E1000040A80E8C89FA00111244F0D511D90E8CD
:101E2000E99EB0011124600F711D812F0E94430AA9
:101E300064E070E0812FDF91CF911F910F91FF90AF
:101E4000EF900C94B70A623008F4B3CE8981E0E8D1
:101E50008E9F900111248881820F932F911D0097EE
:101E600029F09093020180930101A3CE81E090E0DC
:101E7000F8CF623008F49DCE698170E0123091F0A5
:101E80008A81F0E88F9FC0011124682B792B1330D1
:101E900049F08B8190E090E4899F902D8827112450
:101EA000682B792B8881DF91CF911F910F91FF9043
:101EB000EF900C94640880EF0E9401018CE60E9470
:101EC0000101CEEF84EF8C0F883020F582E00E9474
:101ED00001018AE00E9401018DEF8C0F8230E0F059
:101EE00089EF8C0F8330F0F417C0C23158F780E0CF
:101EF0000E94010181E00E9401018BE00E9401012A
:101F000081E00E94010181E00E94010181E00E94C4
:101F10000101D8CFC13001F783E00E94010188E0C0
:101F20000E940101C23130F484E00E9401018EE080
:101F30000E94010180EF8C0F823030F486E00E9415
:101F4000010181E00E9401018FE70E940101CF5F42
:101F5000C43159F687EFDF91CF911F910F91FF9018
:101F6000EF900C940101662309F423CEC88180EF21
:101F70000E9401018EE60E9401018C2F0E94010146
:101F8000C63140F7D0E0FE01E758FB4F80810E9448
:101F90000101CC0FDD1F8E0101571B4FF80180811D
:101FA0008F770E940101F801808191819C01207846
:101FB000232B39F0880F892F881F990B8F770E9468
:101FC0000101C157DB4F888199819C012227307C18
:101FD000232B09F4BFCF990F880B990F982F881FD7
:101FE0008F770E940101B6CF80EF0E9401018AE63F
:101FF0000E940101C2EF8FE7C83008F48C2F0E94C5
:102000000101CF5FC830B9F7A5CF1F920F920FB66D
:102010000F9211242F933F934F935F936F937F936E
:102020008F939F93AF93BF93EF93FF9389E593E0D3
:102030000E94E201FF91EF91BF91AF919F918F912B
:102040007F916F915F914F913F912F910F900FBEB4
:102050000F901F9018951F920F920FB60F92112498
:102060002F938F939F93EF93FF93E0916903F091E8
:102070006A038081E0916F03F091700382FD1BC0C1
:102080009081809172038F5F8F7320917303821709
:1020900041F0E0917203F0E0E75AFC4F958F809396
:1020A0007203FF91EF919F918F912F910F900FBE2F
:1020B0000F901F9018958081F4CF1F920F920FB64A
:1020C0000F9211242F933F938F939F93AF93BF93BE
:1020D0008091D7029091D802A091D902B091DA02F2
:1020E0003091BC0223E0230F2D3758F50196A11D36
:1020F000B11D2093BC028093D7029093D802A09385
:10210000D902B093DA028091BD029091BE02A091F3
:10211000BF02B091C0020196A11DB11D8093BD0206
:102120009093BE02A093BF02B093C002BF91AF9143
:102130009F918F913F912F910F900FBE0F901F9005
:10214000189526E8230F0296A11DB11DD2CF1F922C
:102150000F920FB60F9211240F900FBE0F901F9089
:1021600018951F920F920FB60F9211242F933F9341
:102170004F935F936F937F938F939F93AF93BF938F
:10218000EF93FF938091B900887F803609F44AC0AD
:10219000F0F5883209F4A7C018F5803109F49BC026
:1021A000B8F4882309F4F9C0883009F494C0FF9189
:1021B000EF91BF91AF919F918F917F916F915F91BF
:1021C0004F913F912F910F900FBE0F901F90189538
:1021D000883109F488C0803251F780932D0314C0F0
:1021E000803409F49DC040F48033B9F38833F9F6A4
:1021F00080932D0385ECB0C0803509F485C0883507
:1022000009F496C0883499F60E947F0AD0CF8839A5
:1022100009F48CC038F5883729F050F4883611F06D
:10222000803729F683E080932F031092B90257C0BC
:10223000883809F47BC0803919F0803809F0B7CFAD
:102240008091B902803208F071C0E091B90281E05A
:102250008E0F8093B9028091BB00F0E0E756FD4FEE
:1022600080833DC0803B39F0E0F4803A09F479C0C6
:10227000883A09F09CCF84E080932F031092960255
:1022800010929502E0919302F09194020995809149
:10229000950281110FC081E0809395021092730224
:1022A00009C0803C09F4A6CF883C09F4A3CF883B41
:1022B00009F07DCFE091960281E08E0F8093960227
:1022C000F0E0ED58FD4F80818093BB009091960225
:1022D0008091950229C080910A038093BB0085EC10
:1022E0008093BC0064CF90912C0380912B039817AE
:1022F00058F5E0912C0381E08E0F80932C03F0E0E1
:10230000E55FFC4F8081E9CFE0912C0381E08E0FE7
:1023100080932C038091BB00F0E0E55FFC4F80834D
:1023200090912C0380912B039817C8F285E8D8CFA1
:10233000E0912C0381E08E0F80932C038091BB00F1
:10234000F0E0E55FFC4F808380912E0381115CCF2C
:1023500081E08093090384EA8093BC0010922F03EC
:1023600026CF85EC8093BC0010922F038091B90298
:10237000803230F4E091B902F0E0E756FD4F108270
:102380006091B90270E0E0919702F091980289E9BA
:1023900092E009951092B9020ACF10922D0334CF22
:1023A0001F920F920FB60F9211242F933F934F93CA
:1023B0005F936F937F938F939F93AF93BF93CF93CD
:1023C000DF93EF93FF9380914F02C091EC04D0E034
:1023D00087FF24C0109285001092840080914F02E4
:1023E0008F5F80934F0280914F02082E000C990B53
:1023F0008C179D0724F480914F028C30C4F180919A
:10240000840090918500049680349C4908F47AC039
:102410008091840090918500049676C080914F024F
:10242000082E000C990B8C179D07C4F6E0914F0203
:102430008E2FEE0F990BFC01EE0FFF1FE80FF91F17
:10244000E853FB4F808186FFC9CFE0914F028E2F6A
:10245000EE0F990BFC01EE0FFF1FE80FF91FE85379
:10246000FB4F808160E08F730E947102B7CF209193
:10247000840030918500E0914F028E2FEE0F990B72
:10248000FC01EE0FFF1FE80FF91FE853FB4F81819E
:102490009281820F931F9093890080938800E0912E
:1024A0004F028E2FEE0F990BFC01EE0FFF1FE80F6E
:1024B000F91FE853FB4F808186FF11C0E0914F0266
:1024C0008E2FEE0F990BFC01EE0FFF1FE80FF91F87
:1024D000E853FB4F808161E08F730E947102FF918E
:1024E000EF91DF91CF91BF91AF919F918F917F91AC
:1024F0006F915F914F913F912F910F900FBE0F9071
:102500001F90189580E49CE990938900809388003F
:102510008FEF80934F02E3CF10925C0310925B0326
:1025200048EE53E060E070E040935D0350935E033B
:1025300060935F03709360038DE091E090935A0382
:102540008093590385EC90E0909366038093650334
:1025500084EC90E0909368038093670380EC90E0B4
:1025600090936A038093690381EC90E090936C03ED
:1025700080936B0382EC90E090936E0380936D03E5
:1025800086EC90E09093700380936F031092720337
:1025900010927303109274031092750386EF93E008
:1025A000109237041092360490933A0480933904C1
:1025B00020E430E030933C0420933B0410923D042F
:1025C00010923E041092400410923F041092410475
:1025D0001092430410924204109245041092440455
:1025E0001092470410924604109249041092480435
:1025F00010924B0410924A0410924D0410924C0415
:1026000010924F0410924E041092550410925404EC
:1026100010925704109256041092590410925804C4
:1026200010925B0410925A0410926904109268048C
:102630001092380410927604109278041092770465
:102640001092BB0427E830E030935D0420935C04D3
:1026500021E930E030935F0420935E042BE930E001
:10266000309361042093600425EA30E030936304E2
:10267000209362042FEA30E03093650420936404D1
:1026800029EB30E0309367042093660423EC30E0BC
:1026900030936B0420936A0424EC30E030936D0493
:1026A00020936C0426E235E030936F0420936E048F
:1026B00090935104809350042DE531E030937104E0
:1026C0002093700490935304809352048FEC90E015
:1026D00090937304809372041092BF041092BE040E
:1026E0004093C0045093C1046093C2047093C30428
:1026F0008FE191E09093BD048093BC04EDEEF4E093
:102700002FEF48EB5BE08091EC048C30B8F491E063
:10271000980F9093EC04808390E0DC01AA0FBB1F1C
:10272000A80FB91FA853BB4F12965C934E931197F5
:10273000339685E0E131F80731F708952083F8CF2B
:10274000789484B5826084BD84B5816084BD85B58C
:10275000826085BD85B5816085BD80916E00816098
:1027600080936E001092810080918100826080933E
:102770008100809181008160809381008091800040
:102780008160809380008091B10084608093B1006B
:102790008091B00081608093B00080917A00846065
:1027A00080937A0080917A00826080937A00809191
:1027B0007A00816080937A0080917A0080688093AB
:1027C0007A001092C10085E18093760480917704AD
:1027D000909178040E948218C0917604D0E0CE01D6
:1027E00001960E94E6179093780480937704FC0189
:1027F000EC0FFD1F108212E0DC011C9325E0119606
:102800002C93AE01425051096FEC71E002960E9488
:102810000B1984E698E09093CC028093CB0288EB6E
:1028200097E09093CA028093C9028BE897E0909357
:10283000C8028093C70289ED99E09093C602809305
:10284000C50287EB9AE09093C4028093C30282E8AA
:1028500099E09093C2028093C1028CE99DE090932D
:10286000CE028093CD0286E19CE09093D0028093CB
:10287000CF02E0916903F0916A031083E09169034C
:10288000F0916A031082E0916503F0916603108273
:10289000E0916703F091680380E1808310927103F7
:1028A000E0916D03F0916E0386E08083E0916B030D
:1028B000F0916C03808180618083E0916B03F091E3
:1028C0006C03808188608083E0916B03F0916C03DE
:1028D000808180688083E0916B03F0916C0380813C
:1028E0008F7D80838091BB0481114FC061E08DE0BA
:1028F0000E94BD0262ED70E080E090E00E94330330
:1029000061E08DE00E94710268E270E080E090E09A
:102910000E94330360E08DE00E94710262ED70E07E
:1029200080E090E00E94330361E08DE00E9471023C
:1029300068E270E080E090E00E94330360E08DE0A8
:102940000E9471026AEF70E080E090E00E94330321
:10295000C5E062ED70E080E090E00E94330361E04A
:102960008DE00E94710268E270E080E090E00E94D9
:10297000330360E08DE00E947102C15051F76DE7B2
:1029800070E080E090E00E94330389E593E090934B
:10299000750480937404909337048093360486E31F
:1029A00094E00E94D70086EF93E00E94B2040E9458
:1029B000160C25E0D22EC0E0D0E0CC24C39402E077
:1029C00010E0EE24E394F12C8091D402882349F0A6
:1029D00069B18091D10268236C7F40E080E00E9461
:1029E00097098091D502882379F063B186B16F731E
:1029F000B0E48B9FC0011124682B8091D202682320
:102A000040E081E00E9497098091D602882359F026
:102A100066B18091D3028F7066956695682340E019
:102A200082E00E9497098091740490917504DC0102
:102A3000ED91FC910084F185E02D0995892B09F435
:102A4000CEC18091740490917504DC01ED91FC91EC
:102A50000284F385E02D09959C018F3F980719F3B7
:102A6000982F80914104882309F492C0973F09F080
:102A70007EC010924104A0913904B0913A046C9147
:102A80006137C1F1693709F05CC0E0916E04F091E3
:102A90006F04309741F28091420490914304833057
:102AA000910560F430E020E050E040E070E060E04C
:102AB00080915004909151040995B5CFBD016D5F8F
:102AC0007F4F03970E943E01BC016D5F7F4F80E006
:102AD0000E940E01E0913904F0913A049F012D5FAC
:102AE0003F4F428150E0618170E0E0916E04F091CF
:102AF0006F04DECF80916A0490916B04892B09F4F6
:102B000092CFBD016F5F7F4F80914204909143044B
:102B100001970E943E01BC016F5F7F4F80E00E94E1
:102B20000E016091390470913A046F5F7F4FE0911C
:102B30006A04F0916B0480915604909157040995B2
:102B400072CFE0916C04F0916D04309709F46BCF73
:102B50009D012F5F3F4F40914204509143044150EB
:102B60005109809158049091590409955CCF609166
:102B7000420470914304822F0E940E01809142040E
:102B800090914304019690934304809342044BCF69
:102B900060913F04709140046115710509F4B1C062
:102BA00027FDAFC0615071097093400460933F04EA
:102BB000822F0E940E0180913F0490914004892B46
:102BC00009F031CF80913D04882309F42CCF803D5A
:102BD00009F483C040F4803949F1803C09F469C0AC
:102BE00010923D0420CF843FE1F1853F09F44DC0B0
:102BF000803EB1F7E0915C04F0915D04309781F381
:102C0000A0913904B0913A044C9120E8429FC00150
:102C1000112411964C91480F592F511D60913E047B
:102C200080914404909145040995DACFE0915E04C7
:102C3000F0915F043097A1F2A0913904B0913A0469
:102C40004C9120E8429FC001112411964C91480FED
:102C5000592F511D60913E04809146049091470484
:102C6000E3CFE0916404F0916504309709F4B8CFA4
:102C7000A0913904B0913A044C9150E011966C91B6
:102C800080914C0490914D04CFCFE0916604F09177
:102C90006704309709F4A4CFA0913904B0913A04A5
:102CA0004C9150E011966C9180914E0490914F049C
:102CB000BBCFE0916004F0916104309709F490CFAC
:102CC000A0913904B0913A044C9150E060913E04D7
:102CD0008091480490914904A7CFE0916204F0915B
:102CE0006304309709F47CCFA0913904B0913A0481
:102CF0004C9150E060913E0480914A0490914B04C5
:102D000093CF903F30F4822F8F7080933E04922FA8
:102D1000907F903FF1F190F4903CB1F150F49039F4
:102D200009F081CE1093400400933F0490933D043A
:102D30007ACE903D49F1903EA9F375CE993F09F4C2
:102D400042C028F48CE0890F823060F36CCE9F3F44
:102D500009F069CE1092400410923F0410923D0495
:102D600010923E0490E080E020913B0430913C04BE
:102D700082179307A8F4E0913904F0913A04E80F20
:102D8000F91F10820196F0CFF0924004E0923F04C8
:102D9000CDCFC0924104109243041092420443CE1E
:102DA000109241041092430410924204E091720484
:102DB000F091730480915A0490915B04309709F468
:102DC00032CE099530CEE0917004F09171043097C5
:102DD00009F429CE8091520490915304F2CF8FB719
:102DE000F8948090D7029090D802A090D902B09029
:102DF000DA028FBF8091050390910603A09107032B
:102E0000B0910803409101015091020170E060E02F
:102E1000881A990AAA0ABB0A481559056A057B054A
:102E200008F054C0840F951FA61FB71F8093050399
:102E300090930603A0930703B093080386EF882EB0
:102E400083E0982E92EFB92E87E08B15C8F0F4013D
:102E5000ED57FF4F8081823099F480910303909168
:102E600004030B2C02C0959587950A94E2F780FF26
:102E700007C08B2D0E94F902BC018B2D0E94050416
:102E8000B394AFEF8A1A9A0AB8E0BB12DDCF8091F3
:102E9000000187FD1BC0B12C2B2D30E0809100017B
:102EA000082E000C990B8217930784F0D29EF00134
:102EB000D39EF00D1124E552FD4F61817281248172
:102EC000438180810E94600CB394E6CF209709F47F
:102ED0007BCD0E94CE01882309F476CD0E940000AC
:102EE00073CD052E97FB1EF400940E94881757FDA2
:102EF00007D00E94A31707FC03D04EF40C94881748
:102F000050954095309521953F4F4F4F5F4F089515
:102F100090958095709561957F4F8F4F9F4F089545
:102F20000E94C517A59F900DB49F900DA49F800D82
:102F3000911D11240895B7FF0C9490170E949017CB
:102F4000821B930B0895A1E21A2EAA1BBB1BFD0145
:102F50000DC0AA1FBB1FEE1FFF1FA217B307E40778
:102F6000F50720F0A21BB30BE40BF50B661F771FD0
:102F7000881F991F1A9469F76095709580959095B0
:102F80009B01AC01BD01CF010895A29FB001B39F89
:102F9000C001A39F700D811D1124911DB29F700D62
:102FA000811D1124911D0895991B79E004C0991F7A
:102FB000961708F0961B881F7A95C9F78095089593
:102FC000EE0FFF1F0590F491E02D09940F931F93CE
:102FD000CF93DF938230910510F482E090E0E0918E
:102FE0001305F091140530E020E0B0E0A0E0309748
:102FF00099F42115310509F44AC0281B390B2430F6
:103000003105D8F58A819B816115710589F1FB0134
:1030100093838283FE0111C040815181028113811B
:1030200048175907E0F04817590799F4109761F0CD
:1030300012960C93129713961C933296CF01DF9140
:10304000CF911F910F9108950093130510931405CC
:10305000F4CF2115310551F04217530738F0A9017B
:10306000DB019A01BD01DF01F801C1CFEF01F9CF0A
:103070009093140580931305CDCFFE01E20FF31F4B
:10308000819391932250310939832883D7CF20919E
:10309000110530911205232B41F420910501309147
:1030A0000601309312052093110520910301309100
:1030B00004012115310541F42DB73EB740910701B8
:1030C00050910801241B350BE0911105F091120578
:1030D000E217F307A0F42E1B3F0B2817390778F0EF
:1030E000AC014E5F5F4F2417350748F04E0F5F1F4E
:1030F0005093120540931105819391939FCFF0E077
:10310000E0E09CCFCF93DF930097E9F0FC0132978A
:1031100013821282A0911305B0911405ED0130E0E5
:1031200020E01097A1F420813181820F931F20911C
:103130001105309112052817390709F061C0F09385
:103140001205E0931105DF91CF910895EA01CE17A2
:10315000DF07E8F54A815B819E0141155105B1F712
:10316000E901FB83EA8349915991C40FD51FEC17FC
:10317000FD0761F4808191810296840F951FE9011A
:1031800099838883828193819B838A83F0E0E0E046
:1031900012968D919C9113970097B9F52D913C91C2
:1031A0001197CD010296820F931F20911105309146
:1031B00012052817390739F6309751F51092140582
:1031C00010921305B0931205A0931105BCCFD383C1
:1031D000C28340815181840F951FC817D90761F4BC
:1031E0004E5F5F4F88819981480F591F51834083FB
:1031F0008A819B81938382832115310509F0B0CFA9
:10320000F0931405E09313059ECFFD01DC01C0CFC0
:1032100013821282D7CFFB01DC014150504048F0AD
:1032200001900D920020C9F701C01D9241505040FD
:08323000E0F70895F894FFCFC8
:10323800FF13000000150580000000000004026470
:103248000191015102C201A001B40100000000DA9D
:1032580006AD0609078306A606930684064D61781F
:1032680020736572766F7320617474616368656436
:1032780000556E6B6E6F776E2070696E206D6F648F
:1032880065004932433A20546F6F206D616E792092
:10329800627974657320726563656976656400494F
:1032A80032433A20546F6F206665772062797465DF
:1032B800732072656365697665640031302D6269D3
:1032C800742061646472657373696E67206E6F74CD
:1032D80020737570706F7274656400746F6F206D01
:1032E800616E79207175657269657300463A5C5341
:1032F80074616E646172644669726D6174615C5375
:1033080074616E646172644669726D6174612E697C
:043318006E6F0000D4
:00000001FF
