:1000000044C1000073C1000071C100006FC1000055
:100010006DC100006BC1000069C1000067C1000034
:1000200065C100000C941A110C941A110C941A1149
:100030005DC100005BC1000059C1000057C1000054
:1000400055C100000C94A61451C100004FC100001E
:100050004DC100004BC1000049C100000C94F914CF
:1000600045C100000C94F1100C94C8103FC1000071
:100070003DC100003BC1000039C1000037C1000094
:100080000C94781433C1000031C100002FC100006E
:100090000C949F100C94761029C100000C9440120F
:1000A00025C1000023C100000C944A141FC10000A8
:1000B0001DC100001BC1000019C100000C941C14DC
:1000C00015C1000013C1000011C100000C944D10B7
:1000D0000C9424100BC100000C94FB0F0C94D20F55
:1000E00005C100007F038403890393039D03160465
:1000F000A703AF03B703C103CB03D503E403EE03A8
:100100001604F80302040C040C052F05FB04460535
:100110005E0590058505900590059005B8051A05C2
:10012000720A850AF709850A310A850AD6097E0905
:10013000850A850A850A850A850A5108850A2A09D9
:10014000850AC209A70AAA0A990A9D0AA30AE10A0E
:10015000AE0AB20AB80ABC0AC00AC60ACA0ACE0A5D
:10016000E10AD40AD80ADC0A000021002400270092
:100170002A002D00300033000101000004010701B6
:100180000A0100002200250028002B002E0031006B
:10019000340002010000050108010B0100002000ED
:1001A0002300260029002C002F003200000100004F
:1001B00003010601090105050505070508080808EA
:1001C000020202020A0A08080404040401010101EF
:1001D00001010101030303030303030304070707EA
:1001E0000C0C0C0C0C0C0C0C02020202060606068F
:1001F000060606060B0B0B0B0B0B0B0B010210205C
:10020000200808102040102040800201020108044C
:1002100002010102040810204080804020100804E0
:100220000201800402018040201008040201080439
:10023000020101020408102040800102040810207D
:10024000408000000A0B02090C0D0E080703040190
:10025000000000000000000000000000000000009E
:10026000000000000000000000000000000012116B
:10027000100000000000000000000000000000006E
:1002800000000000000000000E1C11241FBECFEF74
:10029000D1E2DEBFCDBF00E00CBF12E0A0E0B2E0D3
:1002A000E8EFFEE300E00BBF02C007900D92AE3F07
:1002B000B107D9F729E0AEEFB2E001C01D92A13D30
:1002C000B207E1F711E0C5E4D1E000E006C02197F4
:1002D0000109802FFE010E943E1EC434D10780E038
:1002E0000807A9F70E9443150C947A1F89CEA82FFE
:1002F000B0E0AE58BC4F9C91292F30E0F901EE0FD1
:10030000FF1F2E0F3F1FF901E753F74FE081F0E089
:100310009F01220F331FE20FF31FE85CF74F80812C
:100320008F7B808380917003981306C0992379F0A6
:100330009150909370030BC0882349F0E0917103B2
:10034000EF5FE0937103F0E0E350FD4F90838FEF98
:100350008C9308959EEF980F943480F4E82FF0E08A
:10036000DF01A75AB84F9C91913041F4EE0FFF1F67
:10037000E156F84F608371830C94B80C0895CF93C5
:10038000803180F5409111045091120421E030E059
:10039000672B81F4B90102C0660F771F8A95E2F7D7
:1003A000CB0180959095842395239093120480939C
:1003B000110418C0082E02C0220F331F0A94E2F75E
:1003C000242B352B30931204209311049091C203F7
:1003D000911108C0C82F0E94220DBC018C2FCF9113
:1003E0000C94E20ACF9108958F929F92AF92BF92A0
:1003F000CF92DF92EF92FF920F931F93CF93DF93F1
:10040000893008F09AC0982F990F990F990F58E0EA
:10041000C52EC90E96E49C1510F446E4C42E8B013B
:10042000C82FCC0FCC0FCC0FDC2ED0E099249394A6
:100430005B01BB24DC1430F58EEF8D0D8434F8F4B1
:100440004D2D50E0FA01E75AF84F20812230B8F4E0
:10045000892D90E08A219B2188248394009709F4B8
:10046000812C7A01EE0CFF1C213009F056C0D929ED
:10047000F701E156F84F882D90E091838083990C25
:10048000D394D8CFD0FF05C0602F61708C2F0E940D
:10049000B80CD1FF06C0602F627081E08C0F0E9403
:1004A000B80CD2FF06C0602F647082E08C0F0E94EF
:1004B000B80CD3FF06C0602F687083E08C0F0E94D9
:1004C000B80CD4FF06C0602F607184E08C0F0E94CE
:1004D000B80CD5FF06C0602F607285E08C0F0E94BB
:1004E000B80CD6FF06C0602F607486E08C0F0E94A7
:1004F000B80CD7FF22C0602F607887E08C0FDF91A7
:10050000CF911F910F91FF90EF90DF90CF90BF9010
:10051000AF909F908F900C94B80C892B09F4A8CFC2
:10052000F701E156F84F80819181019709F4A0CF3E
:1005300062E08D2D0E94E60C9BCFDF91CF911F9141
:100540000F91FF90EF90DF90CF90BF90AF909F9072
:100550008F9008958F929F92AF92BF92CF92DF9229
:10056000EF92FF920F931F93CF93DF93EB018634AB
:1005700008F068C1082F10E0F801E75AF84F9081A1
:10058000933009F490C0943009F05CC182508434F7
:1005900008F051C1F801EE58FC4FE080F12C6701E2
:1005A000CC0CDD1C603282E078070CF042C077FD95
:1005B00005C0653B710524F4DB0104C0A0E001C067
:1005C000A4EBB0E0F601EE0DFF1DE753F74F81817C
:1005D00028E830E04901881A910887FD9394880C37
:1005E000991C880C991C092C000CAA08BB08828154
:1005F00028E532E0281B310987FD3395220F331F90
:10060000220F331FA901330F660B770B9A01AB0141
:10061000281939094A095B090E94FB1D24EB30E0C7
:1006200040E050E00E94D51D820E931EA41EB51E10
:1006300001C04B01F601EE0DFF1DE753F74F20817E
:10064000203308F0F8C0318188E890E0831B9109DD
:1006500037FD9395880F991F880F991F8816990663
:1006600084F0828148E552E0481B510987FD53958B
:10067000440F551F440F551FC401481559050CF46C
:10068000CA010297880F991F4FB7F89430E0F9011B
:10069000EE0FFF1F2E0F3F1FF901E85CF74F92830B
:1006A00081834FBFC8C0F82E8EEF800F8C3028F0AA
:1006B00084ED800F833008F0BEC061E08F2D0E9472
:1006C000E60C209711F460E004C0CF3FD10529F477
:1006D00061E08F2D0E94B80CAEC0F801EE5BFD4FBB
:1006E000E4918E2F90E0FC013197E231F10508F0A2
:1006F0009DC08827EE58FF4F8F4F0C943E1E84B547
:10070000806884BDC7BD97C084B5806284BDC8BD04
:1007100092C080918000806880938000D09389008F
:10072000C093880088C080918000806280938000A0
:10073000D0938B00C0938A007EC080918000886037
:1007400080938000D0938D00C0938C0074C0809102
:10075000B00080688093B000C093B3006CC08091FB
:10076000B00080628093B000C093B40064C08091F8
:100770009000806880939000D0939900C093980077
:100780005AC080919000806280939000D0939B002B
:10079000C0939A0050C08091900088608093900030
:1007A000D0939D00C0939C0046C08091A0008068BB
:1007B0008093A0008091A0008F7B8093A000D093B5
:1007C000A900C093A80037C08091A00080628093E8
:1007D000A000D093AB00C093AA002DC08091A000D0
:1007E00088608093A000D093AD00C093AC0023C07C
:1007F00080912001806880932001D0932901C093CB
:10080000280119C080912001806280932001D0933B
:100810002B01C0932A010FC0809120018860809332
:100820002001D0932D01C0932C0105C0C038D10503
:100830000CF04ECF48CF000F111FF801E156F84FD2
:10084000D183C083DF91CF911F910F91FF90EF90E3
:10085000DF90CF90BF90AF909F908F900895DB0175
:10086000909170039033A8F530917103682F70E078
:10087000332369F0E32FF0E0E350FD4F8081FB016B
:10088000EE58FC4F808331503093710307C0FB0159
:10089000EE58FC4F90839F5F90937003FB01EE58DE
:1008A000FC4F808190E09C01220F331F820F931F29
:1008B0001A161B0634F4141615061CF49A01AD0121
:1008C00004C020E639E040E252E08753974F0C9491
:1008D00071138DE292E025C78F929F92BF92CF92C3
:1008E000DF92EF92FF920F931F93CF93DF93C82E67
:1008F000D12CE601CA52D94FFE01ED57FF4F90812E
:100900009F3709F435C1963041F49091C103992382
:1009100021F06630710509F011C17B01182F0EEF2F
:10092000080F0434F8F464307105E1F0F601EE5874
:10093000FC4F80818033B0F490E0FC01EE0FFF1F8C
:100940008E0F9F1FFC01E753F74F808190E0FC0161
:10095000EE0FFF1F8E0F9F1FFC01E85CF74F808199
:1009600086FDF2C05AECB52EB10E8FE08B1550F01B
:1009700061E070E082E0E816F10411F060E070E000
:100980008B2DFDDC043418F5E12FE695E695E69510
:10099000212F2770F0E0E952FC4FE114F10421F01F
:1009A0008BE0E816F10449F481E090E001C0880F83
:1009B0002A95EAF79081892B09C081E090E001C077
:1009C000880F2A95EAF780959081892380834601D4
:1009D000880C991CF401E156F84F118210828CE0CA
:1009E000E816F10408F09CC0F7018827EC57FF4F88
:1009F0008F4F0C943E1E8FE08B1508F4B9C0043461
:100A000018F460E0812FE2D7CD57DF4F88818F3710
:100A100009F4AEC082E082C0043408F0A9C060E0EE
:100A2000812FD4D7CD57DF4F88818F3709F4A0C0ED
:100A300018829EC0043408F09BC062E0812FC6D7A4
:100A4000CD57DF4F88818F3711F08BE08883F40119
:100A5000E156F84F81E090E09183808389C00434AF
:100A600008F086C0FE01ED57FF4F8081833019F4F6
:100A700060E0812F7DD761E0812FA8D7CD57DF4F70
:100A800088818F3709F474C081E048C00C3028F0A9
:100A900084ED810F833008F06BC061E0812F96D721
:100AA00061E0812F93D760E0812F62D7CD57DF4F70
:100AB00088818F3709F45CC083E030C0043408F0CB
:100AC00057C0CD57DF4F88818F3711F084E088837E
:100AD000F601EE58FC4F80818F3FC9F190E0FC0198
:100AE000EE0FFF1F8E0F9F1FFC01E753F74F808112
:100AF00090E0FC01EE0FFF1F8E0F9F1FFC01E85CD2
:100B0000F74F808186FD34C022C01451123080F529
:100B1000CD57DF4F88818F3759F186E0888328C011
:100B200081E492E0DF91CF911F910F91FF90EF90C0
:100B3000DF90CF90BF909F908F90F3C51092C1032C
:100B40009FEF90930002E9CE812FD1DB0BCF4FEFC7
:100B50005FEF6FEF7FEF812FDF91CF911F910F91AB
:100B6000FF90EF90DF90CF90BF909F908F9077CEC7
:100B7000DF91CF911F910F91FF90EF90DF90CF9079
:100B8000BF909F908F9008950F931F93CF93DF9303
:100B900081E08093C2038091C103882329F01092E1
:100BA000C1038FEF80930002E0EEF3E0C7EDD3E0E6
:100BB000A8EBB3E0119219921D9283E0E93EF80789
:100BC000C9F702E713E0C0E0DFEF8AEC8C0F803159
:100BD00018F462E070E006C08EEF8C0F843420F4CD
:100BE00061E070E08C2F78DEF801D1938F01CF5F48
:100BF000C63459F710921204109211041092710326
:100C0000109270031092C203DF91CF911F910F9148
:100C10000895CF92DF92EF92FF920F931F93CF939D
:100C2000DF936C018B017A01EC01CD53DC4F88819D
:100C300087FF04C0FB011182108224C02CE02C9D90
:100C4000C0012D9D900D11242881AC01420F511D32
:100C500027FD5A952091C80830E04217530794F4B5
:100C60002881AC01420F511D27FD5A959A01FA01C6
:100C7000EE0FFF1F2E0F3F1FF901E85CF74F208199
:100C800026FD19C088818F5F88832CE02C9DC001D0
:100C90002D9D900D11242881AC01420F511D27FD7F
:100CA0005A952091C80830E042175307B4F42881C0
:100CB0002C303CF112C02881820F911D27FD9A959E
:100CC000FC01EE0FFF1F8E0F9F1FFC01E85CF74F2A
:100CD000808160E08F734CD6D5CFF80180819181FF
:100CE000049680349C4918F480E49CE904C0F8011F
:100CF000808191810496F701918380838FEF8883AF
:100D000044C0F801408151812881BC01620F711DEE
:100D100027FD7A959B01FB01EE0FFF1F2E0F3F1F52
:100D2000F901E85CF74F21813281240F351FF7016B
:100D3000318320832881AC01420F511D27FD5A9534
:100D40009A01FA01EE0FFF1F2E0F3F1FF901E85C19
:100D5000F74F208126FF19C02881820F911D27FDA2
:100D60009A95FC01EE0FFF1F8E0F9F1FFC01E85CA0
:100D7000F74F808161E08F73DF91CF911F910F91C9
:100D8000FF90EF90DF90CF90F3C5DF91CF911F914F
:100D90000F91FF90EF90DF90CF900895FF920F9307
:100DA0001F93CF93DF931F921F92CDB7DEB7082F0B
:100DB00010E0F801E952FC4F9081F62EF922085418
:100DC0001C4F411104C0F8019081F91611F12F2D2B
:100DD00030E03A832983A0911607B0911707109746
:100DE000B1F0682F6F706069ED91FC9111970190DF
:100DF000F081E02DCD01199522E030E0AE014F5F8A
:100E00005F4F62E070E086E197E00E942411F801F4
:100E1000F0820F900F90DF91CF911F910F91FF9073
:100E200008950F931F93CF93DF93893008F071C01B
:100E3000282F30E0F901E052FC4F6083672B09F462
:100E400068C0082FF901E952FC4F1081D22FDD0F45
:100E5000DD0FDD0F8EEF8D0F843408F04AC010FFD8
:100E600048C08D2F5DD5892B09F443C0C1E08FEFB9
:100E70008D0F843440F411FF06C081E08D0F50D5F2
:100E8000892B09F038C012FF05C082E08D0F48D5CC
:100E9000892B99F513FF05C083E08D0F41D5892B70
:100EA00071F514FF05C084E08D0F3AD5892B49F503
:100EB00015FF05C085E08D0F33D5892B21F5D03482
:100EC00081F016FF05C086E08D0F2AD5892BE9F445
:100ED000DF3339F017FF05C087E08D0F21D5892B4F
:100EE000B1F441E06C2F802FDF91CF911F910F91D2
:100EF00055CFC0E0BCCFC260C6CFC460CBCFC86006
:100F0000D0CFC061D5CFC062DACFC064E1CFC068B6
:100F1000E8CFDF91CF911F910F910895EF92FF924B
:100F20000F931F93CF93DF93D82F8B01C42FF22EF3
:100F30006F3F8FEF7807E9F081E080933E04D09314
:100F4000600410923F04109261048CE298E0F0D7A4
:100F50008F2D29D480916E0390916F03823091057B
:100F600050F0880F991F880F991F05970197F1F787
:100F700002C000E010E080913D048111FCCF9C2F65
:100F8000C13208F090E281E080933D0480933C04FC
:100F90002FEF20933B0410923A04290F2093390439
:100FA00080931804809118042D2F220F822B809398
:100FB000180480911704813061F410921704809115
:100FC00018048093BB008091BC0083FDF8CF85ECB2
:100FD00001C085EE8093BC0080913D048130E1F337
:100FE00080913A04891710F490913A04E9E1F4E011
:100FF000A9E5B9E080E0891721F021912D938F5F59
:10100000FACF10927A0980937909EC2EF12C90E0B6
:10101000E816F9061CF482E592E005C08E159F05DE
:101020001CF48FE692E07DD3D0932E0300932F0320
:101030000EE213E0C8018E5293408E159F0574F4A2
:101040000F5F1F4F9091790980917A09981731F0BD
:101050008CE298E025D7F8018183ECCFCE5F6C2F2E
:1010600070E04EE253E087E7DF91CF911F910F913F
:10107000FF90EF900AC3EF92FF920F931F93CF93CD
:10108000DF9390E0FC01E956F109E231F10508F047
:101090003CC2EA01162F8827E057FF4F8F4F0C9470
:1010A0003E1E2981922F987125FF03C08BE892E0A4
:1010B00056C0888131E026FB222720F9232798306B
:1010C00051F160F4911121C230933E048093600489
:1010D00010923F041092610402E006C09031C9F101
:1010E000983109F46AC011C2011770F4FE01E00FD3
:1010F000F11D61816795662767958081680F8CE295
:1011000098E016D70E5FF0CF81E04DD383E191E0F8
:101110000197F1F7FAC14B816A81163069F470E0EA
:1011200030E8439F600D711D11244D814795442780
:1011300047959C81490F06C0479544274795460F20
:101140006FEF7FEFDF91CF911F910F91FF90EF90A5
:10115000E5CEE0910002E7304CF08BEA92E0DF91BF
:10116000CF911F910F91FF90EF90DBC29B813A814D
:10117000663071F4632F70E0F0E89F9F600D711D81
:1011800011249D819795992797954C81940F06C0BE
:10119000979599279795930F6FEF7FEFEF5FE09308
:1011A000000235E0E302F0011124E751FC4F808397
:1011B0007283618393832483A8C120910002121655
:1011C0003CF490E0622F022E000C770B35E00FC04C
:1011D0008FEF8093000299C1349FF001359FF00D8D
:1011E0001124E751FC4F4081841739F09F5F492F4C
:1011F00050E06417750784F790E085E022C09830CE
:10120000F8F4FA0131968E9FD0018F9FB00D112412
:10121000A751BC4F3C91849FF001859FF00D112494
:10122000E751FC4F308311964D915C911297528398
:10123000418313963C911397338314963C913483E6
:101240009F5F492F50E064177507CCF6215020931B
:1012500000025BC1623070F02981888190E0E0E893
:101260002E9F800D911D1124009721F090936F0304
:1012700080936E038091C103811147C1C0E08CEE61
:101280008C0F823020F466E070E08C2F25DBCF5F7E
:10129000C634A9F781E08093C10310927A091092B5
:1012A000790910923F041092610410923D048093DA
:1012B0003C041092170461E084E15AD361E085E1B7
:1012C00057D38091B9008E7F8093B9008091B90087
:1012D0008D7F8093B90088E48093B80085E4809383
:1012E000BC008EE39FE090937C0980937B098FE3A1
:1012F0009FE090937E0980937D0907C1653008F4D3
:1013000004C118818EEF810F843408F0FEC009817A
:10131000EA80FB80CC81E12FF0E0EE58FC4F808129
:101320008033B0F490E0FC01EE0FFF1F8E0F9F1F83
:10133000FC01E753F74F808190E0FC01EE0FFF1FA7
:101340008E0F9F1FFC01E85CF74F808186FDD9C09E
:101350004F2D50E0F0E8CF9F400D511D1124602F1C
:1013600070E020E8E29E600D711D1124812F77DA74
:1013700064E070E0812FDF91CF911F910F91FF907A
:10138000EF90AACA623008F4C0C02981888190E039
:1013900030E8239F800D911D1124009711F481E006
:1013A00090E09093020280930102AFC0623008F493
:1013B000ACC0698170E0123091F08A81E0E88E9FC4
:1013C000C0011124682B792B133049F08B8190E0F8
:1013D00090E4899F902D88271124682B792B888190
:1013E000DF91CF911F910F91FF90EF90B3C880EFE5
:1013F000CDD18CE6CBD1CEEF8CEC8C0F803128F4A4
:1014000082E0C4D18AE0C2D102C0CC3020F086EDA7
:101410008C0F833020F483E0B9D188E0B7D1C43495
:1014200020F484E0B3D18EE0B1D18EEE8C0F823007
:1014300020F486E0ABD181E0A9D18FE7A7D1CF5FBF
:10144000C434D9F0C434C0F680E0A0D181E09ED18C
:101450008BE09CD181E09AD181E098D181E096D156
:10146000CBCF662309F451C0C88180EF8FD18EE6BF
:101470008DD18C2F8BD1C63440F087EFDF91CF9187
:101480001F910F91FF90EF9081C1D0E0FE01E75ACC
:10149000F84F80817BD1CC0FDD1F8E010156184F94
:1014A000F80180818F7772D1F801808191819C0150
:1014B0002078232B31F0880F892F881F990B8F7785
:1014C00065D1C156D84F888199819C012227307CF3
:1014D000232B99F2990F880B990F982F881F8F77DC
:1014E00055D1CBCF80EF52D18AE650D1CAECC03172
:1014F00010F48C2F01C08FE749D1CF5FC031B9F70D
:10150000BCCF812F0E94770123CFDF91CF911F9114
:101510000F91FF90EF90089590E0FC013197E23138
:10152000F10508F04EC08827EE55FF4F8F4F0C9401
:101530003E1E809180008F7703C0809180008F7D58
:1015400080938000089580918000877FF9CF84B5D3
:101550008F7702C084B58F7D84BD08958091B000DF
:101560008F7703C08091B0008F7D8093B000089585
:10157000809190008F7707C0809190008F7D03C08D
:1015800080919000877F8093900008958091A000C3
:101590008F7707C08091A0008F7D03C08091A0004D
:1015A000877F8093A0000895809120018F7707C0E6
:1015B000809120018F7D03C080912001877F8093DF
:1015C000200108951F93CF93DF931F921F92CDB7F1
:1015D000DEB7182F7A8369838091160790911707D9
:1015E000009709F44CC0DC01ED91FC911031A0F49E
:1015F0006115704488F4612F606E0190F081E02DD8
:10160000199522E030E0AE014F5F5F4F62E070E07D
:1016100086E197E019D633C00190F081E02D60EFAC
:1016200019958091160790911707DC01ED91FC91B7
:101630000190F081E02D6FE6199580911607909149
:101640001707DC01ED91FC910190F081E02D612FF5
:10165000199522E030E0AE014F5F5F4F62E070E02D
:1016600086E197E0F1D58091160790911707DC018C
:10167000ED91FC910190F081E02D67EF19950F90AD
:101680000F90DF91CF911F910895EF92FF920F93EA
:101690001F93CF93DF93C82F809116079091170760
:1016A0000097C1F17A018B01DC01ED91FC91019071
:1016B000F081E02D60EF1995809116079091170742
:1016C000DC01ED91FC910190F081E02D6C2F1995DA
:1016D000E7010E0D1F1DC017D10751F020E030E0CB
:1016E000AE0161E070E086E197E0AED52196F3CFE0
:1016F0008091160790911707DC01ED91FC91019004
:10170000F081E02D67EFDF91CF911F910F91FF9056
:10171000EF901994DF91CF911F910F91FF90EF906F
:101720000895FC0101900020E9F73197BF01681B83
:10173000790BAC0181E7A9CFCF93DF93FC01A081A6
:10174000B181109701F1EC01ED91FC91119701909D
:10175000F081E02D69EFCD01199588819981DC0137
:10176000ED91FC910190F081E02D62E01995888166
:101770009981DC01ED91FC910190F081E02D65E013
:10178000DF91CF911994DF91CF910895A0915407E3
:10179000B0915507ED91FC9111970190F081E02DEA
:1017A000682FCD011994282F30916104313208F04F
:1017B0004AC080913D048111FCCF9091600442E0C9
:1017C00040933D0420933C042FEF20933B04109260
:1017D0003A0430933904E0E4F4E0A9E1B4E020E015
:1017E000321721F041914D932F5FFACF10921804D8
:1017F00020911804990F922B90931804909117043C
:10180000913061F410921704909118049093BB00EA
:101810009091BC0093FDF8CF95EC01C095EE9093AC
:10182000BC0090913D049230E1F390913B049F3FC6
:1018300079F080913B04803241F080913B04803309
:1018400031F084E005C081E003C082E001C083E0A4
:1018500010923F041092610410923E0408951F9369
:10186000CF93DF93182FEB0180911B0790911C07FA
:1018700068177907A8F0E0914807F091490781E0DF
:101880003097C1F080931807809134079091350705
:10189000199580911B0790911C07C817D90748F428
:1018A0008091190790911A07C80FD91F188380E0FB
:1018B00001C081E0DF91CF911F910895AC01FB0140
:1018C00080E090E09C01220F331F2417350770F44D
:1018D000DB012C91208311963C9137953327379566
:1018E000232B219301966E5F7F4FECCF0895FC016F
:1018F000A089B1898C91A689B78982FD0FC09C917E
:10190000818D8F5F8F73228D821749F0218DDF01CA
:10191000A20FB11D5D969C93818F08958C910895BF
:10192000CF93DF93282F30E0F901EE5BFD4F8491D8
:10193000F901E450FE4FD491F901EA54FE4FC491ED
:10194000CC2389F08111E8DDEC2FF0E0EE0FFF1FD2
:10195000E456FE4FA591B491EC91ED2381E090E027
:1019600021F480E002C080E090E0DF91CF91089503
:101970001F93CF93DF93282F30E0F901EE5BFD4FEB
:101980008491F901E450FE4FD491F901EA54FE4FDD
:10199000C491CC23B9F0162F8111BEDDEC2FF0E0FD
:1019A000EE0FFF1FEE57FE4FA591B4919FB7F8942D
:1019B000111104C08C91D095D82302C0EC91DE2B7C
:1019C000DC939FBFDF91CF911F910895CF93DF9359
:1019D00090E0FC01E450FE4F2491FC01EA54FE4FDC
:1019E0008491882361F190E0880F991FFC01E859E8
:1019F000FE4FC591D491FC01EE57FE4FA591B491D5
:101A0000611109C09FB7F89488812095822388834B
:101A1000EC912E230BC0623061F49FB7F89488815B
:101A2000322F309583238883EC912E2B2C939FBFEC
:101A300006C08FB7F894E8812E2B28838FBFDF91E3
:101A4000CF910895863308F0865390917B00282F1C
:101A50002870977F922B90937B008770806480938F
:101A60007C0080917A00806480937A0080917A0073
:101A700086FDFCCF809178002091790090E0922B38
:101A800008958F929F92AF92BF92CF92DF92EF9282
:101A9000FF926B017C0188D74B015C01C114D1041A
:101AA000E104F104E9F080D7DC01CB018819990940
:101AB000AA09BB09883E9340A105B10578F321E04E
:101AC000C21AD108E108F10888EE880E83E0981E5A
:101AD000A11CB11CC114D104E104F10421F7DECF33
:101AE000FF90EF90DF90CF90BF90AF909F908F903E
:101AF0000895CF92DF92EF92FF920F931F93CF93AF
:101B0000DF936C017A018B01C0E0D0E0CE15DF05D8
:101B100081F0D8016D918D01D601ED91FC9101907C
:101B2000F081E02DC6011995892B11F02196EECF99
:101B30007E01C701DF91CF911F910F91FF90EF9030
:101B4000DF90CF900895FC01538D448D252F30E018
:101B5000842F90E0821B930B541710F0CF960895BA
:101B600001970895FC01918D828D981761F0828D07
:101B7000DF01A80FB11D5D968C91928D9F5F9F73C1
:101B8000928F90E008958FEF9FEF0895FC01918D63
:101B9000828D981731F0828DE80FF11D858D90E0D0
:101BA00008958FEF9FEF0895FC01918D228D892F6D
:101BB00090E0805C9F4F821B91098F739927089555
:101BC00082E694E0F1DF21E0892B09F420E0822F06
:101BD00008958FEF94E0E8DF21E0892B09F420E0FD
:101BE000822F08958CE995E0DFDF21E0892B09F44D
:101BF00020E0822F089589E396E0D6DF21E0892B4B
:101C000009F420E0822F0895FC01848DDF01A80FE4
:101C1000B11DA35ABF4F2C91848D90E001968F7314
:101C20009927848FA689B7892C93A089B1898C9133
:101C3000837080648C93938D848D981306C0028882
:101C4000F389E02D80818F7D80830895EF92FF924C
:101C50000F931F93CF93DF93EC0181E0888F9B8DCF
:101C60008C8D981305C0E889F989808185FD25C090
:101C7000F62E0B8D10E00F5F1F4F0F731127E02E14
:101C80008C8DE8120BC00FB607FCFACFE889F989F2
:101C9000808185FFF5CFCE01B7DFF2CF8B8DFE01BE
:101CA000E80FF11DE35AFF4FF0829FB7F8940B8FB6
:101CB000EA89FB89808180620AC09FB7F894EE8927
:101CC000FF896083E889F9898081837080648083DB
:101CD0009FBF81E090E0DF91CF911F910F91FF9026
:101CE000EF900895CF93DF93EC01888D8823C1F0A6
:101CF000EA89FB89808185FD05C0A889B9898C9115
:101D000086FD0EC00FB607FCF5CF808185FFF2CFB0
:101D1000A889B9898C9185FFEDCFCE0175DFE8CF19
:101D2000DF91CF91089580E090E0892B19F063DF77
:101D3000811116C080E090E0892B19F053DF8111EA
:101D400012C080E090E0892B19F043DF81110EC0B2
:101D500080E090E0892B79F033DF81110AC008958B
:101D60000E940000E7CF0E940000EBCF0E9400001D
:101D7000EFCF0C9400000895E091D503F091D603C5
:101D8000309709F019940895862F642FE091D303BA
:101D9000F091D403309711F0A90119940895089592
:101DA000862FE091CB03F091CC03309711F0BA016C
:101DB00019940895862FE091CD03F091CE033097CA
:101DC00011F0BA0119940895862FE091C703F0919C
:101DD000C803309711F0BA0119940895862FE09145
:101DE000C903F091CA03309711F0BA01199408950C
:101DF000862FE091CF03F091D003309711F0BA0114
:101E000019940895862FE091D103F091D203309771
:101E100011F0BA011994089585ED8093BC0080916A
:101E2000BC0084FDFCCF10923D04089540919F09B1
:101E3000262F30E0240F311D21323105DCF42091B2
:101E40003D042430C9F4FC0180E090E0861758F48A
:101E500030919F092191DC01A158B64FA30FB11D0C
:101E60002C930196F3CF80919F09680F60939F098F
:101E700080E0089581E0089582E00895089508952E
:101E80000895E0917A0980917909E81730F4F0E03B
:101E9000E75AF64F808190E008958FEF9FEF089505
:101EA00090917A0980917909981750F4E92FF0E020
:101EB000E75AF64F208130E09F5F90937A0902C085
:101EC0002FEF3FEFC90108958091790990E02091AB
:101ED0007A09821B91090895CF92DF92EF92FF92C7
:101EE0000F931F93CF93DF937C01CB018A01209145
:101EF0003E04222389F0EB016B01C40ED51ECC15E4
:101F0000DD0561F06991D701ED91FC910190F081BF
:101F1000E02DC7011995F3CF642F88DFC801DF9149
:101F2000CF911F910F91FF90EF90DF90CF90089588
:101F3000CF93DF931F92CDB7DEB7698320913E0424
:101F40002223D1F020916104203240F021E030E0E2
:101F5000FC013383228380E090E014C080913F0431
:101F6000E82FF0E0E05CFB4F998190838F5F8093D6
:101F70003F048093610404C061E0CE01019656DF06
:101F800081E090E00F90DF91CF910895089580E077
:101F900090E008950E94671F009719F0805C9F4FA2
:101FA000CBCB08951F920F920FB60F9211240BB650
:101FB0000F922F933F934F935F936F937F938F93E2
:101FC0009F93AF93BF93EF93FF9382E694E01CDE61
:101FD000FF91EF91BF91AF919F918F917F916F9101
:101FE0005F914F913F912F910F900BBE0F900FBEBD
:101FF0000F901F9018951F920F920FB60F921124F9
:102000000BB60F922F933F934F935F936F937F93F2
:102010008F939F93AF93BF93EF93FF9382E694E0E8
:1020200066DCFF91EF91BF91AF919F918F917F916E
:102030006F915F914F913F912F910F900BBE0F9039
:102040000FBE0F901F9018951F920F920FB60F9210
:1020500011240BB60F922F933F934F935F936F937F
:102060007F938F939F93AF93BF93EF93FF938FEFE4
:1020700094E0CADDFF91EF91BF91AF919F918F9155
:102080007F916F915F914F913F912F910F900BBE78
:102090000F900FBE0F901F9018951F920F920FB6C2
:1020A0000F9211240BB60F922F933F934F935F9390
:1020B0006F937F938F939F93AF93BF93EF93FF9310
:1020C0008FEF94E014DCFF91EF91BF91AF919F915E
:1020D0008F917F916F915F914F913F912F910F90D1
:1020E0000BBE0F900FBE0F901F9018951F920F926E
:1020F0000FB60F9211240BB60F922F933F934F936D
:102100005F936F937F938F939F93AF93BF93EF935F
:10211000FF938CE995E078DDFF91EF91BF91AF914E
:102120009F918F917F916F915F914F913F912F91EF
:102130000F900BBE0F900FBE0F901F9018951F921F
:102140000F920FB60F9211240BB60F922F933F935D
:102150004F935F936F937F938F939F93AF93BF93AF
:10216000EF93FF938CE995E0C2DBFF91EF91BF9174
:10217000AF919F918F917F916F915F914F913F911F
:102180002F910F900BBE0F900FBE0F901F901895C0
:102190001F920F920FB60F9211240BB60F922F932E
:1021A0003F934F935F936F937F938F939F93AF93DF
:1021B000BF93EF93FF9389E396E026DDFF91EF91C4
:1021C000BF91AF919F918F917F916F915F914F914F
:1021D0003F912F910F900BBE0F900FBE0F901F904D
:1021E00018951F920F920FB60F9211240BB60F92F3
:1021F0002F933F934F935F936F937F938F939F930F
:10220000AF93BF93EF93FF9389E396E070DBFF9169
:10221000EF91BF91AF919F918F917F916F915F915E
:102220004F913F912F910F900BBE0F900FBE0F90CB
:102230001F9018951F920F920FB60F9211240F90B6
:102240000FBE0F901F9018953F924F925F926F9222
:102250007F928F929F92AF92BF92CF92DF92EF9236
:10226000FF920F931F93CF93DF935C016901DA0113
:102270003C90232B19F4CC24CA94DC2C7A012A013B
:10228000460E571EC0E0D0E000E010E087E0682E68
:10229000712CE414F50409F443C00C151D0508F075
:1022A00067C04701F50180819181D7016D917D0162
:1022B0000C2E01C0660F0A94EAF763296F77DC01E0
:1022C000ED91FC910190F081E02D19950F5F1F4F6A
:1022D000F401608170E0C3018C1B9D0B02C07595F9
:1022E00067958A95E2F7362E2196C730D10588F298
:1022F000C016D10699F0D5018D919C91632D6F7711
:10230000DC01ED91FC910190F081E02D19950F5FBA
:102310001F4F331C3324331C2797E7CF8601B9CFD7
:10232000209731F10C151D0518F5F501808191817B
:1023300061E070E001C0660FCA95EAF76150632161
:10234000DC01ED91FC910190F081E02DDF91CF91C6
:102350001F910F91FF90EF90DF90CF90BF90AF90C3
:102360009F908F907F906F905F904F903F901994C7
:10237000DF91CF911F910F91FF90EF90DF90CF9061
:10238000BF90AF909F908F907F906F905F904F9095
:102390003F900895DF92EF92FF920F931F93CF9398
:1023A000DF93FC01E058FF4FD080DD2009F45CC0D2
:1023B000EC01C05CDF4FA881B981109709F454C0CB
:1023C000FC01EF57FF4F00811181F801F180E0809F
:1023D000ED91FC9111970190F081E02D60EFCD011E
:1023E000199588819981DC01ED91FC910190F08132
:1023F000E02D69E7199588819981DC01ED91FC91C7
:102400000190F081E02D6E2D199588819981DC0174
:10241000ED91FC910190F081E02D6F2D19957801DF
:10242000B2E0EB0EF11C0D0D111DE016F10659F096
:1024300020E030E0A70161E070E0CE0105DFEFEFC2
:10244000EE1AFE0AF2CF88819981DC01ED91FC91B0
:102450000190F081E02D67EFDF91CF911F910F91F7
:10246000FF90EF90DF901994DF91CF911F910F9122
:10247000FF90EF90DF900895009709F08BCF0895BB
:102480001F920F920FB60F9211240BB60F922F933B
:102490003F934F935F936F937F938F939F93AF93EC
:1024A000BF93EF93FF938091B900887F803609F442
:1024B0009CC068F5883209F45BC090F4803109F45F
:1024C00054C038F4882309F4F6C0883009F44DC0AC
:1024D000F5C0883109F44CC0803209F45DC0EEC00B
:1024E000803409F468C048F4803309F455C0883357
:1024F00009F0E4C080933B04D8C0803509F44FC094
:10250000883509F45DC0883409F0D8C0D6C0883950
:1025100009F4C7C0A8F4883709F467C038F48836CE
:1025200009F463C0803709F460C0C8C0883809F472
:10253000B8C0803909F45FC0803809F0BFC05BC003
:10254000803B09F486C038F4803A09F466C0883AC2
:1025500009F47FC0B3C0803C09F4A7C0883C09F4EB
:10256000A4C0883B09F48AC0A9C08091180410C097
:1025700090913A0480913904981770F5E0913A04EB
:1025800081E08E0F80933A04F0E0E75EFB4F80819C
:102590008093BB0085EC86C080933B048EC0E091A5
:1025A0003A0481E08E0F80933A048091BB00F0E002
:1025B000E75EFB4F808390913A04809139046EC0AE
:1025C000E0913A0481E08E0F80933A048091BB0041
:1025D000F0E0E75EFB4F808380913C0481116DC089
:1025E00081E08093170484EA61C083E080933D0416
:1025F0001092C109CFCF8091C109803208F051C03B
:10260000E091C10981E08E0F8093C1098091BB00E8
:10261000F0E0EF55F64F8083BDCF85EC8093BC0092
:1026200010923D048091C109803230F4E091C109DB
:10263000F0E0EF55F64F10826091C10970E0E09133
:102640007D09F0917E0981EA99E019951092C109FE
:1026500035C084E080933D041092A00910929F0938
:10266000E0917B09F0917C09199580919F09811176
:1026700005C081E080939F0910927F09E091A00935
:1026800081E08E0F8093A009F0E0E158F64F808141
:102690008093BB009091A00980919F09981708F43E
:1026A00079CF85E88093BC0009C085EC8093BC009D
:1026B00010923D0403C010923B04AEDBFF91EF91FA
:1026C000BF91AF919F918F917F916F915F914F914A
:1026D0003F912F910F900BBE0F900FBE0F901F9048
:1026E0001895DF92EF92FF920F931F93CF93DF9392
:1026F000EC01D62E7A0189018881803308F067C009
:1027000061E08D2D63D98881E82FF0E09F01220FD1
:10271000331FE20FF31FE85CF74F9D2D9F7320815D
:10272000207CD22ED92AD08220E232E02E193F0915
:1027300037FF02C02D5F3F4F35952795359527957B
:10274000298320E639E0201B310B37FF02C02D5FC3
:102750003F4F35952795359527952A836CE00E9444
:10276000321E9CE0899FB001112440E050E09B01A3
:10277000240F351FF901EE0FFF1F2E0F3F1FF90128
:10278000E85CF74F908196FD16C04F5F5F4F4C306D
:10279000510569F7813021F51092800082E0809325
:1027A00081001092850010928400B19A80916F0090
:1027B000826080936F00E881F0E0CF01880F991F5D
:1027C000E80FF91FE85CF74F80818064808388817F
:1027D000DF91CF911F910F91FF90EF90DF900895BF
:1027E000823061F4109290008093910010929500D5
:1027F0001092940088BB80937100DDCF833069F420
:102800001092A00082E08093A1001092A500109287
:10281000A40089BB80937200CECF8111CCCF1092DF
:10282000200182E080932101109225011092240161
:102830008ABB80937300BFCF1F920F920FB60F9287
:1028400011240BB60F922F933F934F935F936F9387
:102850007F938F939F93AF93BF93EF93FF9348E240
:1028600051E064E271E080E090E00E940906FF918F
:10287000EF91BF91AF919F918F917F916F915F91F8
:102880004F913F912F910F900BBE0F900FBE0F9065
:102890001F9018951F920F920FB60F9211240BB62E
:1028A0000F922F933F934F935F936F937F938F93E9
:1028B0009F93AF93BF93EF93FF9348EA50E064EA8E
:1028C00070E083E090E00E940906FF91EF91BF91D4
:1028D000AF919F918F917F916F915F914F913F91B8
:1028E0002F910F900BBE0F900FBE0F901F90189559
:1028F0001F920F920FB60F9211240BB60F922F93C7
:102900003F934F935F936F937F938F939F93AF9377
:10291000BF93EF93FF9348E950E064E970E082E0F1
:1029200090E00E940906FF91EF91BF91AF919F91B6
:102930008F917F916F915F914F913F912F910F9068
:102940000BBE0F900FBE0F901F9018951F920F9205
:102950000FB60F9211240BB60F922F933F934F9304
:102960005F936F937F938F939F93AF93BF93EF93F7
:10297000FF9348E850E064E870E081E090E00E9456
:102980000906FF91EF91BF91AF919F918F917F9138
:102990006F915F914F913F912F910F900BBE0F90D0
:1029A0000FBE0F901F9018953FB7F8948091C909FA
:1029B0009091CA09A091CB09B091CC0926B5A89BEA
:1029C00005C02F3F19F00196A11DB11D3FBFBA2FC1
:1029D000A92F982F8827820F911DA11DB11DBC0121
:1029E000CD0142E0660F771F881F991F4A95D1F7E6
:1029F00008951F920F920FB60F9211242F933F93B9
:102A00008F939F93AF93BF938091C4099091C50911
:102A1000A091C609B091C7093091C80923E0230FDE
:102A20002D3720F40196A11DB11D05C026E8230F06
:102A30000296A11DB11D2093C8098093C4099093EB
:102A4000C509A093C609B093C7098091C90990919F
:102A5000CA09A091CB09B091CC090196A11DB11D65
:102A60008093C9099093CA09A093CB09B093CC096C
:102A7000BF91AF919F918F913F912F910F900FBE7A
:102A80000F901F901895789484B5826084BD84B5AA
:102A9000816084BD85B5826085BD85B5816085BD59
:102AA00080916E00816080936E0010928100809111
:102AB0008100826080938100809181008160809399
:102AC0008100809180008160809380008091B100BE
:102AD00084608093B1008091B00081608093B000E9
:102AE000809191008260809391008091910081603B
:102AF00080939100809190008160809390008091FC
:102B0000A10082608093A1008091A10081608093E8
:102B1000A1008091A00081608093A000809121019C
:102B20008260809321018091210181608093210145
:102B30008091200181608093200180917A008460DF
:102B400080937A0080917A00826080937A008091ED
:102B50007A00816080937A0080917A008068809307
:102B60007A001092C10085E1809356078091570743
:102B7000909158070E94DE1EC0915607D0E0CE010A
:102B800001960E94461E9093580780935707FC01B8
:102B9000EC0FFD1F108212E0DC011C9325E0119662
:102BA0002C93AE01425051096AEE72E002960E94E7
:102BB0006B1F8AEA92E09093D2038093D10384EF53
:102BC00091E09093D0038093CF038FEB91E09093AB
:102BD000CE038093CD0381E197E09093CC03809363
:102BE000CB038CE694E09093CA038093C9038AEAEE
:102BF00091E09093C8038093C7038BE398E0909390
:102C0000D4038093D30384EC95E09093D603809310
:102C1000D503E0914906F0914A061083E0914906F8
:102C2000F0914A061082E0914506F0914606108226
:102C3000E0914706F091480680E1808310925106AA
:102C4000E0914D06F0914E0686E08083E0914B06C0
:102C5000F0914C06808180618083E0914B06F09179
:102C60004C06808188608083E0914B06F0914C0691
:102C7000808180688083E0914B06F0914C068081D2
:102C80008F7D808380912B08811140C061E08DE0B1
:102C90000E94E60CC0E062ED70E080E090E00E94EF
:102CA000410D61E08DE00E94B80C68E270E080E0C8
:102CB00090E00E94410D60E08DE00E94B80CCF5F73
:102CC000C23049F76AEF70E080E090E00E94410D69
:102CD000C0E062ED70E080E090E00E94410D61E0B4
:102CE0008DE00E94B80C68E270E080E090E00E9405
:102CF000410D60E08DE00E94B80CCF5FC53049F710
:102D00006DE770E080E090E00E94410D89E396E07D
:102D10009093550780935407909317078093160755
:102D200086E197E00E949C0B86ED96E033DB0E94E3
:102D3000C405D5E0DD24D39402E010E0EE24E39452
:102D4000F12C8091E0038823C1F1C090D703C2FE2B
:102D5000DDC482E00E94900C892B09F4D7C4C4E042
:102D6000C3FE06C083E00E94900C892B09F0D0C4FA
:102D7000C4FE06C084E00E94900C892B09F0CAC4EE
:102D8000C5FE06C085E00E94900C892B09F0C4C4E2
:102D9000C6FE06C086E00E94900C892B09F0BEC4D6
:102DA000C7FE06C087E00E94900C892B09F0B8C4CA
:102DB00040E06C2F80E00E94CE068091E1038823E2
:102DC00009F448C0C090D803C0FEACC488E00E949B
:102DD000900C892B09F4A6C4C1E0C1FE06C089E0AD
:102DE0000E94900C892B09F09FC4C2FE06C08AE0A5
:102DF0000E94900C892B09F099C4C3FE06C08BE099
:102E00000E94900C892B09F093C4C4FE06C08CE08C
:102E10000E94900C892B09F08DC4C5FE06C08DE080
:102E20000E94900C892B09F087C4C6FE06C08EE074
:102E30000E94900C892B09F081C4C7FE06C08FE068
:102E40000E94900C892B09F07BC440E06C2F81E03C
:102E50000E94CE068091E203882309F448C0C09006
:102E6000D903C0FE6FC480E10E94900C892B09F445
:102E700069C4C1E0C1FE06C081E10E94900C892BAB
:102E800009F062C4C2FE06C082E10E94900C892B48
:102E900009F05CC4C3FE06C083E10E94900C892B3C
:102EA00009F056C4C4FE06C084E10E94900C892B30
:102EB00009F050C4C5FE06C085E10E94900C892B24
:102EC00009F04AC4C6FE06C086E10E94900C892B18
:102ED00009F044C4C7FE06C087E10E94900C892B0C
:102EE00009F03EC440E06C2F82E00E94CE06809143
:102EF000E303882309F448C0C090DA03C0FE32C45B
:102F000088E10E94900C892B09F42CC4C1E0C1FE19
:102F100006C089E10E94900C892B09F025C4C2FEED
:102F200006C08AE10E94900C892B09F01FC4C3FEE1
:102F300006C08BE10E94900C892B09F019C4C4FED5
:102F400006C08CE10E94900C892B09F013C4C5FEC9
:102F500006C08DE10E94900C892B09F00DC4C6FEBD
:102F600006C08EE10E94900C892B09F007C4C7FEB1
:102F700006C08FE10E94900C892B09F001C440E04B
:102F80006C2F83E00E94CE068091E403882309F42D
:102F900048C0C090DB03C0FEF5C380E20E94900CE5
:102FA000892B09F4EFC3C1E0C1FE06C081E20E9493
:102FB000900C892B09F0E8C3C2FE06C082E20E9491
:102FC000900C892B09F0E2C3C3FE06C083E20E9485
:102FD000900C892B09F0DCC3C4FE06C084E20E9479
:102FE000900C892B09F0D6C3C5FE06C085E20E946D
:102FF000900C892B09F0D0C3C6FE06C086E20E9461
:10300000900C892B09F0CAC3C7FE06C087E20E9454
:10301000900C892B09F0C4C340E06C2F84E00E941F
:10302000CE068091E503882309F448C0C090DC03F4
:10303000C0FEB8C388E20E94900C892B09F4B2C389
:10304000C1E0C1FE06C089E20E94900C892B09F004
:10305000ABC3C2FE06C08AE20E94900C892B09F025
:10306000A5C3C3FE06C08BE20E94900C892B09F019
:103070009FC3C4FE06C08CE20E94900C892B09F00D
:1030800099C3C5FE06C08DE20E94900C892B09F001
:1030900093C3C6FE06C08EE20E94900C892B09F0F5
:1030A0008DC3C7FE06C08FE20E94900C892B09F0E9
:1030B00087C340E06C2F85E00E94CE068091E60336
:1030C000882309F448C0C090DD03C0FE7BC380E3C1
:1030D0000E94900C892B09F475C3C1E0C1FE06C0A3
:1030E00081E30E94900C892B09F06EC3C2FE06C0DA
:1030F00082E30E94900C892B09F068C3C3FE06C0CE
:1031000083E30E94900C892B09F062C3C4FE06C0C1
:1031100084E30E94900C892B09F05CC3C5FE06C0B5
:1031200085E30E94900C892B09F056C3C6FE06C0A9
:1031300086E30E94900C892B09F050C3C7FE06C09D
:1031400087E30E94900C892B09F04AC340E06C2F62
:1031500086E00E94CE068091E703882309F448C0E8
:10316000C090DE03C0FE3EC388E30E94900C892B12
:1031700009F438C3C1E0C1FE06C089E30E94900C87
:10318000892B09F031C3C2FE06C08AE30E94900C6D
:10319000892B09F02BC3C3FE06C08BE30E94900C61
:1031A000892B09F025C3C4FE06C08CE30E94900C55
:1031B000892B09F01FC3C5FE06C08DE30E94900C49
:1031C000892B09F019C3C6FE06C08EE30E94900C3D
:1031D000892B09F013C3C7FE06C08FE30E94900C31
:1031E000892B09F00DC340E06C2F87E00E94CE06CA
:1031F0008091E8038823C1F1C090DF03C0FE02C3C1
:1032000080E40E94900C892B09F4FCC2C1E0C1FE4D
:1032100006C081E40E94900C892B09F0F5C2C2FE21
:1032200006C082E40E94900C892B09F0EFC2C3FE15
:1032300006C083E40E94900C892B09F0E9C2C4FE09
:1032400006C084E40E94900C892B09F0E3C2C5FEFD
:1032500006C085E40E94900C892B09F0DDC240E095
:103260006C2F88E00E94CE068091540790915507FC
:10327000DC01ED91FC910084F185E02D1995892BFD
:1032800009F4CEC18091540790915507DC01ED916E
:10329000FC910284F385E02D19959C018F3FBFEFCF
:1032A0009B0711F3982F80912107882309F492C07E
:1032B000973F09F07EC010922107A0911907B091A5
:1032C0001A076C916137C1F1693709F05CC0E09170
:1032D0004E07F0914F07309739F280912207909175
:1032E00023078330910538F420E030E040E050E0DF
:1032F00060E070E01BC0BD016D5F7F4F03970E94CF
:103300005E0CBC016D5F7F4F80E00E942F0CE0914E
:103310001907F0911A079F012D5F3F4F428150E03E
:10332000618170E0E0914E07F0914F078091300786
:1033300090913107199598CF80914A0790914B074A
:10334000892B09F491CFBD016F5F7F4F80912207D8
:103350009091230701970E945E0CBC016F5F7F4F25
:1033600080E00E942F0C6091190770911A076F5F1F
:103370007F4FE0914A07F0914B078091360790917B
:103380003707199571CFE0914C07F0914D073097B1
:1033900009F46ACF9D012F5F3F4F40912207509162
:1033A00023074150510980913807909139071995A9
:1033B0005BCF6091220770912307822F0E942F0C10
:1033C0008091220790912307019690932307809381
:1033D00022074ACF60911F07709120076115710580
:1033E00009F4AFC027FDADC061507109709320078B
:1033F00060931F07822F0E942F0C80911F079091CE
:103400002007892B09F030CF80911D07882309F40C
:103410002BCF803D09F47FC030F4803939F1803CF6
:1034200009F466C08BC0843FE1F1853F09F44DC0CB
:10343000803E09F083C0E0913C07F0913D07309752
:1034400009F47CC0A0911907B0911A078C911196CC
:103450004C9150E090E8899F400D511D11246091DE
:103460001E07809124079091250767C0E0913E07D1
:10347000F0913F07309709F461C0A0911907B0910E
:103480001A078C9111964C9150E0A0E88A9F400D4C
:10349000511D112460911E078091260790912707E6
:1034A0004CC0E0914407F0914507309709F446C0BD
:1034B000A0911907B0911A074C9150E011966C91A8
:1034C00080912C0790912D0738C0E0914607F0912C
:1034D0004707309799F1A0911907B0911A074C91BD
:1034E00050E011966C9180912E0790912F0725C086
:1034F000E0914007F0914107309701F1A091190741
:10350000B0911A074C9150E060911E0780912807F6
:103510009091290712C0E0914207F091430730973C
:1035200069F0A0911907B0911A074C9150E0609191
:103530001E0780912A0790912B07199510921D075D
:1035400093CE903F30F4822F8F7080931E07922F7E
:10355000907F903F79F158F4903C29F118F490391C
:10356000E9F082CE903DF9F0903EC1F07DCE993FDA
:1035700009F449C028F48CE0890F823078F074CEC9
:103580009F3F09F071CE1092200710921F071092F2
:103590001D0710921E0780E090E013C010932007D3
:1035A00000931F0704C0F0922007E0921F0790933A
:1035B0001D075ACED092210710922307109222079E
:1035C00053CE20911B0730911C078217930748F4B4
:1035D000E0911907F0911A07E80FF91F1082019680
:1035E000F0CF109221071092230710922207E0914A
:1035F0005207F0915307309709F436CE80913A077D
:1036000090913B070BC0E0915007F0915107309724
:1036100009F42ACE8091320790913307199524CE70
:103620008FB7F8944091C4095091C5096091C609BB
:103630007091C7098FBF8090130490901404A090DC
:103640001504B09016042091010230910202C901C4
:10365000A0E0B0E0481959096A097B098417950769
:10366000A607B70708F04FC0880D991DAA1DBB1DFE
:103670008093130490931404A0931504B09316043C
:1036800089E5A82E87E0B82ECAECC031B8F4F50160
:103690008081823099F480911104909112040C2E53
:1036A00002C0959587950A94E2F780FF07C08C2F9A
:1036B0000E94220DBC018C2F0E94E20ACF5FFFEF17
:1036C000AF1ABF0AC03109F78091000287FD1BC005
:1036D000C0E02C2F30E080910002082E000C990BE6
:1036E0008217930784F0D29FF001D39FF00D11242D
:1036F000E751FC4F618172812481438180810E9466
:103700008E07CF5FE6CF0E94930E1BCBC0E028CB85
:10371000C8602ECBC06134CBC0623ACBC06440CB12
:10372000C06846CBC0E059CBC2605FCBC46065CBFC
:10373000C8606BCBC06171CBC06277CBC0647DCBFE
:10374000C06883CBC0E096CBC2609CCBC460A2CBE8
:10375000C860A8CBC061AECBC062B4CBC064BACBEA
:10376000C068C0CBC0E0D3CBC260D9CBC460DFCBD4
:10377000C860E5CBC061EBCBC062F1CBC064F7CBD6
:10378000C068FDCBC0E010CCC26016CCC4601CCCBD
:10379000C86022CCC06128CCC0622ECCC06434CCBE
:1037A000C0683ACCC0E04DCCC26053CCC46059CCA8
:1037B000C8605FCCC06165CCC0626BCCC06471CCAA
:1037C000C06877CCC0E08ACCC26090CCC46096CC94
:1037D000C8609CCCC061A2CCC062A8CCC064AECC96
:1037E000C068B4CCC0E0C7CCC260CDCCC460D3CC80
:1037F000C860D9CCC061DFCCC062E5CCC064EBCC82
:10380000C068F1CCC0E003CDC26009CDC4600FCD6B
:10381000C86015CDC0611BCDC06221CD109265047A
:103820001092640488EE93E0A0E0B0E08093660418
:1038300090936704A0936804B09369042DE032E08C
:10384000309363042093620445E351E050936F0486
:1038500040936E0444E351E050937104409370042C
:1038600040E351E0509373044093720441E351E00C
:10387000509375044093740442E351E050937704ED
:103880004093760446E351E05093790440937804E2
:1038900010927B0410927C0410927D0410927E049E
:1038A0001092020510920105809303059093040580
:1038B000A0930505B0930605309300052093FF04FF
:1038C00045ED50E050930C0540930B0544ED50E05E
:1038D00050930E0540930D0540ED50E050931005B8
:1038E00040930F0541ED50E05093120540931105B0
:1038F00042ED50E0509314054093130546ED50E01F
:10390000509316054093150510921805109219054D
:1039100010921A0510921B0510929F0510929E0599
:103920008093A0059093A105A093A205B093A30551
:1039300030939D0520939C054DEC50E05093A905D4
:103940004093A8054CEC50E05093AB054093AA057A
:1039500048EC50E05093AD054093AC0549EC50E085
:103960005093AF054093AE054AEC50E05093B1053B
:103970004093B0054EEC50E05093B3054093B20530
:103980001092B5051092B6051092B7051092B805C1
:1039900010923C0610923B0680933D0690933E06A3
:1039A000A0933F06B093400630933A062093390621
:1039B00025EC30E0309346062093450624EC30E0B9
:1039C000309348062093470620EC30E030934A06B7
:1039D0002093490621EC30E030934C0620934B06AF
:1039E00022EC30E030934E0620934D0626EC30E07A
:1039F0003093500620934F061092520610925306B1
:103A0000109254061092550626ED36E010921707D4
:103A10001092160730931A072093190740E450E0DC
:103A200050931C0740931B0710921D0710921E070E
:103A30001092200710921F0710922107109223075F
:103A40001092220710922507109224071092270740
:103A500010922607109229071092280710922B0720
:103A600010922A0710922D0710922C0710922F0700
:103A700010922E07109235071092340710923707D4
:103A800010923607109239071092380710923B07B0
:103A900010923A071092490710924807109218079F
:103AA00010925607109258071092570710922B0841
:103AB00042E05FE050933D0740933C0748EF5EE0F3
:103AC00050933F0740933E074AED5EE05093410715
:103AD0004093400740ED5EE0509343074093420718
:103AE0004EEE5EE0509345074093440744EE5EE09F
:103AF00050934707409346074FEC5EE050934B07C7
:103B000040934A0744EC5EE050934D0740934C07C6
:103B10004CE352E150934F0740934E0730933107E7
:103B2000209330074CEC5FE05093510740935007CF
:103B300030933307209332072CEB3EE0309353074A
:103B40002093520710922F0810922E08809330086D
:103B500090933108A0933208B09333088FE192E03C
:103B600090932D0880932C088091C808A9ECB8E0A8
:103B70009FEF48EB5BE0803378F48C93282F30E0A4
:103B8000F901EE0FFF1F2E0F3F1FF901E85CF74F01
:103B9000528341838F5F01C09C93139629E0A9351E
:103BA000B20749F78093C8080895052E97FB16F4CD
:103BB00000940FD057FD05D024D007FC02D046F466
:103BC00008C050954095309521953F4F4F4F5F4F1E
:103BD000089590958095709561957F4F8F4F9F4F79
:103BE000089531D0A59F900DB49F900DA49F800D96
:103BF000911D11240895B7FFF4CFF3DF821B930BBF
:103C00000895A1E21A2EAA1BBB1BFD010DC0AA1F1D
:103C1000BB1FEE1FFF1FA217B307E407F50720F035
:103C2000A21BB30BE40BF50B661F771F881F991FB0
:103C30001A9469F760957095809590959B01AC01F9
:103C4000BD01CF010895A29FB001B39FC001A39F02
:103C5000700D811D1124911DB29F700D811D1124C5
:103C6000911D0895991B79E004C0991F961708F0DB
:103C7000961B881F7A95C9F780950895EE0FFF1F50
:103C8000881F8BBF0790F691E02D19940F931F9317
:103C9000CF93DF938230910510F482E090E0E091C1
:103CA000CF09F091D00920E030E0A0E0B0E03097FB
:103CB00019F1408151810281138148175907C8F0D9
:103CC0008417950769F4109731F012960C931297A8
:103CD00013961C9327C00093CF091093D00922C0DC
:103CE0002115310519F04217530718F49A01BD0147
:103CF000EF01DF01F801DBCF21153105F9F0281BB9
:103D0000390B2430310580F48A819B81611571055E
:103D100021F0FB019383828304C09093D0098093A8
:103D2000CF09FE01329644C0FE01E20FF31F8193DA
:103D3000919322503109398328833AC02091CD09CB
:103D40003091CE09232B41F42091050230910602D7
:103D50003093CE092093CD092091030230910402C3
:103D60002115310541F42DB73EB74091070250911E
:103D70000802241B350BE091CD09F091CE09E21722
:103D8000F307A0F42E1B3F0B2817390778F0AC017E
:103D90004E5F5F4F2417350748F04E0F5F1F50935B
:103DA000CE094093CD098193919302C0E0E0F0E009
:103DB000CF01DF91CF911F910F910895CF93DF93A2
:103DC000009709F481C0FC01329713821282A091FE
:103DD000CF09B091D009109781F420813181820FF1
:103DE000931F2091CD093091CE092817390751F53D
:103DF000F093CE09E093CD0967C0ED0120E030E0FB
:103E0000CE17DF0740F44A815B819E0141155105C1
:103E1000F1F0EA01F5CFD383C28340815181840F51
:103E2000951FC817D90759F488819981840F951F68
:103E30000296918380838A819B819383828321155B
:103E4000310529F4F093D009E093CF093DC0E90191
:103E5000FB83EA8349915991C40FD51FEC17FD07E5
:103E600061F480819181840F951F0296E901998305
:103E70008883828193819B838A83E0E0F0E01296BD
:103E80008D919C911397009719F0FD01DC01F7CFFC
:103E90008D919C9111979D012E5F3F4F820F931F33
:103EA0002091CD093091CE092817390769F4309750
:103EB00029F41092D0091092CF0902C01382128205
:103EC000B093CE09A093CD09DF91CF91089581E001
:103ED00090E0F8940FC0FB01DC014150504048F0E5
:103EE00001900D920020C9F701C01D924150504031
:083EF000E0F70895F894FFCFFC
:103EF800FF13000000D109800000000000260E79A1
:103F08000DA30D720ED40DB20DC60D000000009861
:103F18000F6C0FC70F400F640F500F410F4D6178A2
:103F280020736572766F7320617474616368656469
:103F380000556E6B6E6F776E2070696E206D6F64C2
:103F480065004932433A20546F6F206D616E7920C5
:103F58006279746573207265636569766564004982
:103F680032433A20546F6F20666577206279746512
:103F7800732072656365697665640031302D626906
:103F8800742061646472657373696E67206E6F7400
:103F980020737570706F7274656400746F6F206D34
:103FA800616E79207175657269657300433A5C5575
:103FB800736572735C68705C446F63756D656E746D
:103FC800735C41726475696E6F5C5374616E646191
:103FD80072644669726D6174615C5374616E646188
:0E3FE80072644669726D6174612E696E6F00BD
:00000001FF
