:100000000C94D6000C94FE000C94FE000C94FE00A0
:100010000C94FE000C94FE000C94FE000C94FE0068
:100020000C94FE000C94FE000C94FE000C94FE0058
:100030000C94FE000C94FE000C94FE000C94FE0048
:100040000C94C4060C94FE000C9492060C946C065E
:100050000C94FE000C94FE000C94FE000C94FE0028
:100060000C94FE000C94FE00000000002400270009
:100070002A0000000000250028002B0000000000DE
:1000800023002600290004040404040404040202DA
:100090000202020203030303030301020408102007
:1000A0004080010204081020010204081020000012
:1000B0000008000201000003040700000000000027
:1000C0000000404F5554313A23477265656E0A402F
:1000D0004F5554323A235265640A404F5554333ACF
:1000E0002359656C6C6F770A404F5554343A23346A
:1000F0000A404F5554353A23350A404F5554363A45
:1001000023360A404F5554373A23370A404F555447
:10011000383A23380A40494E313A234C65667450C8
:100120006F6B650A40494E323A23526967687450D2
:100130006F6B650A40494E333A23330A40494E34C7
:100140003A23340A40494E353A23350A40494E365F
:100150003A23360A4043313A4C69676874332028A1
:100160006C6F6F703D3130290A40433153313A533F
:100170007769746865720A40433153323A47726551
:10018000656E20337365630A40433153333A5265D9
:100190006420327365630A40433153343A59656CC5
:1001A0006C6F7720347365630A000E0711241FBE3D
:1001B000CFEFD8E0DEBFCDBF23E0ACEAB1E001C0B5
:1001C0001D92AA35B207E1F711E0A0E0B1E0E8E73F
:1001D000FDE102C005900D92AC3AB107D9F710E0ED
:1001E000C6EDD0E004C02197FE010E946D0BC53D15
:1001F000D107C9F70E94BD070C94BA0E0C940000F9
:10020000089580E0089580E090E0089580E090E017
:10021000089560E070E0CB0108958AE090E00895D1
:100220008091BF019091C001089560E070E080E48A
:1002300090E408958091C9019091CA010895809138
:10024000C7019091C80108958091CB019091CC0194
:10025000089581E090E008958091C5019091C601D4
:10026000089581E090E008958091C5019091C601C4
:10027000089581E090E008958091C5019091C601B4
:100280000895CF92DF92EF92FF920F931F93CF9337
:10029000DF936C017A018B01C0E0D0E0CE15DF0561
:1002A00089F0D8016D918D01D601ED91FC910190FD
:1002B000F081E02DC6010995892B11F47E0102C061
:1002C0002196ECCFC701DF91CF911F910F91FF9045
:1002D000EF90DF90CF900895FC01918D828D98175B
:1002E00061F0828DDF01A80FB11D5D968C91928D1A
:1002F0009F5F9F73928F90E008958FEF9FEF089517
:10030000FC01918D828D981731F0828DE80FF11DDF
:10031000858D90E008958FEF9FEF0895FC01918DFA
:10032000228D892F90E0805C9F4F821B91098F73F3
:100330009927089581E092E00E948E0121E0892BA7
:1003400009F420E0822F0895FC01848DDF01A80FBD
:10035000B11DA35ABF4F2C91848D90E001968F73ED
:100360009927848FA689B7892C93A089B1898C910C
:1003700080648C93938D848D981306C00288F389D2
:10038000E02D80818F7D80830895EF92FF920F93FF
:100390001F93CF93DF93EC0181E0888F9B8D8C8D31
:1003A000981305C0E889F989808185FD24C0F62E5F
:1003B0000B8D10E00F5F1F4F0F731127E02E8C8DF8
:1003C000E8120CC00FB607FCFACFE889F9898081E2
:1003D00085FFF5CFCE010E94A401F1CF8B8DFE01E8
:1003E000E80FF11DE35AFF4FF0820B8FEA89FB897A
:1003F0008081806207C0EE89FF896083E889F9897E
:1004000080818064808381E090E0DF91CF911F91B3
:100410000F91FF90EF900895CF93DF93EC01888DBB
:100420008823C9F0EA89FB89808185FD05C0A889F8
:10043000B9898C9186FD0FC00FB607FCF5CF80817E
:1004400085FFF2CFA889B9898C9185FFEDCFCE01C8
:100450000E94A401E7CFDF91CF91089580E090E062
:10046000892B29F00E949A0181110C9400000895B3
:10047000833081F028F4813099F08230A1F0089522
:100480008730A9F08830B9F08430D1F480918000B1
:100490008F7D03C0809180008F77809380000895C6
:1004A00084B58F7702C084B58F7D84BD0895809117
:1004B000B0008F7703C08091B0008F7D8093B00033
:1004C0000895CF93DF93282F30E0F901E255FF4FD5
:1004D0008491F901E656FF4FD491F901EA57FF4F95
:1004E000C491CC2391F081110E943802EC2FF0E0EE
:1004F000EE0FFF1FE458FF4FA591B491EC91ED234F
:1005000081E090E021F480E002C080E090E0DF91A3
:10051000CF9108951F93CF93DF93282F30E0F901F7
:10052000E255FF4F8491F901E656FF4FD491F9014E
:10053000EA57FF4FC491CC23C9F0162F81110E94B6
:100540003802EC2FF0E0EE0FFF1FEE58FF4FA591A1
:10055000B4918FB7F894111105C09C91ED2FE095DF
:10056000E92302C0EC91ED2BEC938FBFDF91CF918B
:100570001F910895CF93DF9390E0FC01E656FF4F63
:100580002491FC01EA57FF4F8491882361F190E0A8
:10059000880F991FFC01E859FF4FC591D491FC01C8
:1005A000EE58FF4FA591B491611109C09FB7F8941F
:1005B0008881209582238883EC912E230BC06230A2
:1005C00061F49FB7F8943881822F809583238883C4
:1005D000EC912E2B2C939FBF06C08FB7F894E88127
:1005E0002E2B28838FBFDF91CF9108952FB7F894DA
:1005F0006091BB017091BC018091BD019091BE01E1
:100600002FBF08958FE00E94610221E0019709F059
:1006100020E0822F08958EE00E94610221E0019780
:1006200009F020E0822F0895009769F0FC01019005
:100630000020E9F73197AF01481B590BBC0181E05D
:1006400092E00C94410180E090E00895CF93DF9315
:100650000E941403EC0182E791E00E9414038C0FC6
:100660009D1FDF91CF9108952F923F924F925F92FD
:100670006F927F928F929F92AF92BF92CF92DF92B2
:10068000EF92FF920F931F93CF93DF93CDB7DEB717
:10069000E3970FB6F894DEBF0FBECDBF1B01290153
:1006A0003A01670178018090F9019090FA01A090D9
:1006B000FB01B090FC011982BC01CE0101960E94A1
:1006C000920D4AE0BE01675D7F4FC1010E94000E9E
:1006D000BC01CE0101960E94920D65E771E0CE014A
:1006E00001960E94920DC301B201681979098A0925
:1006F0009B092AE0AE01475D5F4F0E940B0EBC01D3
:10070000CE0101960E94920D67E771E0CE0101963D
:100710000E94920DC701B6016419750986099709EF
:100720002AE0AE01475D5F4F0E940B0EBC01CE0177
:1007300001960E94920D63E771E0CE0101960E943E
:10074000920DCE0101960E941403E3960FB6F89421
:10075000DEBF0FBECDBFDF91CF911F910F91FF90F4
:10076000EF90DF90CF90BF90AF909F908F907F9051
:100770006F905F904F903F902F900895CF93DF93AD
:10078000EC011982188281E090E09B838A839D832B
:100790008C8382E090E00E94600C9F838E8382E0D5
:1007A00090E00E94600C99878887DF91CF9108952F
:1007B0008F929F92AF92BF92CF92DF92EF92FF9271
:1007C0000F931F93CF93DF9300D000D01F92CDB72C
:1007D000DEB78C018FE495E5A4E5B0E089839A83C8
:1007E000AB83BC8380910101811107C0F801E85EF1
:1007F000FE4F8081811133C088C0109201018CE1CD
:1008000090E06D830E94600C6C018093B801D092DF
:10081000B9018EE090E00E94600C5C018093B6010B
:10082000B092B70188E390E00E94600C9093B5010C
:100830008093B40188E390E00E94600C9093B30130
:100840008093B201D501F60180E090E06D811D92A8
:100850008193919301968E309105C9F7C7CFC090CF
:10086000B601D090B701C00ED11EF6018081811172
:1008700018C0662309F449C0000F111F000F111F93
:100880008091B4019091B501080F191F0E94F602E2
:10089000F801608371838283938381E0F601808312
:1008A00034C0611132C05801AA0CBB1CAA0CBB1C7D
:1008B0008090B2019090B3018A0C9B1C0E94F602BA
:1008C000F4016083718382839383F6011082209107
:1008D000B4013091B501F901EA0DFB1D2081318190
:1008E00042815381000F111FE091B801F091B901CD
:1008F000E00FF11F0190F081E02D31977B018C0119
:10090000BF01CE0101960E9434030F900F900F900B
:100910000F900F90DF91CF911F910F91FF90EF906B
:10092000DF90CF90BF90AF909F908F90089560E040
:100930008CE00E948A0260E08CE090E00E94D80384
:1009400060E08DE00E948A0260E08DE090E00E940D
:10095000D80389E791E00E942603FFCF4F925F9270
:100960006F927F928F929F92AF92BF92CF92DF92BF
:10097000EF92FF920F931F93CF93DF9300D01F92BC
:10098000CDB7DEB789E49EE4A0E089839A83AB8388
:100990008091000181110BC03CE0832E31E0932E49
:1009A000A12CB12CC12CD12C7724739443C010926C
:1009B00000014090F9015090FA016090FB017090A5
:1009C000FC018CE090E00E94600C5C018093B0011F
:1009D000B092B10186E090E00E94600C6C018093BF
:1009E000AE01D092AF0188E190E00E94600C80934C
:1009F000AC019093AD010CE011E0450156016C0192
:100A0000F801819191918F010E96F4018193919358
:100A10004F0160E00E94BA02F50111925F01F601F8
:100A200041925192619271926F01F1E008311F077A
:100A300039F7B2CFE091B001F091B101C601880F52
:100A4000991FE80FF91F80810E9461026624639458
:100A5000892B09F4612C0E94F6027B018C01E09144
:100A6000AE01F091AF01EC0DFD1D808181110FC031
:100A7000662019F1A091AC01B091AD01AA0DBB1D8A
:100A8000ED92FD920D931C931397708216C0611026
:100A900014C01082E091AC01F091AD01EA0DFB1D94
:100AA0002081318142815381F401808191810196BD
:100AB000BC01CE0101960E943403FFEFCF1ADF0A7A
:100AC00084E0A80EB11CE2E08E0E911CF6E0CF1679
:100AD000D10409F0AFCF0F900F900F90DF91CF911D
:100AE0001F910F91FF90EF90DF90CF90BF90AF904C
:100AF0009F908F907F906F905F904F9008958F920E
:100B00009F92AF92BF92CF92DF92EF92FF92CF93DC
:100B1000DF93EC014A015B0161E00E948A0261E01F
:100B2000CE010E94D8030E94F6026B017C0120E0F6
:100B300030E04AE754E4C501B4010E94CB0B0E94A7
:100B4000730BC60ED71EE81EF91E0E94F6026C1526
:100B50007D058E059F0518F40E94AE04F6CF60E077
:100B60008C2F0E948A0260E0CE01DF91CF91FF902E
:100B7000EF90DF90CF90BF90AF909F908F900C94AC
:100B8000D80340E050E060E870E484E090E00C942A
:100B90007F0540E050E060E070E483E090E00C947A
:100BA0007F0540E050E060E470E482E090E00C9467
:100BB0007F056F927F928F929F92AF92BF92CF925A
:100BC000DF92EF92FF920F931F93CF93DF93EC018D
:100BD0008CA49DA4AAA4BBA40E851F85888999898D
:100BE0000817190709F052C0780182E0E80EF11CDD
:100BF000F98AE88AE1E8EE16EFE3FE0620F4C70181
:100C0000880F991F02C08FEF9FEF0E94600C6C014C
:100C1000F1E8EF16FFE3FF0620F4C701880F991FE4
:100C200002C08FEF9FEF0E94600C7C01D6013C0157
:100C300040E050E08A899B8940175107C9F0BA010A
:100C4000660F771F9C01260F371FF9018081918164
:100C50008D939D938C899D89680F791FFB018081FD
:100C60009181F301819391933F014F5F5F4FE2CFF9
:100C7000009711F00E94F50C8C899D89009711F066
:100C80000E94F50CCA8ADB8AEC8AFD8A8E859F85D4
:100C90009C01220F331FEA89FB89E20FF31FB18207
:100CA000A0824C895D89FA01E20FF31F9182808254
:100CB00001969F878E87DF91CF911F910F91FF90B3
:100CC000EF90DF90CF90BF90AF909F908F907F90EC
:100CD0006F9008950E948D0D1F920F920FB60F9284
:100CE00011242F933F934F935F936F937F938F9331
:100CF0009F93AF93BF93EF93FF9381E092E00E94A5
:100D0000A401FF91EF91BF91AF919F918F917F913E
:100D10006F915F914F913F912F910F900FBE0F9068
:100D20001F9018951F920F920FB60F9211242F93B8
:100D30008F939F93EF93FF93E0911102F091120232
:100D40008081E0911702F091180282FD12C090811B
:100D500080911A028F5F8F7320911B02821751F0CE
:100D6000E0911A02F0E0EF5FFD4F958F80931A0239
:100D700001C08081FF91EF919F918F912F910F90F2
:100D80000FBE0F901F9018951F920F920FB60F92E3
:100D900011242F933F938F939F93AF93BF93809191
:100DA000BB019091BC01A091BD01B091BE013091F9
:100DB000BA0123E0230F2D3720F40196A11DB11DA8
:100DC00005C026E8230F0296A11DB11D2093BA018C
:100DD0008093BB019093BC01A093BD01B093BE0171
:100DE0008091CD019091CE01A091CF01B091D00121
:100DF0000196A11DB11D8093CD019093CE01A093CA
:100E0000CF01B093D001BF91AF919F918F913F914E
:100E10002F910F900FBE0F901F9018954F925F92D9
:100E20006F927F928F929F92AF92BF92CF92DF92FA
:100E3000EF92FF920F931F93CF93DF9310920402D0
:100E40001092030288EE93E0A0E0B0E080930502E8
:100E500090930602A0930702B093080286E691E001
:100E6000909302028093010285EC90E090930E0231
:100E700080930D0284EC90E09093100280930F0217
:100E800080EC90E0909312028093110281EC90E04C
:100E9000909314028093130282EC90E090931602D8
:100EA0008093150286EC90E09093180280931702CD
:100EB00010921A0210921B0210921C0210921D0234
:100EC000CEE9D2E00AEA12E088248A94982C90E0D5
:100ED000692E91E0792E21E0C22E21E0D22E33E05E
:100EE000E32E31E0F32E46E0A42E41E0B42E59E08B
:100EF000452E51E0552E0E94F6026C837D838E8331
:100F00009F83188619861A861B86C8010E94BE0315
:100F10009B828A821F8A1E8A198E188E19821882D5
:100F20007B8E6A8E7D8E6C8EDF8ECE8EF801F58A7A
:100F3000E48AB78AA68A538E428ED78EC68EF18EE9
:100F4000E08EF58EE48EFDA6ECA6AE96025D1F4FF8
:100F5000F3E0C635DF0779F6DF91CF911F910F914E
:100F6000FF90EF90DF90CF90BF90AF909F908F90C9
:100F70007F906F905F904F900895CF93DF93CDB7A0
:100F8000DEB72B970FB6F894DEBF0FBECDBF7894B7
:100F900084B5826084BD84B5816084BD85B582607E
:100FA00085BD85B5816085BD80916E00816080932F
:100FB0006E00109281008091810082608093810098
:100FC00080918100816080938100809180008160A8
:100FD000809380008091B10084608093B100809103
:100FE000B00081608093B00080917A00846080932B
:100FF0007A0080917A00826080937A0080917A00F2
:10100000816080937A0080917A00806880937A0072
:101010001092C100E0911102F091120282E08083EF
:10102000E0910D02F0910E021082E0910F02F0911A
:10103000100287E0808310921902E0911502F0916E
:10104000160286E08083E0911302F0911402808101
:1010500080618083E0911302F091140280818860A6
:101060008083E0911302F091140280818068808374
:10107000E0911302F091140280818F7D808381E8DA
:1010800091E00E94260302EC10E0F80164916111E6
:1010900038C061E082E00E94BA0261E083E00E9411
:1010A000BA0261E084E00E94BA0261E085E00E9439
:1010B000BA0261E086E00E94BA0261E087E00E9425
:1010C000BA0261E088E00E94BA0261E089E00E9411
:1010D000BA028CE390E00E94600C8C0166E271E041
:1010E0000E949D0DF80101900020E9F73197E01B67
:1010F000F10BD80180E090E0C12CD12CE12CF12C37
:1011000019C0E0910102F09102020190F081E02DFE
:1011100081E092E009950F5F1F4F892B09F0B5CF51
:10112000B8CF2D912C3551F02F3241F02E3209F4E9
:101130006C0101968E179F07A1F702C07C01F9CFC1
:10114000F801EC0DFD1D10828BE891E00E94140364
:10115000EC14FD041CF081E991E004C0C701019684
:10116000800F911F0E9414038AE991E00E941403EA
:101170000115110519F0C8010E94F50CEEE9F2E025
:10118000A5ECB1E081E090E021E030E0378B268BE8
:10119000918F808FED93FD930196BE9685309105DA
:1011A000A9F78091FD019091FE019093C001809379
:1011B000BF019093C4018093C3010091C5011091B8
:1011C000C6011093C2010093C10110930002009365
:1011D000FF018DE091E0D80193969C938E939297B6
:1011E00080E191E095969C938E93949785E191E0B0
:1011F00097969C938E9396978AE191E099969C930B
:101200008E9398978BE093E09B969C938E939A97FE
:101210008FE191E09D969C938E939C97C8010E94CC
:10122000D90582E093E0F80193A782A784E291E0D8
:1012300095A784A7C8010E94D905E091C701F09144
:10124000C80181ED95E0958F848F89E291E093A3A9
:1012500082A38CE291E095A384A3E091C901F0916F
:10126000CA0189EC95E0958F848F81E391E093A387
:1012700082A384E391E095A384A3E091CB01F09154
:10128000CC0181EC95E0958F848F89E391E093A365
:1012900082A38CE391E095A384A38EE290E00E9468
:1012A000600C8C010E94F602D80114966D937D9318
:1012B0008D939C931797F8011086118612861386DA
:1012C000C8010C960E94BE038FEF9FEFD8011396C2
:1012D0009C938E93129757961C921E9256975996EE
:1012E0001C921E92589711961C921E9280E091E0DB
:1012F0005B969C938E935A975D969C938E935C9786
:1013000021E031E05F963C932E935E9783E091E07D
:1013100091969C938E93909749E051E097965C93B9
:101320004E9396979B963C932E939A9795969C9363
:101330008E93949799969C938E9398979D969C9351
:101340008E939C971093FE010093FD0187E994E032
:1013500093969C938E93929761E08CE00E94BA02E0
:1013600061E08DE00E94BA0260E08CE00E948A0297
:1013700060E08CE090E00E94D80360E08DE00E9485
:101380008A0260E08DE090E00E94D80381E092E064
:101390000E948E01892BD1F381E092E00E946C01C2
:1013A0008236910599F781E092E00E948E01892BA7
:1013B00029F081E092E00E946C01F5CF3FB7F894EC
:1013C0008091CD019091CE01A091CF01B091D0013B
:1013D00026B5A89B05C02F3F19F00196A11DB11D90
:1013E0003FBFBA2FA92F982F8827820F911DA11DCB
:1013F000B11DBC01CD0152E0660F771F881F991FF8
:101400005A95D1F7611571058105910511F00E947A
:10141000F70D81EA91E00E9426030E94F602609394
:10142000F9017093FA018093FB019093FC0161E054
:101430008CE00E948A0261E08CE090E00E94D80378
:1014400061E08DE00E948A0261E08DE090E00E9400
:10145000D8030091FF01109100020115110509F454
:101460001BC1D8019696ED91FC919797099520E0C4
:1014700030E04AE754E40E94CB0B0E94730BF80162
:1014800060877187828793870E94F602D80114963D
:101490006D937D938D939C9317975A96ED91FC9144
:1014A0005B970995D8015C96ED91FC915D97099544
:1014B000F801C480D580E680F7801092D10168EAF7
:1014C00071E081ED91E00E94920D4AE0BE016F5FF4
:1014D0007F4FD80156968D919C9157970E94000E90
:1014E000BC0181ED91E00E94920D6AEA71E081ED0C
:1014F00091E00E94920D4AE0BE016F5F7F4FF801BC
:10150000808D918D0E94000EBC0181ED91E00E94C2
:10151000920D65E771E081ED91E00E94920D80915E
:10152000F9019091FA01A091FB01B091FC01A70192
:101530009601281B390B4A0B5B0BCA01B9012AE043
:10154000AE014F5F5F4F0E940B0EBC0181ED91E039
:101550000E94920D63E771E081ED91E00E94920D8F
:1015600081ED91E00E9414030E94AE04D8015E96C2
:10157000ED91FC915F970995882331F0D801909601
:10158000ED91FC91919793C0F8018281938101962E
:1015900049F4D8019296ED91FC9193970995F80141
:1015A00093838283D8018D919C9111970196119616
:1015B0009C938E9312962D913C9113972115310592
:1015C00001F182179307E9F49296ED91FC919397BC
:1015D0000995F801938382831182108204A0F5A1FA
:1015E000E02D65C0F80184859585668577859B012A
:1015F000215031098217930771F4158614860E94D1
:10160000AE04F80180859185A285B385892B8A2B4C
:101610008B2B41F323C001960E94590B9587848739
:10162000880F991F0288F389E02DE80FF91F0190B8
:10163000F081E02D09958823A9F2D8011C96ED913F
:10164000FC911D97EE0FFF1F54968D919C9155971D
:10165000E80FF91F0190F081E02D29C00E94F602E9
:10166000D8011496CD90DD90ED90FC901797DC0199
:10167000CB018C199D09AE09BF09F801C084D18442
:10168000E284F3848C159D05AE05BF0508F4AACF4E
:1016900000A4F1A5E02D0BC08091FD019091FE0109
:1016A000909300028093FF010E942E02D2CE0995F2
:1016B000F7CFAA1BBB1B51E107C0AA1FBB1FA61770
:1016C000B70710F0A61BB70B881F991F5A95A9F7EB
:1016D00080959095BC01CD010895EE0FFF1F0590F8
:1016E000F491E02D09940E94AA0B88F09F5798F07E
:1016F000B92F9927B751B0F0E1F0660F771F881F17
:10170000991F1AF0BA95C9F714C0B13091F00E9430
:10171000C40BB1E008950C94C40B672F782F882771
:10172000B85F39F0B93FCCF3869577956795B39557
:10173000D9F73EF490958095709561957F4F8F4FC6
:101740009F4F089557FD9058440F551F59F05F3F24
:1017500071F04795880F97FB991F61F09F3F79F0D3
:1017600087950895121613061406551FF2CF469555
:10177000F1DF08C0161617061806991FF1CF8695D7
:101780007105610508940895E894BB2766277727BB
:10179000CB0197F908950E94DE0B0C944F0C0E9428
:1017A000410C38F00E94480C20F0952311F00C9465
:1017B000380C0C943E0C11240C94C50B0E94A20B07
:1017C00070F3959FC1F3950F50E0551F629FF00194
:1017D000729FBB27F00DB11D639FAA27F00DB11DAD
:1017E000AA1F649F6627B00DA11D661F829F222736
:1017F000B00DA11D621F739FB00DA11D621F839FBD
:10180000A00D611D221F749F3327A00D611D231F92
:10181000849F600D211D822F762F6A2F11249F57E0
:1018200050409AF0F1F088234AF0EE0FFF1FBB1FE3
:10183000661F771F881F91505040A9F79E3F5105A2
:1018400080F00C94380C0C94C50B5F3FE4F3983E89
:10185000D4F3869577956795B795F795E7959F5F4C
:10186000C1F7FE2B880F911D9695879597F90895DE
:1018700097F99F6780E870E060E008959FEF80EC43
:10188000089500240A9416161706180609060895E6
:1018900000240A9412161306140605060895092E4C
:1018A0000394000C11F4882352F0BB0F40F4BF2BBB
:1018B00011F460FF04C06F5F7F4F8F4F9F4F0895FB
:1018C000CF93DF938230910510F482E090E0E091B5
:1018D0005803F091590320E030E0C0E0D0E03097A9
:1018E00011F14081518148175907C0F04817590735
:1018F00061F482819381209719F09B838A832BC0A6
:10190000909359038093580326C02115310519F08F
:101910004217530718F49A01BE01DF01EF0102805C
:10192000F381E02DDCCF2115310509F1281B390B9E
:101930002430310590F412968D919C911397611586
:10194000710521F0FB019383828304C090935903B6
:1019500080935803FD01329644C0FD01E20FF31F4E
:1019600081939193225031092D933C933AC0209159
:10197000560330915703232B41F4209104013091F9
:1019800005013093570320935603209102013091B3
:1019900003012115310541F42DB73EB740910601F1
:1019A00050910701241B350BE0915603F09157032A
:1019B000E217F307A0F42E1B3F0B2817390778F026
:1019C000AC014E5F5F4F2417350748F04E0F5F1F85
:1019D00050935703409356038193919302C0E0E0E4
:1019E000F0E0CF01DF91CF9108950F931F93CF9334
:1019F000DF93009709F48CC0FC01329713821282A6
:101A000000915803109159030115110581F42081AB
:101A10003181820F931F209156033091570328176D
:101A2000390779F5F0935703E093560371C0D80155
:101A300040E050E0AE17BF0750F412962D913C9154
:101A40001397AD012115310509F1D901F3CF9D019E
:101A5000DA013383228360817181860F971F821799
:101A6000930769F4EC0128813981260F371F2E5F17
:101A70003F4F318320838A819B8193838283452BCF
:101A800029F4F0935903E093580342C01396FC9352
:101A9000EE931297ED01499159919E01240F351F44
:101AA000E217F30771F480819181840F951F0296EC
:101AB00011969C938E938281938113969C938E931F
:101AC0001297E0E0F0E0D80112968D919C91139767
:101AD000009719F0F8018C01F6CF8D919C91980137
:101AE0002E5F3F4F820F931F209156033091570373
:101AF0002817390769F4309729F410925903109286
:101B0000580302C0138212821093570300935603A6
:101B1000DF91CF911F910F91089581E090E0F894AB
:101B20000C94BA0EFB01DC010D900020E9F711972F
:101B300001900D920020E1F70895FB01DC01019076
:101B40000D920020E1F708958F929F92AF92BF927D
:101B5000CF92DF92EF92FF92CF93DF93EC016881F7
:101B600079818A819B81611571058105910521F437
:101B700064E279ED8BE597E02DE133EF41E050E051
:101B80000E94570E49015A019B01AC01A7EAB1E43A
:101B90000E94760E6B017C01ACEEB4EFA5019401BE
:101BA0000E94840EDC01CB018C0D9D1DAE1DBF1D5E
:101BB000B7FF03C00197A109B04888839983AA831E
:101BC000BB83BC01CD019F77DF91CF91FF90EF9058
:101BD000DF90CF90BF90AF909F908F9008950E941C
:101BE000A40D089588E091E00E94A40D08956093EB
:101BF00008017093090180930A0190930B010895E5
:101C0000BB274A3031F4992322F4BDE290958195A7
:101C10009F4F0C942E0EBB27FA01A62F6217710559
:101C200081059105330B30FB66F0AA27660F771FFD
:101C3000881F991FAA1FA21710F0A21B6395385086
:101C4000A9F7A05DAA3308F0A95DA19336F7B111F9
:101C5000B1931082CA010C94470EBB27FB01552794
:101C6000AA27880F991FAA1FA41710F0A41B8395F9
:101C70005051B9F7A05DAA3308F0A95DA193009770
:101C800079F7B111B1931192CB010C94470EDC019D
:101C9000FC01672F71917723E1F7329704C07C91A3
:101CA0006D9370836291AE17BF07C8F30895052E38
:101CB00097FB1EF400940E946E0E57FD07D00E9401
:101CC000890E07FC03D04EF40C946E0E509540958F
:101CD000309521953F4F4F4F5F4F089590958095D8
:101CE000709561957F4F8F4F9F4F08950E94AB0E67
:101CF000A59F900DB49F900DA49F800D911D112460
:101D00000895B7FF0C94760E0E94760E821B930BFB
:101D10000895A1E21A2EAA1BBB1BFD010DC0AA1F2C
:101D2000BB1FEE1FFF1FA217B307E407F50720F044
:101D3000A21BB30BE40BF50B661F771F881F991FBF
:101D40001A9469F760957095809590959B01AC0108
:101D5000BD01CF010895A29FB001B39FC001A39F11
:101D6000700D811D1124911DB29F700D811D1124D4
:081D7000911D0895F894FFCFC6
:101D7800010100005A03800001000000000001007A
:101D88000200030004000500000001010101010137
:101D9800010101000000443A5C4769745F526573B1
:101DA800705C4172436F6E74726F6C5F67697468C0
:101DB80075625F72656C656173655C7461736B5C99
:101DC8004C69676874335C4C69676874332E696E54
:101DD8006F0000000000C50141018E016C01800107
:101DE8000C020D0A003A0020004172432D656E6412
:101DF800004172436F6E74726F6C002D2D2D2D2D66
:101E080000556E7469746C6564002D2D2D2D2D0A96
:0C1E1800004172432D626700430053003C
:00000001FF
