:020000040000FA
:100000000C94D6000C94FE000C94FE000C94FE00A0
:100010000C94FE000C94FE000C94FE000C94FE0068
:100020000C94FE000C94FE000C94FE000C94FE0058
:100030000C94FE000C94FE000C94FE000C94FE0048
:100040000C94E0070C94FE000C94AE070C94880707
:100050000C94FE000C94FE000C94FE000C94FE0028
:100060000C94FE000C94FE0000000000230026000B
:10007000290000000008000201000003040700003E
:10008000000000000000404F5554313A234772658C
:10009000656E0A404F5554323A235265640A404F08
:1000A0005554333A2359656C6C6F770A404F555459
:1000B000343A23340A404F5554353A23350A404FD9
:1000C0005554363A23360A404F5554373A23370AA7
:1000D000404F5554383A23380A40494E313A234C60
:1000E000656674506F6B650A40494E323A23526917
:1000F000676874506F6B650A40494E333A23330A80
:1001000040494E343A23340A40494E353A23350AA1
:1001100040494E363A23360A4043313A4C696768C3
:10012000743320286C6F6F703D3130290A404331A1
:1001300053313A537769746865720A4043315332D8
:100140003A477265656E20337365630A40433153E5
:10015000333A52656420327365630A404331533445
:100160003A59656C6C6F7720347365630A00000040
:100170000000250028002B000000000024002700BC
:100180002A00040404040404040402020202020219
:10019000030303030303010204081020408001024B
:1001A000040810200102040810202A0811241FBE90
:1001B000CFEFD8E0DEBFCDBF11E0A0E0B1E0E0E0DE
:1001C000F2E202C005900D92A23CB107D9F723E0FC
:1001D000A2ECB1E001C01D92AD39B207E1F710E029
:1001E000C6EDD0E004C02197FE010E94C10FC53DBD
:1001F000D107C9F70E94EC080C94FE100C94000083
:10020000089580E0089590E080E0089590E080E017
:10021000089560E070E0CB01089590E0FC01EA569B
:10022000FE4F24918E579E4FFC018491882399F0B4
:1002300090E0880F991FFC01E858FE4FA591B491FA
:10024000FC01E259FE4F859194918FB7F894EC919F
:10025000E22BEC938FBF08958AE090E0089580919F
:10026000F8019091F90108958091020290910302A2
:1002700008958091000290910102089580910402F6
:1002800090910502089560E070E080E490E40895A4
:1002900081E090E008958091FE019091FF01089522
:1002A00060E070E080E090E4089560E070E080E855
:1002B00090E40895AF92BF92CF92DF92EF92FF92B7
:1002C0000F931F93CF93DF936C017B018B01040F7E
:1002D000151FEB015E01AE18BF08C017D10759F01A
:1002E0006991D601ED91FC910190F081E02DC6015C
:1002F0000995892B79F7C501DF91CF911F910F9156
:10030000FF90EF90DF90CF90BF90AF900895FC01E9
:10031000538D448D252F30E0842F90E0821B930B6A
:10032000541710F0CF96089501970895FC01918D10
:10033000828D981761F0A28DAE0FBF2FB11D5D9613
:100340008C91928D9F5F9F73928F90E008958FEFB5
:100350009FEF0895FC01918D828D981731F0828D69
:10036000E80FF11D858D90E008958FEF9FEF0895C0
:10037000FC01918D228D892F90E0805C9F4F821B24
:1003800091098F73992708958CE392E00E94B80138
:1003900021E0892B09F420E0822F089580E090E08D
:1003A000892B29F00E94C40181110C94000008954A
:1003B000FC01A48DA80FB92FB11DA35ABF4F2C91DA
:1003C000848D90E001968F739927848FA689B789D1
:1003D0002C93A089B1898C91837080648C93938DC8
:1003E000848D981306C00288F389E02D80818F7D6B
:1003F00080830895EF92FF920F931F93CF93DF9323
:10040000EC0181E0888F9B8D8C8D98131AC0E88950
:10041000F989808185FF15C09FB7F894EE89FF891F
:100420006083E889F98980818370806480839FBFBD
:1004300081E090E0DF91CF911F910F91FF90EF90BD
:100440000895F62E0B8D10E00F5F1F4F0F731127CD
:10045000E02E8C8D8E110CC00FB607FCFACFE88908
:10046000F989808185FFF5CFCE010E94D801F1CFB7
:10047000EB8DEC0FFD2FF11DE35AFF4FF0829FB77C
:10048000F8940B8FEA89FB8980818062CFCFCF936C
:10049000DF93EC01888D8823B9F0AA89BB89E889AC
:1004A000F9898C9185FD03C0808186FD0DC00FB652
:1004B00007FCF7CF8C9185FFF2CF808185FFEDCFD0
:1004C000CE010E94D801E9CFDF91CF91089583300A
:1004D00081F028F4813099F08230A9F008958730B6
:1004E000A9F08830C9F08430B1F4809180008F7D0C
:1004F00003C0809180008F7780938000089584B539
:100500008F7784BD089584B58F7DFBCF8091B00037
:100510008F778093B00008958091B0008F7DF9CFE0
:10052000CF93DF93282F30E0F901EE58FF4F8491ED
:10053000F901EA56FE4FD491F901EE57FE4FC491EE
:10054000CC23A1F081110E946702EC2FF0E0EE0FA6
:10055000FF1FE859FF4FA591B491EC91ED2381E085
:1005600090E009F480E0DF91CF91089580E090E081
:10057000FACF1F93CF93DF93282F30E0F901EE5885
:10058000FF4F8491F901EA56FE4FD491F901EE57DD
:10059000FE4FC491CC23A9F0162F81110E9467024F
:1005A000EC2FF0E0EE0FFF1FE259FE4FA591B49142
:1005B0008FB7F894EC91111108C0D095DE23DC932D
:1005C0008FBFDF91CF911F910895DE2BF8CF2FB70A
:1005D000F8946091F4017091F5018091F601909189
:1005E000F7012FBF08958091FE019091FF010895BA
:1005F00081E090E008958091FE019091FF010895BF
:1006000081E090E008958FE00E94900221E0019740
:1006100009F020E0822F08958EE00E94900221E0F0
:10062000019709F020E0822F089560E070E080E4F7
:1006300090E40895CF92DF92EF92FF92CF93DF93F1
:10064000EC01EB81FC8109956B017C0120E030E03D
:10065000A9010E949F0E181644F08FE6C82E82E171
:10066000D82E83E8E82E8AE3F82E20E030E04AE72F
:1006700054E4C701B6010E94200F0E94A40E6F83AC
:10068000788789879A871E8281E08A83DF91CF915C
:10069000FF90EF90DF90CF900895FC010190002033
:1006A000E9F73197AF01481B590BBC018CE392E08D
:1006B0000C945A01009711F00C944D0390E080E0E7
:1006C0000895CF93DF930E944D03EC018CE791E0F6
:1006D0000E944D038C0F9D1FDF91CF9108958F9243
:1006E0009F92BF92CF92DF92EF92FF920F931F9350
:1006F000CF93DF93EC016B01B9808A81B8123DC0C2
:1007000002E00B0D0A8310E0C801880F991F0E94B8
:10071000C70F7C01C8010E94C70F8C01D7014C0193
:100720008B819C8130E020E04B2D50E02417350771
:10073000B0F4B901660F771F680F791FFB01608164
:1007400071816D937D936D817E81620F731FFB01BB
:100750006081F40161934F012F5F3F4FE7CF009716
:1007600011F00E9463108D819E81009711F00E940C
:100770006310EB82FC820D831E838981282F30E079
:10078000A901440F551FAB81BC81A40FB51FCD92A9
:10079000DC92ED81FE81E20FF31F10828F5F89836F
:1007A000DF91CF911F910F91FF90EF90DF90CF904D
:1007B000BF909F908F9008956F927F928F929F929B
:1007C000AF92BF92CF92DF92EF92FF920F931F935F
:1007D000CF93DF93EC015B014A01C9808A81C81283
:1007E0003FC002E00C0D0A8310E0000F111FC8018A
:1007F0000E94C70F7C01C8010E94C70F8C01D7015E
:100800003C018B819C8130E020E0D12C2C153D05F2
:10081000C8F4B901660F771FAC01460F571FFA01E4
:10082000408151814D935D934D815E81460F571FED
:10083000FA0140815181F301419351933F012F5FB0
:100840003F4FE4CF009711F00E9463108D819E818D
:10085000009711F00E946310EB82FC820D831E83CF
:100860008981282F30E0220F331FEB81FC81E20FBA
:10087000F31FB182A0824D815E81240F351FF901E3
:10088000918280828F5F8983DF91CF911F910F9139
:10089000FF90EF90DF90CF90BF90AF909F908F90A0
:1008A0007F906F9008950F931F93CF93DF93CDB7F1
:1008B000DEB72A970FB6F894DEBF0FBECDBF8B010F
:1008C0001982BC01CE0101960E94EC104AE0BE01E3
:1008D000685F7F4FC8010E94E50DBC01CE01019603
:1008E0000E94EC106DE771E0CE0101960E94EC10C1
:1008F000CE0101960E945A032A960FB6F894DEBFE5
:100900000FBECDBFDF91CF911F910F9108952F9210
:100910003F924F925F926F927F928F929F92AF928F
:10092000BF92CF92DF92EF92FF920F931F93CF93DC
:10093000DF93CDB7DEB7E3970FB6F894DEBF0FBEF7
:10094000CDBF1B0129013A016701809034029090CC
:100950003502A0903602B09037021982BC01CE0158
:1009600001960E94EC104AE0BE01675D7F4FC10115
:100970000E94E50DBC01CE0101960E94EC106FE7CC
:1009800071E0CE0101960E94EC10C301B20168191A
:1009900079098A099B092AE0AE01475D5F4F0E94F1
:1009A000F00DBC01CE0101960E94EC1061E871E0EF
:1009B000CE0101960E94EC10C801B60164197509B8
:1009C000860997092AE0AE01475D5F4F0E94F00D4E
:1009D000BC01CE0101960E94EC106DE771E0CE01E2
:1009E00001960E94EC10CE0101960E945A03E396F4
:1009F0000FB6F894DEBF0FBECDBFDF91CF911F9130
:100A00000F91FF90EF90DF90CF90BF90AF909F90AD
:100A10008F907F906F905F904F903F902F900895B0
:100A20008F929F92AF92BF92CF92DF92EF92FF92FE
:100A30000F931F93CF93DF9300D000D0CDB7DEB7D5
:100A40008C01B62E8091850190918601A09187013D
:100A5000B091880189839A83AB83BC838091010123
:100A60008823A9F1109201018CE190E00E94C70F48
:100A7000982EA92E8093F1019093F2018EE090E0E0
:100A80000E94C70F6C018093EF01D092F001809318
:100A9000ED01D092EE0188E390E00E94C70F9093A1
:100AA000EC018093EB0188E390E00E94C70F9093E4
:100AB000EA018093E901D601E92DFA2D90E080E06A
:100AC0001D928193919301968E309105C9F7F8019B
:100AD000E85EFE4F8081882389F1C090EF01D090BD
:100AE000F001C00ED11ED6018C91811138C0BB20FF
:100AF00029F1C801880F991F880F991FA090EB0159
:100B0000B090EC01A80EB91E0E94E702F5016083C7
:100B100071838283938381E0D6018C93000F111F30
:100B2000E091F101F091F201E00FF11F608171811C
:100B30006150710983E891E00E9453040F900F9077
:100B40000F900F90DF91CF911F910F91FF90EF9039
:100B5000DF90CF90BF90AF909F908F900895B1108D
:100B6000EDCF4801880C991C880C991CA090E901D4
:100B7000B090EA01A80CB91C0E94E702F50160835D
:100B8000718382839383D6011C92E091EB01F091F3
:100B9000EC01E80DF91D2081318142815381000F64
:100BA000111FE091F101F091F2010E0F1F1FD8010A
:100BB000ED91FC9131977B018C01BF01CE01019633
:100BC0000E948704BBCF60E08CE00E94B90260E025
:100BD0008CE090E00E94100560E08DE00E94B90278
:100BE00060E08DE090E00E94100589E891E00E94AD
:100BF0006103FFCF2F923F924F925F926F927F924D
:100C00008F929F92AF92BF92CF92DF92EF92FF921C
:100C10000F931F93CF93DF9300D000D01F92CDB7D7
:100C2000DEB78091930190919401A0919501898301
:100C30009A83AB8380910001882381F11092000197
:100C40008091340290913502A0913602B091370222
:100C5000E1EDF1E081939193A193B19321E0E93E1D
:100C6000F207C1F780910B02ECE0F1E0C12CD12C2E
:100C70007601C39431E0E831F30771F09081329648
:100C8000B701A60104C0440F551F661F771F9A9530
:100C9000D2F740958423EECF80930B02D6B080919B
:100CA0000B02D8261091D001D11609F442C00E943F
:100CB000E7021B012C0121EDA22E21E0B22E90E0D3
:100CC00080E01D25E12FF0E0FD83EC836D2C712C7D
:100CD0004C01FFEF8F1A9F0A2C813D81082E02C024
:100CE000359527950A94E2F720FF1AC0930102C0B8
:100CF000359527958A95E2F7F50120FF76C0208289
:100D0000318242825382F401EE0FFF1FE65FFE4FF5
:100D1000608171816F5F7F4F81E991E00E94530490
:100D2000F4E0AF0EB11CC4018630910589F6D09273
:100D3000D0018091CE019091CF010196823391052F
:100D40000CF493C01092CF011092CE018CE392E08C
:100D50000E94B8013C01912C812CC12CD12C760130
:100D6000C39411E0861497040CF083C08CE392E0E6
:100D70000E9496012091CC013091CD01A9014F5FD5
:100D80005F4F8A3019F08B3309F066C04E535E4FC7
:100D9000FA0110828091C2018E3599F52230310519
:100DA000E1F4A090C3018FEC8A0D8830B0F40A2CD6
:100DB000000CBB08FFE2AF1AB108E091ED01F09121
:100DC000EE01EA0DFB1D50805126652D8A2D0E94F3
:100DD000B902652DC5010E9410051092CD01109237
:100DE000CC01FFEF8F1A9F0ABDCF20813181428154
:100DF000538182017101B401CE0101960E948704E2
:100E00008FCF863251F72230310539F78091C301F7
:100E10009FEC980F983008F7082E000C990BC1979B
:100E200090910B02B701A601082E04C0440F551F74
:100E3000661F771F0A94D2F7292F30E002C035953C
:100E400027958A95E2F720FD04C0492B40930B02B9
:100E5000C4CF40954923FACF2E533E4FF9018083EA
:100E60005093CD014093CC01BCCF9093CF018093A0
:100E7000CE010F900F900F900F900F90DF91CF91B8
:100E80001F910F91FF90EF90DF90CF90BF90AF90A8
:100E90009F908F907F906F905F904F903F902F909A
:100EA0000895CF92DF92EF92FF921F93CF93DF933B
:100EB000EC016A017B018E8181110CC011E01E835F
:100EC00061E08D810E94B9028D8161E090E00E9415
:100ED00010051A838F819885A985BA85C816D90609
:100EE000EA06FB0698F060E08D810E94B9028D81D0
:100EF00060E090E00E9410051A8280E0DF91CF91BF
:100F00001F91FF90EF90DF90CF90089581E0F6CF92
:100F10001F920F920FB60F9211242F933F934F936E
:100F20005F936F937F938F939F93AF93BF93EF9351
:100F3000FF938CE392E00E94D801FF91EF91BF9163
:100F4000AF919F918F917F916F915F914F913F9161
:100F50002F910F900FBE0F901F9018951F920F9218
:100F60000FB60F9211242F938F939F93EF93FF93BC
:100F7000E0914C02F0914D028081E0915202F0919B
:100F8000530282FD1BC09081809155028F5F8F7349
:100F900020915602821741F0E0915502F0E0E45CA6
:100FA000FD4F958F80935502FF91EF919F918F9107
:100FB0002F910F900FBE0F901F9018958081F4CF46
:100FC0001F920F920FB60F9211242F933F938F937E
:100FD0009F93AF93BF938091F4019091F501A091FD
:100FE000F601B091F7013091F30123E0230F2D3783
:100FF00058F50196A11DB11D2093F3018093F401D2
:101000009093F501A093F601B093F7018091060249
:1010100090910702A0910802B09109020196A11DCA
:10102000B11D8093060290930702A0930802B0932B
:101030000902BF91AF919F918F913F912F910F9096
:101040000FBE0F901F90189526E8230F0296A11D42
:10105000B11DD2CF5F926F927F928F929F92AF928B
:10106000BF92CF92DF92EF92FF920F931F93CF9395
:10107000DF9310923F0210923E0288EE93E0A0E0D0
:10108000B0E08093400290934102A0934202B0935B
:1010900043028EE691E090933D0280933C0285EC02
:1010A00090E0909349028093480284EC90E0909302
:1010B0004B0280934A0280EC90E090934D02809323
:1010C0004C0281EC90E090934F0280934E0282ECB0
:1010D00090E0909351028093500286EC90E09093C0
:1010E00053028093520210925502109256021092AF
:1010F000570210925802C9EDD2E055245394AA2405
:10110000AA94BA2C90E0892E91E0992E21E0E22E4B
:1011100021E0F22E03E011E036E0C32E31E0D32EC1
:1011200049E0642E41E0742E0E94E7026C837D83C7
:101130008E839F83188619861A861B861C865D8679
:101140005E8682E090E00E94C70F988B8F8782E0D6
:1011500090E00E94C70F9A8B898B1F8A588E598EF8
:1011600082E090E00E94C70F9B8F8A8F81E090E021
:101170000E94C70F9D8F8C8FBB82AA821B8A1C8AFC
:10118000198218829E8A8D8A9F8E8E8EF9A2E8A27D
:101190001BA30AA3DDA2CCA279A668A6FDA6ECA695
:1011A0001FA30EA31BA70AA71FA70EA7E09683E005
:1011B000C939D80709F0B8CFDF91CF911F910F91AE
:1011C000FF90EF90DF90CF90BF90AF909F908F9067
:1011D0007F906F905F900895CF93DF93CDB7DEB788
:1011E0002B970FB6F894DEBF0FBECDBF789484B5B1
:1011F000826084BD84B5816084BD85B5826085BD13
:1012000085B5816085BD80916E00816080936E00A0
:101210001092810080918100826080938100809192
:101220008100816080938100809180008160809343
:1012300080008091B10084608093B1008091B00003
:1012400081608093B00080917A00846080937A00FE
:1012500080917A00826080937A0080917A00816028
:1012600080937A0080917A00806880937A0010924F
:10127000C100E0914C02F0914D0282E08083E09148
:101280004802F09149021082E0914A02F0914B022B
:1012900087E0808310925402E0915002F091510255
:1012A00086E08083E0914E02F0914F028081806160
:1012B0008083E0914E02F0914F02808188608083AC
:1012C000E0914E02F0914F02808180688083E0912E
:1012D0004E02F0914F0280818F7D808386E991E0FC
:1012E0000E94610306E810E0F8016491662341F072
:1012F0008CE392E00E94FA010F5F1F4F892BA1F748
:1013000082E00E940D0183E00E940D0184E00E94B2
:101310000D0185E00E940D0186E00E940D0187E02D
:101320000E940D0188E00E940D0189E00E940D01DC
:101330008CE390E00E94C70F8C0166E271E00E948E
:10134000F710F80101900020E9F73197E01BF10B4D
:10135000D80190E080E0D12CC12CF12CE12C8E172B
:101360009F0761F02D912C3531F02F3221F02E3274
:1013700019F46C0101C07C010196F1CFF801EC0D6C
:10138000FD1D108280EA91E00E945A0386EA91E0F6
:10139000EC14FD0424F4C7010196800F911F0E94F4
:1013A0005A038FEA91E00E945A030115110519F0C2
:1013B000C8010E94631089ED92E0FF24F394F0923B
:1013C000EC02F092ED029093FF018093FE01F09207
:1013D0001C0312E010931D0329E033E03093010257
:1013E00020930002F0924C03F3E0DF2ED0924D03E5
:1013F00029E333E03093030220930202F0927C034E
:10140000A4E0EA2EE0927D0329E633E03093050262
:101410002093040220913802309139023093F9016F
:101420002093F8013093FD012093FC019093FB0180
:101430008093FA0190933B0280933A028CE291E010
:101440009093FE028093FD028FE291E0909300035F
:101450008093FF0285E193E0909302038093010360
:1014600084E391E090930403809303038CE093E082
:10147000909306038093050389E391E0909308031A
:1014800080930703AC016CE073E085EE92E00E946C
:10149000DC0383E093E090930603809305038EE3DF
:1014A00091E09093080380930703AC0163E073E03D
:1014B00085EE92E00E94DC038BE090E00E94C70F73
:1014C000FC01F28283E491E094838383158306E632
:1014D00011E011830083168217821086118612860E
:1014E000BF0180E293E00E946F0388E491E0909353
:1014F0002E0380932D038BE491E09093300380932F
:101500002F038BE090E00E94C70FFC01F28280E580
:1015100091E094838383D58211830083168217829E
:10152000108611861286BF0180E593E00E946F034A
:1015300080E093E090935E0380935D038BEF92E0F5
:101540009093600380935F038BE090E00E94C70F4D
:10155000FC01F28285E591E094838383E582118327
:10156000008316821782108611861286BF0180E8DA
:1015700093E00E946F0388EF92E090938E03809334
:101580008D0383EF92E09093900380938F0380E329
:1015900090E00E94C70F8C010E94E702D8011496C8
:1015A0006D937D938D939C931797F8011086118608
:1015B000128613861486F586F68682E090E00E94F5
:1015C000C70FD80150969C938E931F9782E090E0AE
:1015D0000E94C70FF801928B818B178AF08EF18ED3
:1015E00082E090E00E94C70FD8015B969C938E9397
:1015F0005A9781E090E00E94C70FF801958F848F81
:101600008FEF9FEF93838283138A148A1182108253
:1016100080E091E0968B858B978F868F21E031E07B
:1016200031A320A383E091E093A382A349E051E09A
:1016300051A740A735A724A797A386A393A782A75E
:1016400097A786A7109339020093380283EE95E09E
:1016500095A384A38CE00E940D018DE00E940D01F2
:1016600060E08CE00E94B90260E08CE090E00E94B3
:10167000100560E08DE00E94B90260E08DE090E02E
:101680000E9410058CE392E00E94B801892BD1F3EF
:101690008CE392E00E9496018236910599F78CE3E3
:1016A00092E00E94B801892B29F08CE392E00E941D
:1016B0009601F5CF3FB7F89480910602909107020A
:1016C000A0910802B091090226B5A89B05C02F3F42
:1016D00019F00196A11DB11D3FBFBA2FA92F982F58
:1016E0008827BC01CD01620F711D811D911DE2E0B3
:1016F000660F771F881F991FEA95D1F7611571054D
:101700008105910511F00E94DC0D86EB91E00E94AD
:1017100061030E94E7026093340270933502809364
:1017200036029093370261E08CE00E94B90261E0DA
:101730008CE090E00E94100561E08DE00E94B9020B
:1017400061E08DE090E00E94100560E0E62E60E030
:10175000F62E00913A0210913B028091380290914E
:1017600039020115110509F4ADC00E94E702D80144
:1017700014966D937D938D939C9317975596ED9149
:10178000FC910995D8015E96ED91FC910995F801BF
:101790008789608D462F4150550B8417150609F037
:1017A000A1C0178A812C912C5401712CF8018789D2
:1017B000608D462F4150550B8417150609F0A9C0BE
:1017C000178A0E94E702D80114968D909D90AD90E3
:1017D000BC9017979B01AC01281939094A095B098C
:1017E00049015A010E94FA057110DFCFD801149601
:1017F0004D905D906D907C9017975496CC90549737
:10180000D12C5396AC90B12C10920C026DEB71E080
:101810008CE092E00E94EC104AE0BE016F5F7F4FC7
:10182000C5010E94E50DBC018CE092E00E94EC1025
:101830006FEB71E08CE092E00E94EC104AE0BE0198
:101840006F5F7F4FC6010E94E50DBC018CE092E006
:101850000E94EC106FE771E08CE092E00E94EC10C7
:101860008091340290913502A0913602B0913702F6
:10187000A3019201281B390B4A0B5B0BCA01B9016A
:101880002AE0AE014F5F5F4F0E94F00DBC018CE07B
:1018900092E00E94EC106DE771E08CE092E00E9413
:1018A000EC108CE092E00E945A03D8019096ED91E2
:1018B000FC910995882309F44FC0D8019296ED91C7
:1018C000FC91099590933B0280933A02E114F10454
:1018D00009F43FCF0E94C401882309F43ACF0E9443
:1018E000000037CF8F5F0E94B50F978B892F90E054
:1018F000880F991F228D338D820F931FFC018081E9
:101900009181DC01ED91FC910280F381E02D09953C
:101910003ECF8F5F0E94B50F978B892F90E0880F85
:10192000991F228D338D820F931FFC01C080D180BF
:10193000D60112968C911297882349F0ED91FC9173
:101940000190F081E02DB501A401C6010995711047
:101950002DCFF60172802ACFF80182819381019602
:1019600041F4D8019496ED91FC910995F801938387
:101970008283D8018D919C911197019611969C9329
:101980008E9312962D913C9113972115310581F07C
:101990008217930769F49496ED91FC910995F801EB
:1019A000938382831182108206A0F7A1E02D89CF54
:1019B000D8019896ED91FC91099520E030E04AE736
:1019C00054E40E94200F0E94A40EF80160877187E2
:1019D00082879387F80180859185A285B385892BBD
:1019E0008A2B8B2BE1F00E94E702D80114968D9090
:1019F0009D90AD90BC901797681979098A099B0949
:101A000018968D909D90AD90BC901B9768157905A8
:101A10008A059B0520F09A96ED91FC9152CF96B1E4
:101A200080910B02892780930A02F80184856585DD
:101A3000462F4150550B8417150621F414860E9439
:101A4000FA05C8CF8F5F0E94B50F9487892F90E069
:101A5000880F991F27853089820F931FDC01ED9134
:101A6000FC910995882309F3F801848590E0880F9B
:101A7000991F21893289820F931FDC01ED91FC911E
:101A800020CF8F929F92AF92BF92CF92DF92EF9230
:101A9000FF92CF93DF93EC01688179818A819B81EA
:101AA000611571058105910521F464E279ED8BE5FD
:101AB00097E02DE133EF41E050E00E943C0E4901F8
:101AC0005A019B01AC01A7EAB1E40E945B0E6B01D5
:101AD0007C01ACEEB4EFA50194010E94690EC60E24
:101AE000D71EE81EF91EF7FE06C081E0C81AD1080D
:101AF000E10880E8F80AC882D982EA82FB82C7013D
:101B0000B6019F77DF91CF91FF90EF90DF90CF905C
:101B1000BF90AF909F908F9008958F929F92AF92B9
:101B2000BF92CF92DF92EF92FF926091020170918B
:101B300003018091040190910501611571058105F2
:101B4000910521F464E279ED8BE597E02DE133EF27
:101B500041E050E00E943C0E49015A019B01AC015A
:101B6000A7EAB1E40E945B0E6B017C01ACEEB4EF1E
:101B7000A50194010E94690EC60ED71EE81EF91E2B
:101B8000F7FE06C081E0C81AD108E10880E8F80A2B
:101B9000C0920201D0920301E0920401F09205018B
:101BA000C701B6019F77FF90EF90DF90CF90BF9075
:101BB000AF909F908F9008956093020170930301FE
:101BC00080930401909305010895BB274A3031F4B6
:101BD000992322F4BDE2909581959F4F0C94130EAA
:101BE000BB27FA01A62F6217710581059105330BFA
:101BF00030FB66F0AA27660F771F881F991FAA1F60
:101C0000A21710F0A21B63953850A9F7A05DAA3364
:101C100008F0A95DA19336F7B111B1931082CA0102
:101C20000C942C0EBB27FB015527AA27880F991F60
:101C3000AA1FA41710F0A41B83955051B9F7A05DFB
:101C4000AA3308F0A95DA193009779F7B111B19378
:101C50001192CB010C942C0EDC01FC01672F7191C9
:101C60007723E1F7329704C07C916D937083629182
:101C7000AE17BF07C8F30895052E97FB1EF4009416
:101C80000E94530E57FD07D00E946E0E07FC03D032
:101C90004EF40C94530E50954095309521953F4F3E
:101CA0004F4F5F4F089590958095709561957F4F48
:101CB0008F4F9F4F08950E94900EA59F900DB49F47
:101CC000900DA49F800D911D11240895B7FF0C94D1
:101CD0005B0E0E945B0E821B930B0895A1E21A2EED
:101CE000AA1BBB1BFD010DC0AA1FBB1FEE1FFF1FC0
:101CF000A217B307E407F50720F0A21BB30BE40B10
:101D0000F50B661F771F881F991F1A9469F7609556
:101D10007095809590959B01AC01BD01CF01089510
:101D2000A29FB001B39FC001A39F700D811D11241C
:101D3000911DB29F700D811D1124911D08950E9467
:101D4000D30E08F481E008950E94FF0E88F09F579B
:101D500098F0B92F9927B751B0F0E1F0660F771FCF
:101D6000881F991F1AF0BA95C9F714C0B13091F0C5
:101D70000E94190FB1E008950C94190F672F782F66
:101D80008827B85F39F0B93FCCF38695779567958A
:101D9000B395D9F73EF490958095709561957F4FF6
:101DA0008F4F9F4F0895990F0008550FAA0BE0E839
:101DB000FEEF16161706E807F907C0F0121613060D
:101DC000E407F50798F0621B730B840B950B39F44D
:101DD0000A2661F0232B242B252B21F408950A26B3
:101DE00009F4A140A6958FEF811D811D089557FD2F
:101DF0009058440F551F59F05F3F71F04795880F79
:101E000097FB991F61F09F3F79F08795089512160F
:101E100013061406551FF2CF4695F1DF08C01616BB
:101E200017061806991FF1CF86957105610508946C
:101E30000895E894BB2766277727CB0197F9089583
:101E40000E94330F0C94A40F0E94960F38F00E944A
:101E50009D0F20F0952311F00C948D0F0C94930F8F
:101E600011240C941A0F0E94F70E70F3959FC1F382
:101E7000950F50E0551F629FF001729FBB27F00D38
:101E8000B11D639FAA27F00DB11DAA1F649F66278D
:101E9000B00DA11D661F829F2227B00DA11D621FDC
:101EA000739FB00DA11D621F839FA00D611D221F96
:101EB000749F3327A00D611D231F849F600D211D7A
:101EC000822F762F6A2F11249F5750409AF0F1F0FD
:101ED00088234AF0EE0FFF1FBB1F661F771F881F66
:101EE00091505040A9F79E3F510580F00C948D0F02
:101EF0000C941A0F5F3FE4F3983ED4F386957795E0
:101F00006795B795F795E7959F5FC1F7FE2B880F0B
:101F1000911D9695879597F9089597F99F6780E8A1
:101F200070E060E008959FEF80EC089500240A942B
:101F30001616170618060906089500240A941216A4
:101F40001306140605060895092E0394000C11F4D7
:101F5000882352F0BB0F40F4BF2B11F460FF04C084
:101F60006F5F7F4F8F4F9F4F0895991B79E004C09B
:101F7000991F961708F0961B881F7A95C9F78095C8
:101F80000895EE0FFF1F0590F491E02D09940F9333
:101F90001F93CF93DF938230910510F482E090E09D
:101FA000E0919B03F0919C0330E020E0B0E0A0E0E2
:101FB000309799F42115310509F44AC0281B390BD3
:101FC00024303105D8F58A819B816115710589F12D
:101FD000FB0193838283FE0111C040815181028104
:101FE000138148175907E0F04817590799F41097DB
:101FF00061F012960C93129713961C933296CF01B0
:10200000DF91CF911F910F91089500939B0310933F
:102010009C03F4CF2115310551F04217530738F0D6
:10202000A901DB019A01BD01DF01F801C1CFEF0178
:10203000F9CF90939C0380939B03CDCFFE01E20FD9
:10204000F31F819391932250310939832883D7CF8D
:102050002091990330919A03232B41F42091080198
:102060003091090130939A0320939903209106013E
:10207000309107012115310541F42DB73EB740914C
:102080000A0150910B01241B350BE0919903F0914B
:102090009A03E217F307A0F42E1B3F0B281739070A
:1020A00078F0AC014E5F5F4F2417350748F04E0FB4
:1020B0005F1F50939A0340939903819391939FCF0D
:1020C000F0E0E0E09CCFCF93DF930097E9F0FC01D4
:1020D000329713821282A0919B03B0919C03ED0171
:1020E00030E020E01097A1F420813181820F931F0E
:1020F0002091990330919A032817390709F061C09C
:10210000F0939A03E0939903DF91CF910895EA0148
:10211000CE17DF07E8F54A815B819E014115510525
:10212000B1F7E901FB83EA8349915991C40FD51FA7
:10213000EC17FD0761F4808191810296840F951F51
:10214000E90199838883828193819B838A83F0E06C
:10215000E0E012968D919C9113970097B9F52D911F
:102160003C911197CD010296820F931F2091990304
:1021700030919A032817390739F6309751F51092A4
:102180009C0310929B03B0939A03A0939903BCCF36
:10219000D383C28340815181840F951FC817D9070B
:1021A00061F44E5F5F4F88819981480F591F5183B9
:1021B00040838A819B81938382832115310509F0B5
:1021C000B0CFF0939C03E0939B039ECFFD01DC0115
:1021D000C0CF13821282D7CFFB01DC010D9000200B
:1021E000E9F7119701900D920020E1F70895FB01A6
:1021F000DC0101900D920020E1F70895F894FFCFE3
:1022000001010100000000009D03800000000100AA
:1022100002000300040005000000010101010101AA
:10222000010101000000443A5C4769745F52657324
:10223000705C4172436F6E74726F6C5F6769746833
:1022400075625F72656C656173655C7461736B5C0C
:102250004C69676874335C4C69676874332E696EC7
:102260006F000000000051071A0300000000FA018F
:102270005A0187014702B8019601AA010D0A003AE6
:1022800000200025004F5554004172432D656E64B7
:10229000002400494E004172436F6E74726F6C00EF
:1022A0002D2D2D2D2D00556E7469746C6564002DD7
:1022B0002D2D2D2D0A004172432D626700430053DE
:0222C00000001C
:107E0000112484B714BE81FFF0D085E080938100F7
:107E100082E08093C00088E18093C10086E0809377
:107E2000C20080E18093C4008EE0C9D0259A86E02C
:107E300020E33CEF91E0309385002093840096BBD3
:107E4000B09BFECF1D9AA8958150A9F7CC24DD24C4
:107E500088248394B5E0AB2EA1E19A2EF3E0BF2EE7
:107E6000A2D0813461F49FD0082FAFD0023811F036
:107E7000013811F484E001C083E08DD089C08234E0
:107E800011F484E103C0853419F485E0A6D080C0E4
:107E9000853579F488D0E82EFF2485D0082F10E0AE
:107EA000102F00270E291F29000F111F8ED06801E7
:107EB0006FC0863521F484E090D080E0DECF843638
:107EC00009F040C070D06FD0082F6DD080E0C81688
:107ED00080E7D80618F4F601B7BEE895C0E0D1E017
:107EE00062D089930C17E1F7F0E0CF16F0E7DF06D8
:107EF00018F0F601B7BEE89568D007B600FCFDCFD4
:107F0000A601A0E0B1E02C9130E011968C91119780
:107F100090E0982F8827822B932B1296FA010C0160
:107F200087BEE89511244E5F5F4FF1E0A038BF0790
:107F300051F7F601A7BEE89507B600FCFDCF97BE46
:107F4000E89526C08437B1F42ED02DD0F82E2BD052
:107F50003CD0F601EF2C8F010F5F1F4F84911BD097
:107F6000EA94F801C1F70894C11CD11CFA94CF0C13
:107F7000D11C0EC0853739F428D08EE10CD085E9AC
:107F80000AD08FE07ACF813511F488E018D01DD067
:107F900080E101D065CF982F8091C00085FFFCCF94
:107FA0009093C60008958091C00087FFFCCF809118
:107FB000C00084FD01C0A8958091C6000895E0E648
:107FC000F0E098E1908380830895EDDF803219F02E
:107FD00088E0F5DFFFCF84E1DECF1F93182FE3DFCA
:107FE0001150E9F7F2DF1F91089580E0E8DFEE27F6
:047FF000FF270994CA
:027FFE00040479
:00000001FF
