:100000000C94D6000C94FE000C94FE000C94FE00A0
:100010000C94FE000C94FE000C94FE000C94FE0068
:100020000C94FE000C94FE000C94FE000C94FE0058
:100030000C94FE000C94FE000C94FE000C94FE0048
:100040000C94C3070C94FE000C9491070C946B075E
:100050000C94FE000C94FE000C94FE000C94FE0028
:100060000C94FE000C94FE0000000000230026000B
:10007000290000000008000201000003040700003E
:10008000000000000000404F5554313A234772658C
:10009000656E0A404F5554323A235265640A404F08
:1000A0005554333A2359656C6C6F770A404F555459
:1000B000343A23340A404F5554353A23350A404FD9
:1000C0005554363A23360A404F5554373A23370AA7
:1000D000404F5554383A23380A40494E313A234C60
:1000E000656674506F6B650A40494E323A23526917
:1000F000676874506F6B650A40494E333A23330A80
:1001000040494E343A23340A40494E353A23350AA1
:1001100040494E363A23360A4043313A4C696768C3
:10012000743320286C6F6F703D3130290A404331A1
:1001300053313A537769746865720A4043315332D8
:100140003A477265656E20337365630A40433153E5
:10015000333A52656420327365630A404331533445
:100160003A59656C6C6F7720347365630A00000040
:100170000000250028002B000000000024002700BC
:100180002A00040404040404040402020202020219
:10019000030303030303010204081020408001024B
:1001A000040810200102040810200D0811241FBEAD
:1001B000CFEFD8E0DEBFCDBF23E0A4EBB1E001C0BC
:1001C0001D92A938B207E1F711E0A0E0B1E0EEE737
:1001D000FFE102C005900D92A43BB107D9F710E0F2
:1001E000C6EDD0E004C02197FE010E94700CC53D11
:1001F000D107C9F70E94BC080C94BD0F0C940000F5
:10020000089580E0089580E090E0089580E090E017
:10021000089560E070E0CB01089590E0FC01EA569B
:10022000FE4F2491FC01EE57FE4F8491882399F0F4
:1002300090E0880F991FFC01E858FE4FA591B491FA
:10024000FC01E259FE4F859194918FB7F894EC919F
:10025000E22BEC938FBF08958AE090E0089580919F
:10026000EA019091EB01089560E070E080E490E491
:1002700008958091F4019091F50108958091F20123
:100280009091F30108958091F6019091F7010895FE
:1002900081E090E008958091F0019091F10108953E
:1002A00081E090E008958091F0019091F10108952E
:1002B00081E090E008958091F0019091F10108951E
:1002C000CF92DF92EF92FF920F931F93CF93DF9322
:1002D0006C017A018B01C0E0D0E0CE15DF0589F01A
:1002E000D8016D918D01D601ED91FC910190F081C5
:1002F000E02DC6010995892B11F47E0102C02196DB
:10030000ECCFC701DF91CF911F910F91FF90EF903C
:10031000DF90CF900895FC01918D828D981761F048
:10032000828DDF01A80FB11D5D968C91928D9F5F2C
:100330009F73928F90E008958FEF9FEF0895FC01D7
:10034000918D828D981731F0828DE80FF11D858D8A
:1003500090E008958FEF9FEF0895FC01918D228D1D
:10036000892F90E0805C9F4F821B91098F739927A2
:10037000089580E392E00E94AD0121E0892B09F409
:1003800020E0822F0895FC01848DDF01A80FB11DAC
:10039000A35ABF4F2C91848D90E001968F739927BB
:1003A000848FA689B7892C93A089B1898C918064A8
:1003B0008C93938D848D981306C00288F389E02D69
:1003C00080818F7D80830895EF92FF920F931F931A
:1003D000CF93DF93EC0181E0888F9B8D8C8D9813F8
:1003E00005C0E889F989808185FD24C0F62E0B8D32
:1003F00010E00F5F1F4F0F731127E02E8C8DE81256
:100400000CC00FB607FCFACFE889F989808185FF17
:10041000F5CFCE010E94C301F1CF8B8DFE01E80F15
:10042000F11DE35AFF4FF0820B8FEA89FB8980812F
:10043000806207C0EE89FF896083E889F98980813D
:100440008064808381E090E0DF91CF911F910F91D4
:10045000FF90EF900895CF93DF93EC01888D882370
:10046000C9F0EA89FB89808185FD05C0A889B98921
:100470008C9186FD0FC00FB607FCF5CF808185FFFC
:10048000F2CFA889B9898C9185FFEDCFCE010E946A
:10049000C301E7CFDF91CF91089580E090E0892BF1
:1004A00029F00E94B90181110C9400000895833055
:1004B00081F028F4813099F08230A1F008958730DE
:1004C000A9F08830B9F08430D1F4809180008F7D1C
:1004D00003C0809180008F7780938000089584B559
:1004E0008F7702C084B58F7D84BD08958091B00060
:1004F0008F7703C08091B0008F7D8093B000089506
:10050000CF93DF93282F30E0F901EE58FF4F84910D
:10051000F901EA56FE4FD491F901EE57FE4FC4910E
:10052000CC2391F081110E945702EC2FF0E0EE0FE6
:10053000FF1FE859FF4FA591B491EC91ED2381E0A5
:1005400090E021F480E002C080E090E0DF91CF9164
:1005500008951F93CF93DF93282F30E0F901EE58D1
:10056000FF4F8491F901EA56FE4FD491F901EE57FD
:10057000FE4FC491CC23C9F0162F81110E9457025F
:10058000EC2FF0E0EE0FFF1FE259FE4FA591B49162
:100590008FB7F894111105C09C91ED2FE095E923D8
:1005A00002C0EC91ED2BEC938FBFDF91CF911F91A7
:1005B00008952FB7F8946091E6017091E70180915A
:1005C000E8019091E9012FBF0895CF93DF938FE069
:1005D0000E9480022091FF0126952170C22F20E009
:1005E000D22F21E08C179D0709F420E0822FDF91A4
:1005F000CF910895CF93DF938EE00E9480022091E7
:10060000FF012170C22F20E0D22F21E08C179D071F
:1006100009F420E0822FDF91CF910895009769F0CF
:10062000FC0101900020E9F73197AF01481B590BFD
:10063000BC0180E392E00C94600180E090E00895BA
:10064000CF93DF930E940E03EC0186E791E00E94B6
:100650000E038C0F9D1FDF91CF9108950F931F9371
:10066000CF93DF93CDB7DEB72A970FB6F894DEBFEE
:100670000FBECDBF8B011982BC01CE0101960E9435
:10068000950E4AE0BE01685F7F4FC8010E94030FCC
:10069000BC01CE0101960E94950E67E771E0CE0184
:1006A00001960E94950ECE0101960E940E032A9695
:1006B0000FB6F894DEBF0FBECDBFDF91CF911F9173
:1006C0000F9108952F923F924F925F926F927F9277
:1006D0008F929F92AF92BF92CF92DF92EF92FF9252
:1006E0000F931F93CF93DF93CDB7DEB7E3970FB68A
:1006F000F894DEBF0FBECDBF1B0129013A0167018F
:1007000078018090280290902902A0902A02B0904F
:100710002B021982BC01CE0101960E94950E4AE07F
:10072000BE01675D7F4FC1010E94030FBC01CE0176
:1007300001960E94950E69E771E0CE0101960E9434
:10074000950EC301B201681979098A099B092AE04B
:10075000AE01475D5F4F0E940E0FBC01CE010196B6
:100760000E94950E6BE771E0CE0101960E94950EF6
:10077000C701B60164197509860997092AE0AE0117
:10078000475D5F4F0E940E0FBC01CE0101960E9493
:10079000950E67E771E0CE0101960E94950ECE019D
:1007A00001960E940E03E3960FB6F894DEBF0FBECB
:1007B000CDBFDF91CF911F910F91FF90EF90DF9010
:1007C000CF90BF90AF909F908F907F906F905F90F1
:1007D0004F903F902F900895CF93DF93EC011982B3
:1007E000188281E090E09B838A839D838C8382E0E2
:1007F00090E00E94630D9F838E8382E090E00E94D0
:10080000630D99878887DF91CF9108958F929F928A
:10081000AF92BF92CF92DF92EF92FF920F931F930E
:10082000CF93DF9300D000D01F92CDB7DEB78C01FD
:100830008FE495E5A4E5B0E089839A83AB83BC831C
:1008400080910101811107C0F801E85EFE4F8081AF
:10085000811137C09DC0109201018CE190E06D8341
:100860000E94630D5C018093E301B092E4018EE08D
:1008700090E00E94630D6C018093E101D092E2014F
:100880008093DF01D092E00188E390E00E94630D45
:100890009093DE018093DD0188E390E00E94630D78
:1008A0009093DC018093DB01D601F50180E090E0BC
:1008B0006D811D928193919301968E309105C9F7B8
:1008C000C3CFC090E101D090E201C00ED11EF6016D
:1008D0008081811129C0662309F45AC0C801880F9C
:1008E000991F880F991FA090DD01B090DE01A80E1E
:1008F000B91E0E94D902F5016083718382839383BC
:1009000081E0F6018083000F111FE091E301F09177
:10091000E401E00FF11F60817181615071098DE781
:1009200091E00E942E0334C0611132C05801AA0C1C
:10093000BB1CAA0CBB1C8090DB019090DC018A0CD4
:100940009B1C0E94D902F40160837183828393838C
:10095000F60110822091DD013091DE01F901EA0DEE
:10096000FB1D2081318142815381000F111FE091D5
:10097000E301F091E401E00FF11F0190F081E02D1F
:1009800031977B018C01BF01CE0101960E94620369
:100990000F900F900F900F900F90DF91CF911F91BC
:1009A0000F91FF90EF90DF90CF90BF90AF909F900E
:1009B0008F9008952F923F924F925F926F927F9205
:1009C0008F929F92AF92BF92CF92DF92EF92FF925F
:1009D0000F931F93CF93DF9300D000D000D0CDB7FB
:1009E000DEB789E49EE4A0E089839A83AB8380919B
:1009F0000001811120C096B18091FF0198279C834E
:100A00001091C201192709F4ABC00E94D9021B0141
:100A10002C0193ECC92E91E0D92E2CE0A22E21E0DE
:100A2000B22E80E090E0E12FF0E0FE83ED83FC81C8
:100A30006F2E712C57C01092000180912802909166
:100A40002902A0912A02B0912B028093C3019093B6
:100A5000C401A093C501B093C6018093C7019093D0
:100A6000C801A093C901B093CA018093CB019093B0
:100A7000CC01A093CD01B093CE018093CF01909390
:100A8000D001A093D101B093D2018093D301909370
:100A9000D401A093D501B093D6018093D701909350
:100AA000D801A093D901B093DA018091FF01ECE065
:100AB000F1E0812C912C5401839421E0E831F2077C
:100AC00071F090813296B501A40104C0440F551F06
:100AD000661F771F9A95D2F740958423EECF8093B7
:100AE000FF0189CF9C012F5F3F4F49012D813E813E
:100AF000082E02C0359527950A94E2F720FF23C0FF
:100B0000F30102C0F595E7958A95E2F7CF01F6016A
:100B100080FF0EC02082318242825382F5016081C3
:100B200071816F5F7F4F8FE791E00E942E030BC0B2
:100B3000208131814281538182017101B401CE0152
:100B400001960E946203C401F4E0CF0ED11C22E0A2
:100B5000A20EB11C8630910529F63C813093C2016A
:100B60008091C0019091C1010196823391052CF4CE
:100B70009093C1018093C00191C01092C101109265
:100B8000C00180E392E00E94AD014C01A12CB12C88
:100B9000412C512C3201439411E0A814B9040CF0FB
:100BA0007DC080E392E00E948B014091BE01509194
:100BB000BF01FA01EC54FE4F8A3019F08B3309F073
:100BC00062C011828091B4018E3511F59091B5010A
:100BD0004230510509F052C08FEC890F883008F07F
:100BE0004DC0C92E990FDD088FE2C81AD108E091D7
:100BF000DF01F091E001EC0DFD1D30803126632D09
:100C00008C2D0E94A902632DC6010E94060436C0E5
:100C10008632A1F52091B5014230510579F58FEC6E
:100C2000820F883058F5022E000C330B2153310906
:100C30008091FF01482F50E0022E02C05595479544
:100C40000A94E2F740FD0DC0B301A20104C0440FB5
:100C5000551F661F771F2A95D2F7482B4093FF0137
:100C60000DC0B301A20104C0440F551F661F771FBA
:100C70002A95D2F7409584238093FF011092BF01FB
:100C80001092BE0107C080834F5F5F4F5093BF013A
:100C90004093BE019FEFA91AB90A7FCF26960FB6DF
:100CA000F894DEBF0FBECDBFDF91CF911F910F91A2
:100CB000FF90EF90DF90CF90BF90AF909F908F907C
:100CC0007F906F905F904F903F902F90089560E0DD
:100CD0008CE00E94A90260E08CE090E00E94060493
:100CE00060E08DE00E94A90260E08DE090E00E944B
:100CF000060481E891E00E942003FFCF8F929F922B
:100D0000AF92BF92CF92DF92EF92FF92CF93DF9399
:100D1000EC014A015B0161E00E94A90261E0CE01A1
:100D20000E9406040E94D9026B017C0120E030E0A1
:100D30004AE754E4C501B4010E94CE0C0E94760C2F
:100D4000C60ED71EE81EF91E0E94D9026C157D053D
:100D50008E059F0518F40E94DA04F6CF60E08C2F10
:100D60000E94A90260E0CE01DF91CF91FF90EF9049
:100D7000DF90CF90BF90AF909F908F900C9406041F
:100D800040E050E060E870E484E090E00C947E067F
:100D900040E050E060E070E483E090E00C947E0678
:100DA00040E050E060E470E482E090E00C947E0665
:100DB0006F927F928F929F92AF92BF92CF92DF926B
:100DC000EF92FF920F931F93CF93DF93EC018CA4CC
:100DD0009DA4AAA4BBA40E851F858889998908179C
:100DE000190709F052C0780182E0E80EF11CF98A77
:100DF000E88AE1E8EE16EFE3FE0620F4C701880F6B
:100E0000991F02C08FEF9FEF0E94630D6C01F1E804
:100E1000EF16FFE3FF0620F4C701880F991F02C0F9
:100E20008FEF9FEF0E94630D7C01D6013C0140E0F3
:100E300050E08A899B8940175107C9F0BA01660FB3
:100E4000771F9C01260F371FF901808191818D93B7
:100E50009D938C899D89680F791FFB018081918109
:100E6000F301819391933F014F5F5F4FE2CF009772
:100E700011F00E94F80D8C899D89009711F00E9455
:100E8000F80DCA8ADB8AEC8AFD8A8E859F859C01D3
:100E9000220F331FEA89FB89E20FF31FB182A08280
:100EA0004C895D89FA01E20FF31F918280820196DD
:100EB0009F878E87DF91CF911F910F91FF90EF90C9
:100EC000DF90CF90BF90AF909F908F907F906F906A
:100ED00008950E94900E1F920F920FB60F92112448
:100EE0002F933F934F935F936F937F938F939F9332
:100EF000AF93BF93EF93FF9380E392E00E94C3010F
:100F0000FF91EF91BF91AF919F918F917F916F91E1
:100F10005F914F913F912F910F900FBE0F901F90B7
:100F200018951F920F920FB60F9211242F938F9343
:100F30009F93EF93FF93E0914002F09141028081F3
:100F4000E0914602F091470282FD12C090818091AB
:100F500049028F5F8F7320914A02821751F0E0910E
:100F60004902F0E0E05DFD4F958F8093490201C09A
:100F70008081FF91EF919F918F912F910F900FBEE4
:100F80000F901F9018951F920F920FB60F92112479
:100F90002F933F938F939F93AF93BF938091E601DD
:100FA0009091E701A091E801B091E9013091E5014C
:100FB00023E0230F2D3720F40196A11DB11D05C09C
:100FC00026E8230F0296A11DB11D2093E501809311
:100FD000E6019093E701A093E801B093E9018091C5
:100FE000F8019091F901A091FA01B091FB010196ED
:100FF000A11DB11D8093F8019093F901A093FA010E
:10100000B093FB01BF91AF919F918F913F912F9131
:101010000F900FBE0F901F9018954F925F926F9296
:101020007F928F929F92AF92BF92CF92DF92EF9278
:10103000FF920F931F93CF93DF931092330210927E
:10104000320288EE93E0A0E0B0E080933402909307
:101050003502A0933602B09337028AE691E090936E
:1010600031028093300285EC90E090933D028093B2
:101070003C0284EC90E090933F0280933E0280EC2F
:1010800090E0909341028093400281EC90E0909335
:1010900043028093420282EC90E090934502809359
:1010A000440286EC90E090934702809346021092AF
:1010B000490210924A0210924B0210924C02CDEC5F
:1010C000D2E009ED12E088248A94982C90E0692EF1
:1010D00091E0792E21E0C22E21E0D22E33E0E32EE2
:1010E00031E0F32E46E0A42E41E0B42E59E0452E27
:1010F00051E0552E0E94D9026C837D838E839F839D
:10110000188619861A861B86C8010E94EC039B82EA
:101110008A821F8A1E8A198E188E198218827B8EE7
:101120006A8E7D8E6C8EDF8ECE8EF801F58AE48A13
:10113000B78AA68A538E428ED78EC68EF18EE08EE7
:10114000F58EE48EFDA6ECA6AE96025D1F4FF3E091
:10115000C538DF0779F6DF91CF911F910F91FF908E
:10116000EF90DF90CF90BF90AF909F908F907F9047
:101170006F905F904F900895CF93DF93CDB7DEB718
:101180002B970FB6F894DEBF0FBECDBF789484B511
:10119000826084BD84B5816084BD85B5826085BD73
:1011A00085B5816085BD80916E00816080936E0001
:1011B00010928100809181008260809381008091F3
:1011C00081008160809381008091800081608093A4
:1011D00080008091B10084608093B1008091B00064
:1011E00081608093B00080917A00846080937A005F
:1011F00080917A00826080937A0080917A00816089
:1012000080937A0080917A00806880937A001092AF
:10121000C100E0914002F091410282E08083E091C0
:101220003C02F0913D021082E0913E02F0913F02BB
:1012300087E0808310924802E0914402F0914502D9
:1012400086E08083E0914202F091430280818061D8
:101250008083E0914202F091430280818860808324
:10126000E0914202F0914302808180688083E091A6
:101270004202F091430280818F7D808389E891E072
:101280000E94200306E810E0F8016491611130C06B
:1012900082E00E940D0183E00E940D0184E00E9423
:1012A0000D0185E00E940D0186E00E940D0187E09E
:1012B0000E940D0188E00E940D0189E00E940D014D
:1012C00080E490E00E94630D8C0166E271E00E9470
:1012D000A00EF80101900020E9F73197E01BF10B17
:1012E000D80180E090E0C12CD12CE12CF12C19C068
:1012F000E0913002F09131020190F081E02D80E325
:1013000092E009950F5F1F4F892B09F0BDCFC0CF29
:101310002D912C3551F02F3241F02E3209F46C0111
:1013200001968E179F07A1F702C07C01F9CFF80143
:10133000EC0DFD1D108283E991E00E940E03EC1478
:10134000FD041CF089E991E004C0C7010196800FFB
:10135000911F0E940E0382EA91E00E940E03011584
:10136000110519F0C8010E94F80DEDECF2E0A0EFB4
:10137000B1E081E090E021E030E0378B268B918F67
:10138000808FED93FD930196BE9685309105A9F768
:1013900080912C0290912D029093EB018093EA01B1
:1013A0009093EF018093EE010091F0011091F10113
:1013B0001093ED010093EC0110932F0200932E0285
:1013C0008CE291E0D80193969C938E9392978FE252
:1013D00091E095969C938E93949784E391E09796F1
:1013E0009C938E93969789E391E099969C938E9324
:1013F00098978AEF92E09B969C938E939A978EE3B0
:1014000091E09D969C938E939C97C8010E94D8066C
:1014100085EE92E0F80193A782A783E491E095A777
:1014200084A7C8010E94D806E091F201F091F3016F
:1014300080ED96E0958F848F88E491E093A382A35A
:101440008BE491E095A384A3E091F401F091F50180
:1014500088EC96E0958F848F80E591E093A382A33A
:1014600083E591E095A384A3E091F601F091F70163
:1014700080EC96E0958F848F88E591E093A382A31A
:101480008BE591E095A384A38EE290E00E94630D2A
:101490008C010E94D902D80114966D937D938D938F
:1014A0009C931797F8011086118612861386C8013F
:1014B0000C960E94EC038FEF9FEFD80113969C933C
:1014C0008E93129757961C921E92569759961C927D
:1014D0001E92589711961C921E9280E091E05B96A6
:1014E0009C938E935A975D969C938E935C9721E084
:1014F00031E05F963C932E935E9783E091E0919666
:101500009C938E93909749E051E097965C934E930D
:1015100096979B963C932E939A9795969C938E9331
:10152000949799969C938E9398979D969C938E935F
:101530009C9710932D0200932C0287E696E09396D9
:101540009C938E9392978CE00E940D018DE00E94F7
:101550000D0160E08CE00E94A90260E08CE090E068
:101560000E94060460E08DE00E94A90260E08DE028
:1015700090E00E94060480E392E00E94AD01892B76
:10158000D1F380E392E00E948B018236910599F7B6
:1015900080E392E00E94AD01892B29F080E392E084
:1015A0000E948B01F5CF3FB7F8948091F80190919C
:1015B000F901A091FA01B091FB0126B5A89B05C0E5
:1015C0002F3F19F00196A11DB11D3FBFBA2FA92FC2
:1015D000982F8827820F911DA11DB11DBC01CD013F
:1015E00052E0660F771F881F991F5A95D1F7611532
:1015F00071058105910511F00E94FA0E89EA91E0CA
:101600000E9420030E94D90260932802709329024D
:1016100080932A0290932B0261E08CE00E94A90241
:1016200061E08CE090E00E94060461E08DE00E94A1
:10163000A90261E08DE090E00E94060400912E0274
:1016400010912F020115110509F4E5C00E94D9027D
:10165000F8016483758386839783028CF38DE02D74
:101660000995D8015C96ED91FC915D970995F8017B
:10167000C480D580E680F7801092000260EB71E0B4
:1016800080E092E00E94950E4AE0BE016F5F7F4FBE
:10169000D80156968D919C9157970E94030FBC01DB
:1016A00080E092E00E94950E62EB71E080E092E0B3
:1016B0000E94950E4AE0BE016F5F7F4FF801808D5A
:1016C000918D0E94030FBC0180E092E00E94950E74
:1016D00069E771E080E092E00E94950E8091280217
:1016E00090912902A0912A02B0912B02A7019601A4
:1016F000281B390B4A0B5B0BCA01B9012AE0AE016A
:101700004F5F5F4F0E940E0FBC0180E092E00E948D
:10171000950E67E771E080E092E00E94950E80E010
:1017200092E00E940E030E94DA04D8015E96ED91C9
:10173000FC915F970995882331F0D8019096ED913F
:10174000FC91919795C0F80182819381019649F4AB
:10175000D8019296ED91FC9193970995F8019383A6
:101760008283D8018D919C911197019611969C933B
:101770008E9312962D913C9113972115310589F086
:101780008217930771F49296ED91FC9193970995C6
:10179000F801938382831182108204A0F5A1E02DC9
:1017A00067C0D8019696ED91FC919797099520E036
:1017B00030E04AE754E40E94CE0C0E94760CF80117
:1017C0006087718782879387F80180859185A285DC
:1017D000B385892B8A2B8B2B09F44CC00E94D9022C
:1017E000D8011496CD90DD90ED90FC901797DC0118
:1017F000CB018C199D09AE09BF09F801C084D184C1
:10180000E284F3848C159D05AE05BF0598F100A414
:10181000F1A5E02D2DC080912C0290912D02909386
:101820002F0280932E020E944D0208CF01960E9443
:101830005C0C95878487880F991F0288F389E02DB7
:10184000E80FF91F0190F081E02D0995882319F127
:10185000D8011C96ED91FC911D97EE0FFF1F549639
:101860008D919C915597E80FF91F0190F081E02D23
:101870000995D5CF96B18091FF0189279091FE01FE
:10188000282F2927322F38233093FD01922390935C
:10189000FC018093FE01F801848595856685778536
:1018A0009B01215031098217930709F0BFCF15869C
:1018B00014860E94DA0488CFAA1BBB1B51E107C023
:1018C000AA1FBB1FA617B70710F0A61BB70B881FD0
:1018D000991F5A95A9F780959095BC01CD0108955F
:1018E000EE0FFF1F0590F491E02D09940E94AD0CBE
:1018F00088F09F5798F0B92F9927B751B0F0E1F0D1
:10190000660F771F881F991F1AF0BA95C9F714C080
:10191000B13091F00E94C70CB1E008950C94C70C4F
:10192000672F782F8827B85F39F0B93FCCF38695B9
:1019300077956795B395D9F73EF490958095709516
:1019400061957F4F8F4F9F4F089557FD9058440FDB
:10195000551F59F05F3F71F04795880F97FB991F0E
:1019600061F09F3F79F087950895121613061406CB
:10197000551FF2CF4695F1DF08C016161706180658
:10198000991FF1CF86957105610508940895E89433
:10199000BB2766277727CB0197F908950E94E10CB2
:1019A0000C94520D0E94440D38F00E944B0D20F013
:1019B000952311F00C943B0D0C94410D11240C94C3
:1019C000C80C0E94A50C70F3959FC1F3950F50E0D1
:1019D000551F629FF001729FBB27F00DB11D639FE1
:1019E000AA27F00DB11DAA1F649F6627B00DA11D87
:1019F000661F829F2227B00DA11D621F739FB00D2D
:101A0000A11D621F839FA00D611D221F749F33279C
:101A1000A00D611D231F849F600D211D822F762F35
:101A20006A2F11249F5750409AF0F1F088234AF012
:101A3000EE0FFF1FBB1F661F771F881F915050407E
:101A4000A9F79E3F510580F00C943B0D0C94C80CF7
:101A50005F3FE4F3983ED4F3869577956795B79505
:101A6000F795E7959F5FC1F7FE2B880F911D96951F
:101A7000879597F9089597F99F6780E870E060E08F
:101A800008959FEF80EC089500240A941616170617
:101A900018060906089500240A941216130614065F
:101AA00005060895092E0394000C11F4882352F0C2
:101AB000BB0F40F4BF2B11F460FF04C06F5F7F4F7A
:101AC0008F4F9F4F0895CF93DF938230910510F48D
:101AD00082E090E0E0918703F091880320E030E01D
:101AE000C0E0D0E0309711F140815181481759078B
:101AF000C0F04817590761F482819381209719F04B
:101B00009B838A832BC0909388038093870326C08E
:101B10002115310519F04217530718F49A01BE0137
:101B2000DF01EF010280F381E02DDCCF21153105CB
:101B300009F1281B390B2430310590F412968D9150
:101B40009C9113976115710521F0FB0193838283AA
:101B500004C09093880380938703FD01329644C0AC
:101B6000FD01E20FF31F81939193225031092D93D0
:101B70003C933AC02091850330918603232B41F496
:101B80002091040130910501309386032093850351
:101B900020910201309103012115310541F42DB747
:101BA0003EB74091060150910701241B350BE0918F
:101BB0008503F0918603E217F307A0F42E1B3F0B79
:101BC0002817390778F0AC014E5F5F4F24173507AF
:101BD00048F04E0F5F1F5093860340938503819317
:101BE000919302C0E0E0F0E0CF01DF91CF91089542
:101BF0000F931F93CF93DF93009709F48CC0FC01E0
:101C00003297138212820091870310918803011585
:101C1000110581F420813181820F931F209185036A
:101C2000309186032817390779F5F0938603E093FE
:101C3000850371C0D80140E050E0AE17BF0750F4F3
:101C400012962D913C911397AD012115310509F1A3
:101C5000D901F3CF9D01DA01338322836081718141
:101C6000860F971F8217930769F4EC012881398149
:101C7000260F371F2E5F3F4F318320838A819B8140
:101C800093838283452B29F4F0938803E0938703A1
:101C900042C01396FC93EE931297ED01499159912E
:101CA0009E01240F351FE217F30771F480819181A3
:101CB000840F951F029611969C938E938281938137
:101CC00013969C938E931297E0E0F0E0D801129661
:101CD0008D919C911397009719F0F8018C01F6CF24
:101CE0008D919C9198012E5F3F4F820F931F209101
:101CF0008503309186032817390769F4309729F452
:101D0000109288031092870302C0138212821093EC
:101D1000860300938503DF91CF911F910F91089562
:101D200081E090E0F8940C94BD0FFB01DC010D9074
:101D30000020E9F7119701900D920020E1F7089536
:101D4000FB01DC0101900D920020E1F708958F92D4
:101D50009F92AF92BF92CF92DF92EF92FF92CF937A
:101D6000DF93EC01688179818A819B81611571051E
:101D70008105910521F464E279ED8BE597E02DE191
:101D800033EF41E050E00E945A0F49015A019B0194
:101D9000AC01A7EAB1E40E94790F6B017C01ACEEC3
:101DA000B4EFA50194010E94870FDC01CB018C0DDB
:101DB0009D1DAE1DBF1DB7FF03C00197A109B0480F
:101DC00088839983AA83BB83BC01CD019F77DF9170
:101DD000CF91FF90EF90DF90CF90BF90AF909F900A
:101DE0008F9008950E94A70E089588E091E00E94C8
:101DF000A70E0895609308017093090180930A016A
:101E000090930B010895BB274A3031F4992322F4B3
:101E1000BDE2909581959F4F0C94310FBB27FA013D
:101E2000A62F6217710581059105330B30FB66F013
:101E3000AA27660F771F881F991FAA1FA21710F0E5
:101E4000A21B63953850A9F7A05DAA3308F0A95DDD
:101E5000A19336F7B111B1931082CA010C944A0FC5
:101E6000BB27FB015527AA27880F991FAA1FA41774
:101E700010F0A41B83955051B9F7A05DAA3308F068
:101E8000A95DA193009779F7B111B1931192CB019C
:101E90000C944A0FDC01FC01672F71917723E1F765
:101EA000329704C07C916D9370836291AE17BF0727
:101EB000C8F30895052E97FB1EF400940E94710F3D
:101EC00057FD07D00E948C0F07FC03D04EF40C94F2
:101ED000710F50954095309521953F4F4F4F5F4F73
:101EE000089590958095709561957F4F8F4F9F4F86
:101EF00008950E94AE0FA59F900DB49F900DA49FD2
:101F0000800D911D11240895B7FF0C94790F0E9444
:101F1000790F821B930B0895A1E21A2EAA1BBB1BFB
:101F2000FD010DC0AA1FBB1FEE1FFF1FA217B307A5
:101F3000E407F50720F0A21BB30BE40BF50B661FBB
:101F4000771F881F991F1A9469F76095709580957F
:101F500090959B01AC01BD01CF010895A29FB001F6
:101F6000B39FC001A39F700D811D1124911DB29FCD
:0E1F7000700D811D1124911D0895F894FFCF6E
:101F7E000101000089038000010000000000010043
:101F8E00020003000400050000000101010101012F
:101F9E00010101000000433A5C55736572735C36B3
:101FAE0036365C446F63756D656E74735C41724357
:101FBE006F6E74726F6C2D72656C656173655C7497
:101FCE0061736B5C4C69676874335C4C69676874E9
:101FDE00332E696E6F0000000000E4016001AD0158
:101FEE008B019F012B020D0A003A002000250024D0
:101FFE00004172432D656E64004172436F6E7472C0
:10200E006F6C002D2D2D2D2D00556E7469746C6521
:10201E0064002D2D2D2D2D0A004172432D62670077
:04202E004300530018
:107E0000112484B714BE81FFF0D085E080938100F7
:107E100082E08093C00088E18093C10086E0809377
:107E2000C20080E18093C4008EE0C9D0259A86E02C
:107E300020E33CEF91E0309385002093840096BBD3
:107E4000B09BFECF1D9AA8958150A9F7CC24DD24C4
:107E500088248394B5E0AB2EA1E19A2EF3E0BF2EE7
:107E6000A2D0813461F49FD0082FAFD0023811F036
:107E7000013811F484E001C083E08DD089C08234E0
:107E800011F484E103C0853419F485E0A6D080C0E4
:107E9000853579F488D0E82EFF2485D0082F10E0AE
:107EA000102F00270E291F29000F111F8ED06801E7
:107EB0006FC0863521F484E090D080E0DECF843638
:107EC00009F040C070D06FD0082F6DD080E0C81688
:107ED00080E7D80618F4F601B7BEE895C0E0D1E017
:107EE00062D089930C17E1F7F0E0CF16F0E7DF06D8
:107EF00018F0F601B7BEE89568D007B600FCFDCFD4
:107F0000A601A0E0B1E02C9130E011968C91119780
:107F100090E0982F8827822B932B1296FA010C0160
:107F200087BEE89511244E5F5F4FF1E0A038BF0790
:107F300051F7F601A7BEE89507B600FCFDCF97BE46
:107F4000E89526C08437B1F42ED02DD0F82E2BD052
:107F50003CD0F601EF2C8F010F5F1F4F84911BD097
:107F6000EA94F801C1F70894C11CD11CFA94CF0C13
:107F7000D11C0EC0853739F428D08EE10CD085E9AC
:107F80000AD08FE07ACF813511F488E018D01DD067
:107F900080E101D065CF982F8091C00085FFFCCF94
:107FA0009093C60008958091C00087FFFCCF809118
:107FB000C00084FD01C0A8958091C6000895E0E648
:107FC000F0E098E1908380830895EDDF803219F02E
:107FD00088E0F5DFFFCF84E1DECF1F93182FE3DFCA
:107FE0001150E9F7F2DF1F91089580E0E8DFEE27F6
:047FF000FF270994CA
:027FFE00040479
:0400000300007E007B
:00000001FF
