:100000000C94D6000C94FE000C94FE000C94FE00A0
:100010000C94FE000C94FE000C94FE000C94FE0068
:100020000C94FE000C94FE000C94FE000C94FE0058
:100030000C94FE000C94FE000C94FE000C94FE0048
:100040000C9445060C94FE000C94B5060C948F0697
:100050000C94FE000C94FE000C94FE000C94FE0028
:100060000C94FE000C94FE00404F5554313A234747
:100070007265656E0A404F5554323A235265640AE0
:10008000404F5554333A2359656C6C6F770A404F93
:100090005554343A23340A404F5554353A23350ADF
:1000A000404F5554363A23360A404F5554373A2379
:1000B000370A404F5554383A23380A40494E313AAE
:1000C000234C656674506F6B650A40494E323A2383
:1000D0005269676874506F6B650A40494E333A2322
:1000E000330A40494E343A23340A40494E353A23C4
:1000F000350A40494E363A23360A4043313A4C6974
:100100006768743320286C6F6F703D3130290A4066
:10011000433153313A537769746865720A40433109
:1001200053323A477265656E20337365630A404304
:100130003153333A52656420327365630A40433168
:1001400053343A59656C6C6F7720347365630A00D9
:100150000000000023002600290000000008000223
:100160000100000304070000000000000000000080
:100170000000250028002B000000000024002700BC
:100180002A00040404040404040402020202020219
:10019000030303030303010204081020408001024B
:1001A00004081020010204081020E70611241FBED5
:1001B000CFEFD8E0DEBFCDBF11E0A0E0B1E0EAE8CC
:1001C000FDE102C005900D92AE39B107D9F723E0E9
:1001D000AEE9B1E001C01D92A036B207E1F710E030
:1001E000C6EDD0E004C02197FE010E94850DC53DFB
:1001F000D107C9F70E948C070C94C30E0C94000021
:10020000089580E0089580E090E0089580E090E017
:10021000089560E070E0CB01089590E0FC01EA569B
:10022000FE4F2491FC01EE57FE4F8491882399F0F4
:1002300090E0880F991FFC01E858FE4FA591B491FA
:10024000FC01E259FE4F859194918FB7F894EC919F
:10025000E22BEC938FBF0895833081F028F4813036
:1002600099F08230A1F008958730A9F08830B9F074
:100270008430D1F4809180008F7D03C08091800014
:100280008F7780938000089584B58F7702C084B5FE
:100290008F7D84BD08958091B0008F7703C08091D9
:1002A000B0008F7D8093B0000895CF93DF93282F07
:1002B00030E0F901E65AFE4F8491F901EA56FE4F0B
:1002C000D491F901EE57FE4FC491CC2391F08111E6
:1002D0000E942C01EC2FF0E0EE0FFF1FE05BFE4FC1
:1002E000A591B491EC91ED2381E090E021F480E0C0
:1002F00002C080E090E0DF91CF9108951F93CF93EB
:10030000DF93282F30E0F901E65AFE4F8491F9017E
:10031000EA56FE4FD491F901EE57FE4FC491CC231B
:10032000C1F0162F81110E942C01EC2FF0E0EE0F8E
:10033000FF1FE259FE4FA591B4919FB7F894111198
:1003400004C08C91D095D82302C0EC91DE2BDC93B5
:100350009FBFDF91CF911F9108952FB7F8946091BF
:1003600003027091040280910502909106022FBF52
:1003700008958AE090E008958091C0019091C101B4
:10038000089560E070E080E490E408958091CA01EF
:100390009091CB0108958091C8019091C901089571
:1003A0008091CC019091CD01089581E090E0089575
:1003B0008091C6019091C7010895CF92DF92EF928C
:1003C000FF920F931F93CF93DF936C017A018B0100
:1003D000C0E0D0E0CE15DF0581F0D8016D918D0130
:1003E000D601ED91FC910190F081E02DC6010995B7
:1003F000892B11F02196EECF7E01C701DF91CF91BD
:100400001F910F91FF90EF90DF90CF900895089586
:1004100080E090E00895FC01538D448D252F30E05D
:10042000842F90E0821B930B541710F0CF96089501
:1004300001970895FC01918D828D981761F0828D4E
:10044000DF01A80FB11D5D968C91928D9F5F9F7308
:10045000928F90E008958FEF9FEF0895FC01918DAA
:10046000828D981731F0828DE80FF11D858D90E017
:1004700008958FEF9FEF0895FC01918D228D892FB4
:1004800090E0805C9F4F821B91098F73992708959C
:1004900087E092E00E943C0221E0892B09F420E0F1
:1004A000822F0895FC01848DDF01A80FB11DA35A8E
:1004B000BF4F2C91848D90E001968F739927848F84
:1004C000A689B7892C93A089B1898C9183708064A7
:1004D0008C93938D848D981306C00288F389E02D48
:1004E00080818F7D80830895EF92FF920F931F93F9
:1004F000CF93DF93EC0181E0888F9B8D8C8D9813D7
:1005000005C0E889F989808185FD26C0F62E0B8D0E
:1005100010E00F5F1F4F0F731127E02E8C8DE81234
:100520000CC00FB607FCFACFE889F989808185FFF6
:10053000F5CFCE010E945202F1CF8B8DFE01E80F64
:10054000F11DE35AFF4FF0829FB7F8940B8FEA89B1
:10055000FB89808180620AC09FB7F894EE89FF8989
:100560006083E889F98980818370806480839FBF7C
:1005700081E090E0DF91CF911F910F91FF90EF907C
:100580000895CF93DF93EC01888D8823C9F0EA8921
:10059000FB89808185FD05C0A889B9898C9186FD7C
:1005A0000FC00FB607FCF5CF808185FFF2CFA88979
:1005B000B9898C9185FFEDCFCE010E945202E7CF21
:1005C000DF91CF91089580E090E0892B29F00E947F
:1005D000480281110C94000008958091C601909109
:1005E000C701089581E090E008958091C60190913F
:1005F000C701089581E090E008958FE00E945501C1
:1006000021E0019709F020E0822F08958EE00E94FA
:10061000550121E0019709F020E0822F089500970D
:1006200069F0FC0101900020E9F73197AF01481B08
:10063000590BBC0187E092E00C94DD0180E090E072
:100640000895CF93DF930E940F03EC018CE591E0B6
:100650000E940F038C0F9D1FDF91CF9108952F9261
:100660003F924F925F926F927F928F929F92AF9242
:10067000BF92CF92DF92EF92FF920F931F93CF938F
:10068000DF93CDB7DEB7E3970FB6F894DEBF0FBEAA
:10069000CDBF1B0129013A01670178018090F60165
:1006A0009090F701A090F801B090F9011982BC0177
:1006B000CE0101960E94B10E4AE0BE01675D7F4FF8
:1006C000C1010E94CA0BBC01CE0101960E94B10E6D
:1006D0006FE571E0CE0101960E94B10EC301B20137
:1006E000681979098A099B092AE0AE01475D5F4FC5
:1006F0000E94D50BBC01CE0101960E94B10E61E6AD
:1007000071E0CE0101960E94B10EC701B6016419D5
:100710007509860997092AE0AE01475D5F4F0E947F
:10072000D50BBC01CE0101960E94B10E6DE571E0C2
:10073000CE0101960E94B10ECE0101960E940F03D8
:10074000E3960FB6F894DEBF0FBECDBFDF91CF9119
:100750001F910F91FF90EF90DF90CF90BF90AF90DF
:100760009F908F907F906F905F904F903F902F90D1
:1007700008952F923F924F925F926F927F928F9245
:100780009F92AF92BF92CF92DF92EF92FF920F9320
:100790001F93CF93DF9300D000D0CDB7DEB7809109
:1007A000630190916401A091650189839A83AB8371
:1007B00080910001882381F1109200018091F6015F
:1007C0009091F701A091F801B091F901E0EAF1E010
:1007D00081939193A193B19321E0E83BF207C1F794
:1007E00080919F01ECE0F1E0812C912C54018394E5
:1007F00031E0E831F30719F480939F010DC0908137
:100800003296B501A40104C0440F551F661F771F1F
:100810009A95D2F7842BECCF86B18C83C0909E0141
:10082000C82680919F01C82209F43FC00E94AD01F3
:100830001B012C0180EAA82E81E0B82E80E090E018
:10084000D12CEC816E2E712C9C012F5F3F4F490102
:100850009601082E02C0359527950A94E2F720FFED
:100860001AC0F30102C0F595E7958A95E2F7CF012A
:10087000F50180FF05C020823182428253820BC085
:10088000208131814281538182017101B401CE0105
:1008900001960E942F03C401F4E0AF0EB11C863014
:1008A000910591F62C8120939E010F900F900F904F
:1008B0000F90DF91CF911F910F91FF90EF90DF90FC
:1008C000CF90BF90AF909F908F907F906F905F90F0
:1008D0004F903F902F900895CF93DF93EC011982B2
:1008E000188281E090E09B838A839D838C8382E0E1
:1008F00090E00E948B0D9F838E8382E090E00E94A7
:100900008B0D99878887DF91CF9108958F929F9261
:10091000AF92BF92CF92DF92EF92FF920F931F930D
:10092000CF93DF9300D000D0CDB7DEB78C01B62EC9
:100930008091660190916701A0916801B091690171
:1009400089839A83AB83BC8380910101811107C0A5
:10095000F801E85EFE4F8081811133C088C010929B
:1009600001018CE190E00E948B0D6C018093BE012F
:10097000D092BF018EE090E00E948B0D982EA92EA0
:100980008093BC019093BD0188E390E00E948B0DA1
:100990009093BB018093BA0188E390E00E948B0D95
:1009A0009093B9018093B801A92DBA2DF60180E08A
:1009B00090E01D928193919301968E309105C9F735
:1009C000C7CFC090BC01D090BD01C00ED11EF601B2
:1009D0008081811118C0BB2009F449C0000F111F8C
:1009E000000F111F8091BA019091BB01080F191FD0
:1009F0000E94AD01F801608371838283938381E05B
:100A0000F601808334C0B11032C05801AA0CBB1C5F
:100A1000AA0CBB1C8090B8019090B9018A0C9B1C59
:100A20000E94AD01F4016083718382839383F60198
:100A300010822091BA013091BB01F901EA0DFB1D32
:100A40002081318142815381000F111FE091BE014D
:100A5000F091BF01E00FF11F0190F081E02D31977F
:100A60007B018C01BF01CE0101960E942F030F90E4
:100A70000F900F900F90DF91CF911F910F91FF90EA
:100A8000EF90DF90CF90BF90AF909F908F900895A0
:100A900060E08CE00E947E0160E08CE090E00E94CB
:100AA000860460E08DE00E947E0160E08DE090E0D1
:100AB0000E9486048AE691E00E942103FFCF8F9274
:100AC0009F92AF92BF92CF92DF92EF92FF92CF931D
:100AD000DF93EC014A015B0161E00E947E0161E06D
:100AE000CE010E9486040E94AD016B017C0120E0D2
:100AF00030E04AE754E4C501B4010E94DC0C0E94D6
:100B0000840CC60ED71EE81EF91E0E94AD016C159E
:100B10007D058E059F0518F40E94B903F6CF60E0AD
:100B20008C2F0E947E0160E0CE01DF91CF91FF907B
:100B3000EF90DF90CF90BF90AF909F908F900C94EC
:100B4000860440E050E060E870E484E090E00C94BB
:100B50005F0540E050E060E070E483E090E00C94DA
:100B60005F0540E050E060E470E482E090E00C94C7
:100B70005F058F929F92AF92BF92CF92DF92EF92DA
:100B8000FF920F931F93CF93DF93EC015B014A0118
:100B90000A811B818C819D810817190709F051C0BA
:100BA000780182E0E80EF11CFD82EC82E1E8EE16AD
:100BB000EFE3FE0620F4C701880F991F02C08FEFF4
:100BC0009FEF0E948B0D6C01F1E8EF16FFE3FF062B
:100BD00020F4C701880F991F02C08FEF9FEF0E947A
:100BE0008B0D7C01D601BC0120E030E08E819F811D
:100BF00020173107C1F0A901440F551F840F951F1D
:100C0000FC01808191818D939D9388859985480F02
:100C1000591FFA0180819181FB0181939193BF015A
:100C20002F5F3F4FE3CF009711F00E94230E88857E
:100C30009985009711F00E94230ECE82DF82E8860C
:100C4000F9868A819B819C01220F331FEE81FF81EF
:100C5000E20FF31FB182A08248855985FA01E20FA5
:100C6000F31F9182808201969B838A83DF91CF91CB
:100C70001F910F91FF90EF90DF90CF90BF90AF90BA
:100C80009F908F9008950E94AC0E1F920F920FB606
:100C90000F9211242F933F938F939F93AF93BF9302
:100CA0008091030290910402A0910502B091060286
:100CB0003091020223E0230F2D3720F40196A11D6D
:100CC000B11D05C026E8230F0296A11DB11D20937A
:100CD00002028093030290930402A0930502B09352
:100CE00006028091FE019091FF01A0910002B09157
:100CF00001020196A11DB11D8093FE019093FF0199
:100D0000A0930002B0930102BF91AF919F918F9188
:100D10003F912F910F900FBE0F901F9018951F922B
:100D20000F920FB60F9211242F933F934F935F931F
:100D30006F937F938F939F93AF93BF93EF93FF93A3
:100D400087E092E00E945202FF91EF91BF91AF9134
:100D50009F918F917F916F915F914F913F912F91D3
:100D60000F900FBE0F901F9018951F920F920FB605
:100D70000F9211242F938F939F93EF93FF93E09102
:100D80001702F09118028081E0911D02F0911E027D
:100D900082FD12C09081809120028F5F8F7320911D
:100DA0002102821751F0E0912002F0E0E95FFD4F4F
:100DB000958F8093200201C08081FF91EF919F91D8
:100DC0008F912F910F900FBE0F901F9018956F92DB
:100DD0007F928F929F92AF92BF92CF92DF92EF92CB
:100DE000FF920F931F93CF93DF9310920A021092FA
:100DF000090288EE93E0A0E0B0E080930B029093AC
:100E00000C02A0930D02B0930E028EE491E0909339
:100E100008028093070285EC90E09093140280937F
:100E2000130284EC90E0909316028093150280ECFC
:100E300090E0909318028093170281EC90E09093D9
:100E40001A028093190282EC90E090931C02809326
:100E50001B0286EC90E090931E0280931D0210927C
:100E60002002109221021092220210922302C4EA60
:100E7000D2E0AA24AA94BA2C90E0892E91E0992E6F
:100E800021E0E22E21E0F22E03E011E036E0C32E55
:100E900031E0D32E49E0642E41E0742E0E94AD0172
:100EA0006C837D838E839F83188619861A861B86A2
:100EB000CE010C960E946C04BB82AA821F8A1E8AF5
:100EC000198E188E198218829B8E8A8E9D8E8C8E1A
:100ED000FF8EEE8E19A308A3DBA2CAA27FA26EA288
:100EE000FBA6EAA61DA30CA319A708A71DA70CA77C
:100EF000AE9683E0CC35D80789F6DF91CF911F916C
:100F00000F91FF90EF90DF90CF90BF90AF909F90A8
:100F10008F907F906F900895CF93DF93CDB7DEB71A
:100F20002B970FB6F894DEBF0FBECDBF789484B573
:100F3000826084BD84B5816084BD85B5826085BDD5
:100F400085B5816085BD80916E00816080936E0063
:100F50001092810080918100826080938100809155
:100F60008100816080938100809180008160809306
:100F700080008091B10084608093B1008091B000C6
:100F800081608093B00080917A00846080937A00C1
:100F900080917A00826080937A0080917A008160EB
:100FA00080937A0080917A00806880937A00109212
:100FB000C100E0911702F091180282E08083E09175
:100FC0001302F09114021082E0911502F0911602C2
:100FD00087E0808310921F02E0911B02F0911C02B7
:100FE00086E08083E0911902F0911A02808180618D
:100FF0008083E0911902F0911A02808188608083D9
:10100000E0911902F0911A02808180688083E0915A
:101010001902F0911A0280818F7D808382E791E02E
:101020000E94210308E610E0F8016491611130C0CC
:1010300082E00E940D0183E00E940D0184E00E9485
:101040000D0185E00E940D0186E00E940D0187E000
:101050000E940D0188E00E940D0189E00E940D01AF
:1010600084E290E00E948B0D8C0166E271E00E94A8
:10107000BC0EF80101900020E9F73197E01BF10B5D
:10108000D80180E090E0C12CD12CE12CF12C12C0D1
:1010900087E092E00E9474020F5F1F4F892B21F6B8
:1010A000C7CF2D912C3551F02F3241F02E3209F45B
:1010B0006C010196E817F907A1F702C07C01F9CF8E
:1010C000F801EC0DFD1D10828CE791E00E940F03EA
:1010D000EC14FD041CF082E891E004C0C701019605
:1010E000800F911F0E940F038BE891E00E940F0375
:1010F0000115110519F0C8010E94230EE4EAF2E07F
:10110000A6ECB1E081E090E021E030E0378B268B67
:10111000918F808FED93FD930196BE96853091055A
:10112000A9F78091FA019091FB019093C1018093FE
:10113000C0019093C5018093C4010091C601109134
:10114000C7011093C3010093C2011093FD010093E6
:10115000FC0189EB91E0D80193969C938E93929732
:101160008CEB91E095969C938E93949781EC91E013
:1011700097969C938E93969786EC91E099969C9384
:101180008E93989786E093E09B969C938E939A9784
:101190008BEC91E09D969C938E939C977801BCE09C
:1011A000EB0EF11CAC0166E073E0C7010E94B905CB
:1011B0008DEF92E0F80193A782A780ED91E095A7CB
:1011C00084A7AC016DEF72E0C7010E94B905E09100
:1011D000C801F091C90181EB95E0958F848F85ED71
:1011E00091E093A382A388ED91E095A384A3E0917D
:1011F000CA01F091CB0189EA95E0958F848F8AEF3F
:1012000092E093A382A385EF92E095A384A3E0915B
:10121000CC01F091CD0181EA95E0958F848F82EF2A
:1012200092E093A382A38DEE92E095A384A38EE235
:1012300090E00E948B0D8C010E94AD01D8011496A4
:101240006D937D938D939C931797F801108611866B
:1012500012861386C8010C960E946C048FEF9FEFD4
:10126000D80113969C938E93129757961C921E92B8
:10127000569759961C921E92589711961C921E9240
:1012800080E091E05B969C938E935A975D969C9339
:101290008E935C9721E031E05F963C932E935E97AE
:1012A00083E091E091969C938E93909749E051E072
:1012B00097965C934E9396979B963C932E939A9712
:1012C00095969C938E93949799969C938E939897CA
:1012D0009D969C938E939C971093FB010093FA012B
:1012E00088E495E093969C938E9392978CE00E946D
:1012F0000D018DE00E940D0160E08CE00E947E01F6
:1013000060E08CE090E00E94860460E08DE00E9446
:101310007E0160E08DE090E00E94860487E092E02C
:101320000E943C02892BD1F387E092E00E941A02CE
:101330008236910599F787E092E00E943C02892B62
:1013400029F087E092E00E941A02F5CF3FB7F894A7
:101350008091FE019091FF01A0910002B0910102E5
:1013600026B5A89B05C02F3F19F00196A11DB11D00
:101370003FBFBA2FA92F982F8827820F911DA11D3B
:10138000B11DBC01CD0142E0660F771F881F991F78
:101390004A95D1F7611571058105910511F00E94FB
:1013A000C10B82E991E00E9421030E94AD0160938C
:1013B000F6017093F7018093F8019093F90161E0D1
:1013C0008CE00E947E0161E08CE090E00E94860447
:1013D00061E08DE00E947E0161E08DE090E00E947E
:1013E00086040091FC011091FD010115110509F41D
:1013F0001FC1D8019696ED91FC919797099520E031
:1014000030E04AE754E40E94DC0C0E94840CF801AE
:1014100060877187828793870E94AD01D8011496F7
:101420006D937D938D939C9317975A96ED91FC91B4
:101430005B970995D8015C96ED91FC915D970995B4
:10144000F801C480D580E680F7801092CE0169E96A
:1014500071E08EEC91E00E94B10E4AE0BE016F5F38
:101460007F4FD80156968D919C9157970E94CA0B39
:10147000BC018EEC91E00E94B10E6BE971E08EEC44
:1014800091E00E94B10E4AE0BE016F5F7F4FF8010C
:10149000808D918D0E94CA0BBC018EEC91E00E9460
:1014A000B10E6FE571E08EEC91E00E94B10E80917B
:1014B000F6019091F701A091F801B091F901A7010F
:1014C0009601281B390B4A0B5B0BCA01B9012AE0B4
:1014D000AE014F5F5F4F0E94D50BBC018EEC91E0D7
:1014E0000E94B10E6DE571E08EEC91E00E94B10EAC
:1014F0008EEC91E00E940F030E94B903D8015E9622
:10150000ED91FC915F970995882331F0D801909671
:10151000ED91FC9191979AC0F80182819381019697
:1015200049F4D8019296ED91FC9193970995F801B1
:1015300093838283D8018D919C9111970196119686
:101540009C938E9312962D913C9113972115310502
:1015500009F440C082179307E9F59296ED91FC914A
:1015600093970995F801938382831182108204A0D6
:10157000F5A1E02D6BC00E94AD01D8011496CD906D
:10158000DD90ED90FC901797DC01CB018C199D0943
:10159000AE09BF09F801C084D184E284F3848C15BC
:1015A0009D05AE05BF0508F04EC0D8011C968D9173
:1015B0009C911D971E966D917C911F979B012150C8
:1015C00031098217930781F41D961C921E921C9775
:1015D0000E94B903F80180859185A285B385892B86
:1015E0008A2B8B2B11F3C7CF01960E94710DF80146
:1015F00095878487880F991F0288F389E02DE80F6B
:10160000F91F0190F081E02D0995882371F2D8012E
:101610001C96ED91FC911D97EE0FFF1F54968D9136
:101620009C915597E80FF91F0190F081E02D0EC0B5
:101630008091FA019091FB019093FD018093FC0150
:101640000E94E302CECE00A4F1A5E02D0995F4CFCF
:101650008F929F92AF92BF92CF92DF92EF92FF92C2
:10166000CF93DF93EC01688179818A819B81611539
:1016700071058105910521F464E279ED8BE597E030
:101680002DE133EF41E050E00E94210C49015A0165
:101690009B01AC01A7EAB1E40E94400C6B017C0104
:1016A000ACEEB4EFA50194010E944E0CDC01CB011D
:1016B0008C0D9D1DAE1DBF1DB7FF03C00197A10975
:1016C000B04888839983AA83BB83BC01CD019F77EF
:1016D000DF91CF91FF90EF90DF90CF90BF90AF90D0
:1016E0009F908F9008958F929F92AF92BF92CF92CA
:1016F000DF92EF92FF92609102017091030180915D
:10170000040190910501611571058105910521F490
:1017100064E279ED8BE597E02DE133EF41E050E0B5
:101720000E94210C49015A019B01AC01A7EAB1E4D6
:101730000E94400C6B017C01ACEEB4EFA50194015A
:101740000E944E0CDC01CB018C0D9D1DAE1DBF1DFA
:10175000B7FF03C00197A109B0488093020190939D
:101760000301A0930401B0930501BC01CD019F7753
:10177000FF90EF90DF90CF90BF90AF909F908F90B1
:101780000895609302017093030180930401909384
:1017900005010895BB274A3031F4992322F4BDE2B4
:1017A000909581959F4F0C94F80BBB27FA01A62FBB
:1017B0006217710581059105330B30FB66F0AA278E
:1017C000660F771F881F991FAA1FA21710F0A21B70
:1017D00063953850A9F7A05DAA3308F0A95DA193DD
:1017E00036F7B111B1931082CA010C94110CBB27CA
:1017F000FB015527AA27880F991FAA1FA41710F0CD
:10180000A41B83955051B9F7A05DAA3308F0A95DD8
:10181000A193009779F7B111B1931192CB010C9478
:10182000110CDC01FC01672F71917723E1F73297EE
:1018300004C07C916D9370836291AE17BF07C8F3AB
:101840000895052E97FB1EF400940E94380C57FD56
:1018500007D00E94530C07FC03D04EF40C94380CB4
:1018600050954095309521953F4F4F4F5F4F0895CC
:1018700090958095709561957F4F8F4F9F4F0895FC
:101880000E94750CA59F900DB49F900DA49F800D94
:10189000911D11240895B7FF0C94400C0E94400C38
:1018A000821B930B0895A1E21A2EAA1BBB1BFD01FC
:1018B0000DC0AA1FBB1FEE1FFF1FA217B307E4072F
:1018C000F50720F0A21BB30BE40BF50B661F771F87
:1018D000881F991F1A9469F7609570958095909567
:1018E0009B01AC01BD01CF010895A29FB001B39F40
:1018F000C001A39F700D811D1124911DB29F700D19
:10190000811D1124911D08950E94BB0C88F09F57E2
:1019100098F0B92F9927B751B0F0E1F0660F771F13
:10192000881F991F1AF0BA95C9F714C0B13091F009
:101930000E94D50CB1E008950C94D50C672F782F38
:101940008827B85F39F0B93FCCF3869577956795CE
:10195000B395D9F73EF490958095709561957F4F3A
:101960008F4F9F4F089557FD9058440F551F59F0C2
:101970005F3F71F04795880F97FB991F61F09F3F7C
:1019800079F087950895121613061406551FF2CFA5
:101990004695F1DF08C0161617061806991FF1CFF5
:1019A00086957105610508940895E894BB2766271C
:1019B0007727CB0197F908950E94EF0C0C94600DE6
:1019C0000E94520D38F00E94590D20F0952311F01D
:1019D0000C94490D0C944F0D11240C94D60C0E94BC
:1019E000B30C70F3959FC1F3950F50E0551F629FA4
:1019F000F001729FBB27F00DB11D639FAA27F00D68
:101A0000B11DAA1F649F6627B00DA11D661F829F8E
:101A10002227B00DA11D621F739FB00DA11D621F73
:101A2000839FA00D611D221F749F3327A00D611D90
:101A3000231F849F600D211D822F762F6A2F112472
:101A40009F5750409AF0F1F088234AF0EE0FFF1FA5
:101A5000BB1F661F771F881F91505040A9F79E3FFC
:101A6000510580F00C94490D0C94D60C5F3FE4F3C3
:101A7000983ED4F3869577956795B795F795E79552
:101A80009F5FC1F7FE2B880F911D9695879597F95B
:101A9000089597F99F6780E870E060E008959FEFF0
:101AA00080EC089500240A941616170618060906F5
:101AB000089500240A9412161306140605060895C4
:101AC000092E0394000C11F4882352F0BB0F40F44C
:101AD000BF2B11F460FF04C06F5F7F4F8F4F9F4F8C
:101AE0000895AA1BBB1B51E107C0AA1FBB1FA61765
:101AF000B70710F0A61BB70B881F991F5A95A9F7B7
:101B000080959095BC01CD010895EE0FFF1F0590C3
:101B1000F491E02D09940F931F93CF93DF938230BC
:101B2000910510F482E090E0E0915E03F0915F0394
:101B300020E030E0A0E0B0E0309719F14081518121
:101B40000281138148175907C8F08417950769F473
:101B5000109731F012960C93129713961C9327C08E
:101B600000935E0310935F0322C02115310519F025
:101B70004217530718F49A01BD01EF01DF01F80184
:101B8000DBCF21153105F9F0281B390B2430310545
:101B900080F48A819B816115710521F0FB0193839B
:101BA000828304C090935F0380935E03FE013296AC
:101BB00044C0FE01E20FF31F81939193225031093B
:101BC000398328833AC020915C0330915D03232B35
:101BD00041F4209108013091090130935D03209375
:101BE0005C0320910601309107012115310541F474
:101BF0002DB73EB740910A0150910B01241B350BC4
:101C0000E0915C03F0915D03E217F307A0F42E1B53
:101C10003F0B2817390778F0AC014E5F5F4F241750
:101C2000350748F04E0F5F1F50935D0340935C03F0
:101C30008193919302C0E0E0F0E0CF01DF91CF917A
:101C40001F910F910895CF93DF93009709F481C0FE
:101C5000FC01329713821282A0915E03B0915F0360
:101C6000109781F420813181820F931F20915C03B2
:101C700030915D032817390751F5F0935D03E09328
:101C80005C0367C0ED0120E030E0CE17DF0740F4D1
:101C90004A815B819E0141155105F1F0EA01F5CFC2
:101CA000D383C28340815181840F951FC817D90700
:101CB00059F488819981840F951F029691838083BE
:101CC0008A819B81938382832115310529F4F093C6
:101CD0005F03E0935E033DC0E901FB83EA83499122
:101CE0005991C40FD51FEC17FD0761F480819181D4
:101CF000840F951F0296E9019983888382819381DD
:101D00009B838A83E0E0F0E012968D919C9113977B
:101D1000009719F0FD01DC01F7CF8D919C9111978F
:101D20009D012E5F3F4F820F931F20915C033091E6
:101D30005D032817390769F4309729F410925F037F
:101D400010925E0302C013821282B0935D03A093CF
:101D50005C03DF91CF91089581E090E0F8940C94BA
:101D6000C30EFB01DC010D900020E9F711970190F3
:101D70000D920020E1F70895FB01DC0101900D9226
:0A1D80000020E1F70895F894FFCF6A
:101D8A000101010000000000600380000000010062
:101D9A000200030004000500000001010101010125
:101DAA00010101000000463A5C4172436F6E747291
:101DBA006F6C5C7461736B5C4C69676874335C4C00
:101DCA0069676874332E696E6F0000000000740240
:101DDA00DD010B02C1023C021A022E020D0A003A70
:101DEA00002000494E004F5554004172432D656E44
:101DFA0064004172436F6E74726F6C002D2D2D2D2D
:101E0A002D00556E7469746C6564002D2D2D2D2D71
:0E1E1A000A004172432D62670043005300002E
:107E0000112484B714BE81FFF0D085E080938100F7
:107E100082E08093C00088E18093C10086E0809377
:107E2000C20080E18093C4008EE0C9D0259A86E02C
:107E300020E33CEF91E0309385002093840096BBD3
:107E4000B09BFECF1D9AA8958150A9F7CC24DD24C4
:107E500088248394B5E0AB2EA1E19A2EF3E0BF2EE7
:107E6000A2D0813461F49FD0082FAFD0023811F036
:107E7000013811F484E001C083E08DD089C08234E0
:107E800011F484E103C0853419F485E0A6D080C0E4
:107E9000853579F488D0E82EFF2485D0082F10E0AE
:107EA000102F00270E291F29000F111F8ED06801E7
:107EB0006FC0863521F484E090D080E0DECF843638
:107EC00009F040C070D06FD0082F6DD080E0C81688
:107ED00080E7D80618F4F601B7BEE895C0E0D1E017
:107EE00062D089930C17E1F7F0E0CF16F0E7DF06D8
:107EF00018F0F601B7BEE89568D007B600FCFDCFD4
:107F0000A601A0E0B1E02C9130E011968C91119780
:107F100090E0982F8827822B932B1296FA010C0160
:107F200087BEE89511244E5F5F4FF1E0A038BF0790
:107F300051F7F601A7BEE89507B600FCFDCF97BE46
:107F4000E89526C08437B1F42ED02DD0F82E2BD052
:107F50003CD0F601EF2C8F010F5F1F4F84911BD097
:107F6000EA94F801C1F70894C11CD11CFA94CF0C13
:107F7000D11C0EC0853739F428D08EE10CD085E9AC
:107F80000AD08FE07ACF813511F488E018D01DD067
:107F900080E101D065CF982F8091C00085FFFCCF94
:107FA0009093C60008958091C00087FFFCCF809118
:107FB000C00084FD01C0A8958091C6000895E0E648
:107FC000F0E098E1908380830895EDDF803219F02E
:107FD00088E0F5DFFFCF84E1DECF1F93182FE3DFCA
:107FE0001150E9F7F2DF1F91089580E0E8DFEE27F6
:047FF000FF270994CA
:027FFE00040479
:0400000300007E007B
:00000001FF
