:100000000C9434010C945C010C945C010C945C0124
:100010000C945C010C945C010C945C010C945C01EC
:100020000C945C010C945C010C945C010C945C01DC
:100030000C945C010C945C010C945C010C945C01CC
:100040000C943F060C945C010C94DC0B0C94B60BE6
:100050000C945C010C945C010C945C010C945C01AC
:100060000C945C010C945C01404F5554313A23557B
:100070006E7265776172646564206375650A404FCE
:100080005554323A23476F206375650A404F5554E3
:10009000333A234C6566745265776172640A404F47
:1000A0005554343A235269676874526577617264B3
:1000B0000A404F5554353A23350A404F5554363A85
:1000C00023360A404F5554373A23370A404F555488
:1000D000383A23380A40494E313A234C6566744C0D
:1000E00069636B0A40494E323A234D69644C696337
:1000F0006B0A40494E333A2352696768744C69630E
:100100006B0A40494E343A23340A40494E353A236B
:10011000350A40494E363A23360A4043313A0A40BE
:10012000433153313A696E697420566172730A40E3
:1001300043323A4C65667420426C6F636B0A4043ED
:100140003253313A4D69645F6C69636B0A404332E4
:1001500053323A43686F6F736520536964650A4090
:10016000433253333A5257440A40433253343A49A4
:1001700066205377697463680A40433253353A54B2
:10018000696D654F75740A40433253363A45525291
:100190000A40433253373A4D4953530A4043333AA6
:1001A000526967687420426C6F636B0A4043335333
:1001B000313A4D69645F6C69636B0A404333533273
:1001C0003A43686F6F736520536964650A4043332F
:1001D00053333A5257440A40433353343A49662022
:1001E0005377697463680A40433353353A54696DF1
:1001F000654F75740A40433353363A4552520A40AC
:10020000433353373A4D4953530A00000000002549
:100210000028002B0000000000240027002A000016
:100220000000002300260029000404040404040440
:100230000402020202020203030303030301020495
:100240000810204080010204081020010204081058
:100250002000000008000201000003040700000065
:100260000000000000000E0C11241FBECFEFD8E0EC
:10027000DEBFCDBF25E0A6EBB1E001C01D92AF3CD3
:10028000B207E1F711E0A0E0B1E0E2E5FBE202C075
:1002900005900D92A63BB107D9F711E0C4E3D1E078
:1002A00004C02197FE010E947B11C333D107C9F717
:1002B0000E94BD0C0C94A7150C94000080912A029A
:1002C00090912B02089581E090E0089520E030E0C5
:1002D00040E85FE360910F0270911002809111027B
:1002E000909112020E94821160930F02709310028B
:1002F0008093110290931202089580912A029091A6
:100300002B02089581E090E008958091220290915F
:100310002302089581E090E0089580912202909157
:100320002302089560E070E080EC9FE308958091DF
:100330001C0290911D02089580912802909129023B
:10034000089581E090E0089580E090E0A0E8BFE3A8
:1003500080930B0290930C02A0930D02B0930E02B7
:1003600010920F02109210021092110210921202BB
:100370009C01AD0160910702709108028091090211
:1003800090910A020E948211609307027093080202
:100390008093090290930A0220E030E040E85FE396
:1003A0006091FB017091FC018091FD019091FE0133
:1003B0000E9482116093FB017093FC018093FD0108
:1003C0009093FE0120E030E044EA52E46091F701AE
:1003D0007091F8018091F9019091FA010E94EE115B
:1003E000882361F080E090E0A4EAB2E48093F70112
:1003F0009093F801A093F901B093FA01089520E0D9
:1004000030E040E85FE360910B0270910C02809154
:100410000D0290910E020E94EE11811140C02091B8
:10042000030230910402409105025091060260914E
:100430000702709108028091090290910A020E94BD
:10044000DB1287FD2CC01092070210920802109256
:10045000090210920A0268E070E080E090E00E94D9
:10046000500B695F7F4F072E000C880B990B0E9481
:100470002B12609303027093040280930502909301
:10048000060280E090E0A0E8BFE380930F02909323
:100490001002A0931102B093120281E0089580E04F
:1004A00008958091440282FB882780F90895809105
:1004B0002C0290912D02089580914402817008953C
:1004C000809124029091250208958091440286959E
:1004D000817008958091240290912502089560E032
:1004E00070E088EC91E408958091180290911902CF
:1004F0000895CF93C1E020E030E048E453E46091F8
:10050000FB017091FC018091FD019091FE010E9420
:10051000DB1287FDC0E08C2FCF91089510920B0263
:1005200010920C0210920D0210920E0220E030E0A8
:1005300040E050E460910F0270911002809111022E
:10054000909112020E94DB1287FD05C080E090E0CE
:10055000A0E4B0E404C080E090E0A0EEB0E48093BA
:10056000F3019093F401A093F501B093F60108957F
:1005700080913A0290913B02089581E090E00895C5
:1005800020E030E040E85FE360910F0270911002DC
:1005900080911102909112020E94821160930F02C9
:1005A000709310028093110290931202089580912B
:1005B0003A0290913B02089581E090E00895809185
:1005C000320290913302089581E090E00895809185
:1005D000320290913302089560E070E080EC9FE376
:1005E000089580911E0290911F02089520E030E04E
:1005F00040E85FE360910B0270910C0280910D0264
:1006000090910E020E94EE11811140C020910302D0
:100610003091040240910502509106026091070258
:10062000709108028091090290910A020E94DB12E7
:1006300087FD2CC010920702109208021092090246
:1006400010920A0280E090E0A0E8BFE380930F02DE
:1006500090931002A0931102B093120268E070E030
:1006600080E090E00E94500B695F7F4F072E000CE6
:10067000880B990B0E942B12609303027093040263
:10068000809305029093060281E0089580E008952A
:100690008091380290913902089581E090E00895A8
:1006A00080E090E0A0E8BFE380930B0290930C02FF
:1006B000A0930D02B0930E0210920F02109210023E
:1006C00010921102109212029C01AD01609107027A
:1006D000709108028091090290910A020E94821191
:1006E00060930702709308028093090290930A02B4
:1006F00020E030E040E85FE36091FB017091FC0195
:100700008091FD019091FE010E9482116093FB0196
:100710007093FC018093FD019093FE0120E030E096
:1007200048E952E46091F7017091F8018091F90174
:100730009091FA010E94EE11882361F080E090E030
:10074000A8E9B2E48093F7019093F801A093F9012E
:10075000B093FA01089580913C0290913D02089572
:1007600080913402909135020895809134029091E5
:100770003502089560E070E088EC91E4089580917E
:100780001802909119020895CF93C1E020E030E063
:1007900048E453E46091FB017091FC018091FD01FC
:1007A0009091FE010E94DB1287FDC0E08C2FCF915B
:1007B000089510920B0210920C0210920D021092EA
:1007C0000E0220E030E040E050E460910F027091B2
:1007D000100280911102909112020E94DB1287FD9B
:1007E00005C080E090E0A0E4B0E404C080E090E0C8
:1007F000A0EEB0E48093F3019093F401A093F5018F
:10080000B093F601089581E090E0089580E090E0D3
:10081000A6E9B2E48093EF019093F001A093F10177
:10082000B093F2018093EB019093EC01A093ED0162
:10083000B093EE018BE794E1AEEABDE38093FF0154
:1008400090930002A0930102B09302028CEE91E516
:10085000A8E3BDE38093E7019093E801A093E90149
:10086000B093EA0168E070E080E090E00E94500BF5
:10087000695F7F4F072E000C880B990B0E942B128B
:100880006093030270930402809305029093060222
:100890001092FB011092FC011092FD011092FE01DA
:1008A00080E090E0ACE9B2E48093F7019093F80126
:1008B000A093F901B093FA01089580E090E00895C3
:1008C00060E070E0CB01089580E0089580E090E062
:1008D000089508958F929F92AF92BF92CF92DF9228
:1008E000EF92FF928090F3019090F401A090F501B7
:1008F000B090F6016091EF017091F0018091F101EB
:100900009091F2010E94F3116B017C010E94DF14AF
:1009100024E630E040E050E00E94441521E0C21A95
:10092000D1086C157D052CF4812C912C90E4A92E16
:10093000BA2CC501B4010E94F311660F771FFB01A9
:10094000E05EFD4F80819181FF90EF90DF90CF902E
:10095000BF90AF909F908F9008958F929F92AF928B
:10096000BF92CF92DF92EF92FF928090F30190902E
:10097000F401A090F501B090F6016091EB01709147
:10098000EC018091ED019091EE010E94F3116B0159
:100990007C010E94DF1424E630E040E050E00E9439
:1009A000441521E0C21AD1086C157D052CF4812C68
:1009B000912C90E4A92EBA2CC501B4010E94F31128
:1009C000660F771FFB01E05DFD4F80819181FF90F5
:1009D000EF90DF90CF90BF90AF909F908F90089551
:1009E0000E94DF1424E630E040E050E00E9444150D
:1009F00061337105810591052CF060E070E080E4C1
:100A000090E404C060E070E080E090E40E94F311A4
:100A1000660F771FFB01E85EFD4F8081918108958D
:100A200080E090E00C94740B82E090E00C94740BE6
:100A300081E090E00C94740B0F931F93CF93DF939E
:100A4000CDB7DEB72A970FB6F894DEBF0FBECDBF85
:100A50008B011982BC01CE0101960E947F144AE0ED
:100A6000BE01685F7F4FC8010E94ED14BC01CE013A
:100A700001960E947F1469E871E0CE0101960E9400
:100A80007F14CE0101960E943E0B2A960FB6F89471
:100A9000DEBF0FBECDBFDF91CF911F910F910895A3
:100AA0002F923F924F925F926F927F928F929F927E
:100AB000AF92BF92CF92DF92EF92FF920F931F936C
:100AC000CF93DF93CDB7DEB7E3970FB6F894DEBFD1
:100AD0000FBECDBF1B0129013A016701780180904B
:100AE0006E0290906F02A0907002B0907102198215
:100AF000BC01CE0101960E947F144AE0BE01675DF1
:100B00007F4FC1010E94ED14BC01CE0101960E94ED
:100B10007F1468E771E0CE0101960E947F14C30143
:100B2000B201681979098A099B092AE0AE01475D7B
:100B30005F4F0E94F814BC01CE0101960E947F1401
:100B40006AE771E0CE0101960E947F14C701B601E9
:100B500064197509860997092AE0AE01475D5F4F60
:100B60000E94F814BC01CE0101960E947F1469E82E
:100B700071E0CE0101960E947F14CE0101960E9481
:100B80003E0BE3960FB6F894DEBF0FBECDBFDF91EC
:100B9000CF911F910F91FF90EF90DF90CF90BF907A
:100BA000AF909F908F907F906F905F904F903F900D
:100BB0002F900895833081F028F4813099F08230AD
:100BC000A1F008958730A9F08830B9F08430D1F4CD
:100BD000809180008F7D03C0809180008F7780930B
:100BE0008000089584B58F7702C084B58F7D84BD61
:100BF00008958091B0008F7703C08091B0008F7D01
:100C00008093B00008951F93CF93DF93282F30E097
:100C1000F901EF5AFD4F8491F901E35CFD4FD49146
:100C2000F901E75DFD4FC491CC23C9F0162F811166
:100C30000E94DA05EC2FF0E0EE0FFF1FE55FFD4F9D
:100C4000A591B4918FB7F894111105C09C91ED2F27
:100C5000E095E92302C0EC91ED2BEC938FBFDF917F
:100C6000CF911F9108952FB7F8946091140270915D
:100C7000150280911602909117022FBF08951F92BE
:100C80000F920FB60F9211242F933F938F939F9340
:100C9000AF93BF938091140290911502A091160218
:100CA000B09117023091130223E0230F2D3720F467
:100CB0000196A11DB11D05C026E8230F0296A11DB6
:100CC000B11D209313028093140290931502A093F8
:100CD0001602B09317028091400290914102A091B8
:100CE0004202B09143020196A11DB11D80934002C2
:100CF00090934102A0934202B0934302BF91AF91FF
:100D00009F918F913F912F910F900FBE0F901F9049
:100D10001895CF93DF93EC011982188281E090E05F
:100D20009B838A839D838C8382E090E00E944D1395
:100D30009F838E8382E090E00E944D13998788877D
:100D4000DF91CF9108958F929F92AF92BF92CF92F1
:100D5000DF92EF92FF920F931F93CF93DF9300D018
:100D600000D01F92CDB7DEB78C018FE495E5A4E5E6
:100D7000B0E089839A83AB83BC83809101018111A8
:100D800007C0F801E85EFE4F8081811137C09DC029
:100D9000109201018CE190E06D830E944D135C0183
:100DA0008093E501B092E6018EE090E00E944D1341
:100DB0006C018093E301D092E4018093E101D09231
:100DC000E20188E390E00E944D139093E00180934C
:100DD000DF0188E390E00E944D139093DE01809341
:100DE000DD01D601F50180E090E06D811D928193D7
:100DF000919301968E309105C9F7C3CFC090E3015E
:100E0000D090E401C00ED11EF6018081811129C06D
:100E1000662309F45AC0C801880F991F880F991FCB
:100E2000A090DF01B090E001A80EB91E0E94330629
:100E3000F501608371838283938381E0F60180836F
:100E4000000F111FE091E501F091E601E00FF11FA5
:100E500060817181615071098CE791E00E941C05ED
:100E600034C0611132C05801AA0CBB1CAA0CBB1CB7
:100E70008090DD019090DE018A0C9B1C0E9433065D
:100E8000F4016083718382839383F6011082209141
:100E9000DF013091E001F901EA0DFB1D2081318174
:100EA00042815381000F111FE091E501F091E601AD
:100EB000E00FF11F0190F081E02D31977B018C0153
:100EC000BF01CE0101960E9450050F900F900F9028
:100ED0000F900F90DF91CF911F910F91FF90EF90A6
:100EE000DF90CF90BF90AF909F908F90089560E07B
:100EF0008CE00E94030660E08CE090E00E94A30674
:100F000060E08DE00E94030660E08DE090E00E94CA
:100F1000A3068EE791E00E94A80BFFCF2F923F928D
:100F20004F925F926F927F928F929F92AF92BF92F9
:100F3000CF92DF92EF92FF920F931F93CF93DF93A5
:100F400000D000D000D0CDB7DEB789E49EE4A0E0A9
:100F500089839A83AB8380910001811120C096B16F
:100F60008091720298279C831091C401192709F47B
:100F7000ABC00E9433061B012C0195ECC92E91E0F9
:100F8000D92E2CE0A22E21E0B22E80E090E0E12FBD
:100F9000F0E0FE83ED83FC816F2E712C57C0109220
:100FA000000180916E0290916F02A0917002B09149
:100FB00071028093C5019093C601A093C701B093BD
:100FC000C8018093C9019093CA01A093CB01B0934B
:100FD000CC018093CD019093CE01A093CF01B0932B
:100FE000D0018093D1019093D201A093D301B0930B
:100FF000D4018093D5019093D601A093D701B093EB
:10100000D8018093D9019093DA01A093DB01B093CA
:10101000DC0180917202ECE0F1E0812C912C540112
:10102000839421E0E831F20771F090813296B501A6
:10103000A40104C0440F551F661F771F9A95D2F76D
:1010400040958423EECF8093720289CF9C012F5F5D
:101050003F4F49012D813E81082E02C035952795CD
:101060000A94E2F720FF23C0F30102C0F595E7954B
:101070008A95E2F7CF01F60180FF0EC0208231820F
:1010800042825382F501608171816F5F7F4F86E8F4
:1010900091E00E941C050BC0208131814281538167
:1010A00082017101B401CE0101960E945005C40174
:1010B000F4E0CF0ED11C22E0A20EB11C86309105C7
:1010C00029F63C813093C4018091C2019091C30103
:1010D0000196823391052CF49093C3018093C20151
:1010E00091C01092C3011092C20183E792E00E9466
:1010F000920A4C01A12CB12C412C512C3201439469
:1011000011E0A814B9040CF07DC083E792E00E94BE
:10111000700A4091C0015091C101FA01EA54FE4F9A
:101120008A3019F08B3309F062C011828091B601C8
:101130008E3511F59091B7014230510509F052C03A
:101140008FEC890F883008F04DC0C92E990FDD084B
:101150008FE2C81AD108E091E101F091E201EC0DB3
:10116000FD1D30803126632D8C2D0E940306632DDA
:10117000C6010E94A30636C08632A1F52091B701B0
:101180004230510579F58FEC820F883058F5022EE8
:10119000000C330B2153310980917202482F50E02B
:1011A000022E02C0559547950A94E2F740FD0DC006
:1011B000B301A20104C0440F551F661F771F2A9573
:1011C000D2F7482B409372020DC0B301A20104C0B4
:1011D000440F551F661F771F2A95D2F74095842329
:1011E000809372021092C1011092C00107C08083E7
:1011F0004F5F5F4F5093C1014093C0019FEFA91A09
:10120000B90A7FCF26960FB6F894DEBF0FBECDBFCA
:10121000DF91CF911F910F91FF90EF90DF90CF90D2
:10122000BF90AF909F908F907F906F905F904F9006
:101230003F902F9008958F929F92AF92BF92CF923E
:10124000DF92EF92FF92CF93DF93EC014A015B01B3
:1012500061E00E94030661E0CE010E94A3060E94A5
:1012600033066B017C0120E030E04AE754E4C5011D
:10127000B4010E94E0120E94FA11C60ED71EE81EA9
:10128000F91E0E9433066C157D058E059F0518F426
:101290000E948E07F6CF60E08C2F0E94030660E06C
:1012A000CE01DF91CF91FF90EF90DF90CF90BF9074
:1012B000AF909F908F900C94A30640E050E060E4C4
:1012C00070E482E090E00C941B094091FF01509182
:1012D0000002609101027091020284E090E00C949F
:1012E0001B0940E050E060E07FE383E090E00C9475
:1012F0001B0940E050E060E470E482E090E00C9470
:101300001B094091FF015091000260910102709110
:10131000020284E090E00C941B0940E050E060E0A1
:101320007FE383E090E00C941B096F927F928F9291
:101330009F92AF92BF92CF92DF92EF92FF920F9364
:101340001F93CF93DF93EC018CA49DA4AAA4BBA40C
:101350000E851F85888999890817190709F052C0D9
:10136000780182E0E80EF11CF98AE88AE1E8EE16DD
:10137000EFE3FE0620F4C701880F991F02C08FEF2C
:101380009FEF0E944D136C01F1E8EF16FFE3FF069B
:1013900020F4C701880F991F02C08FEF9FEF0E94B2
:1013A0004D137C01D6013C0140E050E08A899B89C5
:1013B00040175107C9F0BA01660F771F9C01260F2D
:1013C000371FF901808191818D939D938C899D892F
:1013D000680F791FFB0180819181F30181939193C3
:1013E0003F014F5F5F4FE2CF009711F00E94E21381
:1013F0008C899D89009711F00E94E213CA8ADB8ACA
:10140000EC8AFD8A8E859F859C01220F331FEA8915
:10141000FB89E20FF31FB182A0824C895D89FA013A
:10142000E20FF31F9182808201969F878E87DF9162
:10143000CF911F910F91FF90EF90DF90CF90BF90D1
:10144000AF909F908F907F906F90089590E0FC01F7
:10145000E35CFD4F2491FC01E75DFD4F84918823FF
:1014600099F090E0880F991FFC01EB5EFD4FA5916C
:10147000B491FC01E55FFD4F859194918FB7F8948D
:10148000EC91E22BEC938FBF0895CF92DF92EF9215
:10149000FF920F931F93CF93DF936C017A018B011F
:1014A000C0E0D0E0CE15DF0589F0D8016D918D0147
:1014B000D601ED91FC910190F081E02DC6010995D6
:1014C000892B11F47E0102C02196ECCFC701DF9178
:1014D000CF911F910F91FF90EF90DF90CF900895E3
:1014E000FC01918D828D981761F0828DDF01A80F2C
:1014F000B11D5D968C91928D9F5F9F73928F90E04E
:1015000008958FEF9FEF0895FC01918D828D9817BC
:1015100031F0828DE80FF11D858D90E008958FEFF9
:101520009FEF0895FC01918D228D892F90E0805CC2
:101530009F4F821B91098F739927089583E792E04B
:101540000E94920A21E0892B09F420E0822F08955D
:10155000FC01848DDF01A80FB11DA35ABF4F2C9150
:10156000848D90E001968F739927848FA689B7891F
:101570002C93A089B1898C9180648C93938D848DF8
:10158000981306C00288F389E02D80818F7D8083C7
:101590000895EF92FF920F931F93CF93DF93EC0187
:1015A00081E0888F9B8D8C8D981305C0E889F9891F
:1015B000808185FD24C0F62E0B8D10E00F5F1F4F3C
:1015C0000F731127E02E8C8DE8120CC00FB607FCAC
:1015D000FACFE889F989808185FFF5CFCE010E9495
:1015E000A80AF1CF8B8DFE01E80FF11DE35AFF4FE2
:1015F000F0820B8FEA89FB898081806207C0EE89C7
:10160000FF896083E889F98980818064808381E033
:1016100090E0DF91CF911F910F91FF90EF9008958F
:10162000CF93DF93EC01888D8823C9F0EA89FB8989
:10163000808185FD05C0A889B9898C9186FD0FC080
:101640000FB607FCF5CF808185FFF2CFA889B98955
:101650008C9185FFEDCFCE010E94A80AE7CFDF91E4
:10166000CF91089580E090E0892B29F00E949E0A96
:1016700081110C94000008950E947A14009769F07B
:10168000FC0101900020E9F73197AF01481B590B8D
:10169000BC0183E792E00C94450A80E090E0089555
:1016A000CF93DF9300D000D0CDB7DEB71616170664
:1016B000180619067CF49B01AC0169833A834B83BD
:1016C0005C830E94DF1429813A814B815C810E94F6
:1016D000441503C060E070E0CB010F900F900F90B5
:1016E0000F90DF91CF9108951F93CF93DF93182F21
:1016F0002EE0280F30E0F901EF5AFD4F8491F901F7
:10170000E35CFD4FD491F901E75DFD4FC491CC231B
:1017100079F081110E94DA05EC2FF0E0EE0FFF1F47
:10172000E15EFD4FA591B491EC91ED2391E009F4B8
:1017300090E02091720230E002C0359527951A950D
:10174000E2F7822F89278170DF91CF911F91089551
:10175000CF93DF930E943E0BEC0188E891E00E945A
:101760003E0B8C0F9D1FDF91CF9108951F920F921A
:101770000FB60F9211242F933F934F935F936F9364
:101780007F938F939F93AF93BF93EF93FF9383E7E1
:1017900092E00E94A80AFF91EF91BF91AF919F91B3
:1017A0008F917F916F915F914F913F912F910F900A
:1017B0000FBE0F901F9018951F920F920FB60F92A9
:1017C00011242F938F939F93EF93FF93E0918302C4
:1017D000F09184028081E0918902F0918A0282FD79
:1017E00012C0908180918C028F5F8F7320918D0247
:1017F000821751F0E0918C02F0E0ED58FD4F958F8B
:1018000080938C0201C08081FF91EF919F918F9115
:101810002F910F900FBE0F901F9018954F925F92CF
:101820006F927F928F929F92AF92BF92CF92DF92F0
:10183000EF92FF920F931F93CF93DF931092760254
:101840001092750288EE93E0A0E0B0E080937702FA
:1018500090937802A0937902B0937A028CE691E09B
:10186000909374028093730285EC90E090938002D1
:1018700080937F0284EC90E09093820280938102B7
:1018800080EC90E0909384028093830281EC90E05E
:10189000909386028093850282EC90E09093880278
:1018A0008093870286EC90E090938A02809389026D
:1018B00010928C0210928D0210928E0210928F0262
:1018C000C9E1D3E005E213E088248A94982C99E6D4
:1018D000692E94E0792E24E6C22E24E0D22E3DE536
:1018E000E32E34E0F32E46E6A42E44E0B42E50E678
:1018F000452E54E0552E0E9433066C837D838E83E3
:101900009F83188619861A861B86C8010E9489063D
:101910009B828A821F8A1E8A198E188E19821882CB
:101920007B8E6A8E7D8E6C8EDF8ECE8EF801F58A70
:10193000E48AB78AA68A538E428ED78EC68EF18EDF
:10194000E08EF58EE48EFDA6ECA6AE96025D1F4FEE
:10195000F5E0CB3CDF0779F6DF91CF911F910F9136
:10196000FF90EF90DF90CF90BF90AF909F908F90BF
:101970007F906F905F904F900895CF93DF93CDB796
:10198000DEB72B970FB6F894DEBF0FBECDBF7894AD
:1019900084B5826084BD84B5816084BD85B5826074
:1019A00085BD85B5816085BD80916E008160809325
:1019B0006E0010928100809181008260809381008E
:1019C000809181008160809381008091800081609E
:1019D000809380008091B10084608093B1008091F9
:1019E000B00081608093B00080917A008460809321
:1019F0007A0080917A00826080937A0080917A00E8
:101A0000816080937A0080917A00806880937A0068
:101A10001092C100E0918302F091840282E0808301
:101A2000E0917F02F09180021082E0918102F091BA
:101A3000820287E0808310928B02E0918702F0910E
:101A4000880286E08083E0918502F09186028081A1
:101A500080618083E0918502F091860280818860B8
:101A60008083E0918502F091860280818068808386
:101A7000E0918502F091860280818F7D80838BE8E2
:101A800091E00E94A80B08E610E0F8016491611152
:101A900030C082E00E94260A83E00E94260A84E089
:101AA0000E94260A85E00E94260A86E00E94260AF5
:101AB00087E00E94260A88E00E94260A89E00E94A8
:101AC000260A82E490E00E944D138C0166E271E0E8
:101AD0000E948A14F80101900020E9F73197E01B79
:101AE000F10BD80180E090E0C12CD12CE12CF12C3D
:101AF00019C0E0917302F09174020190F081E02D21
:101B000083E792E009950F5F1F4F892B09F0BDCF46
:101B1000C0CF2D912C3551F02F3241F02E3209F4E7
:101B20006C0101968E179F07A1F702C07C01F9CFC7
:101B3000F801EC0DFD1D108285E991E00E943E0B3D
:101B4000EC14FD041CF08BE991E004C0C701019680
:101B5000800F911F0E943E0B84EA91E00E943E0B91
:101B60000115110519F0C8010E94E21381E090E00F
:101B70009093300380932F0390933203809331032B
:101B800089E193E09093130380931203E7E4F3E079
:101B9000A2E3B2E081E090E022E030E0378B268BD8
:101BA000918F808FED93FD930196BE9688309105BD
:101BB000A9F7E9E8F4E0A2E2B2E081E090E023E0F6
:101BC00030E0378B268B918F808FED93FD930196BC
:101BD000BE9688309105A9F7809115039091160360
:101BE000909319028093180290932102809320020F
:101BF00090933102809330029093110380931003ED
:101C000089E193E090931B0280931A02E0913202E3
:101C1000F0913302F0931D02E0931C020091220226
:101C20001091230210931F0200931E029093180339
:101C30008093170386E094E09093340380933303FA
:101C400083E094E090933C0380933B0380EF94E027
:101C500090933E0380933D0389ED93E0938F828FB1
:101C600084EC93E0978F868F8FEB93E091A380A312
:101C70008AEB93E097A386A385EB93E091A780A7D7
:101C800088E195E093A782A780EB93E095A784A7CE
:101C9000CF010E949509E0903402F09035028DE862
:101CA00099E0D7015D969C938E935C9784E195E0D3
:101CB0009B969C938E939A978BEA93E09D969C9328
:101CC0008E939C97C7010E94950980E195E0F701EA
:101CD00093A782A78DEA94E095A784A7C7010E94E5
:101CE0009509E0913602F091370280E593E0938FF9
:101CF000828F81E899E0958F848F8DE493E093A3A0
:101D000082A388E493E095A384A3E0913802F09144
:101D1000390286EF92E0978F868F81EF92E091A350
:101D200080A38CEE92E097A386A387EE92E091A722
:101D300080A7E0913A02F0913B0289E799E0958F04
:101D4000848F84EE92E093A382A38FED92E095A31B
:101D500084A3E0913C02F0913D028CED92E093A3CC
:101D600082A387ED92E095A384A3E0913E02F091D7
:101D70003F0280EC92E0938F828F8DEB92E093A3F1
:101D800082A388EB92E095A384A38EE892E0D80129
:101D90005B969C938E935A9789E792E05F969C930B
:101DA0008E935E9784E792E091969C938E939097A2
:101DB0008FE692E097969C938E9396978AE692E0B0
:101DC00099969C938E93989785E692E09B969C9328
:101DD0008E939A9780E692E09D969C938E939C9723
:101DE000C8010E949509009124021091250281E703
:101DF00099E0F801958F848F8CE592E093A782A7F4
:101E000087E592E095A784A7C8010E94950981E51E
:101E100092E0D8019B969C938E939A978AE694E0E1
:101E20009D969C938E939C97C8010E949509E09182
:101E30002602F091270284EA91E0938F828F85E653
:101E400099E0958F848F81EA91E093A382A38CE936
:101E500091E095A384A3E0912802F09129028FEFED
:101E600091E0978F868F87E991E091A380A382E923
:101E700091E097A386A38DE891E091A780A7E091D8
:101E80002A02F0912B028DE599E0958F848F8AE8E4
:101E900091E093A382A385E891E095A384A3E091C8
:101EA0002C02F0912D0282E891E093A382A38DE7AA
:101EB00091E095A384A3E0912E02F0912F0286E693
:101EC00091E0938F828F83E691E093A382A38EE5C6
:101ED00091E095A384A38EE290E00E944D138C01C3
:101EE0000E943306F8016483758386839783108686
:101EF000118612861386C8010C960E9489068FEF00
:101F00009FEFF80193838283178A168A118E108EB1
:101F10001182108289E694E0938F828F958F848F4F
:101F200024E634E0378F268F8DE594E091A380A3DB
:101F300040E654E057A346A333A722A795A384A362
:101F400091A780A795A784A7109316030093150364
:101F500087E797E093A382A38CE00E94260A8DE096
:101F60000E94260A60E08CE00E94030660E08CE09C
:101F700090E00E94A30660E08DE00E94030660E00E
:101F80008DE090E00E94A30683E792E00E94920A0F
:101F9000892BD1F383E792E00E94700A8236910583
:101FA00099F783E792E00E94920A892B29F083E750
:101FB00092E00E94700AF5CF3FB7F89480914002FA
:101FC00090914102A0914202B091430226B5A89B94
:101FD00005C02F3F19F00196A11DB11D3FBFBA2FBB
:101FE000A92F982F8827820F911DA11DB11DBC011B
:101FF000CD0152E0660F771F881F991F5A95D1F7C0
:10200000611571058105910511F00E94E4148BEAB8
:1020100091E00E94A80B0E94330660936E027093B9
:102020006F02809370029093710261E08CE00E94D5
:10203000030661E08CE090E00E94A30661E08DE081
:102040000E94030661E08DE090E00E94A3060091EB
:102050001703109118030115110509F4E4C00E943B
:102060003306D80114966D937D938D939C931797A7
:102070005A96ED91FC915B970995D8015C96ED918C
:10208000FC915D970995F801C480D580E680F780C2
:102090001092460262EB71E086E492E00E947F14A7
:1020A0004AE0BE016F5F7F4FD80156968D919C919B
:1020B00057970E94ED14BC0186E492E00E947F14C1
:1020C00064EB71E086E492E00E947F144AE0BE0176
:1020D0006F5F7F4FF801808D918D0E94ED14BC01E0
:1020E00086E492E00E947F1468E771E086E492E063
:1020F0000E947F1480916E0290916F02A0917002F5
:10210000B0917102A7019601281B390B4A0B5B0B9A
:10211000CA01B9012AE0AE014F5F5F4F0E94F81477
:10212000BC0186E492E00E947F1469E871E086E4D5
:1021300092E00E947F1486E492E00E943E0B0E948F
:102140008E07D8015E96ED91FC915F9709958823E3
:1021500031F0D8019096ED91FC919197B6C0F801BD
:1021600082819381019649F4D8019296ED91FC9178
:1021700093970995F80193838283D8018D919C915F
:102180001197019611969C938E9312962D913C91E6
:1021900013972115310589F08217930771F49296F0
:1021A000ED91FC9193970995F801938382831182B5
:1021B000108204A0F5A1E02D88C0D8019696ED917B
:1021C000FC919797099520E030E04AE754E40E949B
:1021D000E0120E94FA11F801608771878287938765
:1021E000F80180859185A285B385892B8A2B8B2B5D
:1021F00029F10E943306D8011496CD90DD90ED9020
:10220000FC901797DC01CB018C199D09AE09BF0921
:10221000F801C084D184E284F3848C159D05AE0559
:10222000BF0560F04FC08091150390911603909305
:102230001803809317030E94320B09CF96B1809147
:102240007202892790911403282F2927322F3823CF
:102250003093450292239093440280931403F80133
:1022600084859585668577859B0121503109821784
:10227000930729F4158614860E948E07B1CF019624
:102280000E94671195878487880F991F0288F389B8
:10229000E02DE80FF91F0190F081E02D09958823CA
:1022A000F1F2D8011C96ED91FC911D97EE0FFF1FE6
:1022B00054968D919C915597E80FF91F0190F081EC
:1022C000E02D03C000A4F1A5E02D0995B0CFAA1B15
:1022D000BB1B51E107C0AA1FBB1FA617B70710F011
:1022E000A61BB70B881F991F5A95A9F78095909543
:1022F000BC01CD010895EE0FFF1F0590F491E02D74
:1023000009945058BB27AA270E9499110C94A11236
:102310000E94931238F00E949A1220F039F49F3FE5
:1023200019F426F40C9490120EF4E095E7FB0C944B
:102330008A12E92F0E94B21258F3BA176207730784
:102340008407950720F079F4A6F50C94D4120EF4C6
:10235000E0950B2EBA2FA02D0B01B90190010C01B5
:10236000CA01A0011124FF27591B99F0593F50F4CD
:10237000503E68F11A16F040A22F232F342F442725
:10238000585FF3CF469537952795A795F04053951D
:10239000C9F77EF41F16BA0B620B730B840BBAF0ED
:1023A0009150A1F0FF0FBB1F661F771F881FC2F758
:1023B0000EC0BA0F621F731F841F48F4879577956C
:1023C0006795B795F7959E3F08F0B0CF9395880F26
:1023D00008F09927EE0F9795879508950E94661249
:1023E00008F481E008950E94FA116894B1110C94E8
:1023F000D51208950E94BA1288F09F5798F0B92F0D
:102400009927B751B0F0E1F0660F771F881F991F29
:102410001AF0BA95C9F714C0B13091F00E94D412E5
:10242000B1E008950C94D412672F782F8827B85FF5
:1024300039F0B93FCCF3869577956795B395D9F781
:102440003EF490958095709561957F4F8F4F9F4F8B
:102450000895E89409C097FB3EF490958095709597
:1024600061957F4F8F4F9F4F9923A9F0F92F96E9E0
:10247000BB279395F695879577956795B795F11155
:10248000F8CFFAF4BB0F11F460FF1BC06F5F7F4FF2
:102490008F4F9F4F16C0882311F096E911C0772304
:1024A00021F09EE8872F762F05C0662371F096E80D
:1024B000862F70E060E02AF09A95660F771F881FDC
:1024C000DAF7880F9695879597F90895990F000880
:1024D000550FAA0BE0E8FEEF16161706E807F907F6
:1024E000C0F012161306E407F50798F0621B730B91
:1024F000840B950B39F40A2661F0232B242B252B12
:1025000021F408950A2609F4A140A6958FEF811DB4
:10251000811D089597F99F6780E870E060E0089555
:102520009FEF80EC089500240A94161617061806EB
:102530000906089500240A941216130614060506C7
:102540000895092E0394000C11F4882352F0BB0F58
:1025500040F4BF2B11F460FF04C06F5F7F4F8F4FBB
:102560009F4F089557FD9058440F551F59F05F3FF6
:1025700071F04795880F97FB991F61F09F3F79F0A5
:1025800087950895121613061406551FF2CF469527
:10259000F1DF08C0161617061806991FF1CF8695A9
:1025A0007105610508940895E894BB27662777278D
:1025B000CB0197F908950E94661208F48FEF0895F1
:1025C0000E94F3120C94A1120E94931238F00E9400
:1025D0009A1220F0952311F00C948A120C94901208
:1025E00011240C94D5120E94B21270F3959FC1F37E
:1025F000950F50E0551F629FF001729FBB27F00DB1
:10260000B11D639FAA27F00DB11DAA1F649F662705
:10261000B00DA11D661F829F2227B00DA11D621F54
:10262000739FB00DA11D621F839FA00D611D221F0E
:10263000749F3327A00D611D231F849F600D211DF2
:10264000822F762F6A2F11249F5750409AF0F1F075
:1026500088234AF0EE0FFF1FBB1F661F771F881FDE
:1026600091505040A9F79E3F510580F00C948A127A
:102670000C94D5125F3FE4F3983ED4F3869577959A
:102680006795B795F795E7959F5FC1F7FE2B880F84
:10269000911D9695879597F90895CF93DF93823092
:1026A000910510F482E090E0E091CD05F091CE0527
:1026B00020E030E0C0E0D0E0309711F1408151815E
:1026C00048175907C0F04817590761F48281938170
:1026D000209719F09B838A832BC09093CE0580931B
:1026E000CD0526C02115310519F04217530718F4FE
:1026F0009A01BE01DF01EF010280F381E02DDCCF02
:102700002115310509F1281B390B2430310590F4CE
:1027100012968D919C9113976115710521F0FB0123
:102720009383828304C09093CE058093CD05FD01F1
:10273000329644C0FD01E20FF31F81939193225022
:1027400031092D933C933AC02091CB053091CC05B3
:10275000232B41F420910401309105013093CC05E5
:102760002093CB0520910201309103012115310501
:1027700041F42DB73EB74091060150910701241B4B
:10278000350BE091CB05F091CC05E217F307A0F4EF
:102790002E1B3F0B2817390778F0AC014E5F5F4FB7
:1027A0002417350748F04E0F5F1F5093CC05409318
:1027B000CB058193919302C0E0E0F0E0CF01DF917F
:1027C000CF9108950F931F93CF93DF93009709F450
:1027D0008CC0FC013297138212820091CD051091BA
:1027E000CE050115110581F420813181820F931FDF
:1027F0002091CB053091CC052817390779F5F09356
:10280000CC05E093CB0571C0D80140E050E0AE1795
:10281000BF0750F412962D913C911397AD012115ED
:10282000310509F1D901F3CF9D01DA013383228308
:1028300060817181860F971F8217930769F4EC01FD
:1028400028813981260F371F2E5F3F4F3183208328
:102850008A819B8193838283452B29F4F093CE0553
:10286000E093CD0542C01396FC93EE931297ED01D1
:10287000499159919E01240F351FE217F30771F416
:1028800080819181840F951F029611969C938E935F
:102890008281938113969C938E931297E0E0F0E0EF
:1028A000D80112968D919C911397009719F0F80119
:1028B0008C01F6CF8D919C9198012E5F3F4F820F36
:1028C000931F2091CB053091CC052817390769F467
:1028D000309729F41092CE051092CD0502C01382D4
:1028E00012821093CC050093CB05DF91CF911F91FD
:1028F0000F91089581E090E0F8940C94A715FB01E6
:10290000DC010D900020E9F7119701900D92002055
:10291000E1F70895FB01DC0101900D920020E1F741
:1029200008958F929F92AF92BF92CF92DF92EF92D3
:10293000FF92CF93DF93EC01688179818A819B813B
:10294000611571058105910521F464E279ED8BE54E
:1029500097E02DE133EF41E050E00E94441549013A
:102960005A019B01AC01A7EAB1E40E9463156B0117
:102970007C01ACEEB4EFA50194010E947115DC015D
:10298000CB018C0D9D1DAE1DBF1DB7FF03C0019770
:10299000A109B04888839983AA83BB83BC01CD0178
:1029A0009F77DF91CF91FF90EF90DF90CF90BF9016
:1029B000AF909F908F9008950E949114089588E0A1
:1029C00091E00E94911408956093080170930901A9
:1029D00080930A0190930B010895BB274A3031F48C
:1029E000992322F4BDE2909581959F4F0C941B157D
:1029F000BB27FA01A62F6217710581059105330BDC
:102A000030FB66F0AA27660F771F881F991FAA1F41
:102A1000A21710F0A21B63953850A9F7A05DAA3346
:102A200008F0A95DA19336F7B111B1931082CA01E4
:102A30000C943415BB27FB015527AA27880F991F33
:102A4000AA1FA41710F0A41B83955051B9F7A05DDD
:102A5000AA3308F0A95DA193009779F7B111B1935A
:102A60001192CB010C943415DC01FC01672F71919C
:102A70007723E1F7329704C07C916D937083629164
:102A8000AE17BF07C8F30895052E97FB1EF40094F8
:102A90000E945B1557FD07D00E94761507FC03D0F6
:102AA0004EF40C945B1550954095309521953F4F11
:102AB0004F4F5F4F089590958095709561957F4F2A
:102AC0008F4F9F4F08950E949815A59F900DB49F1A
:102AD000900DA49F800D911D11240895B7FF0C94B3
:102AE00063150E946315821B930B0895A1E21A2EB1
:102AF000AA1BBB1BFD010DC0AA1FBB1FEE1FFF1FA2
:102B0000A217B307E407F50720F0A21BB30BE40BF1
:102B1000F50B661F771F881F991F1A9469F7609538
:102B20007095809590959B01AC01BD01CF010895F2
:102B3000A29FB001B39FC001A39F700D811D1124FE
:102B4000911DB29F700D811D1124911D0895F8945F
:022B5000FFCFB5
:102B520001010000CF05800001000000000001001B
:102B6200020003000400050000000101010101014F
:102B7200010101000000433A5C55736572735C36D3
:102B820036365C446F63756D656E74735C41724377
:102B92006F6E74726F6C2D72656C656173655C74B7
:102BA20061736B5C74776F414650435C74776F411D
:102BB2004650432E696E6F0000000000C90A450AA4
:102BC200920A700A840A100B3A0020002500417212
:102BD200432D656E640024000D0A004172436F6E3E
:102BE20074726F6C002D2D2D2D2D00556E7469742D
:102BF2006C6564002D2D2D2D2D0A004172432D622E
:062C0200670043005300CF
:107E0000112484B714BE81FFF0D085E080938100F7
:107E100082E08093C00088E18093C10086E0809377
:107E2000C20080E18093C4008EE0C9D0259A86E02C
:107E300020E33CEF91E0309385002093840096BBD3
:107E4000B09BFECF1D9AA8958150A9F7CC24DD24C4
:107E500088248394B5E0AB2EA1E19A2EF3E0BF2EE7
:107E6000A2D0813461F49FD0082FAFD0023811F036
:107E7000013811F484E001C083E08DD089C08234E0
:107E800011F484E103C0853419F485E0A6D080C0E4
:107E9000853579F488D0E82EFF2485D0082F10E0AE
:107EA000102F00270E291F29000F111F8ED06801E7
:107EB0006FC0863521F484E090D080E0DECF843638
:107EC00009F040C070D06FD0082F6DD080E0C81688
:107ED00080E7D80618F4F601B7BEE895C0E0D1E017
:107EE00062D089930C17E1F7F0E0CF16F0E7DF06D8
:107EF00018F0F601B7BEE89568D007B600FCFDCFD4
:107F0000A601A0E0B1E02C9130E011968C91119780
:107F100090E0982F8827822B932B1296FA010C0160
:107F200087BEE89511244E5F5F4FF1E0A038BF0790
:107F300051F7F601A7BEE89507B600FCFDCF97BE46
:107F4000E89526C08437B1F42ED02DD0F82E2BD052
:107F50003CD0F601EF2C8F010F5F1F4F84911BD097
:107F6000EA94F801C1F70894C11CD11CFA94CF0C13
:107F7000D11C0EC0853739F428D08EE10CD085E9AC
:107F80000AD08FE07ACF813511F488E018D01DD067
:107F900080E101D065CF982F8091C00085FFFCCF94
:107FA0009093C60008958091C00087FFFCCF809118
:107FB000C00084FD01C0A8958091C6000895E0E648
:107FC000F0E098E1908380830895EDDF803219F02E
:107FD00088E0F5DFFFCF84E1DECF1F93182FE3DFCA
:107FE0001150E9F7F2DF1F91089580E0E8DFEE27F6
:047FF000FF270994CA
:027FFE00040479
:0400000300007E007B
:00000001FF
