:100000000C9434010C945C010C945C010C945C0124
:100010000C945C010C945C010C945C010C945C01EC
:100020000C945C010C945C010C945C010C945C01DC
:100030000C945C010C945C010C945C010C945C01CC
:100040000C94600A0C945C010C9457090C943109CF
:100050000C945C010C945C010C945C010C945C01AC
:100060000C945C010C945C01404F5554313A23557B
:100070006E7265776172646564206375650A404FCE
:100080005554323A23476F206375650A404F5554E3
:10009000333A234C6566745265776172640A404F47
:1000A0005554343A235269676874526577617264B3
:1000B0000A404F5554353A23350A404F5554363A85
:1000C00023360A404F5554373A23370A404F555488
:1000D000383A23380A40494E313A234C6566744C0D
:1000E00069636B0A40494E323A234D69644C696337
:1000F0006B0A40494E333A2352696768744C69630E
:100100006B0A40494E343A23340A40494E353A236B
:10011000350A40494E363A23360A4043313A0A40BE
:10012000433153313A696E697420566172730A40E3
:1001300043323A4C65667420426C6F636B0A4043ED
:100140003253313A4D69645F6C69636B0A404332E4
:1001500053323A43686F6F736520536964650A4090
:10016000433253333A5257440A40433253343A49A4
:1001700066205377697463680A40433253353A54B2
:10018000696D654F75740A40433253363A45525291
:100190000A40433253373A4D4953530A4043333AA6
:1001A000526967687420426C6F636B0A4043335333
:1001B000313A4D69645F6C69636B0A404333533273
:1001C0003A43686F6F736520536964650A4043332F
:1001D00053333A5257440A40433353343A49662022
:1001E0005377697463680A40433353353A54696DF1
:1001F000654F75740A40433353363A4552520A40AC
:10020000433353373A4D4953530A0000000000234B
:10021000002600290000000008000201000003047D
:10022000070000000000000000000000002500287A
:10023000002B0000000000240027002A0004040412
:10024000040404040402020202020203030303037F
:10025000030102040810204080010204081020015C
:10026000020408102000440F11241FBECFEFD8E075
:10027000DEBFCDBF11E0A0E0B1E0EAECF8E202C0E1
:1002800005900D92A03AB107D9F725E0A0EAB1E0B8
:1002900001C01D92A23AB207E1F711E0C4E3D1E038
:1002A00004C02197FE010E942513C333D107C9F76B
:1002B0000E94AA0A0C9463140C940000FC01538D54
:1002C000448D252F30E0842F90E0821B930B541730
:1002D00010F0CF96089501970895FC01918D828DBD
:1002E000981761F0828DDF01A80FB11D5D968C918A
:1002F000928D9F5F9F73928F90E008958FEF9FEF95
:100300000895FC01918D828D981731F0828DE80F50
:10031000F11D858D90E008958FEF9FEF0895FC010A
:10032000918D228D892F90E0805C9F4F821B9109D7
:100330008F739927089580E090E0892B29F00E941F
:10034000250981110C94000008951092E201109289
:10035000E3011092E4011092E50120E030E040E07A
:1003600050E46091DE017091DF018091E001909195
:10037000E1010E949F1287FD05C080E090E0A0E4AB
:10038000B0E404C080E090E0A0EEB0E48093DA0135
:100390009093DB01A093DC01B093DD01089580917F
:1003A000FC019091FD0108958091FC019091FD0167
:1003B000089581E090E0089581E090E0089520E0C4
:1003C00030E040E85FE36091DE017091DF018091F1
:1003D000E0019091E1010E9446116093DE0170936B
:1003E000DF018093E0019093E101089581E090E0C6
:1003F00008958091F4019091F50108958091F401A0
:100400009091F501089581E090E0089560E070E03A
:1004100080EC9FE3089560E070E080EC9FE3089536
:100420008091EE019091EF0108958091FA019091F1
:10043000FB01089581E090E0089580E090E0A0E85D
:10044000BFE38093E2019093E301A093E401B093B2
:10045000E5011092DE011092DF011092E00110928E
:10046000E1019C01AD016091D6017091D7018091AD
:10047000D8019091D9010E9446116093D6017093E2
:10048000D7018093D8019093D90120E030E040E873
:100490005FE36091CE017091CF018091D001909186
:1004A000D1010E9446116093CE017093CF018093D9
:1004B000D0019093D10120E030E044EA52E4609111
:1004C000CA017091CB018091CC019091CD010E9425
:1004D000B211882361F080E090E0A4EAB2E4809356
:1004E000CA019093CB01A093CC01B093CD010895A4
:1004F0008091FE019091FF0108958091F601909105
:10050000F70108958091F6019091F701089560E058
:1005100070E088EC91E4089560E070E088EC91E48C
:1005200008958091EA019091EB0108958091EA018C
:100530009091EB010895CF93C1E020E030E048E4D2
:1005400053E46091CE017091CF018091D0019091E0
:10055000D1010E949F1287FDC0E08C2FCF9108959A
:100560000C94A5010C94A50180910C0290910D02B0
:10057000089580910C0290910D02089581E090E021
:10058000089520E030E040E85FE36091DE01709183
:10059000DF018091E0019091E1010E94461160939A
:1005A000DE017093DF018093E0019093E1010895F3
:1005B00081E090E0089580910402909105020895F1
:1005C0008091040290910502089581E090E00895E1
:1005D0008091F0019091F101089580910A0290912B
:1005E0000B02089581E090E0089580E090E0A0E89B
:1005F000BFE38093E2019093E301A093E401B09301
:10060000E5011092DE011092DF011092E0011092DC
:10061000E1019C01AD016091D6017091D7018091FB
:10062000D8019091D9010E9446116093D601709330
:10063000D7018093D8019093D90120E030E040E8C1
:100640005FE36091CE017091CF018091D0019091D4
:10065000D1010E9446116093CE017093CF01809327
:10066000D0019093D10120E030E048E952E460915C
:10067000CA017091CB018091CC019091CD010E9473
:10068000B211882361F080E090E0A8E9B2E48093A1
:10069000CA019093CB01A093CC01B093CD010895F2
:1006A00080910E0290910F02089580910602909120
:1006B0000702089580910602909107020895CF9352
:1006C000C1E020E030E048E453E46091CE01709155
:1006D000CF018091D0019091D1010E949F1287FD9E
:1006E000C0E08C2FCF91089580E090E0089560E005
:1006F00070E0CB01089580E0089580E090E00895D7
:10070000089520E030E040E85FE36091E2017091FD
:10071000E3018091E4019091E5010E94B211811101
:100720003AC02091D2013091D3014091D40150912F
:10073000D5016091D6017091D7018091D801909137
:10074000D9010E949F1287FD26C01092D6011092F7
:10075000D7011092D8011092D9010E94C409BC019E
:10076000990F880B990B0E94EF116093D20170933F
:10077000D3018093D4019093D50180E090E0A0E86C
:10078000BFE38093DE019093DF01A093E001B0937B
:10079000E10181E0089580E0089520E030E040E844
:1007A0005FE36091E2017091E3018091E401909137
:1007B000E5010E94B21181113AC02091D20130911D
:1007C000D3014091D4015091D5016091D60170912F
:1007D000D7018091D8019091D9010E949F1287FD85
:1007E00026C01092D6011092D7011092D801109213
:1007F000D90180E090E0A0E8BFE38093DE01909310
:10080000DF01A093E001B093E1010E94C409BC01A3
:10081000990F880B990B0E94EF116093D20170938E
:10082000D3018093D4019093D50181E0089580E0B5
:10083000089580E090E0A6E9B2E48093C601909329
:10084000C701A093C801B093C9018093C2019093DE
:10085000C301A093C401B093C5018BE794E1AEEA54
:10086000BDE38093E6019093E701A093E801B09384
:10087000E9010E94C409BC01990F880B990B0E94E1
:10088000EF116093D2017093D3018093D4019093C0
:10089000D5011092CE011092CF011092D00110928A
:1008A000D10180E090E0ACE9B2E48093CA0190937A
:1008B000CB01A093CC01B093CD0108958F929F926C
:1008C000AF92BF92CF92DF92EF92FF928090DA01C7
:1008D0009090DB01A090DC01B090DD016091C60139
:1008E0007091C7018091C8019091C9010E94B71110
:1008F0006B017C010E94341024E630E040E050E0BF
:100900000E94E21021E0C21AD1086C157D052CF47A
:10091000812C912C90E4A92EBA2CC501B4010E941F
:10092000B711660F771FFB01EE50FE4F808191815A
:10093000FF90EF90DF90CF90BF90AF909F908F90FF
:1009400008958F929F92AF92BF92CF92DF92EF92D3
:10095000FF928090DA019090DB01A090DC01B090D2
:10096000DD016091C2017091C3018091C401909139
:10097000C5010E94B7116B017C010E94341024E66E
:1009800030E040E050E00E94E21021E0C21AD108BD
:100990006C157D052CF4812C912C90E4A92EBA2C99
:1009A000C501B4010E94B711660F771FFB01EE5F0E
:1009B000FD4F80819181FF90EF90DF90CF90BF90AD
:1009C000AF909F908F9008950E94341024E630E0FD
:1009D00040E050E00E94E210613371052CF060E0CD
:1009E00070E080E490E404C060E070E080E090E4B7
:1009F0000E94B711660F771FFB01E651FE4F808101
:100A00009181089580E10E94FC0921E0019709F09D
:100A100020E0822F089580E10E94FC0921E00197E7
:100A200009F020E0822F08958EE00E94FC0921E069
:100A3000019709F020E0822F08958EE00E94FC09C2
:100A400021E0019709F020E0822F08958FE00E94B5
:100A5000FC0921E0019709F020E0822F08958FE042
:100A60000E94FC0921E0019709F020E0822F0895FF
:100A70002F923F924F925F926F927F928F929F92AE
:100A8000AF92BF92CF92DF92EF92FF920F931F939C
:100A9000CF93DF93CDB7DEB7E3970FB6F894DEBF01
:100AA0000FBECDBF1B0129013A016701780180907B
:100AB0003A0290903B02A0903C02B0903D02198215
:100AC000BC01CE0101960E9451144AE0BE01675D4F
:100AD0007F4FC1010E948B10BC01CE0101960E9484
:100AE00051146EE571E0CE0101960E945114C301CC
:100AF000B201681979098A099B092AE0AE01475DAC
:100B00005F4F0E949610BC01CE0101960E945114C5
:100B100060E671E0CE0101960E945114C701B60152
:100B200064197509860997092AE0AE01475D5F4F90
:100B30000E949610BC01CE0101960E9451146DE9ED
:100B400071E0CE0101960E945114CE0101960E94DF
:100B5000B209E3960FB6F894DEBF0FBECDBFDF91AA
:100B6000CF911F910F91FF90EF90DF90CF90BF90AA
:100B7000AF909F908F907F906F905F904F903F903D
:100B80002F900895FC01848DDF01A80FB11DA35A99
:100B9000BF4F2C91848D90E001968F739927848F9D
:100BA000A689B7892C93A089B1898C9183708064C0
:100BB0008C93938D848D981306C00288F389E02D61
:100BC00080818F7D80830895EF92FF920F931F9312
:100BD000CF93DF93EC0181E0888F9B8D8C8D9813F0
:100BE00005C0E889F989808185FD26C0F62E0B8D28
:100BF00010E00F5F1F4F0F731127E02E8C8DE8124E
:100C00000CC00FB607FCFACFE889F989808185FF0F
:100C1000F5CFCE010E94C205F1CF8B8DFE01E80F0A
:100C2000F11DE35AFF4FF0829FB7F8940B8FEA89CA
:100C3000FB89808180620AC09FB7F894EE89FF89A2
:100C40006083E889F98980818370806480839FBF95
:100C500081E090E0DF91CF911F910F91FF90EF9095
:100C60000895CF93DF93EC01888D8823C9F0EA893A
:100C7000FB89808185FD05C0A889B9898C9186FD95
:100C80000FC00FB607FCF5CF808185FFF2CFA88992
:100C9000B9898C9185FFEDCFCE010E94C205E7CFC7
:100CA000DF91CF910895CF93DF93EC0119821882E1
:100CB00081E090E09B838A839D838C8382E090E037
:100CC0000E942B139F838E8382E090E00E942B135F
:100CD00099878887DF91CF9108958F929F92AF92E5
:100CE000BF92CF92DF92EF92FF920F931F93CF9319
:100CF000DF9300D000D0CDB7DEB78C01B62E809147
:100D0000620190916301A0916401B09165018983B2
:100D10009A83AB83BC8380910101811107C0F801E4
:100D2000E85EFE4F8081811133C088C010920101BE
:100D30008CE190E00E942B136C018093C001D09253
:100D4000C1018EE090E00E942B13982EA92E809373
:100D5000BE019093BF0188E390E00E942B13909313
:100D6000BD018093BC0188E390E00E942B13909317
:100D7000BB018093BA01A92DBA2DF60180E090E065
:100D80001D928193919301968E309105C9F7C7CF3B
:100D9000C090BE01D090BF01C00ED11EF60180816F
:100DA000811118C0BB2009F449C0000F111F000FAA
:100DB000111F8091BC019091BD01080F191F0E9465
:100DC000540AF801608371838283938381E0F60182
:100DD000808334C0B11032C05801AA0CBB1CAA0CCD
:100DE000BB1C8090BA019090BB018A0C9B1C0E9496
:100DF000540AF4016083718382839383F601108225
:100E00002091BC013091BD01F901EA0DFB1D20814B
:100E1000318142815381000F111FE091C001F09197
:100E2000C101E00FF11F0190F081E02D31977B01AE
:100E30008C01BF01CE0101960E9438050F900F90E2
:100E40000F900F90DF91CF911F910F91FF90EF9036
:100E5000DF90CF90BF90AF909F908F90089560E00B
:100E60008CE00E94250A60E08CE090E00E946D0614
:100E700060E08DE00E94250A60E08DE090E00E9435
:100E80006D0686E691E00E94CF09FFCF2F923F9238
:100E90004F925F926F927F928F929F92AF92BF928A
:100EA000CF92DF92EF92FF920F931F93CF93DF9336
:100EB00000D000D0CDB7DEB780916E0190916F0168
:100EC000A091700189839A83AB838091000188236C
:100ED00081F11092000180913A0290913B02A09121
:100EE0003C02B0913D02E2EAF1E081939193A1933B
:100EF000B19321E0EA3BF207C1F78091A101ECE058
:100F0000F1E0812C912C5401839431E0E831F30716
:100F100019F48093A1010DC090813296B501A4010E
:100F200004C0440F551F661F771F9A95D2F7842B74
:100F3000ECCF86B18C83C090A001C8268091A1011E
:100F4000C82209F43FC00E94540A1B012C0182EA06
:100F5000A82E81E0B82E80E090E0D12CEC816E2E9E
:100F6000712C9C012F5F3F4F49019601082E02C052
:100F7000359527950A94E2F720FF1AC0F30102C0C5
:100F8000F595E7958A95E2F7CF01F50180FF05C059
:100F900020823182428253820BC020813181428182
:100FA000538182017101B401CE0101960E9438057E
:100FB000C401F4E0AF0EB11C8630910591F62C818E
:100FC0002093A0010F900F900F900F90DF91CF9181
:100FD0001F910F91FF90EF90DF90CF90BF90AF9057
:100FE0009F908F907F906F905F904F903F902F9049
:100FF00008958F929F92AF92BF92CF92DF92EF921D
:10100000FF92CF93DF93EC014A015B0161E00E9404
:10101000250A61E0CE010E946D060E94540A6B0110
:101020007C0120E030E04AE754E4C501B4010E94AD
:10103000A4120E94BE11C60ED71EE81EF91E0E9401
:10104000540A6C157D058E059F0518F40E9446070D
:10105000F6CF60E08C2F0E94250A60E0CE01DF9180
:10106000CF91FF90EF90DF90CF90BF90AF909F9087
:101070008F900C946D064091E6015091E7016091CC
:10108000E8017091E90184E090E00C94F9070C9478
:101090003B080C943B0840E050E060E470E482E0E0
:1010A00090E00C94F90740E050E060E470E482E0E6
:1010B00090E00C94F90740E050E060E07FE383E0CB
:1010C00090E00C94F90740E050E060E07FE383E0BB
:1010D00090E00C94F9078F929F92AF92BF92CF92BB
:1010E000DF92EF92FF920F931F93CF93DF93EC0168
:1010F0008CA49DA4AAA4BBA40E851F858889998968
:101100000817190709F051C0780182E0E80EF11CB8
:10111000F98AE88AE1E8EE16EFE3FE0620F4C7015B
:10112000880F991F02C08FEF9FEF0E942B136C0155
:10113000F1E8EF16FFE3FF0620F4C701880F991FBF
:1011400002C08FEF9FEF0E942B137C01D601BC01E0
:1011500020E030E08A899B8902171307C1F0A901BA
:10116000440F551F840F951FFC01808191818D9341
:101170009D938C899D89480F591FFA018081918127
:10118000FB0181939193BF012F5F3F4FE3CF009706
:1011900011F00E94C3138C899D89009711F00E9461
:1011A000C313CA8ADB8AEC8AFD8A8E859F859C01DF
:1011B000220F331FEA89FB89E20FF31FB182A0825D
:1011C0004C895D89FA01E20FF31F918280820196BA
:1011D0009F878E87DF91CF911F910F91FF90EF90A6
:1011E000DF90CF90BF90AF909F908F900895CF9257
:1011F000DF92EF92FF920F931F93CF93DF936C01D7
:101200007A018B01C0E0D0E0CE15DF0581F0D80176
:101210006D918D01D601ED91FC910190F081E02D51
:10122000C6010995892B11F02196EECF7E01C701E9
:10123000DF91CF911F910F91FF90EF90DF90CF90B2
:101240000895089580E090E008958AE492E00E9475
:101250008F0121E0892B09F420E0822F08950E945C
:101260004C141F920F920FB60F9211242F933F939D
:101270004F935F936F937F938F939F93AF93BF939E
:10128000EF93FF938AE492E00E94C205FF91EF91F1
:10129000BF91AF919F918F917F916F915F914F918E
:1012A0003F912F910F900FBE0F901F9018951F9296
:1012B0000F920FB60F9211242F938F939F93EF935A
:1012C000FF93E0915A02F0915B028081E09160020D
:1012D000F091610282FD12C09081809163028F5F64
:1012E0008F7320916402821751F0E0916302F0E065
:1012F000E65BFD4F958F8093630201C08081FF9173
:10130000EF919F918F912F910F900FBE0F901F9093
:101310001895833081F028F4813099F08230A1F063
:1013200008958730A9F08830B9F08430D1F48091E5
:1013300080008F7D03C0809180008F778093800034
:10134000089584B58F7702C084B58F7D84BD0895DC
:101350008091B0008F7703C08091B0008F7D809323
:10136000B0000895009769F0FC0101900020E9F7B2
:101370003197AF01481B590BBC018AE492E00C94F1
:10138000F70880E090E008950E94341028E030E0F3
:1013900040E050E00E94E210CB0107960895CF9301
:1013A000DF930E94B209EC018CE991E00E94B2093E
:1013B0008C0F9D1FDF91CF91089590E0FC01EF5AB3
:1013C000FD4F2491FC01E35CFD4F8491882399F04B
:1013D00090E0880F991FFC01ED5CFD4FA591B49141
:1013E000FC01E75DFD4F859194918FB7F894EC91E6
:1013F000E22BEC938FBF0895CF93DF93282F30E03B
:10140000F901EB5EFD4F8491F901EF5AFD4FD49144
:10141000F901E35CFD4FC491CC2391F081110E944E
:101420008909EC2FF0E0EE0FFF1FE55FFD4FA5915E
:10143000B491EC91ED2381E090E021F480E002C0D2
:1014400080E090E0DF91CF9108951F93CF93DF93D9
:10145000282F30E0F901EB5EFD4F8491F901EF5A3E
:10146000FD4FD491F901E35CFD4FC491CC23C1F051
:10147000162F81110E948909EC2FF0E0EE0FFF1F5B
:10148000E75DFD4FA591B4919FB7F894111104C089
:101490008C91D095D82302C0EC91DE2BDC939FBFBA
:1014A000DF91CF911F9108952FB7F89460919A051D
:1014B00070919B0580919C0590919D052FBF08958B
:1014C0001F920F920FB60F9211242F933F938F9379
:1014D0009F93AF93BF9380919A0590919B05A091A4
:1014E0009C05B0919D053091990523E0230F2D3780
:1014F00020F40196A11DB11D05C026E8230F029618
:10150000A11DB11D2093990580939A0590939B0589
:10151000A0939C05B0939D0580914602909147024F
:10152000A0914802B09149020196A11DB11D80937E
:10153000460290934702A0934802B0934902BF919C
:10154000AF919F918F913F912F910F900FBE0F9070
:101550001F901895CF93DF93CDB7DEB72B970FB6BB
:10156000F894DEBF0FBECDBF789484B5826084BD91
:1015700084B5816084BD85B5826085BD85B5816097
:1015800085BD80916E00816080936E001092810015
:1015900080918100826080938100809181008160D0
:1015A0008093810080918000816080938000809191
:1015B000B10084608093B1008091B000816080931D
:1015C000B00080917A00846080937A0080917A00E4
:1015D000826080937A0080917A00816080937A00A3
:1015E00080917A00806880937A001092C100E09127
:1015F0005A02F0915B0282E08083E0915602F09102
:1016000057021082E0915802F091590287E08083DE
:1016100010926202E0915E02F0915F0286E08083A8
:10162000E0915C02F0915D02808180618083E091B5
:101630005C02F0915D02808188608083E0915C02B1
:10164000F0915D02808180688083E0915C02F0917E
:101650005D0280818F7D808381E791E00E94CF09C8
:1016600008E610E0F8016491611130C082E00E9448
:10167000DD0983E00E94DD0984E00E94DD0985E048
:101680000E94DD0986E00E94DD0987E00E94DD09F5
:1016900088E00E94DD0989E00E94DD0986E290E091
:1016A0000E942B138C0166E271E00E945C14F80129
:1016B00001900020E9F73197E01BF10BD80180E0A1
:1016C00090E0C12CD12CE12CF12C12C08AE492E0E4
:1016D0000E94E4050F5F1F4F892B21F6C7CF2D9184
:1016E0002C3551F02F3241F02E3209F46C01019665
:1016F0008E179F07A1F702C07C01F9CFF801EC0D0E
:10170000FD1D10828BE791E00E94B209EC14FD04EC
:101710001CF081E891E004C0C7010196800F911F81
:101720000E94B2098AE891E00E94B20901151105F0
:1017300019F0C8010E94C31381E090E09093FE026B
:101740008093FD02909300038093FF0287EE92E066
:101750009093410280934002E5E1F3E0A4E0B2E01F
:1017600081E090E022E030E0378B268B918F808FF4
:10177000ED93FD93BE96019688309105A9F7E7E5B4
:10178000F4E0A4EFB1E081E090E023E030E0378BBB
:10179000268B918F808FED93FD930196BE968830B6
:1017A0009105A9F780914202909143029093EB0139
:1017B0008093EA019093F3018093F20190930302E6
:1017C0008093020290933F0280933E0287EE92E064
:1017D0009093ED018093EC01E0910402F0910502F9
:1017E000F093EF01E093EE010091F4011091F50107
:1017F0001093F1010093F00190934502809344020D
:1018000089E194E0909302038093010389ED91E0D4
:1018100090930A038093090384EE94E090930C0361
:1018200080930B0380EB92E0938F828F8FE593E0A0
:10183000978F868F81E992E091A380A387E892E059
:1018400097A386A385E593E091A780A786E295E01C
:1018500093A782A78AE593E095A784A7CF010E946A
:101860006B08E0900602F09007028BE598E0D70144
:101870005D969C938E935C9782E095E09B969C93FB
:101880008E939A9780E593E09D969C938E939C9778
:10189000C7010E946B0884E195E0F70193A782A736
:1018A00081EA94E095A784A7C7010E946B08E091A4
:1018B0000802F091090285EF92E0938F828F87E40E
:1018C00098E0958F848F82EF92E093A382A38DEEB0
:1018D00092E095A384A3E0910A02F0910B028DECB3
:1018E00093E0978F868F88EE92E091A380A386E0A5
:1018F00092E097A386A38BED92E091A780A7E09159
:101900000C02F0910D028BE498E0958F848F85EEA8
:1019100092E093A382A380EE92E095A384A3E0914A
:101920000E02F0910F0288ED92E093A382A384EB64
:1019300092E095A384A3E0911002F091110281EC52
:1019400092E0938F828F8EEB92E093A382A389EB38
:1019500092E095A384A382EB92E0D8015B969C93DE
:101960008E935A978BE992E05F969C938E935E9745
:1019700086E992E091969C938E9390978CE892E002
:1019800097969C938E9396978DE792E099969C9369
:101990008E9398978FE295E09B969C938E939A975F
:1019A00082E892E09D969C938E939C97C8010E943A
:1019B0006B080091F6011091F70183E698E0F801B9
:1019C000958F848F8DE195E093A782A788E792E0B9
:1019D00095A784A7C8010E946B088BE095E0D80109
:1019E0009B969C938E939A978EE594E09D969C93FC
:1019F0008E939C97C8010E946B08E091F801F091CA
:101A0000F9018DE192E0938F828F89E498E0958FC0
:101A1000848F8AE192E093A382A385E192E095A36B
:101A200084A3E091FA01F091FB0181E893E0978FA4
:101A3000868F80E192E091A380A38BE092E097A350
:101A400086A389EF91E091A780A7E091FC01F09136
:101A5000FD0183E598E0958F848F83E092E093A366
:101A600082A38EEF91E095A384A3E091FE01F09113
:101A7000FF0186EF91E093A382A38FEC91E095A301
:101A800084A3E0910002F09101028FED91E0938F29
:101A9000828F8CED91E093A382A384ED91E095A3D6
:101AA00084A38EE290E00E942B138C010E94540AC2
:101AB000F801648375838683978310861186128666
:101AC0001386C8010C960E9453068FEF9FEFF80112
:101AD00093838283178A168A118E108E1182108248
:101AE00080E893E0938F828F958F848F2BE733E08C
:101AF000378F268F84E793E091A380A347E753E0D5
:101B000057A346A333A722A795A384A391A780A791
:101B100095A784A710934302009342028FE297E0B7
:101B200093A382A38CE00E94DD098DE00E94DD0971
:101B300060E08CE00E94250A60E08CE090E00E946A
:101B40006D0660E08DE00E94250A60E08DE090E087
:101B50000E946D068AE492E00E948F01892BD1F3E6
:101B60008AE492E00E946D018236910599F78AE439
:101B700092E00E948F01892B29F08AE492E00E9472
:101B80006D01F5CF3FB7F8948091460290914702DE
:101B9000A0914802B091490226B5A89B05C02F3FED
:101BA00019F00196A11DB11D3FBFBA2FA92F982F83
:101BB0008827820F911DA11DB11DBC01CD0142E0FE
:101BC000660F771F881F991F4A95D1F76115710518
:101BD0008105910511F00E94821081E991E00E9437
:101BE000CF090E94540A60933A0270933B0280939B
:101BF0003C0290933D0261E08CE00E94250A61E086
:101C00008CE090E00E946D0661E08DE00E94250A64
:101C100061E08DE090E00E946D0600914402109119
:101C200045020115110509F41FC1D8019696ED91E1
:101C3000FC919797099520E030E04AE754E40E9430
:101C4000A4120E94BE11F801608771878287938772
:101C50000E94540AD80114966D937D938D939C93A2
:101C600017975A96ED91FC915B970995D8015C9670
:101C7000ED91FC915D970995F801C480D580E680CF
:101C8000F7801092120268E971E082E192E00E940E
:101C900051144AE0BE016F5F7F4FD80156968D9177
:101CA0009C9157970E948B10BC0182E192E00E94A8
:101CB00051146AE971E082E192E00E9451144AE015
:101CC000BE016F5F7F4FF801808D918D0E948B1058
:101CD000BC0182E192E00E9451146EE571E082E164
:101CE00092E00E94511480913A0290913B02A0919F
:101CF0003C02B0913D02A7019601281B390B4A0B0B
:101D00005B0BCA01B9012AE0AE014F5F5F4F0E9431
:101D10009610BC0182E192E00E9451146DE971E0DD
:101D200082E192E00E94511482E192E00E94B209A5
:101D30000E944607D8015E96ED91FC915F97099548
:101D4000882331F0D8019096ED91FC9191979AC03B
:101D5000F80182819381019649F4D8019296ED9120
:101D6000FC9193970995F80193838283D8018D9113
:101D70009C911197019611969C938E9312962D919A
:101D80003C9113972115310509F440C08217930740
:101D9000E9F59296ED91FC9193970995F80193835B
:101DA00082831182108204A0F5A1E02D6BC00E94F5
:101DB000540AD8011496CD90DD90ED90FC901797C1
:101DC000DC01CB018C199D09AE09BF09F801C08463
:101DD000D184E284F3848C159D05AE05BF0508F01F
:101DE0004EC0D8011C968D919C911D971E966D91A9
:101DF0007C911F979B01215031098217930781F431
:101E00001D961C921E921C970E944607F801808521
:101E10009185A285B385892B8A2B8B2B11F3C7CF94
:101E200001960E941113F80195878487880F991FE6
:101E30000288F389E02DE80FF91F0190F081E02D71
:101E40000995882371F2D8011C96ED91FC911D979C
:101E5000EE0FFF1F54968D919C915597E80FF91F37
:101E60000190F081E02D0EC08091420290914302DA
:101E700090934502809344020E949B01CECE00A421
:101E8000F1A5E02D0995F4CF6F927F928F929F92EA
:101E9000AF92BF92CF92DF92EF92FF920F931F9378
:101EA000CF93DF9310924D0210924C0288EE93E094
:101EB000A0E0B0E080934E0290934F02A0935002B6
:101EC000B093510280E591E090934B0280934A02D7
:101ED00085EC90E0909357028093560284EC90E05A
:101EE000909359028093580280EC90E090935B02AB
:101EF00080935A0281EC90E090935D0280935C02A3
:101F000082EC90E090935F0280935E0286EC90E01A
:101F100090936102809360021092630210926402B7
:101F20001092650210926602C7EED2E0AA24AA942B
:101F3000BA2C90E8892E93E0992E2BE7E22E23E02D
:101F4000F22E04E713E03DE7C32E33E0D32E47E73C
:101F5000642E43E0742E0E94540A6C837D838E832A
:101F60009F83188619861A861B86CE010C960E94BE
:101F70005306BB82AA821F8A1E8A198E188E198266
:101F800018829B8E8A8E9D8E8C8EFF8EEE8E19A36C
:101F900008A3DBA2CAA27FA26EA2FBA6EAA61DA38B
:101FA0000CA319A708A71DA70CA7AE9685E0C939F1
:101FB000D80789F6DF91CF911F910F91FF90EF9095
:101FC000DF90CF90BF90AF909F908F907F906F9059
:101FD00008958F929F92AF92BF92CF92DF92EF922D
:101FE000FF92CF93DF93EC01688179818A819B8195
:101FF000611571058105910521F464E279ED8BE5A8
:1020000097E02DE133EF41E050E00E94E2104901FA
:102010005A019B01AC01A7EAB1E40E9401116B01D6
:102020007C01ACEEB4EFA50194010E940F11DC011C
:10203000CB018C0D9D1DAE1DBF1DB7FF03C00197C9
:10204000A109B04888839983AA83BB83BC01CD01D1
:102050009F77DF91CF91FF90EF90DF90CF90BF906F
:10206000AF909F908F9008958F929F92AF92BF9262
:10207000CF92DF92EF92FF92609102017091030183
:10208000809104019091050161157105810591050B
:1020900021F464E279ED8BE597E02DE133EF41E047
:1020A00050E00E94E21049015A019B01AC01A7EAED
:1020B000B1E40E9401116B017C01ACEEB4EFA5010B
:1020C00094010E940F11DC01CB018C0D9D1DAE1DF2
:1020D000BF1DB7FF03C00197A109B048809302015B
:1020E00090930301A0930401B0930501BC01CD01BD
:1020F0009F77FF90EF90DF90CF90BF90AF909F9031
:102100008F900895609302017093030180930401FE
:10211000909305010895BB274A3031F4992322F4A6
:10212000BDE2909581959F4F0C94B910BB27FA01A1
:10213000A62F6217710581059105330B30FB66F000
:10214000AA27660F771F881F991FAA1FA21710F0D2
:10215000A21B63953850A9F7A05DAA3308F0A95DCA
:10216000A19336F7B111B1931082CA010C94D21029
:10217000BB27FB015527AA27880F991FAA1FA41761
:1021800010F0A41B83955051B9F7A05DAA3308F055
:10219000A95DA193009779F7B111B1931192CB0189
:1021A0000C94D210DC01FC01672F71917723E1F7C9
:1021B000329704C07C916D9370836291AE17BF0714
:1021C000C8F30895052E97FB1EF400940E94F910A1
:1021D00057FD07D00E94141107FC03D04EF40C9455
:1021E000F91050954095309521953F4F4F4F5F4FD7
:1021F000089590958095709561957F4F8F4F9F4F73
:1022000008950E943611A59F900DB49F900DA49F34
:10221000800D911D11240895B7FF0C9401110E94A7
:102220000111821B930B0895A1E21A2EAA1BBB1B5E
:10223000FD010DC0AA1FBB1FEE1FFF1FA217B30792
:10224000E407F50720F0A21BB30BE40BF50B661FA8
:10225000771F881F991F1A9469F76095709580956C
:1022600090959B01AC01BD01CF010895A29FB001E3
:10227000B39FC001A39F700D811D1124911DB29FBA
:10228000700D811D1124911D08955058BB27AA2758
:102290000E945D110C9465120E94571238F00E9442
:1022A0005E1220F039F49F3F19F426F40C94541276
:1022B0000EF4E095E7FB0C944E12E92F0E94761283
:1022C00058F3BA17620773078407950720F079F46B
:1022D000A6F50C9498120EF4E0950B2EBA2FA02DB3
:1022E0000B01B90190010C01CA01A0011124FF27C3
:1022F000591B99F0593F50F4503E68F11A16F040BE
:10230000A22F232F342F4427585FF3CF46953795BC
:102310002795A795F0405395C9F77EF41F16BA0B81
:10232000620B730B840BBAF09150A1F0FF0FBB1F2F
:10233000661F771F881FC2F70EC0BA0F621F731F78
:10234000841F48F4879577956795B795F7959E3FD5
:1023500008F0B0CF9395880F08F09927EE0F979566
:10236000879508950E942A1208F481E008950E943A
:10237000BE116894B1110C94991208950E947E12B6
:1023800088F09F5798F0B92F9927B751B0F0E1F036
:10239000660F771F881F991F1AF0BA95C9F714C0E6
:1023A000B13091F00E949812B1E008950C94981207
:1023B000672F782F8827B85F39F0B93FCCF386951F
:1023C00077956795B395D9F73EF49095809570957C
:1023D00061957F4F8F4F9F4F0895E89409C097FBF9
:1023E0003EF490958095709561957F4F8F4F9F4FEC
:1023F0009923A9F0F92F96E9BB279395F695879530
:1024000077956795B795F111F8CFFAF4BB0F11F4F2
:1024100060FF1BC06F5F7F4F8F4F9F4F16C0882399
:1024200011F096E911C0772321F09EE8872F762FCF
:1024300005C0662371F096E8862F70E060E02AF010
:102440009A95660F771F881FDAF7880F96958795FC
:1024500097F90895990F0008550FAA0BE0E8FEEFD1
:1024600016161706E807F907C0F012161306E40758
:10247000F50798F0621B730B840B950B39F40A2651
:1024800061F0232B242B252B21F408950A2609F42F
:10249000A140A6958FEF811D811D089597F99F6733
:1024A00080E870E060E008959FEF80EC08950024DC
:1024B0000A941616170618060906089500240A94A9
:1024C00012161306140605060895092E0394000C2F
:1024D00011F4882352F0BB0F40F4BF2B11F460FFBE
:1024E00004C06F5F7F4F8F4F9F4F089557FD9058E7
:1024F000440F551F59F05F3F71F04795880F97FBC8
:10250000991F61F09F3F79F0879508951216130681
:102510001406551FF2CF4695F1DF08C016161706B0
:102520001806991FF1CF86957105610508940895E5
:10253000E894BB2766277727CB0197F908950E9477
:102540002A1208F48FEF08950E94B7120C946512B6
:102550000E94571238F00E945E1220F0952311F06D
:102560000C944E120C94541211240C9499120E9443
:10257000761270F3959FC1F3950F50E0551F629F3F
:10258000F001729FBB27F00DB11D639FAA27F00DCC
:10259000B11DAA1F649F6627B00DA11D661F829FF3
:1025A0002227B00DA11D621F739FB00DA11D621FD8
:1025B000839FA00D611D221F749F3327A00D611DF5
:1025C000231F849F600D211D822F762F6A2F1124D7
:1025D0009F5750409AF0F1F088234AF0EE0FFF1F0A
:1025E000BB1F661F771F881F91505040A9F79E3F61
:1025F000510580F00C944E120C9499125F3FE4F355
:10260000983ED4F3869577956795B795F795E795B6
:102610009F5FC1F7FE2B880F911D9695879597F9BF
:102620000895AA1BBB1B51E107C0AA1FBB1FA61719
:10263000B70710F0A61BB70B881F991F5A95A9F76B
:1026400080959095BC01CD010895EE0FFF1F059078
:10265000F491E02D09940F931F93CF93DF93823071
:10266000910510F482E090E0E091A005F091A105C1
:1026700020E030E0A0E0B0E0309719F140815181D6
:102680000281138148175907C8F08417950769F428
:10269000109731F012960C93129713961C9327C043
:1026A0000093A0051093A10522C02115310519F052
:1026B0004217530718F49A01BD01EF01DF01F80139
:1026C000DBCF21153105F9F0281B390B24303105FA
:1026D00080F48A819B816115710521F0FB01938350
:1026E000828304C09093A1058093A005FE013296D9
:1026F00044C0FE01E20FF31F8193919322503109F0
:10270000398328833AC020919E0530919F05232B61
:1027100041F4209108013091090130939F052093E5
:102720009E0520910601309107012115310541F4E4
:102730002DB73EB740910A0150910B01241B350B78
:10274000E0919E05F0919F05E217F307A0F42E1B80
:102750003F0B2817390778F0AC014E5F5F4F241705
:10276000350748F04E0F5F1F50939F0540939E051D
:102770008193919302C0E0E0F0E0CF01DF91CF912F
:102780001F910F910895CF93DF93009709F481C0B3
:10279000FC01329713821282A091A005B091A1058D
:1027A000109781F420813181820F931F20919E0523
:1027B00030919F052817390751F5F0939F05E09355
:1027C0009E0567C0ED0120E030E0CE17DF0740F442
:1027D0004A815B819E0141155105F1F0EA01F5CF77
:1027E000D383C28340815181840F951FC817D907B5
:1027F00059F488819981840F951F02969183808373
:102800008A819B81938382832115310529F4F0937A
:10281000A105E093A0053DC0E901FB83EA8349914E
:102820005991C40FD51FEC17FD0761F48081918188
:10283000840F951F0296E901998388838281938191
:102840009B838A83E0E0F0E012968D919C91139730
:10285000009719F0FD01DC01F7CF8D919C91119744
:102860009D012E5F3F4F820F931F20919E05309157
:102870009F052817390769F4309729F41092A105AC
:102880001092A00502C013821282B0939F05A093FC
:102890009E05DF91CF91089581E090E0F8940C942B
:1028A0006314FB01DC010D900020E9F71197019002
:1028B0000D920020E1F70895FB01DC0101900D92DB
:0A28C0000020E1F70895F894FFCF1F
:1028CA000101010000000000A205800000000100D3
:1028DA0002000300040005000000010101010101DA
:1028EA00010101000000463A5C4172436F6E747246
:1028FA006F6C5C7461736B5C74776F414650435CB8
:10290A0074776F414650432E696E6F0000000000D5
:10291A00E405F7085E0131068F016D0181013A0075
:10292A0020004F5554004172432D656E6400494E94
:10293A00004172436F6E74726F6C002D2D2D2D2D18
:10294A0000556E7469746C6564002D2D2D2D2D0A49
:10295A00004172432D626700430053000D0A0000D4
:00000001FF
