:100000000C9434010C945C010C945C010C945C0124
:100010000C945C010C945C010C945C010C945C01EC
:100020000C945C010C945C010C945C010C945C01DC
:100030000C945C010C945C010C945C010C945C01CC
:100040000C94E4060C945C010C94040B0C94DE0AF2
:100050000C945C010C945C010C945C010C945C01AC
:100060000C945C010C945C0100000000240027004B
:100070002A0000000000250028002B0000000000DE
:1000800023002600290004040404040404040202DA
:100090000202020203030303030301020408102007
:1000A0004080010204081020010204081020000012
:1000B0000008000201000003040700000000000027
:1000C0000000404F5554313A23556E726577617286
:1000D000646564206375650A404F5554323A23477E
:1000E0006F206375650A404F5554333A234C65665B
:1000F000745265776172640A404F5554343A235202
:10010000696768745265776172640A404F55543567
:100110003A23350A404F5554363A23360A404F5554
:1001200054373A23370A404F5554383A23380A4057
:10013000494E313A234C6566744C69636B0A4049F9
:100140004E323A234D69644C69636B0A40494E3321
:100150003A2352696768744C69636B0A40494E34AC
:100160003A23340A40494E353A23350A40494E363F
:100170003A23360A4043313A0A40433153313A690F
:100180006E697420566172730A4043323A4C656658
:100190007420426C6F636B0A40433253313A4D69AD
:1001A000645F6C69636B0A40433253323A43686F51
:1001B0006F736520536964650A40433253333A5282
:1001C00057440A40433253343A496620537769749E
:1001D00063680A40433253353A54696D654F75740C
:1001E0000A40433253363A4552520A40433253375B
:1001F0003A4D4953530A4043333A52696768742071
:10020000426C6F636B0A40433353313A4D69645F0C
:100210006C69636B0A40433353323A43686F6F73C0
:100220006520536964650A40433353333A52574457
:100230000A40433353343A496620537769746368FC
:100240000A40433353353A54696D654F75740A401B
:10025000433353363A4552520A40433353373A4DAB
:100260004953530A0000360B11241FBECFEFD8E0CC
:10027000DEBFCDBF25E0AEEAB1E001C01D92A03ADD
:10028000B207E1F711E0A0E0B1E0E6E9F9E202C06F
:1002900005900D92AE3AB107D9F711E0C4E3D1E071
:1002A00004C02197FE010E949D10C333D107C9F7F6
:1002B0000E94E50B0C94C9140C940000FC01918D74
:1002C000828D981761F0828DDF01A80FB11D5D96B8
:1002D0008C91928D9F5F9F73928F90E008958FEF26
:1002E0009FEF0895FC01918D828D981731F0828DDA
:1002F000E80FF11D858D90E008958FEF9FEF089531
:10030000FC01918D228D892F90E0805C9F4F821B94
:1003100091098F739927089580E090E0892B29F047
:100320000E94250A81110C9400000895833081F009
:1003300028F4813099F08230A1F008958730A9F037
:100340008830B9F08430D1F4809180008F7D03C073
:10035000809180008F7780938000089584B58F7797
:1003600002C084B58F7D84BD08958091B0008F77E1
:1003700003C08091B0008F7D8093B0000895CF932B
:10038000DF93282F30E0F901E255FF4F8491F90106
:10039000E656FF4FD491F901EA57FF4FC491CC23A1
:1003A00091F081110E949601EC2FF0E0EE0FFF1FFB
:1003B000E458FF4FA591B491EC91ED2381E090E0DA
:1003C00021F480E002C080E090E0DF91CF910895B9
:1003D0008091FF0190910002089581E090E00895DE
:1003E00020E030E040E85FE36091E4017091E501D6
:1003F0008091E6019091E7010E94A4106093E401CE
:100400007093E5018093E6019093E7010895809150
:10041000FF0190910002089581E090E0089580919D
:10042000F7019091F801089581E090E0089580919E
:10043000F7019091F801089560E070E080EC9FE38F
:1004400008958091F1019091F20108958091FD014C
:100450009091FE01089581E090E0089580E090E0A1
:10046000A0E8BFE38093E0019093E101A093E20153
:10047000B093E3011092E4011092E5011092E601BD
:100480001092E7019C01AD016091DC017091DD01EA
:100490008091DE019091DF010E94A4106093DC0145
:1004A0007093DD018093DE019093DF0120E030E066
:1004B00040E85FE36091D0017091D1018091D20159
:1004C0009091D3010E94A4106093D0017093D10148
:1004D0008093D2019093D30120E030E044EA52E4CB
:1004E0006091CC017091CD018091CE019091CF01AE
:1004F0000E941011882361F080E090E0A4EAB2E449
:100500008093CC019093CD01A093CE01B093CF0105
:10051000089520E030E040E85FE36091E0017091F1
:10052000E1018091E2019091E3010E94101181119B
:1005300040C02091D8013091D9014091DA01509109
:10054000DB016091DC017091DD018091DE01909111
:10055000DF010E94FD1187FD2CC01092DC0110927A
:10056000DD011092DE011092DF0168E070E080E0B2
:1005700090E00E94AC0A695F7F4F072E000C880B49
:10058000990B0E944D116093D8017093D90180930B
:10059000DA019093DB0180E090E0A0E8BFE3809374
:1005A000E4019093E501A093E601B093E70181E0B7
:1005B000089580E0089580E10E94BF0121E0019745
:1005C00009F020E0822F08958091010290910202AB
:1005D00008958EE00E94BF0121E0019709F020E01C
:1005E000822F08958091F9019091FA0108958FE08A
:1005F0000E94BF0121E0019709F020E0822F0895B9
:100600008091F9019091FA01089560E070E088EC22
:1006100091E408958091ED019091EE010895CF93BA
:10062000C1E020E030E048E453E46091D0017091F3
:10063000D1018091D2019091D3010E94FD1187FDDB
:10064000C0E08C2FCF9108951092E0011092E1014B
:100650001092E2011092E30120E030E040E050E42B
:100660006091E4017091E5018091E6019091E701CC
:100670000E94FD1187FD05C080E090E0A0E4B0E499
:1006800004C080E090E0A0EEB0E48093C8019093B5
:10069000C901A093CA01B093CB01089580910F02C4
:1006A00090911002089581E090E0089520E030E0FC
:1006B00040E85FE36091E4017091E5018091E6011B
:1006C0009091E7010E94A4106093E4017093E5010A
:1006D0008093E6019093E701089580910F02909135
:1006E0001002089581E090E00895809107029091B2
:1006F0000802089581E090E00895809107029091AA
:100700000802089560E070E080EC9FE30895809116
:10071000F3019091F401089520E030E040E85FE3B8
:100720006091E0017091E1018091E2019091E3011B
:100730000E941011811140C02091D8013091D9013F
:100740004091DA015091DB016091DC017091DD0193
:100750008091DE019091DF010E94FD1187FD2CC088
:100760001092DC011092DD011092DE011092DF0187
:1007700080E090E0A0E8BFE38093E4019093E5017E
:10078000A093E601B093E70168E070E080E090E0BC
:100790000E94AC0A695F7F4F072E000C880B990BF3
:1007A0000E944D116093D8017093D9018093DA01B2
:1007B0009093DB0181E0089580E0089580910D021F
:1007C00090910E02089581E090E0089580E090E01D
:1007D000A0E8BFE38093E0019093E101A093E201E0
:1007E000B093E3011092E4011092E5011092E6014A
:1007F0001092E7019C01AD016091DC017091DD0177
:100800008091DE019091DF010E94A4106093DC01D1
:100810007093DD018093DE019093DF0120E030E0F2
:1008200040E85FE36091D0017091D1018091D201E5
:100830009091D3010E94A4106093D0017093D101D4
:100840008093D2019093D30120E030E048E952E454
:100850006091CC017091CD018091CE019091CF013A
:100860000E941011882361F080E090E0A8E9B2E4D2
:100870008093CC019093CD01A093CE01B093CF0192
:1008800008958EE00E94BF0121E0019709F020E069
:10089000822F08958091110290911202089580E1B3
:1008A0000E94BF0121E0019709F020E0822F089506
:1008B0008091090290910A0208958FE00E94BF0181
:1008C00021E0019709F020E0822F0895809109022C
:1008D00090910A02089560E070E088EC91E4089538
:1008E0008091ED019091EE010895CF93C1E020E059
:1008F00030E048E453E46091D0017091D1018091DF
:10090000D2019091D3010E94FD1187FDC0E08C2F90
:10091000CF9108951092E0011092E1011092E2014E
:100920001092E30120E030E040E050E46091E40107
:100930007091E5018091E6019091E7010E94FD111F
:1009400087FD05C080E090E0A0E4B0E404C080E052
:1009500090E0A0EEB0E48093C8019093C901A09309
:10096000CA01B093CB01089581E090E0089580E042
:1009700090E0A6E9B2E48093C4019093C501A093EE
:10098000C601B093C7018093C0019093C101A093A9
:10099000C201B093C3018BE794E1AEEABDE380935B
:1009A000D4019093D501A093D601B093D7018CEEDA
:1009B00091E5A8E3BDE38093BC019093BD01A093B2
:1009C000BE01B093BF0168E070E080E090E00E945B
:1009D000AC0A695F7F4F072E000C880B990B0E94B1
:1009E0004D116093D8017093D9018093DA019093EF
:1009F000DB011092D0011092D1011092D20110921D
:100A0000D30180E090E0ACE9B2E48093CC01909314
:100A1000CD01A093CE01B093CF01089580E090E086
:100A2000089560E070E0CB01089580E0089580E0D3
:100A300090E0089508958F929F92AF92BF92CF92C7
:100A4000DF92EF92FF928090C8019090C901A09030
:100A5000CA01B090CB016091C0017091C101809139
:100A6000C2019091C3010E9415116B017C010E948B
:100A7000011424E630E040E050E00E94661421E0DA
:100A8000C21AD1086C157D052CF4812C912C90E4B0
:100A9000A92EBA2CC501B4010E941511660F771F4B
:100AA000FB01EB5FFD4F80819181FF90EF90DF9024
:100AB000CF90BF90AF909F908F9008958F929F920C
:100AC000AF92BF92CF92DF92EF92FF928090C801D7
:100AD0009090C901A090CA01B090CB016091C4016F
:100AE0007091C5018091C6019091C7010E941511B6
:100AF0006B017C010E94011424E630E040E050E0EC
:100B00000E94661421E0C21AD1086C157D052CF4F0
:100B1000812C912C90E4A92EBA2CC501B4010E941D
:100B20001511660F771FFB01EB50FE4F80819181FD
:100B3000FF90EF90DF90CF90BF90AF909F908F90FD
:100B400008950E94011424E630E040E050E00E9445
:100B5000661461337105810591052CF060E070E049
:100B600080E490E404C060E070E080E090E40E94E3
:100B70001511660F771FFB01E351FE4F80819181B4
:100B800008952F923F924F925F926F927F928F9231
:100B90009F92AF92BF92CF92DF92EF92FF920F930C
:100BA0001F93CF93DF93CDB7DEB7E3970FB6F894DB
:100BB000DEBF0FBECDBF1B0129013A0167017801DD
:100BC0008090410290904202A0904302B090440273
:100BD0001982BC01CE0101960E94A1134AE0BE0118
:100BE000675D7F4FC1010E940F14BC01CE010196C9
:100BF0000E94A11364E771E0CE0101960E94A11347
:100C0000C301B201681979098A099B092AE0AE017A
:100C1000475D5F4F0E941A14BC01CE0101960E94ED
:100C2000A11366E771E0CE0101960E94A113C701EE
:100C3000B60164197509860997092AE0AE01475D76
:100C40005F4F0E941A14BC01CE0101960E94A113AD
:100C500061E871E0CE0101960E94A113CE010196D8
:100C60000E949A0AE3960FB6F894DEBF0FBECDBF7E
:100C7000DF91CF911F910F91FF90EF90DF90CF9078
:100C8000BF90AF909F908F907F906F905F904F90AC
:100C90003F902F900895FC01848DDF01A80FB11DB6
:100CA000A35ABF4F2C91848D90E001968F739927A2
:100CB000848FA689B7892C93A089B1898C9180648F
:100CC0008C93938D848D981306C00288F389E02D50
:100CD00080818F7D808308951F93CF93DF93282F8A
:100CE00030E0F901E255FF4F8491F901E656FF4FDC
:100CF000D491F901EA57FF4FC491CC23C9F0162FC4
:100D000081110E949601EC2FF0E0EE0FFF1FEE58CC
:100D1000FF4FA591B4918FB7F894111105C09C9124
:100D2000ED2FE095E92302C0EC91ED2BEC938FBF02
:100D3000DF91CF911F910895CF93DF9390E0FC0155
:100D4000E656FF4F2491FC01EA57FF4F8491882318
:100D500061F190E0880F991FFC01E859FF4FC591A0
:100D6000D491FC01EE58FF4FA591B491611109C0D7
:100D70009FB7F8948881209582238883EC912E2355
:100D80000BC0623061F49FB7F8943881822F809550
:100D900083238883EC912E2B2C939FBF06C08FB7A3
:100DA000F894E8812E2B28838FBFDF91CF9108958F
:100DB0002FB7F8946091E9017091EA018091EB01FD
:100DC0009091EC012FBF08951F920F920FB60F92D2
:100DD00011242F933F938F939F93AF93BF93809151
:100DE000E9019091EA01A091EB01B091EC01309101
:100DF000E80123E0230F2D3720F40196A11DB11D3A
:100E000005C026E8230F0296A11DB11D2093E8011D
:100E10008093E9019093EA01A093EB01B093EC0178
:100E20008091150290911602A0911702B0911802BC
:100E30000196A11DB11D8093150290931602A093F7
:100E40001702B0931802BF91AF919F918F913F917C
:100E50002F910F900FBE0F901F901895CF93DF9397
:100E6000EC011982188281E090E09B838A839D8344
:100E70008C8382E090E00E946F129F838E8382E0D9
:100E800090E00E946F1299878887DF91CF91089533
:100E90008F929F92AF92BF92CF92DF92EF92FF928A
:100EA0000F931F93CF93DF9300D000D01F92CDB745
:100EB000DEB78C018FE495E5A4E5B0E089839A83E1
:100EC000AB83BC8380910101811107C0F801E85E0A
:100ED000FE4F8081811133C088C0109201018CE1E6
:100EE00090E06D830E946F126C018093BA01D092E2
:100EF000BB018EE090E00E946F125C018093B8010C
:100F0000B092B90188E390E00E946F129093B7010C
:100F10008093B60188E390E00E946F129093B50130
:100F20008093B401D501F60180E090E06D811D92BF
:100F30008193919301968E309105C9F7C7CFC090E8
:100F4000B801D090B901C00ED11EF6018081811187
:100F500018C0662309F449C0000F111F000F111FAC
:100F60008091B6019091B701080F191F0E94D80611
:100F7000F801608371838283938381E0F60180832B
:100F800034C0611132C05801AA0CBB1CAA0CBB1C96
:100F90008090B4019090B5018A0C9B1C0E94D806E9
:100FA000F4016083718382839383F6011082209120
:100FB000B6013091B701F901EA0DFB1D20813181A5
:100FC00042815381000F111FE091BA01F091BB01E2
:100FD000E00FF11F0190F081E02D31977B018C0132
:100FE000BF01CE0101960E94C1050F900F900F9096
:100FF0000F900F90DF91CF911F910F91FF90EF9085
:10100000DF90CF90BF90AF909F908F90089560E059
:101010008CE00E946C0660E08CE090E00E94480743
:1010200060E08DE00E946C0660E08DE090E00E9440
:10103000480788E791E00E94D00AFFCF4F925F9265
:101040006F927F928F929F92AF92BF92CF92DF92D8
:10105000EF92FF920F931F93CF93DF9300D01F92D5
:10106000CDB7DEB789E49EE4A0E089839A83AB83A1
:101070008091000181110BC03CE0832E31E0932E62
:10108000A12CB12CC12CD12C7724739443C0109285
:1010900000014090410250904202609043027090E3
:1010A00044028CE090E00E946F125C018093B201D8
:1010B000B092B30186E090E00E946F126C018093C1
:1010C000B001D092B10188E190E00E946F1280934C
:1010D000AE019093AF010CE011E0450156016C01A7
:1010E000F801819191918F010E96F4018193919372
:1010F0004F0160E00E949C06F50111925F01F6012C
:1011000041925192619271926F01F1E008311F0793
:1011100039F7B2CFE091B201F091B301C601880F67
:10112000991FE80FF91F80810E94BF016624639414
:10113000892B09F4612C0E94D8067B018C01E09177
:10114000B001F091B101EC0DFD1D808181110FC046
:10115000662019F1A091AE01B091AF01AA0DBB1D9F
:10116000ED92FD920D931C931397708216C061103F
:1011700014C01082E091AE01F091AF01EA0DFB1DA9
:101180002081318142815381F401808191810196D6
:10119000BC01CE0101960E94C105FFEFCF1ADF0A04
:1011A00084E0A80EB11CE2E08E0E911CF6E0CF1692
:1011B000D10409F0AFCF0F900F900F90DF91CF9136
:1011C0001F910F91FF90EF90DF90CF90BF90AF9065
:1011D0009F908F907F906F905F904F9008958F9227
:1011E0009F92AF92BF92CF92DF92EF92FF92CF93F6
:1011F000DF93EC014A015B0161E00E946C0661E053
:10120000CE010E9448070E94D8066B017C0120E0B5
:1012100030E04AE754E4C501B4010E9402120E9482
:101220001C11C60ED71EE81EF91E0E94D8066C15AA
:101230007D058E059F0518F40E941E08F6CF60E01C
:101240008C2F0E946C0660E0CE01DF91CF91FF9061
:10125000EF90DF90CF90BF90AF909F908F900C94C5
:10126000480740E050E060E470E482E090E00C94D5
:10127000EF084091D4015091D5016091D601709151
:10128000D70184E090E00C94EF0840E050E060E08B
:101290007FE383E090E00C94EF0840E050E060E4EE
:1012A00070E482E090E00C94EF084091D4015091FA
:1012B000D5016091D6017091D70184E090E00C9443
:1012C000EF0840E050E060E07FE383E090E00C94C2
:1012D000EF086F927F928F929F92AF92BF92CF92C0
:1012E000DF92EF92FF920F931F93CF93DF93EC0166
:1012F0008CA49DA4AAA4BBA40E851F858889998966
:101300000817190709F052C0780182E0E80EF11CB5
:10131000F98AE88AE1E8EE16EFE3FE0620F4C70159
:10132000880F991F02C08FEF9FEF0E946F126C0110
:10133000F1E8EF16FFE3FF0620F4C701880F991FBD
:1013400002C08FEF9FEF0E946F127C01D6013C011B
:1013500040E050E08A899B8940175107C9F0BA01E3
:10136000660F771F9C01260F371FF901808191813D
:101370008D939D938C899D89680F791FFB018081D6
:101380009181F301819391933F014F5F5F4FE2CFD2
:10139000009711F00E9404138C899D89009711F029
:1013A0000E940413CA8ADB8AEC8AFD8A8E859F8597
:1013B0009C01220F331FEA89FB89E20FF31FB182E0
:1013C000A0824C895D89FA01E20FF31F918280822D
:1013D00001969F878E87DF91CF911F910F91FF908C
:1013E000EF90DF90CF90BF90AF909F908F907F90C5
:1013F0006F900895CF92DF92EF92FF920F931F9319
:10140000CF93DF936C017A018B01C0E0D0E0CE1561
:10141000DF0589F0D8016D918D01D601ED91FC9128
:101420000190F081E02DC6010995892B11F47E0110
:1014300002C02196ECCFC701DF91CF911F910F9190
:10144000FF90EF90DF90CF90089585E492E00E94A6
:10145000800121E0892B09F420E0822F08950E9469
:101460009C13EF92FF920F931F93CF93DF93EC01A6
:1014700081E0888F9B8D8C8D981305C0E889F98950
:10148000808185FD24C0F62E0B8D10E00F5F1F4F6D
:101490000F731127E02E8C8DE8120CC00FB607FCDD
:1014A000FACFE889F989808185FFF5CFCE010E94C6
:1014B0004B06F1CF8B8DFE01E80FF11DE35AFF4F74
:1014C000F0820B8FEA89FB898081806207C0EE89F8
:1014D000FF896083E889F98980818064808381E065
:1014E00090E0DF91CF911F910F91FF90EF900895C1
:1014F000CF93DF93EC01888D8823C9F0EA89FB89BB
:10150000808185FD05C0A889B9898C9186FD0FC0B1
:101510000FB607FCF5CF808185FFF2CFA889B98986
:101520008C9185FFEDCFCE010E944B06E7CFDF9176
:10153000CF910895009769F0FC0101900020E9F730
:101540003197AF01481B590BBC0185E492E00C9424
:10155000FA0980E090E00895CF93DF9300D000D0A7
:10156000CDB7DEB716161706180619067CF49B01D0
:10157000AC0169833A834B835C830E940114298107
:101580003A814B815C810E94661403C060E070E088
:10159000CB010F900F900F900F90DF91CF91089596
:1015A000CF93DF930E949A0AEC0180E891E00E94B9
:1015B0009A0A8C0F9D1FDF91CF9108951F920F9271
:1015C0000FB60F9211242F933F934F935F936F9316
:1015D0007F938F939F93AF93BF93EF93FF9385E494
:1015E00092E00E944B06FF91EF91BF91AF919F91C6
:1015F0008F917F916F915F914F913F912F910F90BC
:101600000FBE0F901F9018951F920F920FB60F925A
:1016100011242F938F939F93EF93FF93E0915502A3
:10162000F09156028081E0915B02F0915C0282FDB4
:1016300012C0908180915E028F5F8F7320915F0254
:10164000821751F0E0915E02F0E0EB5BFD4F958F69
:1016500080935E0201C08081FF91EF919F918F91F5
:101660002F910F900FBE0F901F9018954F925F9281
:101670006F927F928F929F92AF92BF92CF92DF92A2
:10168000EF92FF920F931F93CF93DF931092480234
:101690001092470288EE93E0A0E0B0E08093490208
:1016A00090934A02A0934B02B0934C0288E691E0DB
:1016B000909346028093450285EC90E0909352020D
:1016C0008093510284EC90E09093540280935302F3
:1016D00080EC90E0909356028093550281EC90E06C
:1016E000909358028093570282EC90E090935A02B4
:1016F0008093590286EC90E090935C0280935B02A9
:1017000010925E0210925F021092600210926102CB
:10171000CAEED2E006EF12E088248A94982C9AE16F
:10172000692E95E0792E25E1C22E25E0D22E3EE0ED
:10173000E32E35E0F32E47E1A42E45E0B42E51E12F
:10174000452E55E0552E0E94D8066C837D838E83EE
:101750009F83188619861A861B86C8010E942E0749
:101760009B828A821F8A1E8A198E188E198218827D
:101770007B8E6A8E7D8E6C8EDF8ECE8EF801F58A22
:10178000E48AB78AA68A538E428ED78EC68EF18E91
:10179000E08EF58EE48EFDA6ECA6AE96025D1F4FA0
:1017A000F5E0CC39DF0779F6DF91CF911F910F91EA
:1017B000FF90EF90DF90CF90BF90AF909F908F9071
:1017C0007F906F905F904F900895CF93DF93CDB748
:1017D000DEB72B970FB6F894DEBF0FBECDBF78945F
:1017E00084B5826084BD84B5816084BD85B5826026
:1017F00085BD85B5816085BD80916E0081608093D7
:101800006E0010928100809181008260809381003F
:10181000809181008160809381008091800081604F
:10182000809380008091B10084608093B1008091AA
:10183000B00081608093B00080917A0084608093D2
:101840007A0080917A00826080937A0080917A0099
:10185000816080937A0080917A00806880937A001A
:101860001092C100E0915502F091560282E080830F
:10187000E0915102F09152021082E0915302F091F6
:10188000540287E0808310925D02E0915902F0914A
:101890005A0286E08083E0915702F09158028081DD
:1018A00080618083E0915702F091580280818860C6
:1018B0008083E0915702F091580280818068808394
:1018C000E0915702F091580280818F7D808383E8F8
:1018D00091E00E94D00A02EC10E0F80164916111DD
:1018E00038C061E082E00E949C0661E083E00E94D3
:1018F0009C0661E084E00E949C0661E085E00E9415
:101900009C0661E086E00E949C0661E087E00E9400
:101910009C0661E088E00E949C0661E089E00E94EC
:101920009C068EE390E00E946F128C0166E271E0EB
:101930000E94AC13F80101900020E9F73197E01BF9
:10194000F10BD80180E090E0C12CD12CE12CF12CDE
:1019500019C0E0914502F09146020190F081E02D1E
:1019600085E492E009950F5F1F4F892B09F0B5CFF1
:10197000B8CF2D912C3551F02F3241F02E3209F491
:101980006C0101968E179F07A1F702C07C01F9CF69
:10199000F801EC0DFD1D10828DE891E00E949A0A7D
:1019A000EC14FD041CF083E991E004C0C70101962A
:1019B000800F911F0E949A0A8CE991E00E949A0A76
:1019C0000115110519F0C8010E94041381E090E08F
:1019D0009093010380930003909303038093020389
:1019E0008AEE92E09093E5028093E402E8E1F3E06E
:1019F000A7E0B2E081E090E022E030E0378B268B78
:101A0000918F808FED93FD930196BE96883091055E
:101A1000A9F7EAE5F4E0A7EFB1E081E090E023E088
:101A200030E0378B268B918F808FED93FD9301965D
:101A3000BE9688309105A9F78091E6029091E70261
:101A40009093EE018093ED019093F6018093F50160
:101A500090930602809305029093E3028093E20242
:101A60008AEE92E09093F0018093EF01E0910702FB
:101A7000F0910802F093F201E093F1010091F70177
:101A80001091F8011093F4010093F3019093E9028F
:101A90008093E80287EB94E090930503809304031E
:101AA00084EB94E090930D0380930C0381EA95E01E
:101AB00090930F0380930E038AE894E0938F828FB4
:101AC00085E794E0978F868F80E794E091A380A3C9
:101AD0008BE694E097A386A386E694E091A780A77F
:101AE0008DE594E093A782A788E594E095A784A765
:101AF000CF010E946909E0900902F0900A0281E694
:101B000099E0D7015D969C938E935C978FE494E067
:101B10009B969C938E939A978AE494E09D969C93CF
:101B20008E939C97C7010E94690981E494E0F701B4
:101B300093A782A78BE195E095A784A7C7010E9490
:101B40006909E0910B02F0910C0286EE93E0938F0D
:101B5000828F85E599E0958F848F83EE93E093A340
:101B600082A38EED93E095A384A3E0910D02F09102
:101B70000E028CE893E0978F868F87E893E091A31D
:101B800080A382E893E097A386A38DE793E091A7D3
:101B900080A7E0910F02F09110028DE499E0958FFB
:101BA000848F8AE793E093A382A385E793E095A3CC
:101BB00084A3E0911102F091120282E793E093A3D3
:101BC00082A38DE693E095A384A3E0911302F091A4
:101BD000140286E593E0938F828F83E593E093A3CD
:101BE00082A38EE493E095A384A384E293E0D801DA
:101BF0005B969C938E935A978FE093E05F969C93AD
:101C00008E935E978AE093E091969C938E93909743
:101C100085E093E097969C938E93969780E093E06F
:101C200099969C938E93989787EF92E09B969C93BE
:101C30008E939A9782EF92E09D969C938E939C97B9
:101C4000C8010E9469090091F9011091FA0185E427
:101C500099E0F801958F848F89EE92E093A782A78F
:101C600084EE92E095A784A7C8010E9469098BEDD4
:101C700092E0D8019B969C938E939A978EE595E07F
:101C80009D969C938E939C97C8010E946909E09150
:101C9000FB01F091FC018EE292E0938F828F89E349
:101CA00099E0958F848F8BE292E093A382A386E2E2
:101CB00092E095A384A3E091FD01F091FE0189E8F3
:101CC00092E0978F868F81E292E091A380A38CE1CE
:101CD00092E097A386A387E192E091A780A7E09185
:101CE000FF01F091000281E399E0958F848F84E1F8
:101CF00092E093A382A38FE092E095A384A3E09166
:101D00000102F09102028CE092E093A382A387E0AB
:101D100092E095A384A3E0910302F091040280EF86
:101D200091E0938F828F8DEE91E093A382A388EE52
:101D300091E095A384A38EE290E00E946F128C0143
:101D40000E94D806F8016483758386839783108682
:101D5000118612861386C8010C960E942E078FEFFB
:101D60009FEFF80193838283178A168A118E108E53
:101D7000118210828AE195E0938F828F958F848FF4
:101D800025E135E0378F268F8EE095E091A380A383
:101D900041E155E057A346A333A722A795A384A307
:101DA00091A780A795A784A71093E7020093E60266
:101DB00087E098E093A382A361E08CE00E949C06F8
:101DC00061E08DE00E949C0660E08CE00E946C0661
:101DD00060E08CE090E00E94480760E08DE00E94A7
:101DE0006C0660E08DE090E00E94480785E492E098
:101DF0000E948001892BD1F385E492E00E945E016C
:101E00008236910599F785E492E00E948001892B42
:101E100029F085E492E00E945E01F5CF3FB7F89487
:101E20008091150290911602A0911702B0911802AC
:101E300026B5A89B05C02F3F19F00196A11DB11D25
:101E40003FBFBA2FA92F982F8827820F911DA11D60
:101E5000B11DBC01CD0152E0660F771F881F991F8D
:101E60005A95D1F7611571058105910511F00E9410
:101E7000061483EA91E00E94D00A0E94D80660937B
:101E8000410270934202809343029093440261E0C6
:101E90008CE00E946C0661E08CE090E00E944807B4
:101EA00061E08DE00E946C0661E08DE090E00E94B0
:101EB00048070091E8021091E9020115110509F4A3
:101EC0001BC1D8019696ED91FC919797099520E05A
:101ED00030E04AE754E40E9402120E941C11F8010B
:101EE00060877187828793870E94D806D8011496ED
:101EF0006D937D938D939C9317975A96ED91FC91DA
:101F00005B970995D8015C96ED91FC915D970995D9
:101F1000F801C480D580E680F780109219026AEA41
:101F200071E089E192E00E94A1134AE0BE016F5F77
:101F30007F4FD80156968D919C9157970E940F1410
:101F4000BC0189E192E00E94A1136CEA71E089E191
:101F500092E00E94A1134AE0BE016F5F7F4FF8013B
:101F6000808D918D0E940F14BC0189E192E00E9446
:101F7000A11364E771E089E192E00E94A1138091CE
:101F8000410290914202A0914302B0914402A70104
:101F90009601281B390B4A0B5B0BCA01B9012AE0D9
:101FA000AE014F5F5F4F0E941A14BC0189E192E0BD
:101FB0000E94A11361E871E089E192E00E94A113FF
:101FC00089E192E00E949A0A0E941E08D8015E965A
:101FD000ED91FC915F970995882331F0D801909697
:101FE000ED91FC91919793C0F801828193810196C4
:101FF00049F4D8019296ED91FC9193970995F801D7
:1020000093838283D8018D919C91119701961196AB
:102010009C938E9312962D913C9113972115310527
:1020200001F182179307E9F49296ED91FC91939751
:102030000995F801938382831182108204A0F5A18F
:10204000E02D65C0F80184859585668577859B01BF
:10205000215031098217930771F4158614860E9466
:102060001E08F80180859185A285B385892B8A2B6E
:102070008B2B41F323C001960E948910958784879A
:10208000880F991F0288F389E02DE80FF91F01904E
:10209000F081E02D09958823A9F2D8011C96ED91D5
:1020A000FC911D97EE0FFF1F54968D919C915597B3
:1020B000E80FF91F0190F081E02D29C00E94D80699
:1020C000D8011496CD90DD90ED90FC901797DC012F
:1020D000CB018C199D09AE09BF09F801C084D184D8
:1020E000E284F3848C159D05AE05BF0508F4AACFE4
:1020F00000A4F1A5E02D0BC08091E6029091E702CB
:102100009093E9028093E8020E948C01D2CE099557
:10211000F7CFAA1BBB1B51E107C0AA1FBB1FA61705
:10212000B70710F0A61BB70B881F991F5A95A9F780
:1021300080959095BC01CD010895EE0FFF1F05908D
:10214000F491E02D09945058BB27AA270E94BB1098
:102150000C94C3110E94B51138F00E94BC1120F0FC
:1021600039F49F3F19F426F40C94B2110EF4E09563
:10217000E7FB0C94AC11E92F0E94D41158F3BA1765
:10218000620773078407950720F079F4A6F50C948D
:10219000F6110EF4E0950B2EBA2FA02D0B01B9010C
:1021A00090010C01CA01A0011124FF27591B99F0CD
:1021B000593F50F4503E68F11A16F040A22F232FD9
:1021C000342F4427585FF3CF469537952795A79529
:1021D000F0405395C9F77EF41F16BA0B620B730BD0
:1021E000840BBAF09150A1F0FF0FBB1F661F771F41
:1021F000881FC2F70EC0BA0F621F731F841F48F4F6
:10220000879577956795B795F7959E3F08F0B0CF7E
:102210009395880F08F09927EE0F97958795089565
:102220000E94881108F481E008950E941C116894AE
:10223000B1110C94F71108950E94DC1188F09F579A
:1022400098F0B92F9927B751B0F0E1F0660F771FDA
:10225000881F991F1AF0BA95C9F714C0B13091F0D0
:102260000E94F611B1E008950C94F611672F782FB3
:102270008827B85F39F0B93FCCF386957795679595
:10228000B395D9F73EF490958095709561957F4F01
:102290008F4F9F4F0895E89409C097FB3EF49095A7
:1022A0008095709561957F4F8F4F9F4F9923A9F02F
:1022B000F92F96E9BB279395F695879577956795BE
:1022C000B795F111F8CFFAF4BB0F11F460FF1BC002
:1022D0006F5F7F4F8F4F9F4F16C0882311F096E995
:1022E00011C0772321F09EE8872F762F05C0662343
:1022F00071F096E8862F70E060E02AF09A95660FFC
:10230000771F881FDAF7880F9695879597F90895B4
:10231000990F0008550FAA0BE0E8FEEF16161706F6
:10232000E807F907C0F012161306E407F50798F05E
:10233000621B730B840B950B39F40A2661F0232B77
:10234000242B252B21F408950A2609F4A140A695F3
:102350008FEF811D811D089597F99F6780E870E0D8
:1023600060E008959FEF80EC089500240A9416160B
:10237000170618060906089500240A941216130673
:10238000140605060895092E0394000C11F4882301
:1023900052F0BB0F40F4BF2B11F460FF04C06F5F1D
:1023A0007F4F8F4F9F4F089557FD9058440F551FF3
:1023B00059F05F3F71F04795880F97FB991F61F0C7
:1023C0009F3F79F087950895121613061406551F3E
:1023D000F2CF4695F1DF08C0161617061806991FAA
:1023E000F1CF86957105610508940895E894BB279F
:1023F00066277727CB0197F908950E94881108F482
:102400008FEF08950E9415120C94C3110E94B5110C
:1024100038F00E94BC1120F0952311F00C94AC11FF
:102420000C94B21111240C94F7110E94D41170F382
:10243000959FC1F3950F50E0551F629FF001729F69
:10244000BB27F00DB11D639FAA27F00DB11DAA1F78
:10245000649F6627B00DA11D661F829F2227B00DC5
:10246000A11D621F739FB00DA11D621F839FA00D50
:10247000611D221F749F3327A00D611D231F849FA0
:10248000600D211D822F762F6A2F11249F575040F7
:102490009AF0F1F088234AF0EE0FFF1FBB1F661F72
:1024A000771F881F91505040A9F79E3F510580F03B
:1024B0000C94AC110C94F7115F3FE4F3983ED4F305
:1024C000869577956795B795F795E7959F5FC1F7DF
:1024D000FE2B880F911D9695879597F90895CF93B8
:1024E000DF938230910510F482E090E0E0919E0548
:1024F000F0919F0520E030E0C0E0D0E0309711F18E
:102500004081518148175907C0F04817590761F4B5
:1025100082819381209719F09B838A832BC09093AB
:102520009F0580939E0526C02115310519F042179D
:10253000530718F49A01BE01DF01EF010280F38115
:10254000E02DDCCF2115310509F1281B390B243092
:10255000310590F412968D919C9113976115710538
:1025600021F0FB019383828304C090939F058093A5
:102570009E05FD01329644C0FD01E20FF31F8193D9
:102580009193225031092D933C933AC020919C05A0
:1025900030919D05232B41F42091040130910501D8
:1025A00030939D0520939C052091020130910301F9
:1025B0002115310541F42DB73EB7409106015091E8
:1025C0000701241B350BE0919C05F0919D05E21756
:1025D000F307A0F42E1B3F0B2817390778F0AC0146
:1025E0004E5F5F4F2417350748F04E0F5F1F509323
:1025F0009D0540939C058193919302C0E0E0F0E03B
:10260000CF01DF91CF9108950F931F93CF93DF9365
:10261000009709F48CC0FC0132971382128200915A
:102620009E0510919F050115110581F420813181CE
:10263000820F931F20919C0530919D052817390723
:1026400079F5F0939D05E0939C0571C0D80140E0B9
:1026500050E0AE17BF0750F412962D913C9113979E
:10266000AD012115310509F1D901F3CF9D01DA0141
:102670003383228360817181860F971F82179307AE
:1026800069F4EC0128813981260F371F2E5F3F4FF7
:10269000318320838A819B8193838283452B29F414
:1026A000F0939F05E0939E0542C01396FC93EE9332
:1026B0001297ED01499159919E01240F351FE217A0
:1026C000F30771F480819181840F951F0296119612
:1026D0009C938E938281938113969C938E931297F1
:1026E000E0E0F0E0D80112968D919C91139700974D
:1026F00019F0F8018C01F6CF8D919C9198012E5F15
:102700003F4F820F931F20919C0530919D05281704
:10271000390769F4309729F410929F0510929E05AD
:1027200002C01382128210939D0500939C05DF91D5
:10273000CF911F910F91089581E090E0F8940C944F
:10274000C914FB01DC010D900020E9F711970190FD
:102750000D920020E1F70895FB01DC0101900D923C
:102760000020E1F708958F929F92AF92BF92CF928F
:10277000DF92EF92FF92CF93DF93EC016881798132
:102780008A819B81611571058105910521F464E2BF
:1027900079ED8BE597E02DE133EF41E050E00E94C9
:1027A000661449015A019B01AC01A7EAB1E40E94F9
:1027B00085146B017C01ACEEB4EFA50194010E947D
:1027C0009314DC01CB018C0D9D1DAE1DBF1DB7FF09
:1027D00003C00197A109B04888839983AA83BB836A
:1027E000BC01CD019F77DF91CF91FF90EF90DF90FB
:1027F000CF90BF90AF909F908F9008950E94B31399
:10280000089588E091E00E94B31308956093080151
:102810007093090180930A0190930B010895BB27DF
:102820004A3031F4992322F4BDE2909581959F4F6F
:102830000C943D14BB27FA01A62F62177105810580
:102840009105330B30FB66F0AA27660F771F881FB0
:10285000991FAA1FA21710F0A21B63953850A9F761
:10286000A05DAA3308F0A95DA19336F7B111B19329
:102870001082CA010C945614BB27FB015527AA27C6
:10288000880F991FAA1FA41710F0A41B83955051FD
:10289000B9F7A05DAA3308F0A95DA193009779F775
:1028A000B111B1931192CB010C945614DC01FC01CF
:1028B000672F71917723E1F7329704C07C916D9374
:1028C00070836291AE17BF07C8F30895052E97FB7A
:1028D0001EF400940E947D1457FD07D00E949814A6
:1028E00007FC03D04EF40C947D1450954095309520
:1028F00021953F4F4F4F5F4F08959095809570956C
:1029000061957F4F8F4F9F4F08950E94BA14A59FE6
:10291000900DB49F900DA49F800D911D11240895DA
:10292000B7FF0C9485140E948514821B930B0895A5
:10293000A1E21A2EAA1BBB1BFD010DC0AA1FBB1FC3
:10294000EE1FFF1FA217B307E407F50720F0A21B35
:10295000B30BE40BF50B661F771F881F991F1A94A2
:1029600069F760957095809590959B01AC01BD01CC
:10297000CF010895A29FB001B39FC001A39F700D26
:10298000811D1124911DB29F700D811D1124911D77
:062990000895F894FFCF4A
:1029960001010000A0058000010000000000010008
:1029A600020003000400050000000101010101010D
:1029B600010101000000443A5C4769745F52657387
:1029C600705C4172436F6E74726F6C5F6769746896
:1029D60075625F72656C656173655C7461736B5C6F
:1029E60074776F414650435C74776F414650432E6F
:1029F600696E6F0000000000310AFA0980015E016D
:102A06007201780A3A0020004172432D656E640017
:102A16000D0A004172436F6E74726F6C002D2D2D7E
:102A26002D2D00556E7469746C6564002D2D2D2D49
:0E2A36002D0A004172432D62670043005300D9
:00000001FF
