:020000040000FA
:100000000C9434010C945C010C945C010C945C0124
:100010000C945C010C945C010C945C010C945C01EC
:100020000C945C010C945C010C945C010C945C01DC
:100030000C945C010C945C010C945C010C945C01CC
:100040000C94940B0C945C010C94620B0C943C0B80
:100050000C945C010C945C010C945C010C945C01AC
:100060000C945C010C945C0100000000230026004D
:10007000290000000008000201000003040700003E
:10008000000000000000404F5554313A23556E7275
:1000900065776172646564206375650A404F5554E5
:1000A000323A23476F206375650A404F5554333AFF
:1000B000234C6566745265776172640A404F5554EB
:1000C000343A2352696768745265776172640A40F2
:1000D0004F5554353A23350A404F5554363A233656
:1000E0000A404F5554373A23370A404F5554383A4F
:1000F00023380A40494E313A234C6566744C696393
:100100006B0A40494E323A234D69644C69636B0A6D
:1001100040494E333A2352696768744C69636B0AED
:1001200040494E343A23340A40494E353A23350A81
:1001300040494E363A23360A4043313A0A40433169
:1001400053313A696E697420566172730A404332C2
:100150003A4C65667420426C6F636B0A40433253BD
:10016000313A4D69645F6C69636B0A4043325332C4
:100170003A43686F6F736520536964650A40433280
:1001800053333A5257440A40433253343A49662073
:100190005377697463680A40433253353A54696D42
:1001A000654F75740A40433253363A4552520A40FD
:1001B000433253373A4D4953530A4043333A526915
:1001C00067687420426C6F636B0A40433353313A63
:1001D0004D69645F6C69636B0A40433353323A4341
:1001E000686F6F736520536964650A404333533306
:1001F0003A5257440A40433353343A4966205377BE
:10020000697463680A40433353353A54696D654FE6
:1002100075740A40433353363A4552520A404333C9
:1002200053373A4D4953530A000000000025002877
:10023000002B0000000000240027002A0004040412
:10024000040404040402020202020203030303037F
:10025000030102040810204080010204081020015C
:10026000020408102000DE0B11241FBECFEFD8E0DF
:10027000DEBFCDBF11E0A0E0B1E0EAE8FDE202C0E0
:1002800005900D92A43CB107D9F725E0A4ECB1E0AC
:1002900001C01D92A63FB207E1F711E0C4E3D1E02F
:1002A00004C02197FE010E948615C333D107C9F708
:1002B0000E94A00C0C94C3160C940000089580E0DA
:1002C000089590E080E0089590E080E0089560E077
:1002D00070E0CB01089590E0FC01EF5AFD4F2491AE
:1002E000835C9D4FFC018491882399F090E0880FF6
:1002F000991FFC01ED5CFD4FA591B491FC01E75DF8
:10030000FD4F859194918FB7F894EC91E22BEC938B
:100310008FBF089581E090E0089580913E02909112
:100320003F0208958091460290914702089580917E
:1003300042029091430208958091280290912902EF
:10034000089560E070E080EC9FE3089580913C02A6
:1003500090913D0208958091440290914502089544
:100360008091220290912302089560E070E088EC71
:1003700091E4089580912E0290912F02089560E0FB
:1003800070E080E09FE308958091360290913702FB
:100390000895609105027091060280910702909184
:1003A000080208958091320290913302089580915D
:1003B000260290912702089580912C0290912D029F
:1003C000089560E070E080E490E408958091340244
:1003D000909135020895AF92BF92CF92DF92EF9243
:1003E000FF920F931F93CF93DF936C017B018B01DF
:1003F000040F151FEB015E01AE18BF08C017D1072F
:1004000059F06991D601ED91FC910190F081E02DB8
:10041000C6010995892B79F7C501DF91CF911F910D
:100420000F91FF90EF90DF90CF90BF90AF90089525
:10043000FC01538D448D252F30E0842F90E0821BEA
:10044000930B541710F0CF96089501970895FC016F
:10045000918D828D981761F0A28DAE0FBF2FB11DC7
:100460005D968C91928D9F5F9F73928F90E008951F
:100470008FEF9FEF0895FC01918D828D981731F0D9
:10048000828DE80FF11D858D90E008958FEF9FEF2D
:100490000895FC01918D228D892F90E0805C9F4F03
:1004A000821B91098F739927089585E892E00E9435
:1004B000490221E0892B09F420E0822F089580E091
:1004C00090E0892B29F00E94550281110C940000C4
:1004D0000895FC01A48DA80FB92FB11DA35ABF4FD9
:1004E0002C91848D90E001968F739927848FA68933
:1004F000B7892C93A089B1898C91837080648C9387
:10050000938D848D981306C00288F389E02D808135
:100510008F7D80830895EF92FF920F931F93CF9367
:10052000DF93EC0181E0888F9B8D8C8D98131AC02E
:10053000E889F989808185FF15C09FB7F894EE8915
:10054000FF896083E889F989808183708064808372
:100550009FBF81E090E0DF91CF911F910F91FF90BD
:10056000EF900895F62E0B8D10E00F5F1F4F0F7365
:100570001127E02E8C8D8E110CC00FB607FCFACF20
:10058000E889F989808185FFF5CFCE010E94690253
:10059000F1CFEB8DEC0FFD2FF11DE35AFF4FF082F1
:1005A0009FB7F8940B8FEA89FB8980818062CFCF57
:1005B000CF93DF93EC01888D8823B9F0AA89BB899A
:1005C000E889F9898C9185FD03C0808186FD0DC085
:1005D0000FB607FCF7CF8C9185FFF2CF808185FFA6
:1005E000EDCFCE010E946902E9CFDF91CF9108954E
:1005F000833081F028F4813099F08230A9F0089599
:100600008730A9F08830C9F08430B1F4809180003F
:100610008F7D03C0809180008F7780938000089544
:1006200084B58F7784BD089584B58F7DFBCF80918D
:10063000B0008F778093B00008958091B0008F7DD7
:10064000F9CFCF93DF93282F30E0F901EE58FF4F19
:100650008491F901EF5AFD4FD491F901E35CFD4F0C
:10066000C491CC23A1F081110E94F802EC2FF0E09C
:10067000EE0FFF1FE859FF4FA591B491EC91ED23C8
:1006800081E090E009F480E0DF91CF91089580E06F
:1006900090E0FACF1F93CF93DF93282F30E0F9013A
:1006A000EE58FF4F8491F901EF5AFD4FD491F901B3
:1006B000E35CFD4FC491CC23A9F0162F81110E9459
:1006C000F802EC2FF0E0EE0FFF1FE75DFD4FA59164
:1006D000B4918FB7F894EC91111108C0D095DE2336
:1006E000DC938FBFDF91CF911F910895DE2BF8CF60
:1006F0002FB7F89460911E0270911F028091200222
:10070000909121022FBF08951092190210921A029F
:1007100010921B0210921C0220E030E040E050E4F6
:100720006091150270911602809117029091180243
:100730000E94081587FD0DC080E090E0A0E4B0E4C1
:100740008093110290931202A0931302B0931402AB
:10075000089580E090E0A0EEB0E4F2CF0C94840322
:100760008091340290913502089581E090E00895DF
:1007700020E030E040E85FE36091150270911602DE
:1007800080911702909118020E94AF136093150296
:10079000709316028093170290931802089581E0D7
:1007A00090E0089580912C0290912D02089581E0AF
:1007B00090E0089560E070E080EC9FE3089581E0B0
:1007C00090E0089580E090E0A0E8BFE380931902F4
:1007D00090931A02A0931B02B0931C021092150270
:1007E0001092160210921702109218029C01AD018D
:1007F00060910D0270910E0280910F029091100293
:100800000E94AF1360930D0270930E0280930F024B
:100810009093100220E030E040E85FE36091010235
:100820007091020280910302909104020E94AF1322
:10083000609301027093020280930302909304027A
:1008400020E030E044EA52E46091FD017091FE0145
:100850008091FF01909100020E941B14882361F097
:1008600080E090E0A4EAB2E48093FD019093FE0161
:10087000A093FF01B093000208958091520282FB81
:10088000882780F90895809152028170089580919F
:100890002E0290912F0208958091520286958170C8
:1008A0000895CF93C1E020E030E048E453E4609144
:1008B00001027091020280910302909104020E9451
:1008C000081587FDC0E08C2FCF91089580914402D8
:1008D00090914502089581E090E0089520E030E095
:1008E00040E85FE360911502709116028091170253
:1008F000909118020E94AF13609315027093160234
:100900008093170290931802089581E090E0089573
:1009100080913C0290913D02089581E090E008951D
:1009200060E070E080E490E4089581E090E0089554
:100930006091050270910602809107029091080271
:10094000089580E090E0A0E8BFE3809319029093BF
:100950001A02A0931B02B0931C021092150210926F
:10096000160210921702109218029C01AD016091BC
:100970000D0270910E0280910F02909110020E9460
:10098000AF1360930D0270930E0280930F02909349
:10099000100220E030E040E85FE3609101027091D6
:1009A000020280910302909104020E94AF136093AF
:1009B000010270930202809303029093040220E0EC
:1009C00030E048E952E46091FD017091FE018091B0
:1009D000FF01909100020E941B14882361F080E0C7
:1009E00090E0A8E9B2E48093FD019093FE01A0930A
:1009F000FF01B093000208958EE00E94210321E0E0
:100A0000019709F020E0822F089580E10E942103E0
:100A100021E0019709F020E0822F089560E070E066
:100A200080E09FE3089580913E0290913F020895F7
:100A30008FE00E94210321E0019709F020E0822F3E
:100A4000089560E070E088EC91E4089580912202BE
:100A5000909123020895CF93C1E020E030E048E474
:100A600053E460910102709102028091030290911F
:100A700004020E94081587FDC0E08C2FCF910895D5
:100A80000C948403CF92DF92EF92FF92CF93DF9387
:100A9000EC01EB81FC8109956B017C0120E030E0E9
:100AA000A9010E941B14181644F08FE6C82E82E19B
:100AB000D82E83E8E82E8AE3F82E20E030E04AE7DB
:100AC00054E4C701B6010E940D150E9427146F83DC
:100AD000788789879A871E8281E08A83DF91CF9108
:100AE000FF90EF90DF90CF900895FC0101900020DF
:100AF000E9F73197AF01481B590BBC0185E892E03B
:100B00000C94EB01009711F00C94750590E080E0D7
:100B10000895CF93DF930E947505EC018EE791E075
:100B20000E9475058C0F9D1FDF91CF9108958F92C4
:100B30009F92AF92BF92CF92DF92EF92FF928090FE
:100B4000110290901202A0901302B09014026091D2
:100B5000F5017091F6018091F7019091F8010E94E2
:100B600020146B010E949C1224E630E040E050E02B
:100B70000E944B1321E0C21AD1086C157D052CF49C
:100B8000812C912C90E4A92EBA2CC501B4010E94AD
:100B90002014660F771F665C7D4FFB018081918179
:100BA000FF90EF90DF90CF90BF90AF909F908F908D
:100BB00008950E949C1228E030E040E050E00E943E
:100BC0004B13CB010796089520E030E040E85FE347
:100BD0006091190270911A0280911B0290911C027F
:100BE0000E941B1481113AC02091090230910A021F
:100BF00040910B0250910C0260910D0270910E0217
:100C000080910F02909110020E94081587FD26C066
:100C100010920D0210920E0210920F02109210020A
:100C20000E94D905BC01990F880B990B0E9458149A
:100C30006093090270930A0280930B0290930C0256
:100C400080E090E0A0E8BFE3809315029093160245
:100C5000A0931702B093180281E0089580E00895F0
:100C600020E030E040E85FE36091190270911A02E1
:100C700080911B0290911C020E941B1481113AC0AA
:100C80002091090230910A0240910B0250910C020E
:100C900060910D0270910E0280910F0290911002EE
:100CA0000E94081587FD26C010920D0210920E02B8
:100CB00010920F021092100280E090E0A0E8BFE3D3
:100CC0008093150290931602A0931702B093180216
:100CD0000E94D905BC01990F880B990B0E945814EA
:100CE0006093090270930A0280930B0290930C02A6
:100CF00081E0089580E0089580E090E0A6E9B2E404
:100D00008093F9019093FA01A093FB01B093FC0149
:100D10008093F5019093F601A093F701B093F80149
:100D20008BE794E1AEEABDE380930502909306025F
:100D3000A0930702B09308020E94D905BC01990F45
:100D4000880B990B0E9458146093090270930A0251
:100D500080930B0290930C021092010210920202F7
:100D6000109203021092040280E090E0ACE9B2E439
:100D70008093FD019093FE01A093FF01B0930002C8
:100D800008958F929F92AF92BF92CF92DF92EF928F
:100D9000FF928090110290901202A0901302B090E6
:100DA00014026091F9017091FA018091FB01909118
:100DB000FC010E9420146B010E949C1224E630E08A
:100DC00040E050E00E944B1321E0C21AD1086C159C
:100DD0007D052CF4812C912C90E4A92EBA2CC50110
:100DE000B4010E942014660F771F665D7D4FFB01E2
:100DF00080819181FF90EF90DF90CF90BF90AF9076
:100E00009F908F9008950E949C1224E630E040E06D
:100E100050E00E944B136133710574F060E070E0A4
:100E200080E490E40E942014660F771F6E5D7D4F72
:100E3000FB0180819181089560E070E080E090E4A2
:100E4000F1CF8F929F92BF92CF92DF92EF92FF925B
:100E50000F931F93CF93DF93EC016B01B9808A81CD
:100E6000B8123DC002E00B0D0A8310E0C801880FE4
:100E7000991F0E948C157C01C8010E948C158C0161
:100E8000D7014C018B819C8130E020E04B2D50E05C
:100E900024173507B0F4B901660F771F680F791F63
:100EA000FB01608171816D937D936D817E81620F05
:100EB000731FFB016081F40161934F012F5F3F4F6E
:100EC000E7CF009711F00E9428168D819E81009730
:100ED00011F00E942816EB82FC820D831E8389810B
:100EE000282F30E0A901440F551FAB81BC81A40F0E
:100EF000B51FCD92DC92ED81FE81E20FF31F1082CF
:100F00008F5F8983DF91CF911F910F91FF90EF90B9
:100F1000DF90CF90BF909F908F9008956F927F92B7
:100F20008F929F92AF92BF92CF92DF92EF92FF92F9
:100F30000F931F93CF93DF93EC018EA49FA4ACA4D7
:100F4000BDA4CD848E85C8123FC002E00C0D0E8773
:100F500010E0000F111FC8010E948C157C01C80110
:100F60000E948C158C01D7013C018F85988930E057
:100F700020E0D12C2C153D05C8F4B901660F771F70
:100F8000AC01460F571FFA01408151814D935D938B
:100F900049895A89460F571FFA0140815181F3014F
:100FA000419351933F012F5F3F4FE4CF009711F0E2
:100FB0000E94281689899A89009711F00E942816A4
:100FC000EF86F88A098B1A8B8D85282F30E0220F47
:100FD000331FEF85F889E20FF31FB182A0824989A0
:100FE0005A89240F351FF901918280828F5F8D8786
:100FF000DF91CF911F910F91FF90EF90DF90CF90F5
:10100000BF90AF909F908F907F906F9008950F93B7
:101010001F93CF93DF93CDB7DEB72A970FB6F8941F
:10102000DEBF0FBECDBF8B011982BC01CE01019680
:101030000E94B1164AE0BE01685F7F4FC8010E945E
:10104000F412BC01CE0101960E94B1166FE771E067
:10105000CE0101960E94B116CE0101960E94820532
:101060002A960FB6F894DEBF0FBECDBFDF91CF91A9
:101070001F910F9108952F923F924F925F926F921E
:101080007F928F929F92AF92BF92CF92DF92EF9218
:10109000FF920F931F93CF93DF93CDB7DEB7E39704
:1010A0000FB6F894DEBF0FBECDBF1B0129013A0178
:1010B000670180907D0290907E02A0907F02B090A8
:1010C00080021982BC01CE0101960E94B1164AE04D
:1010D000BE01675D7F4FC1010E94F412BC01CE01C9
:1010E00001960E94B11661E871E0CE0101960E945E
:1010F000B116C301B201681979098A099B092AE06E
:10110000AE01475D5F4F0E94FF12BC01CE01019608
:101110000E94B11663E871E0CE0101960E94B116FB
:10112000C801B60164197509860997092AE0AE015C
:10113000475D5F4F0E94FF12BC01CE0101960E94E5
:10114000B1166FE771E0CE0101960E94B116CE0193
:1011500001960E948205E3960FB6F894DEBF0FBE9B
:10116000CDBFDF91CF911F910F91FF90EF90DF9056
:10117000CF90BF90AF909F908F907F906F905F9037
:101180004F903F902F9008958F929F92AF92BF9271
:10119000CF92DF92EF92FF920F931F93CF93DF9343
:1011A00000D000D0CDB7DEB78C01B62E809187017C
:1011B00090918801A0918901B0918A0189839A83D5
:1011C000AB83BC83809101018823A9F110920101B6
:1011D0008CE190E00E948C15982EA92E8093F3014B
:1011E0009093F4018EE090E00E948C156C01809346
:1011F000F101D092F2018093EF01D092F00188E3E7
:1012000090E00E948C159093EE018093ED0188E3AD
:1012100090E00E948C159093EC018093EB01D60135
:10122000E92DFA2D90E080E01D9281939193019633
:101230008E309105C9F7F801E85EFE4F8081882362
:1012400089F1C090F101D090F201C00ED11ED601FB
:101250008C91811138C0BB2029F1C801880F991FDA
:10126000880F991FA090ED01B090EE01A80EB91E55
:101270000E947803F501608371838283938381E008
:10128000D6018C93000F111FE091F301F091F4014E
:10129000E00FF11F608171816150710985E891E073
:1012A0000E9407080F900F900F900F90DF91CF9141
:1012B0001F910F91FF90EF90DF90CF90BF90AF9074
:1012C0009F908F900895B110EDCF4801880C991C24
:1012D000880C991CA090EB01B090EC01A80CB91CF3
:1012E0000E947803F5016083718382839383D60122
:1012F0001C92E091ED01F091EE01E80DF91D2081C5
:10130000318142815381000F111FE091F301F0916F
:10131000F4010E0F1F1FD801ED91FC9131977B0155
:101320008C01BF01CE0101960E943B08BBCF60E05B
:101330008CE00E944A0360E08CE090E00E94C408C8
:1013400060E08DE00E944A0360E08DE090E00E9442
:10135000C4088BE891E00E948905FFCF2F923F924D
:101360004F925F926F927F928F929F92AF92BF92B5
:10137000CF92DF92EF92FF920F931F93CF93DF9361
:1013800000D000D01F92CDB7DEB78091950190912B
:101390009601A091970189839A83AB838091000184
:1013A000882381F11092000180917D0290917E024C
:1013B000A0917F02B0918002E3EDF1E081939193DF
:1013C000A193B19321E0EB3EF207C1F78091540263
:1013D000ECE0F1E0C12CD12C7601C39431E0E8318E
:1013E000F30771F090813296B701A60104C0440F53
:1013F000551F661F771F9A95D2F740958423EECF2D
:1014000080935402D6B080915402D8261091D20114
:10141000D11609F442C00E9478031B012C0123ED70
:10142000A22E21E0B22E90E080E01D25E12FF0E019
:10143000FD83EC836D2C712C4C01FFEF8F1A9F0AFA
:101440002C813D81082E02C0359527950A94E2F73C
:1014500020FF1AC0930102C0359527958A95E2F7BF
:10146000F50120FF76C02082318242825382F4014E
:10147000EE0FFF1FE65FFE4F608171816F5F7F4F50
:1014800083E991E00E940708F4E0AF0EB11CC401AB
:101490008630910589F6D092D2018091D001909149
:1014A000D1010196823391050CF493C01092D101C1
:1014B0001092D00185E892E00E9449023C01912CF3
:1014C000812CC12CD12C7601C39411E08614970491
:1014D0000CF083C085E892E00E9427022091CE01A3
:1014E0003091CF01A9014F5F5F4F8A3019F08B33E4
:1014F00009F066C04C535E4FFA0110828091C4011E
:101500008E3599F522303105E1F4A090C5018FECBC
:101510008A0D8830B0F40A2C000CBB08FFE2AF1A29
:10152000B108E091EF01F091F001EA0DFB1D508050
:101530005126652D8A2D0E944A03652DC5010E9402
:10154000C4081092CF011092CE01FFEF8F1A9F0AAC
:10155000BDCF208131814281538182017101B4016B
:10156000CE0101960E943B088FCF863251F7223080
:10157000310539F78091C5019FEC980F983008F735
:10158000082E000C990BC19790915402B701A60147
:10159000082E04C0440F551F661F771F0A94D2F708
:1015A000292F30E002C0359527958A95E2F720FD76
:1015B00004C0492B40935402C4CF40954923FACF2D
:1015C0002C533E4FF90180835093CF014093CE01BD
:1015D000BCCF9093D1018093D0010F900F900F90CA
:1015E0000F900F90DF91CF911F910F91FF90EF908F
:1015F000DF90CF90BF90AF909F908F907F906F9033
:101600005F904F903F902F900895CF92DF92EF928E
:10161000FF921F93CF93DF93EC016A017B018E81D0
:1016200081110CC011E01E8361E08D810E944A038C
:101630008D8161E090E00E94C4081A838F819885B3
:10164000A985BA85C816D906EA06FB0698F060E0B7
:101650008D810E944A038D8160E090E00E94C40861
:101660001A8280E0DF91CF911F91FF90EF90DF9081
:10167000CF90089581E0F6CF1F920F920FB60F9290
:1016800011242F933F934F935F936F937F938F9387
:101690009F93AF93BF93EF93FF9385E892E00E94EF
:1016A0006902FF91EF91BF91AF919F918F917F91CF
:1016B0006F915F914F913F912F910F900FBE0F90BF
:1016C0001F9018951F920F920FB60F9211242F930F
:1016D0008F939F93EF93FF93E0919502F091960281
:1016E0008081E0919B02F0919C0282FD1BC0908161
:1016F00080919E028F5F8F7320919F02821741F02D
:10170000E0919E02F0E0EB57FD4F958F80939E0293
:10171000FF91EF919F918F912F910F900FBE0F909E
:101720001F9018958081F4CF1F920F920FB60F92E1
:1017300011242F933F938F939F93AF93BF938091E7
:101740001E0290911F02A0912002B09121023091BF
:101750001D0223E0230F2D3758F50196A11DB11D61
:1017600020931D0280931E0290931F02A0932002DB
:10177000B093210280914E0290914F02A0915002AD
:10178000B09151020196A11DB11D80934E0290931C
:101790004F02A0935002B0935102BF91AF919F911D
:1017A0008F913F912F910F900FBE0F901F90189522
:1017B00026E8230F0296A11DB11DD2CF5F926F9232
:1017C0007F928F929F92AF92BF92CF92DF92EF92D1
:1017D000FF920F931F93CF93DF9310928802109282
:1017E000870288EE93E0A0E0B0E0809389029093B6
:1017F0008A02A0938B02B0938C0280E791E09093D1
:1018000086028093850285EC90E09093920280930B
:10181000910284EC90E0909394028093930280EC88
:1018200090E0909396028093950281EC90E09093E3
:1018300098028093970282EC90E090939A028093B2
:10184000990286EC90E090939C0280939B02109208
:101850009E0210929F021092A0021092A102C2E278
:10186000D3E055245394AA24AA94BA2C9EE5892E39
:1018700091E0992E2FE5E22E21E0F22E01E611E013
:1018800034E6C32E31E0D32E47E6642E41E0742EB9
:101890000E9478036C837D838E839F8318861986CC
:1018A0001A861B861C865D865E8682E090E00E941A
:1018B0008C15988B8F8782E090E00E948C159A8B14
:1018C000898B1F8A588E598E82E090E00E948C1579
:1018D0009B8F8A8F81E090E00E948C159D8F8C8F6A
:1018E000BB82AA821B8A1C8A198218829E8A8D8AD0
:1018F0009F8E8E8EF9A2E8A21BA30AA3DDA2CCA222
:1019000079A668A6FDA6ECA61FA30EA31BA70AA78F
:101910001FA70EA7E09685E0C23FD80709F0B8CF11
:10192000DF91CF911F910F91FF90EF90DF90CF90BB
:10193000BF90AF909F908F907F906F905F90089531
:10194000CF93DF93CDB7DEB72B970FB6F894DEBFFA
:101950000FBECDBF789484B5826084BD84B58160AC
:1019600084BD85B5826085BD85B5816085BD80916A
:101970006E00816080936E001092810080918100E2
:1019800082608093810080918100816080938100DA
:10199000809180008160809380008091B10084609C
:1019A0008093B1008091B00081608093B0008091FD
:1019B0007A00846080937A0080917A0082608093BC
:1019C0007A0080917A00816080937A0080917A0019
:1019D000806880937A001092C100E0919502F091A6
:1019E000960282E08083E0919102F091920210824F
:1019F000E0919302F091940287E0808310929D021F
:101A0000E0919902F0919A0286E08083E09197023A
:101A1000F0919802808180618083E0919702F0913B
:101A20009802808188608083E0919702F09198020B
:101A3000808180688083E0919702F0919802808194
:101A40008F7D808388E991E00E94890506E810E097
:101A5000F8016491662341F085E892E00E948B02D0
:101A60000F5F1F4F892BA1F782E00E946B0183E07B
:101A70000E946B0184E00E946B0185E00E946B0173
:101A800086E00E946B0187E00E946B0188E00E9463
:101A90006B0189E00E946B018EE390E00E948C153F
:101AA0008C0166E271E00E94BC16F80101900020F2
:101AB000E9F73197E01BF10BD80190E080E0D12CE1
:101AC000C12CF12CE12C8E179F0761F02D912C3544
:101AD00031F02F3221F02E3219F46C0101C07C015B
:101AE0000196F1CFF801EC0DFD1D108282EA91E024
:101AF0000E94820588EA91E0EC14FD0424F4C701F9
:101B00000196800F911F0E94820581EB91E00E9457
:101B100082050115110519F0C8010E94281681E0FF
:101B2000809335038093360382E293E090934D02D5
:101B300080934C02E2E5F3E0ACE3B2E081E092E0B6
:101B4000938B848BED93FD938F5FF0968830C1F774
:101B5000E2EAF4E0ACE2B2E081E093E0E92EE38A6D
:101B6000848BED93FD938F5FF0968830C1F7809161
:101B7000810290918202909323028093220290939B
:101B80002B0280932A0290933B0280933A02909317
:101B90004B0280934A0282E293E090932502809365
:101BA0002402E0913C02F0913D02F0932702E09381
:101BB000260200912C0210912D021093290200930D
:101BC000280290938402809383028CE796E090939E
:101BD0003803809337038AE891E09093470380931A
:101BE000460383E097E0909349038093480380E4A1
:101BF00095E0968B858B8BE295E091A380A386E29E
:101C000095E093A382A381E295E091A780A78DE858
:101C100091E093A782A788E195E095A784A783E147
:101C200095E097A786A7CF010E948E07A0903E025D
:101C3000B0903F028BE090E00E948C15FC01FF24E5
:101C4000F394F2828EE095E094838383E582A8E6A4
:101C5000CA2EA1E0DA2ED182C082168217821086A7
:101C600011861286BF01C50147960E94210785E0B3
:101C700095E0D5019D969C938E939C9782E991E087
:101C80009F969C938E939E97C5010E948E078CEF22
:101C900094E0F50195A784A787E995E097A786A723
:101CA000C5010E948E07809040029090410281EA17
:101CB00094E0D40156969C938E9355978BE090E0D8
:101CC0000E948C15FC01F28288E994E0948383835E
:101CD000B4E0AB2EA582D182C08216821782108614
:101CE00011861286BF01C40147960E94210785E92B
:101CF00094E0F40195A384A387E991E097A386A3D8
:101D0000E0914202F091430280E396E091A380A328
:101D10008CE991E093A382A381EA91E091A780A747
:101D200086EA91E093A782A78090440290904502B2
:101D30008BE090E00E948C15FC01F28280E994E037
:101D40009483838382E0B82EB582D182C0821682CA
:101D50001782108611861286BF01C40147960E9421
:101D600021078DE894E0D40195969C938E939497E7
:101D700088E894E097969C938E939697E09146021C
:101D8000F091470285E894E095A384A38BEA91E063
:101D900097A386A3E0914802F09149028EE694E071
:101DA000968B858B8BE694E095A384A386E694E0DE
:101DB00097A386A38EEA93E0F801968B858B81E545
:101DC00094E091A380A380EB91E093A382A385EBA1
:101DD00091E091A780A78AEB91E093A782A78CE47A
:101DE00094E095A784A787E494E097A786A7C80105
:101DF0000E948E0700912E0210912F028BE090E03E
:101E00000E948C15FC01F2828FEB91E09483838316
:101E1000E582D182C08216821782108611861286D0
:101E2000BF01C80147960E94210783E494E0D801CE
:101E30009D969C938E939C9784EC91E09F969C93A7
:101E40008E939E97C8010E948E078DE394E0F8015F
:101E500095A784A781EC96E097A786A7C8010E9462
:101E60008E07009130021091310282EE93E0D8018A
:101E700056969C938E9355978BE090E00E948C151C
:101E8000FC01F28289EC91E094838383A582D18264
:101E9000C08216821782108611861286BF01C80181
:101EA00047960E9421078FED93E0F80195A384A344
:101EB00082ED91E097A386A3E0913202F091330284
:101EC00084EE95E091A380A387ED91E093A382A394
:101ED0008AED93E091A780A78CED91E093A782A76C
:101EE00000913402109135028BE090E00E948C1535
:101EF000FC01F28281EE91E094838383B582D182EA
:101F0000C08216821782108611861286BF01C80110
:101F100047960E94210787ED93E0D80195969C9300
:101F20008E93949782ED93E097969C938E939697D9
:101F3000E0913602F09137028FEC93E095A384A3F1
:101F400086EE91E097A386A3E0913802F0913902E2
:101F500088EB93E0968B858B85EB93E095A384A328
:101F600080EB93E097A386A380E390E00E948C151A
:101F70008C010E947803F8016483758386839783BC
:101F800010861186128613861486F586F68682E000
:101F900090E00E948C15F801908B878782E090E09A
:101FA0000E948C15D80152969C938E935197579608
:101FB0001C9257975896FC9258975996FC9282E03B
:101FC00090E00E948C15F801938F828F81E090E061
:101FD0000E948C15D8015D969C938E935C978FEF31
:101FE0009FEF13969C938E93129753961C92539740
:101FF00054961C92549711961C921E928EE591E075
:1020000056969C938E9355975F969C938E935E976E
:102010002FE531E091963C932E93909781E691E0E5
:1020200093969C938E93929747E651E099965C9392
:102030004E9398979D963C932E939C9797969C933E
:102040008E9396979B969C938E939A979F969C932C
:102050008E939E97109382020093810287E999E004
:1020600095969C938E9394978CE00E946B018DE0E3
:102070000E946B0160E08CE00E944A0360E08CE00B
:1020800090E00E94C40860E08DE00E944A0360E096
:102090008DE090E00E94C40885E892E00E94490229
:1020A000892BD1F385E892E00E94270282369105C0
:1020B00099F785E892E00E944902892B29F085E88A
:1020C00092E00E942702F5CF3FB7F89480914E022C
:1020D00090914F02A0915002B091510226B5A89B59
:1020E00005C02F3F19F00196A11DB11D3FBFBA2FAA
:1020F000A92F982F8827BC01CD01620F711D811D6A
:10210000911DE2E0660F771F881F991FEA95D1F7AE
:10211000611571058105910511F00E94EB1288EBA4
:1021200091E00E9489050E94780360937D0270937C
:102130007E0280937F029093800261E08CE00E9497
:102140004A0361E08CE090E00E94C40861E08DE009
:102150000E944A0361E08DE090E00E94C40860E0C4
:10216000E62E60E0F62E00918302109184028091A9
:102170008102909182020115110509F4ABC00E9401
:102180007803F80164837583868397830588F689CD
:10219000E02D0995D8015E96ED91FC910995F80125
:1021A0008789608D462F4150550B8417150609F01D
:1021B000A1C0178A812C912C5401712CF8018789B8
:1021C000608D462F4150550B8417150609F0A9C0A4
:1021D000178A0E947803D80114968D909D90AD9037
:1021E000BC9017979B01AC01281939094A095B0972
:1021F00049015A010E94AE097110DFCFD80114962F
:102200004D905D906D907C9017975496CC9054971C
:10221000D12C5396AC90B12C109255026FEB71E01B
:1022200085E592E00E94B1164AE0BE016F5F7F4FE4
:10223000C5010E94F412BC0185E592E00E94B1162E
:1022400061EC71E085E592E00E94B1164AE0BE01C2
:102250006F5F7F4FC6010E94F412BC0185E592E0DA
:102260000E94B11661E871E085E592E00E94B11626
:1022700080917D0290917E02A0917F02B0918002B8
:10228000A3019201281B390B4A0B5B0BCA01B90150
:102290002AE0AE014F5F5F4F0E94FF12BC0185E54F
:1022A00092E00E94B1166FE771E085E592E00E942E
:1022B000B11685E592E00E948205D8019096ED91D5
:1022C000FC910995882309F44FC0D8019296ED91AD
:1022D000FC9109959093840280938302E114F104A8
:1022E00009F441CF0E945502882309F43CCF0E9493
:1022F000000039CF8F5F0E947A15978B892F90E06D
:10230000880F991F228D338D820F931FFC018081CE
:102310009181DC01ED91FC910280F381E02D099522
:102320003ECF8F5F0E947A15978B892F90E0880FA0
:10233000991F228D338D820F931FFC01C080D180A5
:10234000D60112968C911297882349F0ED91FC9159
:102350000190F081E02DB501A401C601099571102D
:102360002DCFF60172802ACFF801828193810196E8
:1023700041F4D8019496ED91FC910995F80193836D
:102380008283D8018D919C911197019611969C930F
:102390008E9312962D913C9113972115310581F062
:1023A0008217930769F49496ED91FC910995F801D1
:1023B000938382831182108206A0F7A1E02D89CF3A
:1023C000D8019896ED91FC91099520E030E04AE71C
:1023D00054E40E940D150E942714F801608771874C
:1023E00082879387F80180859185A285B385892BA3
:1023F0008A2B8B2BE1F00E947803D80114968D90E4
:102400009D90AD90BC901797681979098A099B092E
:1024100018968D909D90AD90BC901B97681579058E
:102420008A059B0520F09A96ED91FC9152CF86B1DA
:10243000909154028927982F9095209153029223CE
:102440009093520280935302F80184856585462F4C
:102450004150550B8417150621F414860E94AE09CD
:10246000C1CF8F5F0E947A159487892F90E0880FE3
:10247000991F27853089820F931FDC01ED91FC9114
:102480000995882309F3F801848590E0880F991F46
:1024900021893289820F931FDC01ED91FC9119CFC4
:1024A0008F929F92AF92BF92CF92DF92EF92FF9264
:1024B000CF93DF93EC01688179818A819B816115DB
:1024C00071058105910521F464E279ED8BE597E0D2
:1024D0002DE133EF41E050E00E944B1349015A01D6
:1024E0009B01AC01A7EAB1E40E946A136B017C0175
:1024F000ACEEB4EFA50194010E947813C60ED71E6E
:10250000E81EF91EF7FE06C081E0C81AD108E108EE
:1025100080E8F80AC882D982EA82FB82C701B60144
:102520009F77DF91CF91FF90EF90DF90CF90BF909A
:10253000AF909F908F9008958F929F92AF92BF928D
:10254000CF92DF92EF92FF926091020170910301AE
:102550008091040190910501611571058105910536
:1025600021F464E279ED8BE597E02DE133EF41E072
:1025700050E00E944B1349015A019B01AC01A7EAAC
:10258000B1E40E946A136B017C01ACEEB4EFA501CB
:1025900094010E947813C60ED71EE81EF91EF7FE9E
:1025A00006C081E0C81AD108E10880E8F80AC092A4
:1025B0000201D0920301E0920401F0920501C701EB
:1025C000B6019F77FF90EF90DF90CF90BF90AF90D4
:1025D0009F908F9008956093020170930301809300
:1025E0000401909305010895BB274A3031F49923E3
:1025F00022F4BDE2909581959F4F0C942213BB2746
:10260000FA01A62F6217710581059105330B30FB86
:1026100066F0AA27660F771F881F991FAA1FA217A7
:1026200010F0A21B63953850A9F7A05DAA3308F0FB
:10263000A95DA19336F7B111B1931082CA010C9430
:102640003B13BB27FB015527AA27880F991FAA1FF9
:10265000A41710F0A41B83955051B9F7A05DAA33BD
:1026600008F0A95DA193009779F7B111B193119288
:10267000CB010C943B13DC01FC01672F7191772394
:10268000E1F7329704C07C916D9370836291AE172D
:10269000BF07C8F30895052E97FB1EF400940E940F
:1026A000621357FD07D00E947D1307FC03D04EF440
:1026B0000C94621350954095309521953F4F4F4FA4
:1026C0005F4F089590958095709561957F4F8F4FDE
:1026D0009F4F08950E949F13A59F900DB49F900D4A
:1026E000A49F800D911D11240895B7FF0C946A13C7
:1026F0000E946A13821B930B0895A1E21A2EAA1B53
:10270000BB1BFD010DC0AA1FBB1FEE1FFF1FA217A1
:10271000B307E407F50720F0A21BB30BE40BF50B9E
:10272000661F771F881F991F1A9469F76095709527
:10273000809590959B01AC01BD01CF010895A29FAA
:10274000B001B39FC001A39F700D811D1124911D85
:10275000B29F700D811D1124911D08955058BB2703
:10276000AA270E94C6130C94CE140E94C01438F0FD
:102770000E94C71420F039F49F3F19F426F40C94FA
:10278000BD140EF4E095E7FB0C94B714E92F0E94FA
:10279000DF1458F3BA17620773078407950720F010
:1027A00079F4A6F50C9401150EF4E0950B2EBA2FD2
:1027B000A02D0B01B90190010C01CA01A001112447
:1027C000FF27591B99F0593F50F4503E68F11A16F3
:1027D000F040A22F232F342F4427585FF3CF469584
:1027E00037952795A795F0405395C9F77EF41F16A6
:1027F000BA0B620B730B840BBAF09150A1F0FF0F70
:10280000BB1F661F771F881FC2F70EC0BA0F621F5B
:10281000731F841F48F4879577956795B795F7954B
:102820009E3F08F0B0CF9395880F08F09927EE0FE0
:102830009795879508950E94931408F481E0089570
:102840000E9427146894B1110C94021508950E94F7
:10285000E71488F09F5798F0B92F9927B751B0F037
:10286000E1F0660F771F881F991F1AF0BA95C9F714
:1028700014C0B13091F00E940115B1E008950C949C
:102880000115672F782F8827B85F39F0B93FCCF34F
:10289000869577956795B395D9F73EF49095809591
:1028A000709561957F4F8F4F9F4F0895E89409C0B1
:1028B00097FB3EF490958095709561957F4F8F4F73
:1028C0009F4F9923A9F0F92F96E9BB279395F69589
:1028D000879577956795B795F111F8CFFAF4BB0F07
:1028E00011F460FF1BC06F5F7F4F8F4F9F4F16C06B
:1028F000882311F096E911C0772321F09EE8872FF5
:10290000762F05C0662371F096E8862F70E060E0B0
:102910002AF09A95660F771F881FDAF7880F969529
:10292000879597F90895990F0008550FAA0BE0E8CD
:10293000FEEF16161706E807F907C0F01216130681
:10294000E407F50798F0621B730B840B950B39F4C1
:102950000A2661F0232B242B252B21F408950A2627
:1029600009F4A140A6958FEF811D811D089597F967
:102970009F6780E870E060E008959FEF80EC089525
:1029800000240A941616170618060906089500244E
:102990000A9412161306140605060895092E0394C8
:1029A000000C11F4882352F0BB0F40F4BF2B11F43C
:1029B00060FF04C06F5F7F4F8F4F9F4F089557FD9B
:1029C0009058440F551F59F05F3F71F04795880F9D
:1029D00097FB991F61F09F3F79F087950895121634
:1029E00013061406551FF2CF4695F1DF08C01616E0
:1029F00017061806991FF1CF869571056105089491
:102A00000895E894BB2766277727CB0197F90895A7
:102A10000E94931408F48FEF08950E9420150C94DF
:102A2000CE140E94C01438F00E94C71420F09523E1
:102A300011F00C94B7140C94BD1411240C940215CD
:102A40000E94DF1470F3959FC1F3950F50E0551F5E
:102A5000629FF001729FBB27F00DB11D639FAA27F3
:102A6000F00DB11DAA1F649F6627B00DA11D661F42
:102A7000829F2227B00DA11D621F739FB00DA11D63
:102A8000621F839FA00D611D221F749F3327A00D1D
:102A9000611D231F849F600D211D822F762F6A2FB9
:102AA00011249F5750409AF0F1F088234AF0EE0F1E
:102AB000FF1FBB1F661F771F881F91505040A9F74B
:102AC0009E3F510580F00C94B7140C9402155F3FA3
:102AD000E4F3983ED4F3869577956795B795F79587
:102AE000E7959F5FC1F7FE2B880F911D96958795FF
:102AF00097F90895991B79E004C0991F961708F07B
:102B0000961B881F7A95C9F780950895EE0FFF1FD1
:102B10000590F491E02D09940F931F93CF93DF93C9
:102B20008230910510F482E090E0E091F405F0919C
:102B3000F50530E020E0B0E0A0E0309799F42115F1
:102B4000310509F44AC0281B390B24303105D8F56A
:102B50008A819B816115710589F1FB0193838283D1
:102B6000FE0111C04081518102811381481759072C
:102B7000E0F04817590799F4109761F012960C93FA
:102B8000129713961C933296CF01DF91CF911F912C
:102B90000F9108950093F4051093F505F4CF2115D6
:102BA000310551F04217530738F0A901DB019A01B2
:102BB000BD01DF01F801C1CFEF01F9CF9093F50519
:102BC0008093F405CDCFFE01E20FF31F8193919323
:102BD0002250310939832883D7CF2091F2053091D3
:102BE000F305232B41F42091080130910901309322
:102BF000F3052093F205209106013091070121157C
:102C0000310541F42DB73EB740910A0150910B01B7
:102C1000241B350BE091F205F091F305E217F30761
:102C2000A0F42E1B3F0B2817390778F0AC014E5F3C
:102C30005F4F2417350748F04E0F5F1F5093F30581
:102C40004093F205819391939FCFF0E0E0E09CCF19
:102C5000CF93DF930097E9F0FC0132971382128241
:102C6000A091F405B091F505ED0130E020E010975A
:102C7000A1F420813181820F931F2091F2053091C0
:102C8000F3052817390709F061C0F093F305E093C5
:102C9000F205DF91CF910895EA01CE17DF07E8F53D
:102CA0004A815B819E0141155105B1F7E901FB8322
:102CB000EA8349915991C40FD51FEC17FD0761F4C0
:102CC000808191810296840F951FE9019983888301
:102CD000828193819B838A83F0E0E0E012968D915C
:102CE0009C9113970097B9F52D913C911197CD01C7
:102CF0000296820F931F2091F2053091F305281759
:102D0000390739F6309751F51092F5051092F40510
:102D1000B093F305A093F205BCCFD383C283408167
:102D20005181840F951FC817D90761F44E5F5F4F1B
:102D300088819981480F591F518340838A819B81E3
:102D4000938382832115310509F0B0CFF093F50507
:102D5000E093F4059ECFFD01DC01C0CF1382128207
:102D6000D7CFFB01DC010D900020E9F7119701900E
:102D70000D920020E1F70895FB01DC0101900D9216
:102D80000020E1F70895F894FFCF01010100000051
:102D90000000F605800000000100020003000400AE
:102DA0000500000001010101010101010100000015
:102DB000443A5C4769745F526573705C4172436F5B
:102DC0006E74726F6C5F6769746875625F72656C50
:102DD000656173655C7461736B5C74776F414650B9
:102DE000435C74776F414650432E696E6F0000005C
:102DF0000000050B4205000000008B02EB011802E9
:102E0000D802490227023B020D0A003A00200025A1
:102E1000004F5554004172432D656E6400240049F3
:102E20004E004172436F6E74726F6C002D2D2D2D0C
:102E30002D00556E7469746C6564002D2D2D2D2D3B
:0E2E40000A004172432D6267004300530000F8
:107E0000112484B714BE81FFF0D085E080938100F7
:107E100082E08093C00088E18093C10086E0809377
:107E2000C20080E18093C4008EE0C9D0259A86E02C
:107E300020E33CEF91E0309385002093840096BBD3
:107E4000B09BFECF1D9AA8958150A9F7CC24DD24C4
:107E500088248394B5E0AB2EA1E19A2EF3E0BF2EE7
:107E6000A2D0813461F49FD0082FAFD0023811F036
:107E7000013811F484E001C083E08DD089C08234E0
:107E800011F484E103C0853419F485E0A6D080C0E4
:107E9000853579F488D0E82EFF2485D0082F10E0AE
:107EA000102F00270E291F29000F111F8ED06801E7
:107EB0006FC0863521F484E090D080E0DECF843638
:107EC00009F040C070D06FD0082F6DD080E0C81688
:107ED00080E7D80618F4F601B7BEE895C0E0D1E017
:107EE00062D089930C17E1F7F0E0CF16F0E7DF06D8
:107EF00018F0F601B7BEE89568D007B600FCFDCFD4
:107F0000A601A0E0B1E02C9130E011968C91119780
:107F100090E0982F8827822B932B1296FA010C0160
:107F200087BEE89511244E5F5F4FF1E0A038BF0790
:107F300051F7F601A7BEE89507B600FCFDCF97BE46
:107F4000E89526C08437B1F42ED02DD0F82E2BD052
:107F50003CD0F601EF2C8F010F5F1F4F84911BD097
:107F6000EA94F801C1F70894C11CD11CFA94CF0C13
:107F7000D11C0EC0853739F428D08EE10CD085E9AC
:107F80000AD08FE07ACF813511F488E018D01DD067
:107F900080E101D065CF982F8091C00085FFFCCF94
:107FA0009093C60008958091C00087FFFCCF809118
:107FB000C00084FD01C0A8958091C6000895E0E648
:107FC000F0E098E1908380830895EDDF803219F02E
:107FD00088E0F5DFFFCF84E1DECF1F93182FE3DFCA
:107FE0001150E9F7F2DF1F91089580E0E8DFEE27F6
:047FF000FF270994CA
:027FFE00040479
:00000001FF
