:020000040000FA
:100000000C94C4000C94EC000C94EC000C94EC00E8
:100010000C94EC000C94EC000C94EC000C94EC00B0
:100020000C94EC000C94EC000C94EC000C94EC00A0
:100030000C94EC000C94EC000C94EC000C94EC0090
:100040000C94B0060C94EC000C947E060C945806AC
:100050000C94EC000C94EC000C94EC000C94EC0070
:100060000C94EC000C94EC0000000008000201006D
:10007000000304070000000000000000404F55543A
:10008000313A234C617365720A404F5554323A231A
:10009000320A404F5554333A23330A404F555434B3
:1000A0003A23340A404F5554353A23350A404F55C8
:1000B00054363A23360A404F5554373A23370A40CC
:1000C0004F5554383A23380A40494E313A23310AC1
:1000D00040494E323A23320A40494E333A23330ADA
:1000E00040494E343A23340A40494E353A23350AC2
:1000F00040494E363A23360A4043313A4F70746FC6
:1001000067656E65746963204C6173657220506128
:10011000747465726E0A40433153313A41637469B5
:1001200076653A203230487A2D356D7320316D690D
:100130006E0A40433153323A52657374696E673ABE
:1001400020342D356D696E0A00000000002500285E
:10015000002B0000000000240027002A00040404F3
:100160000404040404020202020202030303030360
:10017000030102040810204080010204081020013D
:10018000020408102000FA0611241FBECFEFD8E0A9
:10019000DEBFCDBF11E0A0E0B1E0EEEEF0E202C0C4
:1001A00005900D92A83CB107D9F723E0A8ECB1E087
:1001B00001C01D92AF33B207E1F710E0C4ECD0E00C
:1001C00004C02197FE010E94380FC33CD107C9F734
:1001D0000E94BC070C9475100C940000089580E0F8
:1001E000089590E080E0089590E080E0089560E058
:1001F00070E0CB01089590E0FC01EF58FE4F249190
:10020000835A9E4FFC018491882399F090E0880FD7
:10021000991FFC01ED5AFE4FA591B491FC01E75BDB
:10022000FE4F859194918FB7F894EC91E22BEC936B
:100230008FBF089560E070E080E792E4089581E068
:1002400090E008958091060290910702089585E05C
:1002500090E008958091FE019091FF0108958091B2
:100260000402909105020895AF92BF92CF92DF925F
:10027000EF92FF920F931F93CF93DF936C017B015B
:100280008B01040F151FEB015E01AE18BF08C017EC
:10029000D10759F06991D601ED91FC910190F0815F
:1002A000E02DC6010995892B79F7C501DF91CF9122
:1002B0001F910F91FF90EF90DF90CF90BF90AF9084
:1002C0000895FC01538D448D252F30E0842F90E05C
:1002D000821B930B541710F0CF9608950197089541
:1002E000FC01918D828D981761F0A28DAE0FBF2F0A
:1002F000B11D5D968C91928D9F5F9F73928F90E060
:1003000008958FEF9FEF0895FC01918D828D9817CE
:1003100031F0828DE80FF11D858D90E008958FEF0B
:100320009FEF0895FC01918D228D892F90E0805CD4
:100330009F4F821B91098F73992708958EE392E056
:100340000E94920121E0892B09F420E0822F089578
:1003500080E090E0892B29F00E949E0181110C948D
:1003600000000895FC01A48DA80FB92FB11DA35A58
:10037000BF4F2C91848D90E001968F739927848FC5
:10038000A689B7892C93A089B1898C9183708064E8
:100390008C93938D848D981306C00288F389E02D89
:1003A00080818F7D80830895EF92FF920F931F933A
:1003B000CF93DF93EC0181E0888F9B8D8C8D981318
:1003C0001AC0E889F989808185FF15C09FB7F89424
:1003D000EE89FF896083E889F98980818370806470
:1003E00080839FBF81E090E0DF91CF911F910F91BB
:1003F000FF90EF900895F62E0B8D10E00F5F1F4FCA
:100400000F731127E02E8C8D8E110CC00FB607FCD8
:10041000FACFE889F989808185FFF5CFCE010E9466
:10042000B201F1CFEB8DEC0FFD2FF11DE35AFF4F21
:10043000F0829FB7F8940B8FEA89FB8980818062F4
:10044000CFCFCF93DF93EC01888D8823B9F0AA89B1
:10045000BB89E889F9898C9185FD03C0808186FD7F
:100460000DC00FB607FCF7CF8C9185FFF2CF8081CE
:1004700085FFEDCFCE010E94B201E9CFDF91CF9190
:10048000089590E0FC01E859FF4F2491FC01EF58DA
:10049000FE4F3491FC01E35AFE4FE491EE23C9F084
:1004A000222339F0233001F1A8F4213019F1223050
:1004B00029F1F0E0EE0FFF1FE75BFE4FA591B4912D
:1004C0008FB7F894EC91611126C030953E233C9390
:1004D0008FBF08952730A9F02830C9F0243049F79C
:1004E000809180008F7D03C0809180008F77809302
:1004F0008000DFCF84B58F7784BDDBCF84B58F7D5F
:10050000FBCF8091B0008F778093B000D2CF8091E5
:10051000B0008F7DF9CF3E2BDACF2FB7F8946091E2
:10052000FA017091FB018091FC019091FD012FBFB8
:100530000895CF92DF92EF92FF92CF93DF93EC0179
:10054000EB81FC8109956B017C0120E030E0A90181
:100550000E94670D181644F08FE6C82E82E1D82E4F
:1005600083E8E82E8AE3F82E20E030E04AE754E4FE
:10057000C701B6010E94BF0E0E94DE0D688B798B09
:100580008A8B9B8B1E8281E08A83DF91CF91FF90C3
:10059000EF90DF90CF900895FC0101900020E9F7E3
:1005A0003197AF01481B590BBC018EE392E00C94CC
:1005B0003401009711F00C94CC0290E080E0089593
:1005C000CF93DF930E94CC02EC0182E891E00E947D
:1005D000CC028C0F9D1FDF91CF9108950F931F9335
:1005E000CF93DF93CDB7DEB72A970FB6F894DEBF6F
:1005F0000FBECDBF8B011982BC01CE0101960E94B6
:1006000063104AE0BE01685F7F4FC8010E94AD0CD5
:10061000BC01CE0101960E94631063E871E0CE0137
:1006200001960E946310CE0101960E94D9022A967B
:100630000FB6F894DEBF0FBECDBFDF91CF911F91F3
:100640000F9108952F923F924F925F926F927F92F7
:100650008F929F92AF92BF92CF92DF92EF92FF92D2
:100660000F931F93CF93DF93CDB7DEB7E3970FB60A
:10067000F894DEBF0FBECDBF1B0129013A0167010F
:100680008090360290903702A0903802B0903902E4
:100690001982BC01CE0101960E9463104AE0BE019E
:1006A000675D7F4FC1010E94AD0CBC01CE01019678
:1006B0000E94631065E871E0CE0101960E9463100C
:1006C000C301B201681979098A099B092AE0AE01C0
:1006D000475D5F4F0E94B80CBC01CE0101960E949D
:1006E000631067E871E0CE0101960E946310C801B3
:1006F000B60164197509860997092AE0AE01475DBC
:100700005F4F0E94B80CBC01CE0101960E9463109D
:1007100063E871E0CE0101960E946310CE0101965C
:100720000E94D902E3960FB6F894DEBF0FBECDBF8C
:10073000DF91CF911F910F91FF90EF90DF90CF90BD
:10074000BF90AF909F908F907F906F905F904F90F1
:100750003F902F9008958F929F92AF92BF92CF9229
:10076000DF92EF92FF920F931F93CF93DF9300D00E
:1007700000D0CDB7DEB78C01B62E80918B01909161
:100780008C01A0918D01B0918E0189839A83AB83F6
:10079000BC83809101018823A9F1109201018CE1B1
:1007A00090E00E943E0F982EA92E8093F70190931F
:1007B000F8018EE090E00E943E0F6C018093F501FD
:1007C000D092F6018093F301D092F40188E390E097
:1007D0000E943E0F9093F2018093F10188E390E034
:1007E0000E943E0F9093F0018093EF01D601E92D16
:1007F000FA2D90E080E01D928193919301968E30C6
:100800009105C9F7F801E85EFE4F8081882389F1E0
:10081000C090F501D090F601C00ED11ED6018C918A
:10082000811138C0BB2029F1C801880F991F880F9A
:10083000991FA090F101B090F201A80EB91E0E947C
:100840008D02F501608371838283938381E0D601F9
:100850008C93000F111FE091F701F091F801E00F68
:10086000F11F608171816150710989E891E00E94F6
:10087000EE020F900F900F900F90DF91CF911F918C
:100880000F91FF90EF90DF90CF90BF90AF909F902F
:100890008F900895B110EDCF4801880C991C880CF9
:1008A000991CA090EF01B090F001A80CB91C0E9417
:1008B0008D02F5016083718382839383D6011C923C
:1008C000E091F101F091F201E80DF91D20813181F3
:1008D00042815381000F111FE091F701F091F8015F
:1008E0000E0F1F1FD801ED91FC9131977B018C01F8
:1008F000BF01CE0101960E942203BBCF60E08CE0D5
:100900000E94410260E08CE090E00E94AB0360E056
:100910008DE00E94410260E08DE090E00E94AB0318
:100920008FE891E00E94E002FFCF2F923F924F921A
:100930005F926F927F928F929F92AF92BF92CF926F
:10094000DF92EF92FF920F931F93CF93DF9300D02C
:1009500000D01F92CDB7DEB78091990190919A0196
:10096000A0919B0189839A83AB83809100018823A6
:1009700081F1109200018091360290913702A0918E
:100980003802B0913902E7EDF1E081939193A193A0
:10099000B19321E0EF3EF207C1F780910D02ECE048
:1009A000F1E0C12CD12C7601C39431E0E831F3079A
:1009B00071F090813296B701A60104C0440F551F13
:1009C000661F771F9A95D2F740958423EECF8093C8
:1009D0000D02D6B080910D02D8261091D601D11605
:1009E00009F442C00E948D021B012C0127EDA22EAA
:1009F00021E0B22E90E080E01D25E12FF0E0FD83A4
:100A0000EC836D2C712C4C01FFEF8F1A9F0A2C8107
:100A10003D81082E02C0359527950A94E2F720FF04
:100A20001AC0930102C0359527958A95E2F7F50122
:100A300020FF76C02082318242825382F401EE0F81
:100A4000FF1FE65FFE4F608171816F5F7F4F87E917
:100A500091E00E94EE02F4E0AF0EB11CC4018630BA
:100A6000910589F6D092D6018091D4019091D5015B
:100A70000196823391050CF493C01092D501109227
:100A8000D4018EE392E00E9492013C01912C812CD2
:100A9000C12CD12C7601C39411E0861497040CF07C
:100AA00083C08EE392E00E9470012091D2013091C8
:100AB000D301A9014F5F5F4F8A3019F08B3309F0E2
:100AC00066C048535E4FFA0110828091C8018E358E
:100AD00099F522303105E1F4A090C9018FEC8A0D1F
:100AE0008830B0F40A2C000CBB08FFE2AF1AB10842
:100AF000E091F301F091F401EA0DFB1D50805126C5
:100B0000652D8A2D0E944102652DC5010E94AB030F
:100B10001092D3011092D201FFEF8F1A9F0ABDCF1E
:100B2000208131814281538182017101B401CE0162
:100B300001960E9422038FCF863251F72230310571
:100B400039F78091C9019FEC980F983008F7082E6B
:100B5000000C990BC19790910D02B701A601082EC8
:100B600004C0440F551F661F771F0A94D2F7292F20
:100B700030E002C0359527958A95E2F720FD04C044
:100B8000492B40930D02C4CF40954923FACF2853F7
:100B90003E4FF90180835093D3014093D201BCCFE3
:100BA0009093D5018093D4010F900F900F900F90E8
:100BB0000F90DF91CF911F910F91FF90EF90DF90F9
:100BC000CF90BF90AF909F908F907F906F905F90ED
:100BD0004F903F902F9008950E94550C21E83FE4DC
:100BE00042E150E00E94040D71568B4D9F4F0E94D0
:100BF0000F0E20E030E44CE156E40E946C0D0895A5
:100C0000CF92DF92EF92FF921F93CF93DF93EC018D
:100C10006A017B018E8181110DC011E01E831F834B
:100C200061E08D810E9441028D8161E090E00E942F
:100C3000AB031A8388899989AA89BB89C816D90602
:100C4000EA06FB0698F060E08D810E9441028D81EA
:100C500060E090E00E94AB031A8280E0DF91CF91C8
:100C60001F91FF90EF90DF90CF90089528853985F0
:100C70004A855B85C701B6010E94360D21E0CC8410
:100C8000DD84EE84FF846C157D058E059F0508F0DC
:100C900020E09F81921751F02F83622F8D810E9457
:100CA00041028D816F8190E00E94AB0381E0D6CF3D
:100CB0001F920F920FB60F9211242F933F934F93D1
:100CC0005F936F937F938F939F93AF93BF93EF93B4
:100CD000FF938EE392E00E94B201FF91EF91BF91EA
:100CE000AF919F918F917F916F915F914F913F91C4
:100CF0002F910F900FBE0F901F9018951F920F927B
:100D00000FB60F9211242F938F939F93EF93FF931E
:100D1000E0914E02F0914F028081E0915402F091F7
:100D2000550282FD1BC09081809157028F5F8F73A7
:100D300020915802821741F0E0915702F0E0E25C06
:100D4000FD4F958F80935702FF91EF919F918F9167
:100D50002F910F900FBE0F901F9018958081F4CFA8
:100D60001F920F920FB60F9211242F933F938F93E0
:100D70009F93AF93BF938091FA019091FB01A09153
:100D8000FC01B091FD013091F90123E0230F2D37D3
:100D900058F50196A11DB11D2093F9018093FA0128
:100DA0009093FB01A093FC01B093FD018091080298
:100DB00090910902A0910A02B0910B020196A11D27
:100DC000B11D8093080290930902A0930A02B09388
:100DD0000B02BF91AF919F918F913F912F910F90F7
:100DE0000FBE0F901F90189526E8230F0296A11DA5
:100DF000B11DD2CF5F926F927F928F929F92AF92EE
:100E0000BF92CF92DF92EF92FF920F931F93CF93F7
:100E1000DF93109241021092400288EE93E0A0E02E
:100E2000B0E08093420290934302A0934402B093B7
:100E3000450284E791E090933F0280933E0285EC67
:100E400090E090934B0280934A0284EC90E0909360
:100E50004D0280934C0280EC90E090934F0280937F
:100E60004E0281EC90E0909351028093500282EC0C
:100E700090E0909353028093520286EC90E090931E
:100E80005502809354021092570210925802109209
:100E9000590210925A02CBEDD2E055245394AA2461
:100EA000AA94BA2C9EEE892E90E0992E2FEEE22E77
:100EB00020E0F22E01EF10E034EFC32E30E0D32E0D
:100EC00047EF642E40E0742E0E948D026C837D8378
:100ED0008E839F83188619861A861B861C865D86DC
:100EE0005E8682E090E00E943E0F988B8F8782E0C2
:100EF00090E00E943E0F9A8B898B1F8A588E598EE4
:100F000082E090E00E943E0F9B8F8A8F81E090E00C
:100F10000E943E0F9D8F8C8FBB82AA821B8A1C8AE7
:100F2000198218829E8A8D8A9F8E8E8EF9A2E8A2DF
:100F30001BA30AA3DDA2CCA279A668A6FDA6ECA6F7
:100F40001FA30EA31BA70AA71FA70EA7E09683E067
:100F5000CB33D80709F0B8CFDF91CF911F910F9114
:100F6000FF90EF90DF90CF90BF90AF909F908F90C9
:100F70007F906F905F900895CF93DF93CDB7DEB7EA
:100F80002B970FB6F894DEBF0FBECDBF789484B513
:100F9000826084BD84B5816084BD85B5826085BD75
:100FA00085B5816085BD80916E00816080936E0003
:100FB00010928100809181008260809381008091F5
:100FC00081008160809381008091800081608093A6
:100FD00080008091B10084608093B1008091B00066
:100FE00081608093B00080917A00846080937A0061
:100FF00080917A00826080937A0080917A0081608B
:1010000080937A0080917A00806880937A001092B1
:10101000C100E0914E02F0914F0282E08083E091A6
:101020004A02F0914B021082E0914C02F0914D0285
:1010300087E0808310925602E0915202F0915302B1
:1010400086E08083E0915002F091510280818061BE
:101050008083E0915002F09151028081886080830A
:10106000E0915002F0915102808180688083E0918C
:101070005002F091510280818F7D80838CE991E054
:101080000E94E0020CE710E0F8016491662341F051
:101090008EE392E00E94D4010F5F1F4F892BA1F7CE
:1010A00082E00E94FB0083E00E94FB0084E00E943B
:1010B000FB0085E00E94FB0086E00E94FB0087E0C9
:1010C0000E94FB0088E00E94FB0089E00E94FB0078
:1010D00082E490E00E943E0F8C0166E271E00E9483
:1010E0006E10F80101900020E9F73197E01BF10B39
:1010F000D80190E080E0D12CC12CF12CE12C8E178E
:101100009F0761F02D912C3531F02F3221F02E32D6
:1011100019F46C0101C07C010196F1CFF801EC0DCE
:10112000FD1D108286EA91E00E94D9028CEA91E0CE
:10113000EC14FD0424F4C7010196800F911F0E9456
:10114000D90285EB91E00E94D9020115110519F031
:10115000C8010E94DA0F8BED92E0FF24F394F09225
:10116000EE02F092EF029093050280930402F09257
:101170001E0312E0E12EE0921F032BE033E03093D8
:1011800007022093060220913A0230913B023093ED
:10119000FF012093FE0130930302209302029093FB
:1011A00001028093000290933D0280933C0284E10F
:1011B00090E00E943E0F8C01DC011296FC92129787
:1011C0008AE191E014969C938E9313971596EC9276
:1011D00015978CE691E011969C938E9316961C922F
:1011E00082E390E0A0E0B0E0F80180879187A287D9
:1011F000B38785E090E0A0E0B0E084879587A6877C
:10120000B7877090F3028091F402E090F502F090BD
:10121000F602C090F702D090F802781241C0A2E026
:101220008A2E870C8092F402912CC401880F991F9A
:101230000E943E0F5C01C4010E943E0F982E892E31
:101240009701D501482E592EC601672D70E0AC01DB
:101250004C195D094617570768F4F90141915191FE
:101260009F014D935D93FC014191CF01F2014193A8
:101270002F01EDCFE114F10419F0C7010E94DA0F3C
:101280008091F7029091F802009711F00E94DA0F16
:10129000A092F502B092F6029092F7028092F802C4
:1012A0008091F302282F30E0A901440F551FA0912F
:1012B000F502B091F602A40FB51F0D931C93E091B7
:1012C000F702F091F802E20FF31F10828F5F809314
:1012D000F3028FE191E0909300038093FF0282E29A
:1012E00091E0909302038093010387E291E0909351
:1012F000300380932F038AE291E09093320380932E
:1013000031038CEE95E090933403809333038FE2A6
:1013100091E0909336038093350380E390E00E9440
:101320003E0F8C010E948D02D80114966D937D931F
:101330008D939C931797F801108611861286138659
:101340001486FF24F394F586F68682E090E00E94EE
:101350003E0FD80150969C938E931F9782E090E0A9
:101360000E943E0FF801928B818B178AF08EF18ECE
:1013700082E090E00E943E0FD8015B969C938E9392
:101380005A9781E090E00E943E0FF801958F848F7C
:101390008FEF9FEF93838283138A148A11821082C6
:1013A0008EEE90E0968B858B978F868F2FEE30E0B8
:1013B00031A320A381EF90E093A382A347EF50E0F5
:1013C00051A740A735A724A797A386A393A782A7D1
:1013D00097A786A710933B0200933A028EE794E00A
:1013E00095A384A38CE00E94FB008DE00E94FB008B
:1013F00060E08CE00E94410260E08CE090E00E949E
:10140000AB0360E08DE00E94410260E08DE090E07F
:101410000E94AB038EE392E00E949201892BD1F3EC
:101420008EE392E00E9470018236910599F78EE377
:1014300092E00E949201892B29F08EE392E00E94B3
:101440007001F5CF3FB7F89480910802909109029E
:10145000A0910A02B0910B0226B5A89B05C02F3FB0
:1014600019F00196A11DB11D3FBFBA2FA92F982FCA
:101470008827BC01CD01620F711D811D911DE2E025
:10148000660F771F881F991FEA95D1F761157105BF
:101490008105910511F00E94A40C8CEB91E00E9453
:1014A000E0020E948D0260933602709337028093AF
:1014B00038029093390261E08CE00E94410261E0C1
:1014C0008CE090E00E94AB0361E08DE00E9441025D
:1014D00061E08DE090E00E94AB0360E0E62E60E00A
:1014E000F62E00913C0210913D0280913A029091BB
:1014F0003B020115110509F4ADC00E948D02D8010F
:1015000014966D937D938D939C9317975596ED91BB
:10151000FC910995D8015E96ED91FC910995F80131
:101520008789608D462F4150550B8417150609F0A9
:10153000A1C0178A812C912C5401712CF801878944
:10154000608D462F4150550B8417150609F0A9C030
:10155000178A0E948D02D80114968D909D90AD90AF
:10156000BC9017979B01AC01281939094A095B09FE
:1015700049015A010E9495047110DFCFD8011496D9
:101580004D905D906D907C9017975496CC905497A9
:10159000D12C5396AC90B12C10920E0263EC71E0FA
:1015A0008EE092E00E9463104AE0BE016F5F7F4FC1
:1015B000C5010E94AD0CBC018EE092E00E94631058
:1015C00065EC71E08EE092E00E9463104AE0BE019B
:1015D0006F5F7F4FC6010E94AD0CBC018EE092E0B0
:1015E0000E94631065E871E08EE092E00E94631053
:1015F0008091360290913702A0913802B091390261
:10160000A3019201281B390B4A0B5B0BCA01B901DC
:101610002AE0AE014F5F5F4F0E94B80CBC018EE024
:1016200092E00E94631063E871E08EE092E00E9415
:1016300063108EE092E00E94D902D8019096ED915D
:10164000FC910995882309F44FC0D8019296ED9139
:10165000FC91099590933D0280933C02E114F104C2
:1016600009F43FCF0E949E01882309F43ACF0E94DB
:10167000000037CF8F5F0E942C0F978B892F90E04F
:10168000880F991F228D338D820F931FFC0180815B
:101690009181DC01ED91FC910280F381E02D0995AF
:1016A0003ECF8F5F0E942C0F978B892F90E0880F81
:1016B000991F228D338D820F931FFC01C080D18032
:1016C000D60112968C911297882349F0ED91FC91E6
:1016D0000190F081E02DB501A401C60109957110BA
:1016E0002DCFF60172802ACFF80182819381019675
:1016F00041F4D8019496ED91FC910995F8019383FA
:101700008283D8018D919C911197019611969C939B
:101710008E9312962D913C9113972115310581F0EE
:101720008217930769F49496ED91FC910995F8015D
:10173000938382831182108206A0F7A1E02D89CFC6
:10174000D8019896ED91FC91099520E030E04AE7A8
:1017500054E40E94BF0E0E94DE0DF801608771877D
:1017600082879387F80180859185A285B385892B2F
:101770008A2B8B2BE1F00E948D02D80114968D905C
:101780009D90AD90BC901797681979098A099B09BB
:1017900018968D909D90AD90BC901B97681579051B
:1017A0008A059B0520F09A96ED91FC9152CF96B157
:1017B00080910D02892780930C02F801848565854C
:1017C000462F4150550B8417150621F414860E94AC
:1017D0009504C8CF8F5F0E942C0F9487892F90E0CB
:1017E000880F991F27853089820F931FDC01ED91A7
:1017F000FC910995882309F3F801848590E0880F0E
:10180000991F21893289820F931FDC01ED91FC9190
:1018100020CF8F929F92AF92BF92CF92DF92EF92A2
:10182000FF92CF93DF93EC01688179818A819B815C
:10183000611571058105910521F464E279ED8BE56F
:1018400097E02DE133EF41E050E00E94040D4901A3
:101850005A019B01AC01A7EAB1E40E94230D6B0180
:101860007C01ACEEB4EFA50194010E94310DC60ECF
:10187000D71EE81EF91EF7FE06C081E0C81AD1087F
:10188000E10880E8F80AC882D982EA82FB82C701AF
:10189000B6019F77DF91CF91FF90EF90DF90CF90CF
:1018A000BF90AF909F908F9008958F929F92AF922C
:1018B000BF92CF92DF92EF92FF92609102017091FE
:1018C0000301809104019091050161157105810565
:1018D000910521F464E279ED8BE597E02DE133EF9A
:1018E00041E050E00E94040D49015A019B01AC0106
:1018F000A7EAB1E40E94230D6B017C01ACEEB4EFCA
:10190000A50194010E94310DC60ED71EE81EF91ED6
:10191000F7FE06C081E0C81AD108E10880E8F80A9D
:10192000C0920201D0920301E0920401F0920501FD
:10193000C701B6019F77FF90EF90DF90CF90BF90E7
:10194000AF909F908F900895609302017093030170
:1019500080930401909305010895BB274A3031F428
:10196000992322F4BDE2909581959F4F0C94DB0C56
:10197000BB27FA01A62F6217710581059105330B6C
:1019800030FB66F0AA27660F771F881F991FAA1FD2
:10199000A21710F0A21B63953850A9F7A05DAA33D7
:1019A00008F0A95DA19336F7B111B1931082CA0175
:1019B0000C94F40CBB27FB015527AA27880F991F0D
:1019C000AA1FA41710F0A41B83955051B9F7A05D6E
:1019D000AA3308F0A95DA193009779F7B111B193EB
:1019E0001192CB010C94F40CDC01FC01672F719176
:1019F0007723E1F7329704C07C916D9370836291F5
:101A0000AE17BF07C8F30895052E97FB1EF4009488
:101A10000E941B0D57FD07D00E94360D07FC03D016
:101A20004EF40C941B0D50954095309521953F4FE9
:101A30004F4F5F4F089590958095709561957F4FBA
:101A40008F4F9F4F08950E94580DA59F900DB49FF2
:101A5000900DA49F800D911D11240895B7FF0C9443
:101A6000230D0E94230D821B930B0895A1E21A2ED1
:101A7000AA1BBB1BFD010DC0AA1FBB1FEE1FFF1F32
:101A8000A217B307E407F50720F0A21BB30BE40B82
:101A9000F50B661F771F881F991F1A9469F76095C9
:101AA0007095809590959B01AC01BD01CF01089583
:101AB000A29FB001B39FC001A39F700D811D11248F
:101AC000911DB29F700D811D1124911D08950E94DA
:101AD0004A0E08F481E008950E94800D0C94850E52
:101AE0000E947E0E58F00E94770E40F029F45F3F6E
:101AF00029F00C946E0E51110C94B90E0C94740EC6
:101B00000E94960E68F39923B1F3552391F3951B28
:101B1000550BBB27AA2762177307840738F09F5F0E
:101B20005F4F220F331F441FAA1FA9F335D00E2E7B
:101B30003AF0E0E832D091505040E695001CCAF7E8
:101B40002BD0FE2F29D0660F771F881FBB1F2617AB
:101B500037074807AB07B0E809F0BB0B802DBF0182
:101B6000FF2793585F4F3AF09E3F510578F00C9451
:101B70006E0E0C94B90E5F3FE4F3983ED4F3869555
:101B800077956795B795F7959F5FC9F7880F911D72
:101B90009695879597F90895E1E0660F771F881F5E
:101BA000BB1F621773078407BA0720F0621B730B11
:101BB000840BBA0BEE1F88F7E09508950E949E0EE5
:101BC00088F09F5798F0B92F9927B751B0F0E1F0FE
:101BD000660F771F881F991F1AF0BA95C9F714C0AE
:101BE000B13091F00E94B80EB1E008950C94B80E97
:101BF000672F782F8827B85F39F0B93FCCF38695E7
:101C000077956795B395D9F73EF490958095709543
:101C100061957F4F8F4F9F4F0895E89409C097FBC0
:101C20003EF490958095709561957F4F8F4F9F4FB3
:101C30009923A9F0F92F96E9BB279395F6958795F7
:101C400077956795B795F111F8CFFAF4BB0F11F4BA
:101C500060FF1BC06F5F7F4F8F4F9F4F16C0882361
:101C600011F096E911C0772321F09EE8872F762F97
:101C700005C0662371F096E8862F70E060E02AF0D8
:101C80009A95660F771F881FDAF7880F96958795C4
:101C900097F90895990F0008550FAA0BE0E8FEEF99
:101CA00016161706E807F907C0F012161306E40720
:101CB000F50798F0621B730B840B950B39F40A2619
:101CC00061F0232B242B252B21F408950A2609F4F7
:101CD000A140A6958FEF811D811D089597F99F67FB
:101CE00080E870E060E008959FEF80EC08950024A4
:101CF0000A941616170618060906089500240A9471
:101D000012161306140605060895092E0394000CF6
:101D100011F4882352F0BB0F40F4BF2B11F460FF85
:101D200004C06F5F7F4F8F4F9F4F089557FD9058AE
:101D3000440F551F59F05F3F71F04795880F97FB8F
:101D4000991F61F09F3F79F0879508951216130649
:101D50001406551FF2CF4695F1DF08C01616170678
:101D60001806991FF1CF86957105610508940895AD
:101D7000E894BB2766277727CB0197F908950E943F
:101D8000D20E0C94850E0E94770E38F00E947E0EC3
:101D900020F0952311F00C946E0E0C94740E112407
:101DA0000C94B90E0E94960E70F3959FC1F3950F97
:101DB00050E0551F629FF001729FBB27F00DB11DCF
:101DC000639FAA27F00DB11DAA1F649F6627B00D5F
:101DD000A11D661F829F2227B00DA11D621F739F48
:101DE000B00DA11D621F839FA00D611D221F749F56
:101DF0003327A00D611D231F849F600D211D822F9D
:101E0000762F6A2F11249F5750409AF0F1F08823C3
:101E10004AF0EE0FFF1FBB1F661F771F881F9150F0
:101E20005040A9F79E3F510580F00C946E0E0C9423
:101E3000B90E5F3FE4F3983ED4F3869577956795A6
:101E4000B795F795E7959F5FC1F7FE2B880F911D1A
:101E50009695879597F90895991B79E004C0991F85
:101E6000961708F0961B881F7A95C9F780950895F4
:101E7000EE0FFF1F0590F491E02D09940F931F932F
:101E8000CF93DF938230910510F482E090E0E091EF
:101E90003D03F0913E0330E020E0B0E0A0E0309759
:101EA00099F42115310509F44AC0281B390B243057
:101EB0003105D8F58A819B816115710589F1FB0196
:101EC00093838283FE0111C040815181028113817D
:101ED00048175907E0F04817590799F4109761F02F
:101EE00012960C93129713961C933296CF01DF91A2
:101EF000CF911F910F91089500933D0310933E03DE
:101F0000F4CF2115310551F04217530738F0A901DC
:101F1000DB019A01BD01DF01F801C1CFEF01F9CF6B
:101F200090933E0380933D03CDCFFE01E20FF31F5C
:101F3000819391932250310939832883D7CF2091FF
:101F40003B0330913C03232B41F420910801309155
:101F5000090130933C0320933B032091060130910B
:101F600007012115310541F42DB73EB740910A0113
:101F700050910B01241B350BE0913B03F0913C0386
:101F8000E217F307A0F42E1B3F0B2817390778F050
:101F9000AC014E5F5F4F2417350748F04E0F5F1FAF
:101FA00050933C0340933B03819391939FCFF0E088
:101FB000E0E09CCFCF93DF930097E9F0FC013297EC
:101FC00013821282A0913D03B0913E03ED0130E0F7
:101FD00020E01097A1F420813181820F931F20917E
:101FE0003B0330913C032817390709F061C0F09397
:101FF0003C03E0933B03DF91CF910895EA01CE17B4
:10200000DF07E8F54A815B819E0141155105B1F773
:10201000E901FB83EA8349915991C40FD51FEC175D
:10202000FD0761F4808191810296840F951FE9017B
:1020300099838883828193819B838A83F0E0E0E0A7
:1020400012968D919C9113970097B9F52D913C9123
:102050001197CD010296820F931F20913B0330917F
:102060003C032817390739F6309751F510923E0393
:1020700010923D03B0933C03A0933B03BCCFD383AA
:10208000C28340815181840F951FC817D90761F41D
:102090004E5F5F4F88819981480F591F518340835C
:1020A0008A819B81938382832115310509F0B0CF0A
:1020B000F0933E03E0933D039ECFFD01DC01C0CFD2
:1020C00013821282D7CFFB01DC010D900020E9F7CB
:1020D000119701900D920020E1F70895FB01DC01BA
:1020E00001900D920020E1F70895F894FFCF0101CF
:1020F0000100000000003F0380000000010002001A
:1021000003000400050000000101010101010101BB
:1021100001000000443A5C4769745F526573705C6B
:102120004172436F6E74726F6C5F67697468756239
:102130005F72656C656173655C7461736B5C4F7035
:10214000746F4C617365725C4F70746F4C61736532
:10215000722E696E6F0000000000000699020000F8
:102160000000D40134016101210292017001840157
:102170000D0A003A00200025004F555400417243DB
:102180002D656E64002400494E004172436F6E74E9
:10219000726F6C002D2D2D2D2D00556E7469746C91
:1021A0006564002D2D2D2D2D0A004172432D62678F
:0621B00000430053000093
:107E0000112484B714BE81FFF0D085E080938100F7
:107E100082E08093C00088E18093C10086E0809377
:107E2000C20080E18093C4008EE0C9D0259A86E02C
:107E300020E33CEF91E0309385002093840096BBD3
:107E4000B09BFECF1D9AA8958150A9F7CC24DD24C4
:107E500088248394B5E0AB2EA1E19A2EF3E0BF2EE7
:107E6000A2D0813461F49FD0082FAFD0023811F036
:107E7000013811F484E001C083E08DD089C08234E0
:107E800011F484E103C0853419F485E0A6D080C0E4
:107E9000853579F488D0E82EFF2485D0082F10E0AE
:107EA000102F00270E291F29000F111F8ED06801E7
:107EB0006FC0863521F484E090D080E0DECF843638
:107EC00009F040C070D06FD0082F6DD080E0C81688
:107ED00080E7D80618F4F601B7BEE895C0E0D1E017
:107EE00062D089930C17E1F7F0E0CF16F0E7DF06D8
:107EF00018F0F601B7BEE89568D007B600FCFDCFD4
:107F0000A601A0E0B1E02C9130E011968C91119780
:107F100090E0982F8827822B932B1296FA010C0160
:107F200087BEE89511244E5F5F4FF1E0A038BF0790
:107F300051F7F601A7BEE89507B600FCFDCF97BE46
:107F4000E89526C08437B1F42ED02DD0F82E2BD052
:107F50003CD0F601EF2C8F010F5F1F4F84911BD097
:107F6000EA94F801C1F70894C11CD11CFA94CF0C13
:107F7000D11C0EC0853739F428D08EE10CD085E9AC
:107F80000AD08FE07ACF813511F488E018D01DD067
:107F900080E101D065CF982F8091C00085FFFCCF94
:107FA0009093C60008958091C00087FFFCCF809118
:107FB000C00084FD01C0A8958091C6000895E0E648
:107FC000F0E098E1908380830895EDDF803219F02E
:107FD00088E0F5DFFFCF84E1DECF1F93182FE3DFCA
:107FE0001150E9F7F2DF1F91089580E0E8DFEE27F6
:047FF000FF270994CA
:027FFE00040479
:00000001FF
