:100000000C94C4000C94EC000C94EC000C94EC00E8
:100010000C94EC000C94EC000C94EC000C94EC00B0
:100020000C94EC000C94EC000C94EC000C94EC00A0
:100030000C94EC000C94EC000C94EC000C94EC0090
:100040000C947E050C94EC000C94EE050C94C80501
:100050000C94EC000C94EC000C94EC000C94EC0070
:100060000C94EC000C94EC00404F5554313A234C66
:10007000617365720A404F5554323A23320A404F39
:100080005554333A23330A404F5554343A23340AF3
:10009000404F5554353A23350A404F5554363A238C
:1000A000360A404F5554373A23370A404F55543893
:1000B0003A23380A40494E313A23310A40494E32F8
:1000C0003A23320A40494E333A23330A40494E34E8
:1000D0003A23340A40494E353A23350A40494E36D0
:1000E0003A23360A4043313A4F70746F67656E6544
:1000F000746963204C617365722050617474657219
:100100006E0A40433153313A4163746976653A204F
:100110003230487A2D356D7320316D696E0A404357
:100120003153323A52657374696E673A20342D3513
:100130006D696E0A0000000008000201000003045F
:10014000070000000000000000000000002500285B
:10015000002B0000000000240027002A00040404F3
:100160000404040404020202020202030303030360
:10017000030102040810204080010204081020013D
:10018000020408102000200611241FBECFEFD8E083
:10019000DEBFCDBF11E0A0E0B1E0E0EAFCE102C0CB
:1001A00005900D92A43AB107D9F723E0A4EAB1E093
:1001B00001C01D92A630B207E1F710E0C4ECD0E018
:1001C00004C02197FE010E94100DC33CD107C9F75E
:1001D0000E94C5060C944E0E0C940000089580E019
:1001E000089580E090E0089580E090E0089560E058
:1001F00070E0CB01089590E0FC01EF58FE4F249190
:10020000FC01E35AFE4F8491882399F090E0880F17
:10021000991FFC01ED5AFE4FA591B491FC01E75BDB
:10022000FE4F859194918FB7F894EC91E22BEC936B
:100230008FBF089590E0FC01EB5CFE4F2491FC0120
:10024000EF58FE4F3491FC01E35AFE4FE491EE2348
:1002500009F43CC0222339F1233091F038F42130E5
:10026000A9F0223001F584B58F7D12C0273091F0BE
:100270002830A1F02430B9F4809180008F7D03C034
:10028000809180008F77809380000DC084B58F7738
:1002900084BD09C08091B0008F7703C08091B00009
:1002A0008F7D8093B000F0E0EE0FFF1FE75BFE4F05
:1002B000A591B4919FB7F894611104C08C913095C9
:1002C000382302C0EC913E2B3C939FBF08953FB76B
:1002D000F8948091050290910602A0910702B091D6
:1002E000080226B5A89B05C02F3F19F00196A11D55
:1002F000B11D3FBFBA2FA92F982F8827820F911DBC
:10030000A11DB11DBC01CD0142E0660F771F881F02
:10031000991F4A95D1F708952FB7F894609101027B
:100320007091020280910302909104022FBF089500
:1003300081E090E008958091CE019091CF010895E1
:1003400085E090E008958091C6019091C7010895DD
:100350008091CC019091CD010895CF92DF92EF92E0
:10036000FF920F931F93CF93DF936C017A018B0160
:10037000C0E0D0E0CE15DF0581F0D8016D918D0190
:10038000D601ED91FC910190F081E02DC601099517
:10039000892B11F02196EECF7E01C701DF91CF911D
:1003A0001F910F91FF90EF90DF90CF9008950895E7
:1003B00080E090E00895FC01538D448D252F30E0BE
:1003C000842F90E0821B930B541710F0CF96089562
:1003D00001970895FC01918D828D981761F0828DAF
:1003E000DF01A80FB11D5D968C91928D9F5F9F7369
:1003F000928F90E008958FEF9FEF0895FC01918D0B
:10040000828D981731F0828DE80FF11D858D90E077
:1004100008958FEF9FEF0895FC01918D228D892F14
:1004200090E0805C9F4F821B91098F7399270895FC
:1004300089E092E00E940C0221E0892B09F420E07F
:10044000822F0895FC01848DDF01A80FB11DA35AEE
:10045000BF4F2C91848D90E001968F739927848FE4
:10046000A689B7892C93A089B1898C918370806407
:100470008C93938D848D981306C00288F389E02DA8
:1004800080818F7D80830895EF92FF920F931F9359
:10049000CF93DF93EC0181E0888F9B8D8C8D981337
:1004A00005C0E889F989808185FD26C0F62E0B8D6F
:1004B00010E00F5F1F4F0F731127E02E8C8DE81295
:1004C0000CC00FB607FCFACFE889F989808185FF57
:1004D000F5CFCE010E942202F1CF8B8DFE01E80FF5
:1004E000F11DE35AFF4FF0829FB7F8940B8FEA8912
:1004F000FB89808180620AC09FB7F894EE89FF89EA
:100500006083E889F98980818370806480839FBFDC
:1005100081E090E0DF91CF911F910F91FF90EF90DC
:100520000895CF93DF93EC01888D8823C9F0EA8981
:10053000FB89808185FD05C0A889B9898C9186FDDC
:100540000FC00FB607FCF5CF808185FFF2CFA889D9
:10055000B9898C9185FFEDCFCE010E942202E7CFB1
:10056000DF91CF91089580E090E0892B29F00E94DF
:10057000180281110C9400000895009769F0FC01A5
:1005800001900020E9F73197AF01481B590BBC01DE
:1005900089E092E00C94AD0180E090E00895CF9363
:1005A000DF930E94BD02EC0182E691E00E94BD0251
:1005B0008C0F9D1FDF91CF9108952F923F924F9204
:1005C0005F926F927F928F929F92AF92BF92CF92E3
:1005D000DF92EF92FF920F931F93CF93DF93CDB7EC
:1005E000DEB7E3970FB6F894DEBF0FBECDBF1B0199
:1005F00029013A01670178018090F8019090F90192
:10060000A090FA01B090FB011982BC01CE010196C5
:100610000E943C0E4AE0BE01675D7F4FC1010E940F
:10062000A60ABC01CE0101960E943C0E65E671E06F
:10063000CE0101960E943C0EC301B20168197909EE
:100640008A099B092AE0AE01475D5F4F0E94B10A0B
:10065000BC01CE0101960E943C0E67E671E0CE011E
:1006600001960E943C0EC701B601641975098609FE
:1006700097092AE0AE01475D5F4F0E94B10ABC01B5
:10068000CE0101960E943C0E63E671E0CE01019618
:100690000E943C0ECE0101960E94BD02E3960FB669
:1006A000F894DEBF0FBECDBFDF91CF911F910F91A8
:1006B000FF90EF90DF90CF90BF90AF909F908F9082
:1006C0007F906F905F904F903F902F9008952F9262
:1006D0003F924F925F926F927F928F929F92AF92D2
:1006E000BF92CF92DF92EF92FF920F931F93CF931F
:1006F000DF9300D000D0CDB7DEB780916901909133
:100700006A01A0916B0189839A83AB838091000178
:10071000882381F1109200018091F8019091F901F4
:10072000A091FA01B091FB01E6EAF1E08193919387
:10073000A193B19321E0EE3BF207C1F78091A501AF
:10074000ECE0F1E0812C912C5401839431E0E8310C
:10075000F30719F48093A5010DC090813296B5017D
:10076000A40104C0440F551F661F771F9A95D2F746
:10077000842BECCF86B18C83C090A401C8268091D5
:10078000A501C82209F43FC00E948C011B012C0165
:1007900086EAA82E81E0B82E80E090E0D12CEC8192
:1007A0006E2E712C9C012F5F3F4F49019601082E40
:1007B00002C0359527950A94E2F720FF1AC0F3018D
:1007C00002C0F595E7958A95E2F7CF01F50180FF24
:1007D00005C020823182428253820BC02081318148
:1007E0004281538182017101B401CE0101960E94C0
:1007F000DD02C401F4E0AF0EB11C8630910591F624
:100800002C812093A4010F900F900F900F90DF91F7
:10081000CF911F910F91FF90EF90DF90CF90BF90FD
:10082000AF909F908F907F906F905F904F903F9090
:100830002F900895CF93DF93EC011982188281E005
:1008400090E09B838A839D838C8382E090E00E946A
:10085000160D9F838E8382E090E00E94160D99878B
:100860008887DF91CF9108958F929F92AF92BF9228
:10087000CF92DF92EF92FF920F931F93CF93DF936C
:1008800000D000D0CDB7DEB78C01B62E80916C01C0
:1008900090916D01A0916E01B0916F0189839A834F
:1008A000AB83BC8380910101811107C0F801E85E30
:1008B000FE4F8081811133C088C0109201018CE10C
:1008C00090E00E94160D6C018093C401D092C50186
:1008D0008EE090E00E94160D982EA92E8093C20102
:1008E0009093C30188E390E00E94160D9093C1019C
:1008F0008093C00188E390E00E94160D9093BF01A1
:100900008093BE01A92DBA2DF60180E090E01D92E2
:100910008193919301968E309105C9F7C7CFC0900E
:10092000C201D090C301C00ED11EF6018081811199
:1009300018C0BB2009F449C0000F111F000F111F80
:100940008091C0019091C101080F191F0E948C0174
:10095000F801608371838283938381E0F601808351
:1009600034C0B11032C05801AA0CBB1CAA0CBB1C6D
:100970008090BE019090BF018A0C9B1C0E948C014C
:10098000F4016083718382839383F6011082209146
:10099000C0013091C101F901EA0DFB1D20813181B7
:1009A00042815381000F111FE091C401F091C501F4
:1009B000E00FF11F0190F081E02D31977B018C0158
:1009C000BF01CE0101960E94DD020F900F900F90A3
:1009D0000F90DF91CF911F910F91FF90EF90DF90DB
:1009E000CF90BF90AF909F908F9008954F925F925D
:1009F0006F927F928F929F92AF92BF92CF92DF922F
:100A0000EF92FF92CF930E9467016B017C0180E41B
:100A1000882E82E4982E8FE0A82EB12C90E5492EE6
:100A200093EC592E612C712C0E9467016C197D0981
:100A30008E099F09611527E8720723E9820723E0E1
:100A40009207C8F4A50194010E942F0BA301920103
:100A50000E942F0BC1E0683873418105910508F0B1
:100A6000C0E06C2F82E00E941A016C2F82E090E0BF
:100A70000E943404D9CF60E082E00E941A0160E055
:100A800082E090E0CF91FF90EF90DF90CF90BF9009
:100A9000AF909F908F907F906F905F904F900C944D
:100AA000340460E08CE00E941A0160E08CE090E089
:100AB0000E94340460E08DE00E941A0160E08DE045
:100AC00090E00E94340480E791E00E94CF02FFCFC3
:100AD0000E94370E0E944F0A21E83FE442E150E0B5
:100AE0000E94FD0A71568B4D9F4F0E94030C20E01F
:100AF00030E44CE156E40E94600B08951F920F927F
:100B00000FB60F9211242F933F938F939F93AF9320
:100B1000BF938091010290910202A0910302B091D3
:100B200004023091000223E0230F2D3720F40196B8
:100B3000A11DB11D05C026E8230F0296A11DB11D00
:100B4000209300028093010290930202A09303027B
:100B5000B09304028091050290910602A0910702D1
:100B6000B09108020196A11DB11D809305029093DA
:100B70000602A0930702B0930802BF91AF919F9124
:100B80008F913F912F910F900FBE0F901F9018954E
:100B90001F920F920FB60F9211242F933F934F93F2
:100BA0005F936F937F938F939F93AF93BF93EF93D5
:100BB000FF9389E092E00E942202FF91EF91BF91A2
:100BC000AF919F918F917F916F915F914F913F91E5
:100BD0002F910F900FBE0F901F9018951F920F929C
:100BE0000FB60F9211242F938F939F93EF93FF9340
:100BF000E0911902F0911A028081E0911F02F091B8
:100C0000200282FD12C09081809122028F5F8F733B
:100C100020912302821751F0E0912202F0E0E75F79
:100C2000FD4F958F8093220201C08081FF91EF914B
:100C30009F918F912F910F900FBE0F901F9018953D
:100C40006F927F928F929F92AF92BF92CF92DF92DC
:100C5000EF92FF920F931F93CF93DF9310920C02AA
:100C600010920B0288EE93E0A0E0B0E080930D02BA
:100C700090930E02A0930F02B093100284E591E0CE
:100C800090930A028093090285EC90E090931602FB
:100C90008093150284EC90E09093180280931702E1
:100CA00080EC90E090931A028093190281EC90E01E
:100CB00090931C0280931B0282EC90E090931E02A2
:100CC00080931D0286EC90E09093200280931F0297
:100CD00010922202109223021092240210922502F6
:100CE000C6EAD2E0AA24AA94BA2C9EEE892E90E0FD
:100CF000992E2FEEE22E20E0F22E01EF10E034EFDD
:100D0000C32E30E0D32E47EF642E40E0742E0E94B5
:100D10008C016C837D838E839F83188619861A8647
:100D20001B86CE010C960E941A04BB82AA821F8ADF
:100D30001E8A198E188E198218829B8E8A8E9D8E1D
:100D40008C8EFF8EEE8E19A308A3DBA2CAA27FA20F
:100D50006EA2FBA6EAA61DA30CA319A708A71DA7B0
:100D60000CA7AE9683E0C230D80789F6DF91CF9109
:100D70001F910F91FF90EF90DF90CF90BF90AF90B9
:100D80009F908F907F906F900895CF93DF93CDB712
:100D9000DEB72B970FB6F894DEBF0FBECDBF7894A9
:100DA00084B5826084BD84B5816084BD85B5826070
:100DB00085BD85B5816085BD80916E008160809321
:100DC0006E0010928100809181008260809381008A
:100DD000809181008160809381008091800081609A
:100DE000809380008091B10084608093B1008091F5
:100DF000B00081608093B00080917A00846080931D
:100E00007A0080917A00826080937A0080917A00E3
:100E1000816080937A0080917A00806880937A0064
:100E20001092C100E0911902F0911A0282E08083D1
:100E3000E0911502F09116021082E0911702F091F4
:100E4000180287E0808310922102E0911D02F09148
:100E50001E0286E08083E0911B02F0911C028081DB
:100E600080618083E0911B02F0911C028081886088
:100E70008083E0911B02F0911C0280818068808356
:100E8000E0911B02F0911C0280818F7D808388E7B6
:100E900091E00E94CF0208E610E0F8016491611130
:100EA00030C082E00E94FB0083E00E94FB0084E0EF
:100EB0000E94FB0085E00E94FB0086E00E94FB0090
:100EC00087E00E94FB0088E00E94FB0089E00E940E
:100ED000FB008AE290E00E94160D8C0166E271E050
:100EE0000E94470EF80101900020E9F73197E01BBE
:100EF000F10BD80180E090E0C12CD12CE12CF12C39
:100F000012C089E092E00E9444020F5F1F4F892BBC
:100F100021F6C7CF2D912C3551F02F3241F02E32D2
:100F200009F46C0101968E179F07A1F702C07C019E
:100F3000F9CFF801EC0DFD1D108282E891E00E94CE
:100F4000BD02EC14FD041CF088E891E004C0C70168
:100F50000196800F911F0E94BD0281E991E00E94DD
:100F6000BD020115110519F0C8010E94AE0D86EAF7
:100F700092E021E030E03093BD022093BC02309338
:100F8000BF022093BE029093CD018093CC01309399
:100F9000EB022093EA0222E030E03093ED0220934E
:100FA000EC0224ED32E03093CF012093CE0120916A
:100FB000FC013091FD013093C7012093C6013093AD
:100FC000CB012093CA019093C9018093C8019093EB
:100FD000FF018093FE0186EF94E09093C30280931B
:100FE000C20288E991E09093C9028093C8028BE91C
:100FF00091E09093CB028093CA0280EA91E09093B3
:10100000F7028093F60283EA91E09093F9028093CD
:10101000F8028AE695E09093FB028093FA0288EA50
:1010200091E09093FD028093FC028EE290E00E949A
:10103000160D8C010E948C01D80114966D937D933E
:101040008D939C931797F80110861186128613864C
:10105000C8010C960E941A048FEF9FEFD8011396D7
:101060009C938E93129757961C921E925697599660
:101070001C921E92589711961C921E928EEE90E032
:101080005B969C938E935A975D969C938E935C97F8
:101090002FEE30E05F963C932E935E9781EF90E0C9
:1010A00091969C938E93909747EF50E097965C9320
:1010B0004E9396979B963C932E939A9795969C93D6
:1010C0008E93949799969C938E9398979D969C93C4
:1010D0008E939C971093FD010093FC0181E595E0B0
:1010E00093969C938E9392978CE00E94FB008DE0E8
:1010F0000E94FB0060E08CE00E941A0160E08CE03E
:1011000090E00E94340460E08DE00E941A0160E0EB
:101110008DE090E00E94340489E092E00E940C028D
:10112000892BD1F389E092E00E94EA018236910591
:1011300099F789E092E00E940C02892B29F089E05E
:1011400092E00E94EA01F5CF0E94670161157105E6
:101150008105910511F00E949D0A88E991E00E94A5
:10116000CF020E948C016093F8017093F901809383
:10117000FA019093FB0161E08CE00E941A0161E0AA
:101180008CE090E00E94340461E08DE00E941A013E
:1011900061E08DE090E00E9434040091FE01109126
:1011A000FF010115110509F41FC1D8019696ED91B3
:1011B000FC919797099520E030E04AE754E40E94BB
:1011C0008F0C0E94D20BF80160877187828793870A
:1011D0000E948C01D80114966D937D938D939C93FE
:1011E00017975A96ED91FC915B970995D8015C96FB
:1011F000ED91FC915D970995F801C480D580E6805A
:10120000F7801092D0016FE971E080ED91E00E94CB
:101210003C0E4AE0BE016F5F7F4FD80156968D911C
:101220009C9157970E94A60ABC0180ED91E00E9414
:101230003C0E61EA71E080ED91E00E943C0E4AE0D4
:10124000BE016F5F7F4FF801808D918D0E94A60ACD
:10125000BC0180ED91E00E943C0E65E671E080EDFE
:1012600091E00E943C0E8091F8019091F901A091CB
:10127000FA01B091FB01A7019601281B390B4A0B1B
:101280005B0BCA01B9012AE0AE014F5F5F4F0E94BC
:10129000B10ABC0180ED91E00E943C0E63E671E072
:1012A00080ED91E00E943C0E80ED91E00E94BD0235
:1012B0000E946703D8015E96ED91FC915F970995B6
:1012C000882331F0D8019096ED91FC9191979AC0C6
:1012D000F80182819381019649F4D8019296ED91AB
:1012E000FC9193970995F80193838283D8018D919E
:1012F0009C911197019611969C938E9312962D9125
:101300003C9113972115310509F440C082179307CA
:10131000E9F59296ED91FC9193970995F8019383E5
:1013200082831182108204A0F5A1E02D6BC00E947F
:101330008C01D8011496CD90DD90ED90FC9017971C
:10134000DC01CB018C199D09AE09BF09F801C084ED
:10135000D184E284F3848C159D05AE05BF0508F0A9
:101360004EC0D8011C968D919C911D971E966D9133
:101370007C911F979B01215031098217930781F4BB
:101380001D961C921E921C970E946703F80180858F
:101390009185A285B385892B8A2B8B2B11F3C7CF1F
:1013A00001960E94FC0CF80195878487880F991F8D
:1013B0000288F389E02DE80FF91F0190F081E02DFC
:1013C0000995882371F2D8011C96ED91FC911D9727
:1013D000EE0FFF1F54968D919C915597E80FF91FC2
:1013E0000190F081E02D0EC08091FC019091FD01F3
:1013F0009093FF018093FE010E94B302CECE00A421
:10140000F1A5E02D0995F4CF8F929F92AF92BF92F4
:10141000CF92DF92EF92FF92CF93DF93EC0168813E
:1014200079818A819B81611571058105910521F47E
:1014300064E279ED8BE597E02DE133EF41E050E098
:101440000E94FD0A49015A019B01AC01A7EAB1E4DF
:101450000E941C0B6B017C01ACEEB4EFA501940162
:101460000E942A0BDC01CB018C0D9D1DAE1DBF1D02
:10147000B7FF03C00197A109B04888839983AA8365
:10148000BB83BC01CD019F77DF91CF91FF90EF909F
:10149000DF90CF90BF90AF909F908F9008958F92E4
:1014A0009F92AF92BF92CF92DF92EF92FF926091A4
:1014B0000201709103018091040190910501611571
:1014C00071058105910521F464E279ED8BE597E0E2
:1014D0002DE133EF41E050E00E94FD0A49015A013D
:1014E0009B01AC01A7EAB1E40E941C0B6B017C01DB
:1014F000ACEEB4EFA50194010E942A0BDC01CB01F4
:101500008C0D9D1DAE1DBF1DB7FF03C00197A10926
:10151000B0488093020190930301A0930401B0931B
:101520000501BC01CD019F77FF90EF90DF90CF9038
:10153000BF90AF909F908F90089560930201709339
:10154000030180930401909305010895BB274A305D
:1015500031F4992322F4BDE2909581959F4F0C942C
:10156000D40ABB27FA01A62F6217710581059105E0
:10157000330B30FB66F0AA27660F771F881F991F71
:10158000AA1FA21710F0A21B63953850A9F7A05DFF
:10159000AA3308F0A95DA19336F7B111B193108277
:1015A000CA010C94ED0ABB27FB015527AA27880F17
:1015B000991FAA1FA41710F0A41B83955051B9F7C7
:1015C000A05DAA3308F0A95DA193009779F7B11146
:1015D000B1931192CB010C94ED0ADC01FC01672F51
:1015E00071917723E1F7329704C07C916D937083FA
:1015F0006291AE17BF07C8F30895052E97FB1EF43E
:1016000000940E94140B57FD07D00E942F0B07FC7B
:1016100003D04EF40C94140B5095409530952195C1
:101620003F4F4F4F5F4F089590958095709561950E
:101630007F4F8F4F9F4F08950E94510BA59F900D94
:10164000B49F900DA49F800D911D11240895B7FFA4
:101650000C941C0B0E941C0B821B930B0895A1E29F
:101660001A2EAA1BBB1BFD010DC0AA1FBB1FEE1F1C
:10167000FF1FA217B307E407F50720F0A21BB30B67
:10168000E40BF50B661F771F881F991F1A9469F7E3
:1016900060957095809590959B01AC01BD01CF013F
:1016A0000895A29FB001B39FC001A39F700D811D3B
:1016B0001124911DB29F700D811D1124911D08955B
:1016C0000E94740B0C94550C0E944E0C58F00E9412
:1016D000470C40F029F45F3F29F00C943E0C511167
:1016E0000C94890C0C94440C0E94660C68F39923AA
:1016F000B1F3552391F3951B550BBB27AA2762170E
:101700007307840738F09F5F5F4F220F331F441F1A
:10171000AA1FA9F335D00E2E3AF0E0E832D091504E
:101720005040E695001CCAF72BD0FE2F29D0660F3B
:10173000771F881FBB1F261737074807AB07B0E87E
:1017400009F0BB0B802DBF01FF2793585F4F3AF084
:101750009E3F510578F00C943E0C0C94890C5F3F31
:10176000E4F3983ED4F3869577956795B795F7950A
:101770009F5FC9F7880F911D9695879597F90895F2
:10178000E1E0660F771F881FBB1F6217730784078E
:10179000BA0720F0621B730B840BBA0BEE1F88F79D
:1017A000E09508950E946E0C88F09F5798F0B92F2D
:1017B0009927B751B0F0E1F0660F771F881F991F86
:1017C0001AF0BA95C9F714C0B13091F00E94880C94
:1017D000B1E008950C94880C672F782F8827B85FA4
:1017E00039F0B93FCCF3869577956795B395D9F7DE
:1017F0003EF490958095709561957F4F8F4F9F4FE8
:101800000895E89409C097FB3EF4909580957095F3
:1018100061957F4F8F4F9F4F9923A9F0F92F96E93C
:10182000BB279395F695879577956795B795F111B1
:10183000F8CFFAF4BB0F11F460FF1BC06F5F7F4F4E
:101840008F4F9F4F16C0882311F096E911C0772360
:1018500021F09EE8872F762F05C0662371F096E869
:10186000862F70E060E02AF09A95660F771F881F38
:10187000DAF7880F9695879597F9089597F99F67F6
:1018800080E870E060E008959FEF80EC0895002408
:101890000A941616170618060906089500240A94D5
:1018A00012161306140605060895092E0394000C5B
:1018B00011F4882352F0BB0F40F4BF2B11F460FFEA
:1018C00004C06F5F7F4F8F4F9F4F089557FD905813
:1018D000440F551F59F05F3F71F04795880F97FBF4
:1018E000991F61F09F3F79F08795089512161306AE
:1018F0001406551FF2CF4695F1DF08C016161706DD
:101900001806991FF1CF8695710561050894089511
:10191000E894BB2766277727CB0197F908950E94A3
:10192000A20C0C94550C0E94470C38F00E944E0CEF
:1019300020F0952311F00C943E0C0C94440C1124CF
:101940000C94890C0E94660C70F3959FC1F3950F5F
:1019500050E0551F629FF001729FBB27F00DB11D33
:10196000639FAA27F00DB11DAA1F649F6627B00DC3
:10197000A11D661F829F2227B00DA11D621F739FAC
:10198000B00DA11D621F839FA00D611D221F749FBA
:101990003327A00D611D231F849F600D211D822F01
:1019A000762F6A2F11249F5750409AF0F1F0882328
:1019B0004AF0EE0FFF1FBB1F661F771F881F915055
:1019C0005040A9F79E3F510580F00C943E0C0C94BA
:1019D000890C5F3FE4F3983ED4F38695779567953D
:1019E000B795F795E7959F5FC1F7FE2B880F911D7F
:1019F0009695879597F90895AA1BBB1B51E107C0DF
:101A0000AA1FBB1FA617B70710F0A61BB70B881F8E
:101A1000991F5A95A9F780959095BC01CD0108951D
:101A2000EE0FFF1F0590F491E02D09940F931F9383
:101A3000CF93DF938230910510F482E090E0E09143
:101A40000403F091050320E030E0A0E0B0E030971F
:101A500019F1408151810281138148175907C8F05B
:101A60008417950769F4109731F012960C9312972A
:101A700013961C9327C0009304031093050322C000
:101A80002115310519F04217530718F49A01BD01C9
:101A9000EF01DF01F801DBCF21153105F9F0281B3B
:101AA000390B2430310580F48A819B8161157105E1
:101AB00021F0FB019383828304C0909305038093FC
:101AC0000403FE01329644C0FE01E20FF31F81932E
:101AD000919322503109398328833AC0209102031F
:101AE00030910303232B41F4209108013091090127
:101AF00030930303209302032091060130910701E4
:101B00002115310541F42DB73EB740910A0150919E
:101B10000B01241B350BE0910203F0910303E21744
:101B2000F307A0F42E1B3F0B2817390778F0AC0100
:101B30004E5F5F4F2417350748F04E0F5F1F5093DD
:101B40000303409302038193919302C0E0E0F0E02D
:101B5000CF01DF91CF911F910F910895CF93DF9324
:101B6000009709F481C0FC01329713821282A09180
:101B70000403B0910503109781F420813181820F15
:101B8000931F20910203309103032817390751F561
:101B9000F0930303E093020367C0ED0120E030E01F
:101BA000CE17DF0740F44A815B819E014115510544
:101BB000F1F0EA01F5CFD383C28340815181840FD4
:101BC000951FC817D90759F488819981840F951FEB
:101BD0000296918380838A819B81938382832115DE
:101BE000310529F4F0930503E09304033DC0E901B6
:101BF000FB83EA8349915991C40FD51FEC17FD0768
:101C000061F480819181840F951F0296E901998387
:101C10008883828193819B838A83E0E0F0E012963F
:101C20008D919C911397009719F0FD01DC01F7CF7E
:101C30008D919C9111979D012E5F3F4F820F931FB5
:101C400020910203309103032817390769F4309774
:101C500029F4109205031092040302C01382128229
:101C6000B0930303A0930203DF91CF91089581E025
:101C700090E0F8940C944E0EFB01DC010D900020D6
:101C8000E9F7119701900D920020E1F70895FB010B
:101C9000DC0101900D920020E1F70895F894FFCF48
:101CA00001010100000000000603800000000100A7
:101CB0000200030004000500000001010101010110
:101CC000010101000000463A5C4172436F6E74727C
:101CD0006F6C5C7461736B5C4F70746F4C61736597
:101CE000725C4F70746F4C617365722E696E6F0019
:101CF000000000004402AD01DB0191020C02EA0188
:101D0000FE010D0A003A002000494E004F555400D4
:101D10004172432D656E64004172436F6E74726F41
:101D20006C002D2D2D2D2D00556E7469746C65641D
:101D3000002D2D2D2D2D0A004172432D6267004389
:041D4000005300004C
:107E0000112484B714BE81FFF0D085E080938100F7
:107E100082E08093C00088E18093C10086E0809377
:107E2000C20080E18093C4008EE0C9D0259A86E02C
:107E300020E33CEF91E0309385002093840096BBD3
:107E4000B09BFECF1D9AA8958150A9F7CC24DD24C4
:107E500088248394B5E0AB2EA1E19A2EF3E0BF2EE7
:107E6000A2D0813461F49FD0082FAFD0023811F036
:107E7000013811F484E001C083E08DD089C08234E0
:107E800011F484E103C0853419F485E0A6D080C0E4
:107E9000853579F488D0E82EFF2485D0082F10E0AE
:107EA000102F00270E291F29000F111F8ED06801E7
:107EB0006FC0863521F484E090D080E0DECF843638
:107EC00009F040C070D06FD0082F6DD080E0C81688
:107ED00080E7D80618F4F601B7BEE895C0E0D1E017
:107EE00062D089930C17E1F7F0E0CF16F0E7DF06D8
:107EF00018F0F601B7BEE89568D007B600FCFDCFD4
:107F0000A601A0E0B1E02C9130E011968C91119780
:107F100090E0982F8827822B932B1296FA010C0160
:107F200087BEE89511244E5F5F4FF1E0A038BF0790
:107F300051F7F601A7BEE89507B600FCFDCF97BE46
:107F4000E89526C08437B1F42ED02DD0F82E2BD052
:107F50003CD0F601EF2C8F010F5F1F4F84911BD097
:107F6000EA94F801C1F70894C11CD11CFA94CF0C13
:107F7000D11C0EC0853739F428D08EE10CD085E9AC
:107F80000AD08FE07ACF813511F488E018D01DD067
:107F900080E101D065CF982F8091C00085FFFCCF94
:107FA0009093C60008958091C00087FFFCCF809118
:107FB000C00084FD01C0A8958091C6000895E0E648
:107FC000F0E098E1908380830895EDDF803219F02E
:107FD00088E0F5DFFFCF84E1DECF1F93182FE3DFCA
:107FE0001150E9F7F2DF1F91089580E0E8DFEE27F6
:047FF000FF270994CA
:027FFE00040479
:0400000300007E007B
:00000001FF
