:100000000C94C4000C94EC000C94EC000C94EC00E8
:100010000C94EC000C94EC000C94EC000C94EC00B0
:100020000C94EC000C94EC000C94EC000C94EC00A0
:100030000C94EC000C94EC000C94EC000C94EC0090
:100040000C9402070C94EC000C94D0060C94AA06B5
:100050000C94EC000C94EC000C94EC000C94EC0070
:100060000C94EC000C94EC0000000008000201006D
:10007000000304070000000000000000404F55543A
:10008000313A234C617365720A404F5554323A231A
:10009000320A404F5554333A23330A404F555434B3
:1000A0003A23340A404F5554353A23350A404F55C8
:1000B00054363A23360A404F5554373A23370A40CC
:1000C0004F5554383A23380A40494E313A23310AC1
:1000D00040494E323A23320A40494E333A23330ADA
:1000E00040494E343A23340A40494E353A23350AC2
:1000F00040494E363A23360A4043313A4F70746FC6
:1001000067656E65746963204C6173657220506128
:10011000747465726E0A40433153313A41637469B5
:1001200076653A203230487A2D356D7320316D690D
:100130006E0A40433153323A52657374696E673ABE
:1001400020342D356D696E0A00000000002500285E
:10015000002B0000000000240027002A00040404F3
:100160000404040404020202020202030303030360
:10017000030102040810204080010204081020013D
:100180000204081020004C0711241FBECFEFD8E056
:10019000DEBFCDBF23E0AAEBB1E001C01D92AF32BC
:1001A000B207E1F711E0A0E0B1E0E4EBFEE102C04C
:1001B00005900D92AA3BB107D9F710E0C4ECD0E04E
:1001C00004C02197FE010E945C0BC33CD107C9F714
:1001D0000E94FB070C94580F0C940000089580E0D7
:1001E000089580E090E0089580E090E0089560E058
:1001F00070E0CB01089590E0FC01EF58FE4F249190
:10020000FC01E35AFE4F8491882399F090E0880F17
:10021000991FFC01ED5AFE4FA591B491FC01E75BDB
:10022000FE4F859194918FB7F894EC91E22BEC936B
:100230008FBF089581E090E008958091FC01909136
:10024000FD01089585E090E008958091F40190917A
:10025000F50108958091FA019091FB010895CF92E4
:10026000DF92EF92FF920F931F93CF93DF936C0176
:100270007A018B01C0E0D0E0CE15DF0589F0D8010E
:100280006D918D01D601ED91FC910190F081E02DF1
:10029000C6010995892B11F47E0102C02196ECCF8D
:1002A000C701DF91CF911F910F91FF90EF90DF90E9
:1002B000CF900895FC01918D828D981761F0828D09
:1002C000DF01A80FB11D5D968C91928D9F5F9F738A
:1002D000928F90E008958FEF9FEF0895FC01918D2C
:1002E000828D981731F0828DE80FF11D858D90E099
:1002F00008958FEF9FEF0895FC01918D228D892F36
:1003000090E0805C9F4F821B91098F73992708951D
:1003100082E392E00E947C0121E0892B09F420E035
:10032000822F0895FC01848DDF01A80FB11DA35A0F
:10033000BF4F2C91848D90E001968F739927848F05
:10034000A689B7892C93A089B1898C9180648C93FC
:10035000938D848D981306C00288F389E02D8081E7
:100360008F7D80830895EF92FF920F931F93CF9319
:10037000DF93EC0181E0888F9B8D8C8D981305C0F5
:10038000E889F989808185FD24C0F62E0B8D10E067
:100390000F5F1F4F0F731127E02E8C8DE8120CC0DA
:1003A0000FB607FCFACFE889F989808185FFF5CF80
:1003B000CE010E949201F1CF8B8DFE01E80FF11D5D
:1003C000E35AFF4FF0820B8FEA89FB8980818062BC
:1003D00007C0EE89FF896083E889F989808180649C
:1003E000808381E090E0DF91CF911F910F91FF908A
:1003F000EF900895CF93DF93EC01888D8823C9F0A7
:10040000EA89FB89808185FD05C0A889B9898C911D
:1004100086FD0FC00FB607FCF5CF808185FFF2CFB8
:10042000A889B9898C9185FFEDCFCE010E949201F8
:10043000E7CFDF91CF91089580E090E0892B29F0FC
:100440000E94880181110C940000089590E0FC0145
:10045000E859FF4F3491FC01EF58FE4F2491FC0105
:10046000E35AFE4FE491EE2309F43BC0332339F104
:10047000333091F038F43130A9F0323001F584B5E1
:100480008F7D12C0373091F03830A1F03430B9F49C
:10049000809180008F7D03C0809180008F77809352
:1004A00080000DC084B58F7784BD09C08091B000F5
:1004B0008F7703C08091B0008F7D8093B000F0E013
:1004C000EE0FFF1FE75BFE4FA591B4918FB7F89435
:1004D000EC91611103C020952E2301C02E2B2C938B
:1004E0008FBF08953FB7F8948091F0019091F1018A
:1004F000A091F201B091F30126B5A89B05C02F3F52
:1005000019F00196A11DB11D3FBFBA2FA92F982F39
:100510008827820F911DA11DB11DBC01CD0142E0B4
:10052000660F771F881F991F4A95D1F708952FB737
:10053000F8946091EC017091ED018091EE01909141
:10054000EF012FBF0895009769F0FC010190002092
:10055000E9F73197AF01481B590BBC0182E392E0E8
:100560000C942F0180E090E00895CF93DF930E94D8
:10057000A302EC018CE791E00E94A3028C0F9D1F67
:10058000DF91CF9108950F931F93CF93DF93CDB752
:10059000DEB72A970FB6F894DEBF0FBECDBF8B0132
:1005A0001982BC01CE0101960E94300E4AE0BE01C4
:1005B000685F7F4FC8010E949E0EBC01CE0101966C
:1005C0000E94300E6DE771E0CE0101960E94300E60
:1005D000CE0101960E94A3022A960FB6F894DEBFC0
:1005E0000FBECDBFDF91CF911F910F9108952F9234
:1005F0003F924F925F926F927F928F929F92AF92B3
:10060000BF92CF92DF92EF92FF920F931F93CF93FF
:10061000DF93CDB7DEB7E3970FB6F894DEBF0FBE1A
:10062000CDBF1B0129013A016701780180902A02A0
:1006300090902B02A0902C02B0902D021982BC0148
:10064000CE0101960E94300E4AE0BE01675D7F4FE9
:10065000C1010E949E0EBC01CE0101960E94300E87
:100660006FE771E0CE0101960E94300EC301B20126
:10067000681979098A099B092AE0AE01475D5F4F35
:100680000E94A90EBC01CE0101960E94300E61E8C5
:1006900071E0CE0101960E94300EC701B6016419C7
:1006A0007509860997092AE0AE01475D5F4F0E94F0
:1006B000A90EBC01CE0101960E94300E6DE771E0DB
:1006C000CE0101960E94300ECE0101960E94A30237
:1006D000E3960FB6F894DEBF0FBECDBFDF91CF918A
:1006E0001F910F91FF90EF90DF90CF90BF90AF9050
:1006F0009F908F907F906F905F904F903F902F9042
:100700000895CF93DF93EC011982188281E090E085
:100710009B838A839D838C8382E090E00E94FE0C01
:100720009F838E8382E090E00E94FE0C99878887E9
:10073000DF91CF9108958F929F92AF92BF92CF9207
:10074000DF92EF92FF920F931F93CF93DF9300D02E
:1007500000D01F92CDB7DEB78C018FE495E5A4E5FC
:10076000B0E089839A83AB83BC83809101018111BE
:1007700007C0F801E85EFE4F8081811137C09DC03F
:10078000109201018CE190E06D830E94FE0C5C01EF
:100790008093E901B092EA018EE090E00E94FE0CA5
:1007A0006C018093E701D092E8018093E501D0923B
:1007B000E60188E390E00E94FE0C9093E4018093B0
:1007C000E30188E390E00E94FE0C9093E2018093A5
:1007D000E101D601F50180E090E06D811D928193E9
:1007E000919301968E309105C9F7C3CFC090E70170
:1007F000D090E801C00ED11EF6018081811129C080
:10080000662309F45AC0C801880F991F880F991FE1
:10081000A090E301B090E401A80EB91E0E949702D7
:10082000F501608371838283938381E0F601808385
:10083000000F111FE091E901F091EA01E00FF11FB3
:10084000608171816150710983E891E00E94C30267
:1008500034C0611132C05801AA0CBB1CAA0CBB1CCD
:100860008090E1019090E2018A0C9B1C0E9497020B
:10087000F4016083718382839383F6011082209157
:10088000E3013091E401F901EA0DFB1D2081318182
:1008900042815381000F111FE091E901F091EA01BB
:1008A000E00FF11F0190F081E02D31977B018C0169
:1008B000BF01CE0101960E94F7020F900F900F909A
:1008C0000F900F90DF91CF911F910F91FF90EF90BC
:1008D000DF90CF90BF90AF909F908F9008952F9210
:1008E0003F924F925F926F927F928F929F92AF92C0
:1008F000BF92CF92DF92EF92FF920F931F93CF930D
:10090000DF9300D000D000D0CDB7DEB789E49EE4FD
:10091000A0E089839A83AB8380910001811120C07C
:1009200096B18091010298279C831091C8011927E4
:1009300009F4ABC00E9497021B012C0199ECC92E4F
:1009400091E0D92E2CE0A22E21E0B22E80E090E0A2
:10095000E12FF0E0FE83ED83FC816F2E712C57C0F8
:100960001092000180912A0290912B02A0912C02FA
:10097000B0912D028093C9019093CA01A093CB013D
:10098000B093CC018093CD019093CE01A093CF0181
:10099000B093D0018093D1019093D201A093D30161
:1009A000B093D4018093D5019093D601A093D70141
:1009B000B093D8018093D9019093DA01A093DB0121
:1009C000B093DC018093DD019093DE01A093DF0101
:1009D000B093E00180910102ECE0F1E0812C912CD8
:1009E0005401839421E0E831F20771F0908132964E
:1009F000B501A40104C0440F551F661F771F9A95C7
:100A0000D2F740958423EECF8093010289CF9C01D9
:100A10002F5F3F4F49012D813E81082E02C0359541
:100A200027950A94E2F720FF23C0F30102C0F59551
:100A3000E7958A95E2F7CF01F60180FF0EC020828C
:100A4000318242825382F501608171816F5F7F4FF5
:100A500085E891E00E94C3020BC020813181428170
:100A6000538182017101B401CE0101960E94F70207
:100A7000C401F4E0CF0ED11C22E0A20EB11C8630DE
:100A8000910529F63C813093C8018091C60190916F
:100A9000C7010196823391052CF49093C70180938E
:100AA000C60191C01092C7011092C60182E392E084
:100AB0000E947C014C01A12CB12C412C512C320103
:100AC000439411E0A814B9040CF07DC082E392E0D5
:100AD0000E945A014091C4015091C501FA01E654A7
:100AE000FE4F8A3019F08B3309F062C01182809179
:100AF000BA018E3511F59091BB014230510509F0D4
:100B000052C08FEC890F883008F04DC0C92E990F64
:100B1000DD088FE2C81AD108E091E501F091E60105
:100B2000EC0DFD1D30803126632D8C2D0E94260298
:100B3000632DC6010E949B0336C08632A1F5209129
:100B4000BB014230510579F58FEC820F883058F5A2
:100B5000022E000C330B2153310980910102482FE2
:100B600050E0022E02C0559547950A94E2F740FDE9
:100B70000DC0B301A20104C0440F551F661F771FAB
:100B80002A95D2F7482B409301020DC0B301A20170
:100B900004C0440F551F661F771F2A95D2F7409552
:100BA0008423809301021092C5011092C40107C0F2
:100BB00080834F5F5F4F5093C5014093C4019FEF07
:100BC000A91AB90A7FCF26960FB6F894DEBF0FBEDA
:100BD000CDBFDF91CF911F910F91FF90EF90DF90EC
:100BE000CF90BF90AF909F908F907F906F905F90CD
:100BF0004F903F902F9008952F923F924F925F9287
:100C00006F927F928F929F92AF92BF92CF92DF921C
:100C1000EF92FF921F93CF93DF9300D000D0CDB718
:100C2000DEB70E9472026B017C01212C312C80E422
:100C3000882E82E4982E8FE0A82EB12C90E5492EC4
:100C400093EC592E612C712C0E9472026C197D0953
:100C50008E099F09611527E8720723E9820723E0BF
:100C6000920768F525E62216310424F42FEF221AA4
:100C7000320A0CC069837A838B839C830E946F0441
:100C8000212C312C9C818B817A816981A501940171
:100C90000E94270FA30192010E94270F11E06838DC
:100CA00073418105910508F010E0612F82E00E94F8
:100CB0002602612F82E090E00E949B03C5CF60E096
:100CC00082E00E94260260E082E090E00F900F90A8
:100CD0000F900F90DF91CF911F91FF90EF90DF90D9
:100CE000CF90BF90AF909F908F907F906F905F90CC
:100CF0004F903F902F900C949B0360E08CE00E94FB
:100D0000260260E08CE090E00E949B0360E08DE0B2
:100D10000E94260260E08DE090E00E949B0387E83D
:100D200091E00E94B502FFCF0E942B0E0E94900E10
:100D300021E83FE442E150E00E94F50E71568B4DF0
:100D40009F4F0E94050C20E030E44CE156E40E94E5
:100D5000620B08951F920F920FB60F9211242F93DA
:100D60003F934F935F936F937F938F939F93AF9333
:100D7000BF93EF93FF9382E392E00E949201FF9171
:100D8000EF91BF91AF919F918F917F916F915F9103
:100D90004F913F912F910F900FBE0F901F9018957C
:100DA0001F920F920FB60F9211242F938F939F9340
:100DB000EF93FF93E0914202F09143028081E09132
:100DC0004802F091490282FD12C0908180914B024D
:100DD0008F5F8F7320914C02821751F0E0914B028C
:100DE000F0E0EE5CFD4F958F80934B0201C0808157
:100DF000FF91EF919F918F912F910F900FBE0F90C8
:100E00001F9018951F920F920FB60F9211242F93D7
:100E10003F938F939F93AF93BF938091EC019091F9
:100E2000ED01A091EE01B091EF013091EB0123E0D3
:100E3000230F2D3720F40196A11DB11D05C026E812
:100E4000230F0296A11DB11D2093EB018093EC01AD
:100E50009093ED01A093EE01B093EF018091F0012A
:100E60009091F101A091F201B091F3010196A11DC1
:100E7000B11D8093F0019093F101A093F201B09322
:100E8000F301BF91AF919F918F913F912F910F905F
:100E90000FBE0F901F9018954F925F926F927F92A6
:100EA0008F929F92AF92BF92CF92DF92EF92FF927A
:100EB0000F931F93CF93DF93109235021092340259
:100EC00088EE93E0A0E0B0E0809336029093370282
:100ED000A0933802B093390280E791E090933302F7
:100EE0008093320285EC90E090933F0280933E0223
:100EF00084EC90E0909341028093400280EC90E07B
:100F0000909343028093420281EC90E090934502DB
:100F10008093440282EC90E09093470280934602D3
:100F200086EC90E0909349028093480210924B0225
:100F300010924C0210924D0210924E02CFECD2E071
:100F40000BED12E088248A94982C9EEE692E90E096
:100F5000792E2FEEC22E20E0D22E31EFE32E30E09C
:100F6000F32E44EFA42E40E0B42E57EF452E50E070
:100F7000552E0E9497026C837D838E839F831886F3
:100F800019861A861B86C8010E9481039B828A8269
:100F90001F8A1E8A198E188E198218827B8E6A8E7D
:100FA0007D8E6C8EDF8ECE8EF801F58AE48AB78A4C
:100FB000A68A538E428ED78EC68EF18EE08EF58E27
:100FC000E48EFDA6ECA6AE96025D1F4FF3E0CB3299
:100FD000DF0779F6DF91CF911F910F91FF90EF908E
:100FE000DF90CF90BF90AF909F908F907F906F9049
:100FF0005F904F900895CF93DF93CDB7DEB72B97D7
:101000000FB6F894DEBF0FBECDBF789484B5826072
:1010100084BD84B5816084BD85B5826085BD85B59C
:10102000816085BD80916E00816080936E0010921A
:101030008100809181008260809381008091810095
:101040008160809381008091800081608093800026
:101050008091B10084608093B1008091B000816084
:101060008093B00080917A00846080937A008091B0
:101070007A00826080937A0080917A008160809308
:101080007A0080917A00806880937A001092C10083
:10109000E0914202F091430282E08083E0913E02BF
:1010A000F0913F021082E0914002F091410287E00E
:1010B000808310924A02E0914602F091470286E056
:1010C0008083E0914402F0914502808180618083B9
:1010D000E0914402F0914502808188608083E09134
:1010E0004402F0914502808180688083E09144024F
:1010F000F091450280818F7D80838FE891E00E948E
:10110000B5020CE710E0F8016491611130C082E093
:101110000E94FB0083E00E94FB0084E00E94FB0031
:1011200085E00E94FB0086E00E94FB0087E00E94B1
:10113000FB0088E00E94FB0089E00E94FB0086E43F
:1011400090E00E94FE0C8C0166E271E00E943B0E72
:10115000F80101900020E9F73197E01BF10BD8016D
:1011600080E090E0C12CD12CE12CF12C19C0E09151
:101170003202F09133020190F081E02D82E392E09F
:1011800009950F5F1F4F892B09F0BDCFC0CF2D915F
:101190002C3551F02F3241F02E3209F46C010196BA
:1011A0008E179F07A1F702C07C01F9CFF801EC0D63
:1011B000FD1D108289E991E00E94A302EC14FD0458
:1011C0001CF08FE991E004C0C7010196800F911FC8
:1011D0000E94A30288EA91E00E94A3020115110572
:1011E00019F0C8010E94930D8FEC92E021E030E0ED
:1011F0003093E6022093E5023093E8022093E70261
:101200009093FB018093FA0130931403209313030E
:1012100022E030E030931603209315032DEF32E0E7
:101220003093FD012093FC0120912E0230912F027A
:101230003093F5012093F4013093F9012093F801E4
:101240009093F7018093F6019093310280933002DE
:101250008CEF95E09093EC028093EB028AE191E0B1
:101260009093F2028093F1028DE191E09093F40269
:101270008093F30282E291E09093200380931F0316
:1012800085E291E0909322038093210386E996E022
:1012900090932403809323038AE291E090932603A2
:1012A000809325038EE290E00E94FE0C8C010E9448
:1012B0009702D80114966D937D938D939C93179705
:1012C000F8011086118612861386C8010C960E94BA
:1012D00081038FEF9FEFD80113969C938E93129703
:1012E00057961C921E92569759961C921E9258978A
:1012F00011961C921E928EEE90E05B969C938E93BC
:101300005A975D969C938E935C972FEE30E05F9694
:101310003C932E935E9781EF90E091969C938E93F1
:10132000909747EF50E097965C934E9396979B96D5
:101330003C932E939A9795969C938E939497999617
:101340009C938E9398979D969C938E939C971093C5
:101350002F0200932E028DE796E093969C938E9336
:1013600092978CE00E94FB008DE00E94FB0060E001
:101370008CE00E94260260E08CE090E00E949B03DB
:1013800060E08DE00E94260260E08DE090E00E9427
:101390009B0382E392E00E947C01892BD1F382E3DC
:1013A00092E00E945A018236910599F782E392E019
:1013B0000E947C01892B29F082E392E00E945A016D
:1013C000F5CF0E947202611571058105910511F03A
:1013D0000E94950E8FEA91E00E94B5020E9497024A
:1013E00060932A0270932B0280932C0290932D021B
:1013F00061E08CE00E94260261E08CE090E00E94B7
:101400009B0361E08DE00E94260261E08DE090E0A8
:101410000E949B03009130021091310201151105C9
:1014200009F4E5C00E949702F801648375838683FE
:101430009783028CF38DE02D0995D8015C96ED9190
:10144000FC915D970995F801C480D580E680F7800E
:101450001092020266EB71E082E092E00E94300E90
:101460004AE0BE016F5F7F4FD80156968D919C91E7
:1014700057970E949E0EBC0182E092E00E94300EBF
:1014800068EB71E082E092E00E94300E4AE0BE011B
:101490006F5F7F4FF801808D918D0E949E0EBC0181
:1014A00082E092E00E94300E6FE771E082E092E00D
:1014B0000E94300E80912A0290912B02A0912C0262
:1014C000B0912D02A7019601281B390B4A0B5B0B2B
:1014D000CA01B9012AE0AE014F5F5F4F0E94A90E19
:1014E000BC0182E092E00E94300E6DE771E082E084
:1014F00092E00E94300E82E092E00E94A3020E94DD
:101500006F04D8015E96ED91FC915F970995882351
:1015100031F0D8019096ED91FC91919795C0F8012A
:1015200082819381019649F4D8019296ED91FC91C4
:1015300093970995F80193838283D8018D919C91AB
:101540001197019611969C938E9312962D913C9132
:1015500013972115310589F08217930771F492963C
:10156000ED91FC9193970995F80193838283118201
:10157000108204A0F5A1E02D67C0D8019696ED91E8
:10158000FC919797099520E030E04AE754E40E94E7
:10159000910C0E94D40BF801608771878287938732
:1015A000F80180859185A285B385892B8A2B8B2BA9
:1015B00009F44CC00E949702D8011496CD90DD909A
:1015C000ED90FC901797DC01CB018C199D09AE09B9
:1015D000BF09F801C084D184E284F3848C159D0591
:1015E000AE05BF0598F100A4F1A5E02D2DC08091B6
:1015F0002E0290912F0290933102809330020E942C
:101600001C0208CF01960E94480B95878487880F9B
:10161000991F0288F389E02DE80FF91F0190F081EE
:10162000E02D0995882319F1D8011C96ED91FC91C4
:101630001D97EE0FFF1F54968D919C915597E80FC3
:10164000F91F0190F081E02D0995D5CF96B18091D9
:101650000102892790910002282F2927322F382351
:101660003093FF0192239093FE0180930002F801D2
:1016700084859585668577859B0121503109821780
:10168000930709F0BFCF158614860E946F0488CF98
:10169000AA1BBB1B51E107C0AA1FBB1FA617B70798
:1016A00010F0A61BB70B881F991F5A95A9F78095B4
:1016B0009095BC01CD010895EE0FFF1F0590F491A8
:1016C000E02D09940E94760B0C94570C0E94500C4C
:1016D00058F00E94490C40F029F45F3F29F00C9427
:1016E000400C51110C948B0C0C94460C0E94680C0D
:1016F00068F39923B1F3552391F3951B550BBB2741
:10170000AA2762177307840738F09F5F5F4F220F85
:10171000331F441FAA1FA9F335D00E2E3AF0E0E87C
:1017200032D091505040E695001CCAF72BD0FE2FC6
:1017300029D0660F771F881FBB1F2617370748075A
:10174000AB07B0E809F0BB0B802DBF01FF27935812
:101750005F4F3AF09E3F510578F00C94400C0C948A
:101760008B0C5F3FE4F3983ED4F3869577956795AD
:10177000B795F7959F5FC9F7880F911D9695879547
:1017800097F90895E1E0660F771F881FBB1F621766
:1017900073078407BA0720F0621B730B840BBA0B24
:1017A000EE1F88F7E09508950E94700C88F09F570F
:1017B00098F0B92F9927B751B0F0E1F0660F771F75
:1017C000881F991F1AF0BA95C9F714C0B13091F06B
:1017D0000E948A0CB1E008950C948A0C672F782F30
:1017E0008827B85F39F0B93FCCF386957795679530
:1017F000B395D9F73EF490958095709561957F4F9C
:101800008F4F9F4F0895E89409C097FB3EF4909541
:101810008095709561957F4F8F4F9F4F9923A9F0C9
:10182000F92F96E9BB279395F69587957795679558
:10183000B795F111F8CFFAF4BB0F11F460FF1BC09C
:101840006F5F7F4F8F4F9F4F16C0882311F096E92F
:1018500011C0772321F09EE8872F762F05C06623DD
:1018600071F096E8862F70E060E02AF09A95660F96
:10187000771F881FDAF7880F9695879597F908954F
:1018800097F99F6780E870E060E008959FEF80EC33
:10189000089500240A9416161706180609060895D6
:1018A00000240A9412161306140605060895092E3C
:1018B0000394000C11F4882352F0BB0F40F4BF2BAB
:1018C00011F460FF04C06F5F7F4F8F4F9F4F0895EB
:1018D00057FD9058440F551F59F05F3F71F04795E1
:1018E000880F97FB991F61F09F3F79F087950895C6
:1018F000121613061406551FF2CF4695F1DF08C0E5
:10190000161617061806991FF1CF86957105610501
:1019100008940895E894BB2766277727CB0197F9A9
:1019200008950E94A40C0C94570C0E94490C38F0A6
:101930000E94500C20F0952311F00C94400C0C9454
:10194000460C11240C948B0C0E94680C70F3959F2C
:10195000C1F3950F50E0551F629FF001729FBB27A6
:10196000F00DB11D639FAA27F00DB11DAA1F649F42
:101970006627B00DA11D661F829F2227B00DA11DF5
:10198000621F739FB00DA11D621F839FA00D611D7B
:10199000221F749F3327A00D611D231F849F600D9C
:1019A000211D822F762F6A2F11249F5750409AF0C5
:1019B000F1F088234AF0EE0FFF1FBB1F661F771F51
:1019C000881F91505040A9F79E3F510580F00C941C
:1019D000400C0C948B0C5F3FE4F3983ED4F3869557
:1019E00077956795B795F795E7959F5FC1F7FE2BBC
:1019F000880F911D9695879597F90895CF93DF935A
:101A00008230910510F482E090E0E0912D03F09196
:101A10002E0320E030E0C0E0D0E0309711F14081AB
:101A2000518148175907C0F04817590761F482815E
:101A30009381209719F09B838A832BC090932E0368
:101A400080932D0326C02115310519F04217530745
:101A500018F49A01BE01DF01EF010280F381E02D4D
:101A6000DCCF2115310509F1281B390B2430310554
:101A700090F412968D919C9113976115710521F048
:101A8000FB019383828304C090932E0380932D03E4
:101A9000FD01329644C0FD01E20FF31F8193919343
:101AA000225031092D933C933AC020912B03309161
:101AB0002C03232B41F42091040130910501309334
:101AC0002C0320932B032091020130910301211557
:101AD000310541F42DB73EB7409106015091070101
:101AE000241B350BE0912B03F0912C03E217F30735
:101AF000A0F42E1B3F0B2817390778F0AC014E5F7E
:101B00005F4F2417350748F04E0F5F1F50932C038B
:101B100040932B038193919302C0E0E0F0E0CF016A
:101B2000DF91CF9108950F931F93CF93DF93009789
:101B300009F48CC0FC0132971382128200912D03AC
:101B400010912E030115110581F420813181820F3E
:101B5000931F20912B0330912C032817390779F517
:101B6000F0932C03E0932B0371C0D80140E050E0C8
:101B7000AE17BF0750F412962D913C911397AD010B
:101B80002115310509F1D901F3CF9D01DA01338324
:101B9000228360817181860F971F8217930769F4F2
:101BA000EC0128813981260F371F2E5F3F4F31838B
:101BB00020838A819B8193838283452B29F4F09330
:101BC0002E03E0932D0342C01396FC93EE931297DD
:101BD000ED01499159919E01240F351FE217F3073A
:101BE00071F480819181840F951F029611969C93C8
:101BF0008E938281938113969C938E931297E0E04B
:101C0000F0E0D80112968D919C911397009719F0EE
:101C1000F8018C01F6CF8D919C9198012E5F3F4F7A
:101C2000820F931F20912B0330912C032817390723
:101C300069F4309729F410922E0310922D0302C0FC
:101C40001382128210932C0300932B03DF91CF9108
:101C50001F910F91089581E090E0F8940C94580F33
:101C6000FB01DC010D900020E9F7119701900D9226
:101C70000020E1F70895FB01DC0101900D920020A6
:101C8000E1F708958F929F92AF92BF92CF92DF9229
:101C9000EF92FF92CF93DF93EC01688179818A8183
:101CA0009B81611571058105910521F464E279ED4F
:101CB0008BE597E02DE133EF41E050E00E94F50E17
:101CC00049015A019B01AC01A7EAB1E40E94140F3B
:101CD0006B017C01ACEEB4EFA50194010E94220FD0
:101CE000DC01CB018C0D9D1DAE1DBF1DB7FF03C0D8
:101CF0000197A109B04888839983AA83BB83BC015B
:101D0000CD019F77DF91CF91FF90EF90DF90CF9043
:101D1000BF90AF909F908F9008950E94420E0895BB
:101D200088E091E00E94420E08956093080170934C
:101D3000090180930A0190930B010895BB274A3053
:101D400031F4992322F4BDE2909581959F4F0C9434
:101D5000CC0EBB27FA01A62F6217710581059105EC
:101D6000330B30FB66F0AA27660F771F881F991F79
:101D7000AA1FA21710F0A21B63953850A9F7A05D07
:101D8000AA3308F0A95DA19336F7B111B19310827F
:101D9000CA010C94E50EBB27FB015527AA27880F23
:101DA000991FAA1FA41710F0A41B83955051B9F7CF
:101DB000A05DAA3308F0A95DA193009779F7B1114E
:101DC000B1931192CB010C94E50EDC01FC01672F5D
:101DD00071917723E1F7329704C07C916D93708302
:101DE0006291AE17BF07C8F30895052E97FB1EF446
:101DF00000940E940C0F57FD07D00E94270F07FC8C
:101E000003D04EF40C940C0F5095409530952195CD
:101E10003F4F4F4F5F4F0895909580957095619516
:101E20007F4F8F4F9F4F08950E94490FA59F900DA0
:101E3000B49F900DA49F800D911D11240895B7FFAC
:101E40000C94140F0E94140F821B930B0895A1E2AF
:101E50001A2EAA1BBB1BFD010DC0AA1FBB1FEE1F24
:101E6000FF1FA217B307E407F50720F0A21BB30B6F
:101E7000E40BF50B661F771F881F991F1A9469F7EB
:101E800060957095809590959B01AC01BD01CF0147
:101E90000895A29FB001B39FC001A39F700D811D43
:101EA0001124911DB29F700D811D1124911D089563
:041EB000F894FFCFD4
:101EB400010100002F038000010000000000010068
:101EC40002000300040005000000010101010101FA
:101ED400010101000000433A5C55736572735C367E
:101EE40036365C446F63756D656E74735C41724322
:101EF4006F6E74726F6C2D72656C656173655C7462
:101F040061736B5C4F70746F4C617365725C4F707E
:101F1400746F4C617365722E696E6F00000000006F
:101F2400B3012F017C015A016E01FA010D0A003A36
:101F3400002000250024004172432D656E64004199
:101F440072436F6E74726F6C002D2D2D2D2D005504
:101F54006E7469746C6564002D2D2D2D2D0A00415D
:0A1F640072432D6267004300530032
:00000001FF
