:100000000C94C4000C94EC000C94EC000C94EC00E8
:100010000C94EC000C94EC000C94EC000C94EC00B0
:100020000C94EC000C94EC000C94EC000C94EC00A0
:100030000C94EC000C94EC000C94EC000C94EC0090
:100040000C94DD050C94EC000C94AB050C94850528
:100050000C94EC000C94EC000C94EC000C94EC0070
:100060000C94EC000C94EC0000000008000201006D
:10007000000304070000000000000000404F55543A
:10008000313A234C617365720A404F5554323A231A
:10009000320A404F5554333A23330A404F555434B3
:1000A0003A23340A404F5554353A23350A404F55C8
:1000B00054363A23360A404F5554373A23370A40CC
:1000C0004F5554383A23380A40494E313A23310AC1
:1000D00040494E323A23320A40494E333A23330ADA
:1000E00040494E343A23340A40494E353A23350AC2
:1000F00040494E363A23360A4043313A4F70746FC6
:1001000067656E65746963204C6173657220506128
:10011000747465726E0A40433153313A41637469B5
:1001200076653A203230487A2D356D7320316D690D
:100130006E0A40433153323A52657374696E673ABE
:1001400020342D356D696E0A00000000002500285E
:10015000002B0000000000240027002A00040404F3
:100160000404040404020202020202030303030360
:10017000030102040810204080010204081020013D
:10018000020408102000270611241FBECFEFD8E07C
:10019000DEBFCDBF23E0A2EBB1E001C01D92A431D0
:1001A000B207E1F711E0A0E0B1E0EEE4FCE102C04B
:1001B00005900D92A23BB107D9F710E0C4ECD0E056
:1001C00004C02197FE010E94290AC33CD107C9F748
:1001D0000E94D6060C94250E0C940000089580E031
:1001E000089580E090E0089580E090E0089560E058
:1001F00070E0CB01089590E0FC01EF58FE4F249190
:10020000FC01E35AFE4F8491882399F090E0880F17
:10021000991FFC01ED5AFE4FA591B491FC01E75BDB
:10022000FE4F859194918FB7F894EC91E22BEC936B
:100230008FBF089581E090E008958091E50190914D
:10024000E601089585E090E008958091DD019091A8
:10025000DE0108958091E3019091E4010895CF9229
:10026000DF92EF92FF920F931F93CF93DF936C0176
:100270007A018B01C0E0D0E0CE15DF0589F0D8010E
:100280006D918D01D601ED91FC910190F081E02DF1
:10029000C6010995892B11F47E0102C02196ECCF8D
:1002A000C701DF91CF911F910F91FF90EF90DF90E9
:1002B000CF900895FC01918D828D981761F0828D09
:1002C000DF01A80FB11D5D968C91928D9F5F9F738A
:1002D000928F90E008958FEF9FEF0895FC01918D2C
:1002E000828D981731F0828DE80FF11D858D90E099
:1002F00008958FEF9FEF0895FC01918D228D892F36
:1003000090E0805C9F4F821B91098F73992708951D
:1003100087E192E00E947C0121E0892B09F420E032
:10032000822F0895FC01848DDF01A80FB11DA35A0F
:10033000BF4F2C91848D90E001968F739927848F05
:10034000A689B7892C93A089B1898C9180648C93FC
:10035000938D848D981306C00288F389E02D8081E7
:100360008F7D80830895EF92FF920F931F93CF9319
:10037000DF93EC0181E0888F9B8D8C8D981305C0F5
:10038000E889F989808185FD24C0F62E0B8D10E067
:100390000F5F1F4F0F731127E02E8C8DE8120CC0DA
:1003A0000FB607FCFACFE889F989808185FFF5CF80
:1003B000CE010E949201F1CF8B8DFE01E80FF11D5D
:1003C000E35AFF4FF0820B8FEA89FB8980818062BC
:1003D00007C0EE89FF896083E889F989808180649C
:1003E000808381E090E0DF91CF911F910F91FF908A
:1003F000EF900895CF93DF93EC01888D8823C9F0A7
:10040000EA89FB89808185FD05C0A889B9898C911D
:1004100086FD0FC00FB607FCF5CF808185FFF2CFB8
:10042000A889B9898C9185FFEDCFCE010E949201F8
:10043000E7CFDF91CF91089580E090E0892B29F0FC
:100440000E94880181110C940000089590E0FC0145
:10045000E859FF4F3491FC01EF58FE4F2491FC0105
:10046000E35AFE4FE491EE2309F43BC0332339F104
:10047000333091F038F43130A9F0323001F584B5E1
:100480008F7D12C0373091F03830A1F03430B9F49C
:10049000809180008F7D03C0809180008F77809352
:1004A00080000DC084B58F7784BD09C08091B000F5
:1004B0008F7703C08091B0008F7D8093B000F0E013
:1004C000EE0FFF1FE75BFE4FA591B4918FB7F89435
:1004D000EC91611103C020952E2301C02E2B2C938B
:1004E0008FBF08953FB7F8948091D9019091DA01B8
:1004F000A091DB01B091DC0126B5A89B05C02F3F80
:1005000019F00196A11DB11D3FBFBA2FA92F982F39
:100510008827820F911DA11DB11DBC01CD0142E0B4
:10052000660F771F881F991F4A95D1F708952FB737
:10053000F8946091D5017091D6018091D701909186
:10054000D8012FBF0895009769F0FC0101900020A9
:10055000E9F73197AF01481B590BBC0187E192E0E5
:100560000C942F0180E090E00895CF93DF930E94D8
:10057000A302EC0188E791E00E94A3028C0F9D1F6B
:10058000DF91CF9108952F923F924F925F926F9299
:100590007F928F929F92AF92BF92CF92DF92EF9213
:1005A000FF920F931F93CF93DF93CDB7DEB7E397FF
:1005B0000FB6F894DEBF0FBECDBF1B0129013A0173
:1005C0006701780180900F0290901002A0901102B4
:1005D000B09012021982BC01CE0101960E94FD0C5E
:1005E0004AE0BE01675D7F4FC1010E946B0DBC01F7
:1005F000CE0101960E94FD0C6BE771E0CE010196E1
:100600000E94FD0CC301B201681979098A099B098E
:100610002AE0AE01475D5F4F0E94760DBC01CE011E
:1006200001960E94FD0C6DE771E0CE0101960E94DB
:10063000FD0CC701B60164197509860997092AE0FE
:10064000AE01475D5F4F0E94760DBC01CE01019661
:100650000E94FD0C69E771E0CE0101960E94FD0C3D
:10066000CE0101960E94A302E3960FB6F894DEBF76
:100670000FBECDBFDF91CF911F910F91FF90EF90F3
:10068000DF90CF90BF90AF909F908F907F906F90B2
:100690005F904F903F902F9008952F923F924F92EE
:1006A0005F926F927F928F929F92AF92BF92CF9202
:1006B000DF92EF92FF920F931F93CF93DF9300D0BF
:1006C00000D0CDB7DEB789E49EE4A0E089839A83A9
:1006D000AB8380910001811119C026B12C83C09099
:1006E000B201C2268091B301C82209F496C00E94CB
:1006F00097021B012C0184EBA82E81E0B82E80E02C
:1007000090E0D12CEC816E2E712C56C0109200011D
:1007100080910F0290911002A0911102B0911202EB
:100720008093B4019093B501A093B601B093B70143
:100730008093B8019093B901A093BA01B093BB0123
:100740008093BC019093BD01A093BE01B093BF0103
:100750008093C0019093C101A093C201B093C301E3
:100760008093C4019093C501A093C601B093C701C3
:100770008093C8019093C901A093CA01B093CB01A3
:100780008091B301ECE0F1E041E050E060E070E026
:1007900031E0E831F30769F0908132964A015B015C
:1007A00004C0880C991CAA1CBB1C9A95D2F78829F6
:1007B000EFCF8093B30191CF9C012F5F3F4F490151
:1007C0009601082E02C0359527950A94E2F720FF7E
:1007D0001AC0F30102C0F595E7958A95E2F7CF01BB
:1007E000F50180FF05C020823182428253820BC016
:1007F000208131814281538182017101B401CE0196
:1008000001960E94C302C401F4E0AF0EB11C863011
:10081000910591F62C812093B2010F900F900F90CB
:100820000F90DF91CF911F910F91FF90EF90DF908C
:10083000CF90BF90AF909F908F907F906F905F9080
:100840004F903F902F900895CF93DF93EC01198242
:10085000188281E090E09B838A839D838C8382E071
:1008600090E00E94CB0B9F838E8382E090E00E94F9
:10087000CB0B99878887DF91CF9108958F929F92B4
:10088000AF92BF92CF92DF92EF92FF920F931F939E
:10089000CF93DF9300D000D01F92CDB7DEB78C018D
:1008A0008FE495E5A4E5B0E089839A83AB83BC83AC
:1008B00080910101811107C0F801E85EFE4F80813F
:1008C000811133C088C0109201018CE190E06D83EA
:1008D0000E94CB0B6C018093D201D092D3018EE0A9
:1008E00090E00E94CB0B5C018093D001B092D101CB
:1008F00088E390E00E94CB0B9093CF018093CE01D0
:1009000088E390E00E94CB0B9093CD018093CC01C3
:10091000D501F60180E090E06D811D928193919365
:1009200001968E309105C9F7C7CFC090D001D09005
:10093000D101C00ED11EF6018081811118C066233D
:1009400009F449C0000F111F000F111F8091CE0143
:100950009091CF01080F191F0E949702F801608340
:1009600071838283938381E0F601808334C06111B7
:1009700032C05801AA0CBB1CAA0CBB1C8090CC0135
:100980009090CD018A0C9B1C0E949702F401608319
:10099000718382839383F60110822091CE0130917E
:1009A000CF01F901EA0DFB1D208131814281538184
:1009B000000F111FE091D201F091D301E00FF11F60
:1009C0000190F081E02D31977B018C01BF01CE01B8
:1009D00001960E94C3020F900F900F900F900F90FE
:1009E000DF91CF911F910F91FF90EF90DF90CF900B
:1009F000BF90AF909F908F9008954F925F926F92AB
:100A00007F928F929F92AF92BF92CF92DF92EF929E
:100A1000FF92CF930E9472026B017C0180E4882ECA
:100A200082E4982E8FE0A82EB12C90E5492E93EC0D
:100A3000592E612C712C0E9472026C197D098E094D
:100A40009F09611527E8720723E9820723E09207CF
:100A5000C8F4A50194010E94F40DA30192010E9423
:100A6000F40DC1E0683873418105910508F0C0E0DC
:100A70006C2F82E00E9426026C2F82E090E00E94A0
:100A80003E04D9CF60E082E00E94260260E082E06E
:100A900090E0CF91FF90EF90DF90CF90BF90AF901C
:100AA0009F908F907F906F905F904F900C943E043A
:100AB00060E08CE00E94260260E08CE090E00E9402
:100AC0003E0460E08DE00E94260260E08DE090E050
:100AD0000E943E048FE791E00E94B502FFCF0E9482
:100AE000F80C0E945D0D21E83FE442E150E00E94D5
:100AF000C20D71568B4D9F4F0E94D20A20E030E408
:100B00004CE156E40E942F0A08951F920F920FB6EF
:100B10000F9211242F933F934F935F936F937F9383
:100B20008F939F93AF93BF93EF93FF9387E192E0EF
:100B30000E949201FF91EF91BF91AF919F918F9190
:100B40007F916F915F914F913F912F910F900FBEC9
:100B50000F901F9018951F920F920FB60F921124AD
:100B60002F938F939F93EF93FF93E0912702F09140
:100B700028028081E0912D02F0912E0282FD12C0A8
:100B80009081809130028F5F8F73209131028217A4
:100B900051F0E0913002F0E0E95EFD4F958F8093D7
:100BA000300201C08081FF91EF919F918F912F9131
:100BB0000F900FBE0F901F9018951F920F920FB6B7
:100BC0000F9211242F933F938F939F93AF93BF93D3
:100BD0008091D5019091D601A091D701B091D80113
:100BE0003091D40123E0230F2D3720F40196A11D6D
:100BF000B11D05C026E8230F0296A11DB11D20934B
:100C0000D4018093D5019093D601A093D701B093DE
:100C1000D8018091D9019091DA01A091DB01B091C6
:100C2000DC010196A11DB11D8093D9019093DA01D9
:100C3000A093DB01B093DC01BF91AF919F918F91A5
:100C40003F912F910F900FBE0F901F9018954F92CC
:100C50005F926F927F928F929F92AF92BF92CF924C
:100C6000DF92EF92FF920F931F93CF93DF93109237
:100C70001A021092190288EE93E0A0E0B0E080938F
:100C80001B0290931C02A0931D02B0931E028CE6DF
:100C900091E0909318028093170285EC90E0909376
:100CA00024028093230284EC90E0909326028093A8
:100CB000250280EC90E0909328028093270281EC3B
:100CC00090E090932A028093290282EC90E0909326
:100CD0002C0280932B0286EC90E090932E0280935E
:100CE0002D021092300210923102109232021092B4
:100CF0003302C4EBD2E000EC12E088248A94982CF2
:100D00009EEE692E90E0792E2FEEC22E20E0D22E9C
:100D100031EFE32E30E0F32E44EFA42E40E0B42E6A
:100D200057EF452E50E0552E0E9497026C837D832D
:100D30008E839F83188619861A861B86C8010E9497
:100D400024049B828A821F8A1E8A198E188E198219
:100D500018827B8E6A8E7D8E6C8EDF8ECE8EF80131
:100D6000F58AE48AB78AA68A538E428ED78EC68EBB
:100D7000F18EE08EF58EE48EFDA6ECA6AE96025DB9
:100D80001F4FF3E0C031DF0779F6DF91CF911F915C
:100D90000F91FF90EF90DF90CF90BF90AF909F901A
:100DA0008F907F906F905F904F900895CF93DF93D7
:100DB000CDB7DEB72B970FB6F894DEBF0FBECDBF11
:100DC000789484B5826084BD84B5816084BD85B526
:100DD000826085BD85B5816085BD80916E00816032
:100DE00080936E00109281008091810082608093D8
:100DF00081008091810081608093810080918000DA
:100E00008160809380008091B10084608093B10004
:100E10008091B00081608093B00080917A008460FE
:100E200080937A0080917A00826080937A0080912A
:100E30007A00816080937A0080917A008068809344
:100E40007A001092C100E0912702F091280282E01E
:100E50008083E0912302F09124021082E091250228
:100E6000F091260287E0808310922F02E0912B02FE
:100E7000F0912C0286E08083E0912902F0912A0211
:100E8000808180618083E0912902F0912A02808133
:100E900088608083E0912902F0912A028081806835
:100EA0008083E0912902F0912A0280818F7D8083E6
:100EB00087E891E00E94B5020CE710E0F801649128
:100EC000611130C082E00E94FB0083E00E94FB00C1
:100ED00084E00E94FB0085E00E94FB0086E00E9407
:100EE000FB0087E00E94FB0088E00E94FB0089E095
:100EF0000E94FB0082E490E00E94CB0B8C0166E232
:100F000071E00E94080DF80101900020E9F7319787
:100F1000E01BF10BD80180E090E0C12CD12CE12C3A
:100F2000F12C19C0E0911702F09118020190F081A4
:100F3000E02D87E192E009950F5F1F4F892B09F0A3
:100F4000BDCFC0CF2D912C3551F02F3241F02E3234
:100F500009F46C0101968E179F07A1F702C07C016E
:100F6000F9CFF801EC0DFD1D108281E991E00E949E
:100F7000A302EC14FD041CF087E991E004C0C70152
:100F80000196800F911F0E94A30280EA91E00E94C7
:100F9000A3020115110519F0C8010E94600C84EB31
:100FA00092E021E030E03093CB022093CA023093EC
:100FB000CD022093CC029093E4018093E30130931F
:100FC000F9022093F80222E030E03093FB022093F4
:100FD000FA0222EE32E03093E6012093E5012091FF
:100FE0001302309114023093DE012093DD0130931F
:100FF000E2012093E1019093E0018093DF0190935F
:101000001602809315028DEF94E09093D1028093A5
:10101000D0028AE191E09093D7028093D6028DE1CD
:1010200091E09093D9028093D80282E291E090936C
:1010300005038093040385E291E090930703809376
:10104000060381E795E090930903809308038AE201
:1010500091E090930B0380930A038EE290E00E944C
:10106000CB0B8C010E949702D80114966D937D934F
:101070008D939C931797F80110861186128613861C
:10108000C8010C960E9424048FEF9FEFD80113969D
:101090009C938E93129757961C921E925697599630
:1010A0001C921E92589711961C921E928EEE90E002
:1010B0005B969C938E935A975D969C938E935C97C8
:1010C0002FEE30E05F963C932E935E9781EF90E099
:1010D00091969C938E93909747EF50E097965C93F0
:1010E0004E9396979B963C932E939A9795969C93A6
:1010F0008E93949799969C938E9398979D969C9394
:101100008E939C97109314020093130288E595E048
:1011100093969C938E9392978CE00E94FB008DE0B7
:101120000E94FB0060E08CE00E94260260E08CE000
:1011300090E00E943E0460E08DE00E94260260E0A4
:101140008DE090E00E943E0487E192E00E947C01E5
:10115000892BD1F387E192E00E945A0182369105F2
:1011600099F787E192E00E947C01892B29F087E1C1
:1011700092E00E945A01F5CF0E947202611571053A
:101180008105910511F00E94620D87EA91E00E94AD
:10119000B5020E94970260930F0270931002809331
:1011A00011029093120261E08CE00E94260261E03D
:1011B0008CE090E00E943E0461E08DE00E942602F7
:1011C00061E08DE090E00E943E04009115021091D4
:1011D00016020115110509F41BC1D8019696ED916F
:1011E000FC919797099520E030E04AE754E40E948B
:1011F0005E0B0E94A10AF80160877187828793873E
:101200000E949702D80114966D937D938D939C93C1
:1012100017975A96ED91FC915B970995D8015C96CA
:10122000ED91FC915D970995F801C480D580E68029
:10123000F7801092E7016EEA71E087EE91E00E947C
:10124000FD0C4AE0BE016F5F7F4FD80156968D912D
:101250009C9157970E946B0DBC0187EE91E00E9414
:10126000FD0C60EB71E087EE91E00E94FD0C4AE01E
:10127000BE016F5F7F4FF801808D918D0E946B0DD5
:10128000BC0187EE91E00E94FD0C6BE771E087EEF8
:1012900091E00E94FD0C80910F0290911002A091AC
:1012A0001102B0911202A7019601281B390B4A0BBB
:1012B0005B0BCA01B9012AE0AE014F5F5F4F0E948C
:1012C000760DBC0187EE91E00E94FD0C69E771E0AC
:1012D00087EE91E00E94FD0C87EE91E00E94A30250
:1012E0000E944D03D8015E96ED91FC915F970995A0
:1012F000882331F0D8019096ED91FC91919793C09D
:10130000F80182819381019649F4D8019296ED917A
:10131000FC9193970995F80193838283D8018D916D
:101320009C911197019611969C938E9312962D91F4
:101330003C9113972115310501F182179307E9F4C8
:101340009296ED91FC9193970995F801938382838E
:101350001182108204A0F5A1E02D65C0F8018485FA
:101360009585668577859B01215031098217930702
:1013700071F4158614860E944D03F80180859185CD
:10138000A285B385892B8A2B8B2B41F323C0019631
:101390000E94150A95878487880F991F0288F38910
:1013A000E02DE80FF91F0190F081E02D09958823C9
:1013B000A9F2D8011C96ED91FC911D97EE0FFF1F2D
:1013C00054968D919C915597E80FF91F0190F081EB
:1013D000E02D29C00E949702D8011496CD90DD908F
:1013E000ED90FC901797DC01CB018C199D09AE099B
:1013F000BF09F801C084D184E284F3848C159D0573
:10140000AE05BF0508F4AACF00A4F1A5E02D0BC0DE
:10141000809113029091140290931602809315020A
:101420000E941C02D2CE0995F7CFAA1BBB1B51E12B
:1014300007C0AA1FBB1FA617B70710F0A61BB70B44
:10144000881F991F5A95A9F780959095BC01CD01E9
:101450000895EE0FFF1F0590F491E02D09940E946E
:10146000430A0C94240B0E941D0B58F00E94160B8B
:1014700040F029F45F3F29F00C940D0B51110C94AE
:10148000580B0C94130B0E94350B68F39923B1F39E
:10149000552391F3951B550BBB27AA27621773079A
:1014A000840738F09F5F5F4F220F331F441FAA1F2E
:1014B000A9F335D00E2E3AF0E0E832D091505040EA
:1014C000E695001CCAF72BD0FE2F29D0660F771F98
:1014D000881FBB1F261737074807AB07B0E809F07E
:1014E000BB0B802DBF01FF2793585F4F3AF09E3F03
:1014F000510578F00C940D0B0C94580B5F3FE4F3FE
:10150000983ED4F3869577956795B795F7959F5F45
:10151000C9F7880F911D9695879597F90895E1E091
:10152000660F771F881FBB1F621773078407BA07F0
:1015300020F0621B730B840BBA0BEE1F88F7E0954B
:1015400008950E943D0B88F09F5798F0B92F992776
:10155000B751B0F0E1F0660F771F881F991F1AF09E
:10156000BA95C9F714C0B13091F00E94570BB1E0A1
:1015700008950C94570B672F782F8827B85F39F0A0
:10158000B93FCCF3869577956795B395D9F73EF437
:1015900090958095709561957F4F8F4F9F4F0895DF
:1015A000E89409C097FB3EF49095809570956195FD
:1015B0007F4F8F4F9F4F9923A9F0F92F96E9BB27B3
:1015C0009395F695879577956795B795F111F8CF2F
:1015D000FAF4BB0F11F460FF1BC06F5F7F4F8F4F9A
:1015E0009F4F16C0882311F096E911C0772321F090
:1015F0009EE8872F762F05C0662371F096E8862F28
:1016000070E060E02AF09A95660F771F881FDAF77E
:10161000880F9695879597F9089597F99F6780E8C1
:1016200070E060E008959FEF80EC089500240A9434
:101630001616170618060906089500240A941216AD
:101640001306140605060895092E0394000C11F4E0
:10165000882352F0BB0F40F4BF2B11F460FF04C08D
:101660006F5F7F4F8F4F9F4F089557FD9058440FE6
:10167000551F59F05F3F71F04795880F97FB991FF1
:1016800061F09F3F79F087950895121613061406AE
:10169000551FF2CF4695F1DF08C01616170618063B
:1016A000991FF1CF86957105610508940895E89416
:1016B000BB2766277727CB0197F908950E94710B06
:1016C0000C94240B0E94160B38F00E941D0B20F086
:1016D000952311F00C940D0B0C94130B11240C9406
:1016E000580B0E94350B70F3959FC1F3950F50E096
:1016F000551F629FF001729FBB27F00DB11D639FC4
:10170000AA27F00DB11DAA1F649F6627B00DA11D69
:10171000661F829F2227B00DA11D621F739FB00D0F
:10172000A11D621F839FA00D611D221F749F33277F
:10173000A00D611D231F849F600D211D822F762F18
:101740006A2F11249F5750409AF0F1F088234AF0F5
:10175000EE0FFF1FBB1F661F771F881F9150504061
:10176000A9F79E3F510580F00C940D0B0C94580B7B
:101770005F3FE4F3983ED4F3869577956795B795E8
:10178000F795E7959F5FC1F7FE2B880F911D969502
:10179000879597F90895CF93DF938230910510F4E0
:1017A00082E090E0E0911203F091130320E030E03A
:1017B000C0E0D0E0309711F14081518148175907BE
:1017C000C0F04817590761F482819381209719F07E
:1017D0009B838A832BC0909313038093120326C0AC
:1017E0002115310519F04217530718F49A01BE016B
:1017F000DF01EF010280F381E02DDCCF21153105FF
:1018000009F1281B390B2430310590F412968D9183
:101810009C9113976115710521F0FB0193838283DD
:1018200004C09093130380931203FD01329644C0C9
:10183000FD01E20FF31F81939193225031092D9303
:101840003C933AC02091100330911103232B41F4B3
:10185000209104013091050130931103209310036E
:1018600020910201309103012115310541F42DB77A
:101870003EB74091060150910701241B350BE091C2
:101880001003F0911103E217F307A0F42E1B3F0B96
:101890002817390778F0AC014E5F5F4F24173507E2
:1018A00048F04E0F5F1F5093110340931003819334
:1018B000919302C0E0E0F0E0CF01DF91CF91089575
:1018C0000F931F93CF93DF93009709F48CC0FC0113
:1018D00032971382128200911203109113030115A3
:1018E000110581F420813181820F931F2091100313
:1018F000309111032817390779F5F0931103E0931C
:10190000100371C0D80140E050E0AE17BF0750F49B
:1019100012962D913C911397AD012115310509F1D6
:10192000D901F3CF9D01DA01338322836081718174
:10193000860F971F8217930769F4EC01288139817C
:10194000260F371F2E5F3F4F318320838A819B8173
:1019500093838283452B29F4F0931303E0931203BE
:1019600042C01396FC93EE931297ED014991599161
:101970009E01240F351FE217F30771F480819181D6
:10198000840F951F029611969C938E93828193816A
:1019900013969C938E931297E0E0F0E0D801129694
:1019A0008D919C911397009719F0F8018C01F6CF57
:1019B0008D919C9198012E5F3F4F820F931F209134
:1019C0001003309111032817390769F4309729F46F
:1019D000109213031092120302C01382128210930A
:1019E000110300931003DF91CF911F910F91089580
:1019F00081E090E0F8940C94250EFB01DC010D9041
:101A00000020E9F7119701900D920020E1F7089569
:101A1000FB01DC0101900D920020E1F708958F9207
:101A20009F92AF92BF92CF92DF92EF92FF92CF93AD
:101A3000DF93EC01688179818A819B816115710551
:101A40008105910521F464E279ED8BE597E02DE1C4
:101A500033EF41E050E00E94C20D49015A019B0161
:101A6000AC01A7EAB1E40E94E10D6B017C01ACEE90
:101A7000B4EFA50194010E94EF0DDC01CB018C0DA8
:101A80009D1DAE1DBF1DB7FF03C00197A109B04842
:101A900088839983AA83BB83BC01CD019F77DF91A3
:101AA000CF91FF90EF90DF90CF90BF90AF909F903D
:101AB0008F9008950E940F0D089588E091E00E9494
:101AC0000F0D0895609308017093090180930A0136
:101AD00090930B010895BB274A3031F4992322F4E7
:101AE000BDE2909581959F4F0C94990DBB27FA010B
:101AF000A62F6217710581059105330B30FB66F047
:101B0000AA27660F771F881F991FAA1FA21710F018
:101B1000A21B63953850A9F7A05DAA3308F0A95D10
:101B2000A19336F7B111B1931082CA010C94B20D92
:101B3000BB27FB015527AA27880F991FAA1FA417A7
:101B400010F0A41B83955051B9F7A05DAA3308F09B
:101B5000A95DA193009779F7B111B1931192CB01CF
:101B60000C94B20DDC01FC01672F71917723E1F732
:101B7000329704C07C916D9370836291AE17BF075A
:101B8000C8F30895052E97FB1EF400940E94D90D0A
:101B900057FD07D00E94F40D07FC03D04EF40C94BF
:101BA000D90D50954095309521953F4F4F4F5F4F40
:101BB000089590958095709561957F4F8F4F9F4FB9
:101BC00008950E94160EA59F900DB49F900DA49F9E
:101BD000800D911D11240895B7FF0C94E10D0E9412
:101BE000E10D821B930B0895A1E21A2EAA1BBB1BC9
:101BF000FD010DC0AA1FBB1FEE1FFF1FA217B307D9
:101C0000E407F50720F0A21BB30BE40BF50B661FEE
:101C1000771F881F991F1A9469F7609570958095B2
:101C200090959B01AC01BD01CF010895A29FB00129
:101C3000B39FC001A39F700D811D1124911DB29F00
:0E1C4000700D811D1124911D0895F894FFCFA1
:101C4E0001010000140380000100000000000100EB
:101C5E000200030004000500000001010101010162
:101C6E00010101000000443A5C4769745F526573DC
:101C7E00705C4172436F6E74726F6C5F67697468EB
:101C8E0075625F72656C656173655C7461736B5CC4
:101C9E004F70746F4C617365725C4F70746F4C61F2
:101CAE007365722E696E6F0000000000B3012F0184
:101CBE007C015A016E01FA010D0A003A0020004122
:101CCE0072432D656E64004172436F6E74726F6C59
:101CDE00002D2D2D2D2D00556E7469746C656400CC
:101CEE002D2D2D2D2D0A004172432D6267004300CC
:021CFE00530091
:107800000C94343C0C94513C0C94513C0C94513CE1
:107810000C94513C0C94513C0C94513C0C94513CB4
:107820000C94513C0C94513C0C94513C0C94513CA4
:107830000C94513C0C94513C0C94513C0C94513C94
:107840000C94513C0C94513C0C94513C0C94513C84
:107850000C94513C0C94513C0C94513C0C94513C74
:107860000C94513C0C94513C11241FBECFEFD8E036
:10787000DEBFCDBF11E0A0E0B1E0ECE9FFE702C060
:1078800005900D92A230B107D9F712E0A2E0B1E065
:1078900001C01D92AD30B107E1F70E942D3D0C945F
:1078A000CC3F0C94003C982F959595959595959582
:1078B000905D8F708A307CF0282F295A8091C0000B
:1078C00085FFFCCF9093C6008091C00085FFFCCF60
:1078D0002093C6000895282F205DF0CF982F809127
:1078E000C00085FFFCCF9093C6000895EF92FF92F1
:1078F0000F931F93EE24FF2487018091C00087FD22
:1079000017C00894E11CF11C011D111D81E4E8164B
:1079100082E4F8068FE0080780E0180770F3E09132
:107920000401F091050109958091C00087FFE9CF1E
:107930008091C6001F910F91FF90EF9008950E94D3
:10794000763C982F8091C00085FFFCCF9093C600B5
:1079500091362CF490330CF09053892F089597555D
:10796000892F08951F930E949F3C182F0E949F3CCF
:107970001295107F810F1F9108951F93182F882350
:1079800021F00E94763C1150E1F71F9108951F935A
:10799000182F0E94763C803249F0809103018F5F5E
:1079A000809303018530C1F01F9108958091C0003C
:1079B00085FFFCCF84E18093C6008091C00085FFE5
:1079C000FCCF1093C6008091C00085FFFCCF80E102
:1079D0008093C6001F910895E0910401F091050184
:1079E00009951F9108950E94763C803241F0809164
:1079F00003018F5F80930301853081F008958091AA
:107A0000C00085FFFCCF84E18093C6008091C00058
:107A100085FFFCCF80E18093C6000895E0910401CA
:107A2000F09105010995089540E951E08823A1F0FE
:107A30002D9A28EE33E0FA013197F1F721503040CA
:107A4000D1F72D9828EE33E0FA013197F1F7215064
:107A50003040D1F7815061F708953F924F925F9285
:107A60006F927F928F929F92AF92BF92CF92DF924E
:107A7000EF92FF920F931F93CF93DF93000080E16B
:107A80008093C4001092C50088E18093C10086E015
:107A90008093C2005098589A259A81E00E94143D24
:107AA00024E1F22E9EE1E92E85E9D82E0FE0C02ECA
:107AB00010E1B12EAA24A394B1E49B2EA6E58A2E50
:107AC000F2E57F2EE0E26E2E79E4572E63E5462E36
:107AD00050E5352E0E94763C8033B1F18133B9F107
:107AE000803409F46FC0813409F476C0823409F41B
:107AF00085C0853409F488C0803531F1823521F1A3
:107B0000813511F1853509F485C0863509F48DC0BC
:107B1000843609F496C0843709F403C1853709F423
:107B200072C1863709F466C0809103018F5F80932C
:107B30000301853079F6E0910401F0910501099582
:107B40000E94763C803351F60E94F33CC3CF0E94E2
:107B5000763C803249F78091C00085FFFCCFF092DF
:107B6000C6008091C00085FFFCCF9092C600809136
:107B7000C00085FFFCCF8092C6008091C00085FFC9
:107B8000FCCF7092C6008091C00085FFFCCF609250
:107B9000C6008091C00085FFFCCF5092C600809146
:107BA000C00085FFFCCF4092C6008091C00085FFD9
:107BB000FCCF3092C6008091C00085FFFCCFB09210
:107BC000C60088CF0E94763C863808F4BDCF0E945C
:107BD000763C0E94F33C7ECF0E94763C803809F4CC
:107BE0009CC0813809F40BC1823809F43CC1883942
:107BF00009F48FC080E00E94C73C6CCF84E10E94F2
:107C0000BD3C0E94F33C66CF85E00E94BD3C0E94D3
:107C1000F33C60CF0E94763C809306010E94763C44
:107C2000809307010E94F33C55CF0E94763C80333D
:107C300009F41DC183E00E94BD3C80E00E94C73C66
:107C400049CF0E94763C809309020E94763C809343
:107C5000080280910C028E7F80930C020E94763C79
:107C6000853409F415C18091080290910902892B8D
:107C700089F000E010E00E94763CF801E85FFE4FDA
:107C800080830F5F1F4F80910802909109020817AF
:107C9000190788F30E94763C803209F045CF809125
:107CA0000C0280FF01C16091060170910701660F0F
:107CB000771F7093070160930601A0910802B091AD
:107CC00009021097C9F0E8E0F1E09B01AD014E0F09
:107CD0005F1FF999FECF32BD21BD819180BDFA9A17
:107CE000F99A2F5F3F4FE417F50799F76A0F7B1F4B
:107CF00070930701609306018091C00085FFFCCF5F
:107D0000F092C6008091C00085FFFCCFB092C60003
:107D1000E1CE83E00E94C73CDDCE82E00E94C73CFA
:107D2000D9CE0E94763C809309020E94763C8093D3
:107D300008028091060190910701880F991F909386
:107D40000701809306010E94763C853409F4A6C0A1
:107D500080910C028E7F80930C020E94763C8032D0
:107D600009F0B8CE8091C00085FFFCCFF092C6002C
:107D7000609108027091090261157105B9F140E046
:107D800050E080910C02A82FA170B82FB27011C0E2
:107D9000BB2309F45CC0E0910601F0910701319624
:107DA000F0930701E09306014F5F5F4F46175707B7
:107DB000E8F4AA2369F3F999FECF209106013091E6
:107DC000070132BD21BDF89A90B58091C00085FFB2
:107DD000FCCF9093C6002F5F3F4F30930701209355
:107DE00006014F5F5F4F4617570718F38091C00099
:107DF00085FDE5CE8091C00085FFF8CFE0CE81E023
:107E00000E94C73C67CE0E94763C803209F08CCE3F
:107E10008091C00085FFFCCFF092C6008091C00029
:107E200085FFFCCFE092C6008091C00085FFFCCFAB
:107E3000D092C6008091C00085FFFCCFC092C600E2
:107E40008091C00085FFFCCFB092C60043CEE09188
:107E50000601F091070194918091C00085FFFCCF4D
:107E60009093C6009CCF80E10E94C73C33CE0E9415
:107E7000763C0E94763C182F0E94763C112309F430
:107E800083C0113009F484C08FE00E94C73C22CE29
:107E900080910C02816080930C02E5CE80910C02EF
:107EA000816080930C0259CF809107018823880F4D
:107EB000880B8A2180930B02809106019091070123
:107EC000880F991F90930701809306018091080203
:107ED00080FF09C080910802909109020196909359
:107EE000090280930802F894F999FECF1127E091D6
:107EF0000601F0910701C8E0D1E08091080290915D
:107F00000902103091F40091570001700130D9F34B
:107F100003E000935700E89500915700017001308D
:107F2000D9F301E100935700E89509901990009169
:107F3000570001700130D9F301E000935700E89534
:107F40001395103498F011270091570001700130FB
:107F5000D9F305E000935700E895009157000170B0
:107F60000130D9F301E100935700E895329602976A
:107F700009F0C7CF103011F00296E5CF112480919F
:107F8000C00085FFB9CEBCCE8EE10E94C73CA2CD19
:0C7F900085E90E94C73C9ECDF894FFCF0D
:027F9C00800063
:040000030000780081
:00000001FF
