:100000000C941E010C9446010C9446010C9446017C
:100010000C9446010C9446010C9446010C94460144
:100020000C9446010C9446010C9446010C94460134
:100030000C9446010C9446010C9446010C94460124
:100040000C9465050C9446010C94FD020C94D702A7
:100050000C9446010C9446010C9446010C94460104
:100060000C9446010C944601404F5554313A2331CB
:100070000A404F5554323A234E6F476F4375650A15
:10008000404F5554333A23330A404F5554343A23A2
:10009000476F4375650A404F5554353A234169729D
:1000A0007075660A404F5554363A2357617465722D
:1000B0000A404F5554373A23370A404F5554383A7F
:1000C00023380A40494E313A23310A40494E323AE8
:1000D000234C69636B0A40494E333A23330A404943
:1000E0004E343A23340A40494E353A23350A4049C2
:1000F0004E363A23360A4043313A696E6974206CB1
:1001000069636B730A40433153313A576169742014
:100110006C69636B0A40433153323A5761746572BC
:100120000A40433153333A0A4043323A476F20740E
:100130007269616C0A40433253313A74696D6520CB
:10014000696E74657276616C0A40433253323A4389
:1001500075650A40433253333A77616974206C699C
:10016000636B0A40433253343A57617465720A40F4
:10017000433253353A4D6973730A40433253363A2A
:100180000A4043333A4E6F476F20747269616C0ABC
:1001900040433353313A74696D6520696E746572FA
:1001A00076616C0A40433353323A4375650A4043E3
:1001B0003353333A77616974206C69636B0A404347
:1001C0003353343A416972707566660A404333535B
:1001D000353A4D6973730A40433353363A0A000087
:1001E000000000250028002B00000000002400274C
:1001F000002A000000000023002600290004040457
:1002000004040404040202020202020303030303BF
:10021000030102040810204080010204081020019C
:10022000020408102000000008000201000003047E
:10023000070000000000000000003A0911241FBE62
:10024000CFEFD8E0DEBFCDBF25E0A6EBB1E001C027
:100250001D92A33AB207E1F711E0A0E0B1E0EEE2AF
:10026000F5E202C005900D92A63BB107D9F711E067
:10027000CEE1D1E004C02197FE010E94920ECD3163
:10028000D107C9F70E94E9090C9495120C9400005B
:1002900090E0FC01EF5EFD4F2491FC01E350FE4F26
:1002A0008491882399F090E0880F991FFC01E75111
:1002B000FE4FA591B491FC01E152FE4F85919491BE
:1002C0008FB7F894EC91E22BEC938FBF0895CF9207
:1002D000DF92EF92FF920F931F93CF93DF936C0106
:1002E0007A018B01C0E0D0E0CE15DF0589F0D8019E
:1002F0006D918D01D601ED91FC910190F081E02D81
:10030000C6010995892B11F47E0102C02196ECCF1C
:10031000C701DF91CF911F910F91FF90EF90DF9078
:10032000CF900895FC01918D828D981761F0828D98
:10033000DF01A80FB11D5D968C91928D9F5F9F7319
:10034000928F90E008958FEF9FEF0895FC01918DBB
:10035000828D981731F0828DE80FF11D858D90E028
:1003600008958FEF9FEF0895FC01918D228D892FC5
:1003700090E0805C9F4F821B91098F7399270895AD
:1003800083E192E00E94B40121E0892B09F420E08E
:10039000822F0895FC01848DDF01A80FB11DA35A9F
:1003A000BF4F2C91848D90E001968F739927848F95
:1003B000A689B7892C93A089B1898C9180648C938C
:1003C000938D848D981306C00288F389E02D808177
:1003D0008F7D80830895EF92FF920F931F93CF93A9
:1003E000DF93EC0181E0888F9B8D8C8D981305C085
:1003F000E889F989808185FD24C0F62E0B8D10E0F7
:100400000F5F1F4F0F731127E02E8C8DE8120CC069
:100410000FB607FCFACFE889F989808185FFF5CF0F
:10042000CE010E94CA01F1CF8B8DFE01E80FF11DB4
:10043000E35AFF4FF0820B8FEA89FB89808180624B
:1004400007C0EE89FF896083E889F989808180642B
:10045000808381E090E0DF91CF911F910F91FF9019
:10046000EF900895CF93DF93EC01888D8823C9F036
:10047000EA89FB89808185FD05C0A889B9898C91AD
:1004800086FD0FC00FB607FCF5CF808185FFF2CF48
:10049000A889B9898C9185FFEDCFCE010E94CA0150
:1004A000E7CFDF91CF91089580E090E0892B29F08C
:1004B0000E94C00181110C94000008950E946811EF
:1004C000009769F0FC0101900020E9F73197AF0136
:1004D000481B590BBC0183E192E00C94670180E05A
:1004E00090E00895CF93DF9300D000D0CDB7DEB772
:1004F00016161706180619067CF49B01AC016983D1
:100500003A834B835C830E94CD1129813A814B81D0
:100510005C810E94321203C060E070E0CB010F905A
:100520000F900F900F90DF91CF9108950F931F932D
:10053000CF93DF93E4E3F2E08491E0E2F2E0D49140
:10054000ECE0F2E0C491CC23A1F081110E940005FF
:10055000EC2FF0E0EE0FFF1FED50FE4FA591B49190
:10056000EC91ED2331E020E009F430E0832F922F6D
:1005700002C080E090E02091120221FB002700F9E8
:1005800010E0802791278170DF91CF911F910F910B
:100590000895CF93DF930E946002EC0188E791E019
:1005A0000E9460028C0F9D1FDF91CF9108951F92D2
:1005B0000F920FB60F9211242F933F934F935F9397
:1005C0006F937F938F939F93AF93BF93EF93FF931B
:1005D00083E192E00E94CA01FF91EF91BF91AF9138
:1005E0009F918F917F916F915F914F913F912F914B
:1005F0000F900FBE0F901F9018951F920F920FB67D
:100600000F9211242F938F939F93EF93FF93E09179
:100610002302F09124028081E0912902F0912A02C4
:1006200082FD12C0908180912C028F5F8F73209188
:100630002D02821751F0E0912C02F0E0ED5EFD4FAB
:10064000958F80932C0201C08081FF91EF919F9143
:100650008F912F910F900FBE0F901F9018956DECFA
:100660007CEC8CEC9DE308958091CA019091CB01C4
:10067000089581E090E008958091CA019091CB01A6
:10068000089560E070E080EC9FE308958091C601DA
:100690009091C70108958091C8019091C901089572
:1006A00060E070E080E090E408958091C401909152
:1006B000C501089581E090E008958091C201909174
:1006C000C301089561E27EE480E090E00E9472023E
:1006D000605C73468F4F9F4F0E94420F20E030E4D2
:1006E0004CE156E40E94980E08956DEC7CEC8CEC85
:1006F0009DE308958091B6019091B701089585E634
:1007000090E008958091D8019091D901089581E0F9
:1007100090E008958091D8019091D901089560E00A
:1007200070E080EC9FE308958091D4019091D50111
:1007300008958091D6019091D701089560E070E00E
:1007400080E090E408958091D2019091D3010895C2
:1007500081E090E008958091D0019091D1010895B9
:1007600061E27EE480E090E00E947202605C734689
:100770008F4F9F4F0E94420F20E030E44CE156E43F
:100780000E94980E089562E070E080E090E00E9480
:1007900072026E5F7F4F660F771FFB01EA54FE4FB8
:1007A00080819181089560E070E080E89FE3089582
:1007B0008091DC019091DD01089560E070E080E0BF
:1007C00090E408958091E0019091E101089584E022
:1007D00090E008958091DE019091DF01089580E01E
:1007E00090E0089560E070E0CB01089580E0089506
:1007F00080E090E0089508950E94CD1124E630E055
:1008000040E050E00E94321261337105810591058C
:100810002CF060E070E080E490E404C060E070E000
:1008200080E090E40E940A0F660F771FFB01EA54F4
:10083000FE4F8081918108950E94CD1124E630E021
:1008400040E050E00E94321261337105810591054C
:100850002CF060E070E080E490E404C060E070E0C0
:1008600080E090E40E940A0F660F771FFB01EA54B4
:10087000FE4F8081918108950C9496020C9496020B
:100880000C9496020F931F93CF93DF93CDB7DEB7EF
:100890002A970FB6F894DEBF0FBECDBF8B01198229
:1008A000BC01CE0101960E946D114AE0BE01685F55
:1008B0007F4FC8010E94DB11BC01CE0101960E944E
:1008C0006D1169E771E0CE0101960E946D11CE01B4
:1008D00001960E9460022A960FB6F894DEBF0FBE02
:1008E000CDBFDF91CF911F910F9108952F923F922D
:1008F0004F925F926F927F928F929F92AF92BF9230
:10090000CF92DF92EF92FF920F931F93CF93DF93DB
:10091000CDB7DEB7E3970FB6F894DEBF0FBECDBFFD
:100920001B0129013A016701780180900E02909025
:100930000F02A0901002B09011021982BC01CE01EA
:1009400001960E946D114AE0BE01675D7F4FC101B3
:100950000E94DB11BC01CE0101960E946D1166EA76
:1009600071E0CE0101960E946D11C301B2016819B8
:1009700079098A099B092AE0AE01475D5F4F0E9411
:10098000E611BC01CE0101960E946D1168EA71E08A
:10099000CE0101960E946D11C701B6016419750957
:1009A000860997092AE0AE01475D5F4F0E94E61174
:1009B000BC01CE0101960E946D1169E771E0CE0184
:1009C00001960E946D11CE0101960E946002E3968D
:1009D0000FB6F894DEBF0FBECDBFDF91CF911F9150
:1009E0000F91FF90EF90DF90CF90BF90AF909F90CE
:1009F0008F907F906F905F904F903F902F900895D1
:100A0000833081F028F4813099F08230A1F008958C
:100A10008730A9F08830B9F08430D1F4809180001B
:100A20008F7D03C0809180008F7780938000089530
:100A300084B58F7702C084B58F7D84BD0895809181
:100A4000B0008F7703C08091B0008F7D8093B0009D
:100A500008951F93CF93DF93282F30E0F901EB5DCA
:100A6000FD4F8491F901EF5EFD4FD491F901E35000
:100A7000FE4FC491CC23C9F0162F81110E940005AE
:100A8000EC2FF0E0EE0FFF1FE152FE4FA591B49165
:100A90008FB7F894111105C09C91ED2FE095E923D3
:100AA00002C0EC91ED2BEC938FBFDF91CF911F91A2
:100AB00008952FB7F89460919B0570919C058091E3
:100AC0009D0590919E052FBF08951F920F920FB61E
:100AD0000F9211242F933F938F939F93AF93BF93C4
:100AE00080919B0590919C05A0919D05B0919E05DC
:100AF00030919A0523E0230F2D3720F40196A11D94
:100B0000B11D05C026E8230F0296A11DB11D20933B
:100B10009A0580939B0590939C05A0939D05B093A7
:100B20009E058091E2019091E301A091E401B091D2
:100B3000E5010196A11DB11D8093E2019093E301AF
:100B4000A093E401B093E501BF91AF919F918F9184
:100B50003F912F910F900FBE0F901F9018956F929D
:100B60007F928F929F92AF92BF92CF92DF92EF923D
:100B7000FF920F931F93CF93DF93EC015B014A0128
:100B80000A811B818C819D810817190709F052C0C9
:100B9000780182E0E80EF11CFD82EC82E1E8EE16BD
:100BA000EFE3FE0620F4C701880F991F02C08FEF04
:100BB0009FEF0E943B106C01F1E8EF16FFE3FF0688
:100BC00020F4C701880F991F02C08FEF9FEF0E948A
:100BD0003B107C01D6013C0140E050E08E819F81BA
:100BE00040175107C9F0BA01660F771F9C01260F05
:100BF000371FF901808191818D939D938885998517
:100C0000680F791FFB0180819181F301819391939A
:100C10003F014F5F5F4FE2CF009711F00E94D0106D
:100C200088859985009711F00E94D010CE82DF82CE
:100C3000E886F9868A819B819C01220F331FEE8111
:100C4000FF81E20FF31FB182A08248855985FA0126
:100C5000E20FF31F9182808201969B838A83DF914A
:100C6000CF911F910F91FF90EF90DF90CF90BF90A9
:100C7000AF909F908F907F906F900895CF93DF9368
:100C8000EC011982188281E090E09B838A839D8326
:100C90008C8382E090E00E943B109F838E8382E0F1
:100CA00090E00E943B1099878887DF91CF9108954B
:100CB0008F929F92AF92BF92CF92DF92EF92FF926C
:100CC0000F931F93CF93DF9300D000D01F92CDB727
:100CD000DEB78C018FE495E5A4E5B0E089839A83C3
:100CE000AB83BC8380910101811107C0F801E659F3
:100CF000FE4F8081811137C09DC0109201018CE1AF
:100D000090E06D830E943B105C0180939805B09247
:100D100099058EE090E00E943B106C01809396054F
:100D2000D092970580939405D092950588E390E042
:100D30000E943B10909393058093920588E390E086
:100D40000E943B109093910580939005D601F50188
:100D500080E090E06D811D928193919301968E3099
:100D60009105C9F7C3CFC0909605D0909705C00EE6
:100D7000D11EF6018081811129C0662309F45AC071
:100D8000C801880F991F880F991FA0909205B090F5
:100D90009305A80EB91E0E945905F5016083718361
:100DA0008283938381E0F6018083000F111FE0911D
:100DB0009805F0919905E00FF11F608171816150F4
:100DC00071098AEA91E00E94420434C0611132C084
:100DD0005801AA0CBB1CAA0CBB1C809090059090DB
:100DE00091058A0C9B1C0E945905F4016083718354
:100DF00082839383F60110822091920530919305AE
:100E0000F901EA0DFB1D2081318142815381000FE0
:100E1000111FE0919805F0919905E00FF11F0190E5
:100E2000F081E02D31977B018C01BF01CE0101964D
:100E30000E9476040F900F900F900F900F90DF910B
:100E4000CF911F910F91FF90EF90DF90CF90BF90C7
:100E5000AF909F908F90089560E08CE00E942905EC
:100E600060E08CE090E00E94580660E08DE00E9417
:100E7000290560E08DE090E00E9458068CEA91E040
:100E80000E94C902FFCF2F923F924F925F926F92C2
:100E90007F928F929F92AF92BF92CF92DF92EF920A
:100EA000FF920F931F93CF93DF9300D000D000D019
:100EB000CDB7DEB789E49EE4A0E089839A83AB8353
:100EC00080910001811120C096B180911202982773
:100ED0009C8310917705192709F4ABC00E9459052E
:100EE0001B012C0198E7C92E95E0D92E2EE5A22EE4
:100EF00021E0B22E80E090E0E12FF0E0FE83ED8370
:100F0000FC816F2E712C57C01092000180910E024F
:100F100090910F02A0911002B09111028093780578
:100F200090937905A0937A05B0937B0580937C0517
:100F300090937D05A0937E05B0937F0580938005F7
:100F400090938105A0938205B093830580938405D7
:100F500090938505A0938605B093870580938805B7
:100F600090938905A0938A05B0938B0580938C0597
:100F700090938D05A0938E05B0938F0580911202FA
:100F8000EEE5F1E0812C912C5401839421E0EA36C6
:100F9000F20771F090813296B501A40104C0440FAC
:100FA000551F661F771F9A95D2F740958423EECF81
:100FB0008093120289CF9C012F5F3F4F49012D8101
:100FC0003E81082E02C0359527950A94E2F720FF4E
:100FD00023C0F30102C0F595E7958A95E2F7CF01AA
:100FE000F60180FF0EC02082318242825382F501D9
:100FF000608171816F5F7F4F84EB91E00E944204BA
:101000000BC0208131814281538182017101B40181
:10101000CE0101960E947604C401F4E0CF0ED11CEB
:1010200022E0A20EB11C8630910529F63C81309356
:10103000770580917505909176050196823391052B
:101040002CF4909376058093750591C010927605E7
:101050001092750583E192E00E94B4014C01A12C2D
:10106000B12C412C512C3201439411E0A814B90445
:101070000CF07DC083E192E00E94920140917305E3
:1010800050917405FA01E759FA4F8A3019F08B3301
:1010900009F062C01182809169058E3511F5909139
:1010A0006A054230510509F052C08FEC890F883033
:1010B00008F04DC0C92E990FDD088FE2C81AD1087B
:1010C000E0919405F0919505EC0DFD1D30803126E1
:1010D000632D8C2D0E942905632DC6010E945806A0
:1010E00036C08632A1F520916A054230510579F566
:1010F0008FEC820F883058F5022E000C330B2153F1
:10110000310980911202482F50E0022E02C05595FD
:1011100047950A94E2F740FD0DC0B301A20104C057
:10112000440F551F661F771F2A95D2F7482B40930F
:1011300012020DC0B301A20104C0440F551F661F67
:10114000771F2A95D2F7409584238093120210923C
:1011500074051092730507C080834F5F5F4F5093F3
:101160007405409373059FEFA91AB90A7FCF26969D
:101170000FB6F894DEBF0FBECDBFDF91CF911F91A8
:101180000F91FF90EF90DF90CF90BF90AF909F9026
:101190008F907F906F905F904F903F902F90089529
:1011A0008F929F92AF92BF92CF92DF92EF92FF9277
:1011B000CF93DF93EC014A015B0161E00E942905B6
:1011C00061E0CE010E9458060E9459056B017C0126
:1011D00020E030E04AE754E4C501B4010E94CE0F9C
:1011E0000E94110FC60ED71EE81EF91E0E94590557
:1011F0006C157D058E059F0518F40E944307F6CFF8
:1012000060E08C2F0E94290560E0CE01DF91CF9134
:10121000FF90EF90DF90CF90BF90AF909F908F9016
:101220000C94580640E050E060E07FE386E090E0F8
:101230000C94D00840E050E060E07FE383E090E071
:101240000C94D0084AE959E969E97DE387E090E028
:101250000C94D00840E050E060E07FE385E090E04F
:101260000C94D00848EB5EE165E87DE387E090E010
:101270000C94D0084F925F926F927F928F929F92C0
:10128000AF92BF92CF92DF92EF92FF920F931F9394
:10129000CF93DF93109216021092150288EE93E01E
:1012A000A0E0B0E08093170290931802A093190277
:1012B000B0931A0282E591E0909314028093130296
:1012C00085EC90E09093200280931F0284EC90E0E4
:1012D000909322028093210280EC90E0909324026C
:1012E0008093230281EC90E0909326028093250264
:1012F00082EC90E0909328028093270286EC90E0A5
:1013000090932A028093290210922C0210922D02AF
:1013100010922E0210922F02C7EBD2E003EC12E0E3
:1013200088248A94982C9BEF692E93E0792E26EFDF
:10133000C22E23E0D22E3FEEE32E33E0F32E48EF11
:10134000A42E43E0B42E52EF452E53E0552E0E94BA
:1013500059056C837D838E839F83188619861A8630
:101360001B86C8010E943E069B828A821F8A1E8AB3
:10137000198E188E198218827B8E6A8E7D8E6C8EE5
:10138000DF8ECE8EF801F58AE48AB78AA68A538E5C
:10139000428ED78EC68EF18EE08EF58EE48EFDA63F
:1013A000ECA6AE96025D1F4FF5E0C936DF0779F671
:1013B000DF91CF911F910F91FF90EF90DF90CF9031
:1013C000BF90AF909F908F907F906F905F904F9065
:1013D0000895CF93DF93CDB7DEB72B970FB6F89470
:1013E000DEBF0FBECDBF789484B5826084BD84B566
:1013F000816084BD85B5826085BD85B5816085BD10
:1014000080916E00816080936E00109281008091C7
:10141000810082608093810080918100816080934F
:101420008100809180008160809380008091B10074
:1014300084608093B1008091B00081608093B0009F
:1014400080917A00846080937A0080917A00826033
:1014500080937A0080917A00816080937A008091F5
:101460007A00806880937A001092C100E091230294
:10147000F091240282E08083E0911F02F09120022B
:101480001082E0912102F091220287E08083109285
:101490002B02E0912702F091280286E08083E09100
:1014A0002502F0912602808180618083E0912502EF
:1014B000F0912602808188608083E0912502F0917E
:1014C0002602808180688083E0912502F0912602C7
:1014D00080818F7D80838BE791E00E94C90208E6BE
:1014E00010E0F8016491611130C082E00E9448016F
:1014F00083E00E94480184E00E94480185E00E9448
:10150000480186E00E94480187E00E94480188E087
:101510000E94480189E00E94480182E490E00E9414
:101520003B108C016CE071E00E947811F801019091
:101530000020E9F73197E01BF10BD80180E090E043
:10154000C12CD12CE12CF12C19C0E0911302F091A7
:1015500014020190F081E02D83E192E009950F5F84
:101560001F4F892B09F0BDCFC0CF2D912C3551F0E5
:101570002F3241F02E3209F46C0101968E179F072D
:10158000A1F702C07C01F9CFF801EC0DFD1D10821E
:1015900085E891E00E946002EC14FD041CF08BE8E9
:1015A00091E004C0C7010196800F911F0E94600264
:1015B00084E991E00E9460020115110519F0C8014B
:1015C0000E94D01081E090E09093CE028093CD02F3
:1015D0009093D0028093CF0227EB32E03093DD016D
:1015E0002093DC019093FC028093FB0222E030E028
:1015F0003093FE022093FD0225EE32E03093DF01AE
:101600002093DE0190932A038093290383E090E0E6
:1016100090932C0380932B0383E193E09093E1015B
:101620008093E001E1E4F3E0AEECB1E081E090E032
:1016300022E030E0378B268B918F808FED93FD93E6
:101640000196BE9687309105A9F7E5E5F4E0A0EC98
:10165000B1E081E090E023E030E0378B268B918F82
:10166000808FED93FD930196BE9687309105A9F783
:101670008091B3029091B4029093B7018093B60128
:101680009093BF018093BE019093CD018093CC01D4
:101690009093DB018093DA0187EB92E09093B9019C
:1016A0008093B801E090CE01F090CF01F092BB01A1
:1016B000E092BA010091C0011091C1011093BD01E7
:1016C0000093BC019093B6028093B50280E494E04D
:1016D0009093E2028093E1028AEE93E09093E40219
:1016E0008093E302AC0160E474E083EC92E00E943A
:1016F000AF0582E399E0909302038093010387EEA4
:1017000093E0909308038093070382EE93E0909315
:101710000A03809309038DED93E090930C0380936B
:101720000B0388ED93E090930E0380930D0383EDFC
:1017300093E090933A038093390383EC93E0909382
:101740003C0380933B0380EB93E0D70197969C93F7
:101750008E9396978BEA93E099969C938E939897A5
:10176000E091D001F091D1018AE299E0958F848FC8
:1017700088EA93E093A382A383EA93E095A384A3EA
:10178000E091D201F091D3018EE993E097A386A373
:1017900089E993E091A780A78EE394E093A782A7BD
:1017A00084E993E095A784A7AC016EE374E0CF01D0
:1017B0000C960E94AF05E091D401F091D50182E230
:1017C00099E0958F848F8FE893E097A386A38AE8AA
:1017D00093E091A780A7E091D601F091D70187E827
:1017E00093E093A382A382E893E095A384A3E0917E
:1017F000D801F091D9018FE793E093A382A38AE700
:1018000093E095A384A385E793E097A386A38CE157
:1018100094E091A780A782E693E0F80197A386A3BE
:101820008DE593E091A780A7E091C201F091C301FB
:101830008AE199E0958F848F8AE593E093A382A350
:1018400085E593E095A384A3E091C401F091C501DF
:1018500080E593E097A386A38BE493E091A780A70C
:101860008CE394E093A782A786E493E095A784A7EE
:10187000AC016CE374E0CF010C960E94AF05E091DF
:10188000C601F091C70182E199E0958F848F81E4D0
:1018900093E097A386A38CE393E091A780A7E091C0
:1018A000C801F091C90189E393E093A382A384E383
:1018B00093E095A384A3E091CA01F091CB018FE25C
:1018C00093E097A386A38CEF93E091A780A78EE285
:1018D00090E00E943B108C010E945905D80114969B
:1018E0006D937D938D939C931797F80110861186C5
:1018F00012861386C8010C960E943E068FEF9FEF5A
:10190000D80113969C938E93129757961C921E9211
:10191000569759961C921E92589711961C921E9299
:101920008BEF93E05B969C938E935A975D969C9376
:101930008E935C9726EF33E05F963C932E935E97F1
:101940008FEE93E091969C938E93909742EF53E0A5
:1019500097965C934E9396979B963C932E939A976B
:1019600095969C938E93949799969C938E93989723
:101970009D969C938E939C971093B4020093B30210
:101980008CE297E093969C938E9392978CE00E94C2
:1019900048018DE00E94480160E08CE00E9429052A
:1019A00060E08CE090E00E94580660E08DE00E94CC
:1019B000290560E08DE090E00E94580683E192E006
:1019C0000E94B401892BD1F383E192E00E9492013D
:1019D0008236910599F783E192E00E94B401892B48
:1019E00029F083E192E00E949201F5CF3FB7F8948D
:1019F0008091E2019091E301A091E401B091E501B1
:101A000026B5A89B05C02F3F19F00196A11DB11D59
:101A10003FBFBA2FA92F982F8827820F911DA11D94
:101A2000B11DBC01CD0152E0660F771F881F991FC1
:101A30005A95D1F7611571058105910511F00E9444
:101A4000D2118BE991E00E94C9020E94590560936E
:101A50000E0270930F02809310029093110261E0C6
:101A60008CE00E94290561E08CE090E00E9458061D
:101A700061E08DE00E94290561E08DE090E00E9428
:101A800058060091B5021091B6020115110509F42E
:101A9000E1C00E945905F8016483758386839783AA
:101AA000028CF38DE02D0995D8015C96ED91FC91A7
:101AB0005D970995F801C480D580E680F780109283
:101AC000E60162EA71E086EE91E00E946D114AE063
:101AD000BE016F5F7F4FD80156968D919C915797AD
:101AE0000E94DB11BC0186EE91E00E946D1164EA58
:101AF00071E086EE91E00E946D114AE0BE016F5FD9
:101B00007F4FF801808D918D0E94DB11BC0186EE24
:101B100091E00E946D1166EA71E086EE91E00E940C
:101B20006D1180910E0290910F02A0911002B09160
:101B30001102A7019601281B390B4A0B5B0BCA0146
:101B4000B9012AE0AE014F5F5F4F0E94E611BC0170
:101B500086EE91E00E946D1169E771E086EE91E0FA
:101B60000E946D1186EE91E00E9460020E94430780
:101B7000D8015E96ED91FC915F970995882331F02D
:101B8000D8019096ED91FC919197B6C0F8018281B1
:101B90009381019649F4D8019296ED91FC91939727
:101BA0000995F80193838283D8018D919C911197B7
:101BB000019611969C938E9312962D913C911397BA
:101BC0002115310589F08217930771F49296ED91F2
:101BD000FC9193970995F801938382831182108277
:101BE00004A0F5A1E02D88C0D8019696ED91FC9156
:101BF0009797099520E030E04AE754E40E94CE0F21
:101C00000E94110FF8016087718782879387F8011E
:101C100080859185A285B385892B8A2B8B2B29F111
:101C20000E945905D8011496CD90DD90ED90FC905E
:101C30001797DC01CB018C199D09AE09BF09F8018A
:101C4000C084D184E284F3848C159D05AE05BF0564
:101C500060F04FC08091B3029091B4029093B602AD
:101C60008093B5020E9454020CCF96B1809112026B
:101C700089279091B202282F2927322F38233093B9
:101C8000B10292239093B0028093B202F80184854E
:101C90009585668577859B012150310982179307C9
:101CA00029F4158614860E944307B1CF01960E943D
:101CB0007E0E95878487880F991F0288F389E02D0F
:101CC000E80FF91F0190F081E02D09958823F1F2CA
:101CD000D8011C96ED91FC911D97EE0FFF1F5496B5
:101CE0008D919C915597E80FF91F0190F081E02D9F
:101CF00003C000A4F1A5E02D0995B0CFAA1BBB1B22
:101D000051E107C0AA1FBB1FA617B70710F0A61BFB
:101D1000B70B881F991F5A95A9F780959095BC011C
:101D2000CD010895EE0FFF1F0590F491E02D099469
:101D30000E94AC0E0C94940F0E948D0F58F00E94DC
:101D4000860F40F029F45F3F29F00C947D0F51116C
:101D50000C94C80F0C94830F0E94A50F68F399236D
:101D6000B1F3552391F3951B550BBB27AA27621797
:101D70007307840738F09F5F5F4F220F331F441FA4
:101D8000AA1FA9F335D00E2E3AF0E0E832D09150D8
:101D90005040E695001CCAF72BD0FE2F29D0660FC5
:101DA000771F881FBB1F261737074807AB07B0E808
:101DB00009F0BB0B802DBF01FF2793585F4F3AF00E
:101DC0009E3F510578F00C947D0F0C94C80F5F3F37
:101DD000E4F3983ED4F3869577956795B795F79594
:101DE0009F5FC9F7880F911D9695879597F908957C
:101DF000E1E0660F771F881FBB1F62177307840718
:101E0000BA0720F0621B730B840BBA0BEE1F88F726
:101E1000E09508950E94110F6894B1110C94C80FB9
:101E200008950E94AD0F88F09F5798F0B92F992719
:101E3000B751B0F0E1F0660F771F881F991F1AF0B5
:101E4000BA95C9F714C0B13091F00E94C70FB1E044
:101E500008950C94C70F672F782F8827B85F39F043
:101E6000B93FCCF3869577956795B395D9F73EF44E
:101E700090958095709561957F4F8F4F9F4F0895F6
:101E8000E89409C097FB3EF4909580957095619514
:101E90007F4F8F4F9F4F9923A9F0F92F96E9BB27CA
:101EA0009395F695879577956795B795F111F8CF46
:101EB000FAF4BB0F11F460FF1BC06F5F7F4F8F4FB1
:101EC0009F4F16C0882311F096E911C0772321F0A7
:101ED0009EE8872F762F05C0662371F096E8862F3F
:101EE00070E060E02AF09A95660F771F881FDAF796
:101EF000880F9695879597F9089597F99F6780E8D9
:101F000070E060E008959FEF80EC089500240A944B
:101F10001616170618060906089500240A941216C4
:101F20001306140605060895092E0394000C11F4F7
:101F3000882352F0BB0F40F4BF2B11F460FF04C0A4
:101F40006F5F7F4F8F4F9F4F089557FD9058440FFD
:101F5000551F59F05F3F71F04795880F97FB991F08
:101F600061F09F3F79F087950895121613061406C5
:101F7000551FF2CF4695F1DF08C016161706180652
:101F8000991FF1CF86957105610508940895E8942D
:101F9000BB2766277727CB0197F908950E94E10FA9
:101FA0000C94940F0E94860F38F00E948D0F20F041
:101FB000952311F00C947D0F0C94830F11240C9435
:101FC000C80F0E94A50F70F3959FC1F3950F50E0C5
:101FD000551F629FF001729FBB27F00DB11D639FDB
:101FE000AA27F00DB11DAA1F649F6627B00DA11D81
:101FF000661F829F2227B00DA11D621F739FB00D27
:10200000A11D621F839FA00D611D221F749F332796
:10201000A00D611D231F849F600D211D822F762F2F
:102020006A2F11249F5750409AF0F1F088234AF00C
:10203000EE0FFF1FBB1F661F771F881F9150504078
:10204000A9F79E3F510580F00C947D0F0C94C80FAA
:102050005F3FE4F3983ED4F3869577956795B795FF
:10206000F795E7959F5FC1F7FE2B880F911D969519
:10207000879597F90895CF93DF938230910510F4F7
:1020800082E090E0E091A105F091A20520E030E02F
:10209000C0E0D0E0309711F14081518148175907D5
:1020A000C0F04817590761F482819381209719F095
:1020B0009B838A832BC09093A2058093A10526C0A1
:1020C0002115310519F04217530718F49A01BE0182
:1020D000DF01EF010280F381E02DDCCF2115310516
:1020E00009F1281B390B2430310590F412968D919B
:1020F0009C9113976115710521F0FB0193838283F5
:1021000004C09093A2058093A105FD01329644C0BE
:10211000FD01E20FF31F81939193225031092D931A
:102120003C933AC020919F053091A005232B41F4A8
:1021300020910401309105013093A00520939F0563
:1021400020910201309103012115310541F42DB791
:102150003EB74091060150910701241B350BE091D9
:102160009F05F091A005E217F307A0F42E1B3F0B8B
:102170002817390778F0AC014E5F5F4F24173507F9
:1021800048F04E0F5F1F5093A00540939F05819329
:10219000919302C0E0E0F0E0CF01DF91CF9108958C
:1021A0000F931F93CF93DF93009709F48CC0FC012A
:1021B0003297138212820091A1051091A205011598
:1021C000110581F420813181820F931F20919F0599
:1021D0003091A0052817390779F5F093A005E09311
:1021E0009F0571C0D80140E050E0AE17BF0750F422
:1021F00012962D913C911397AD012115310509F1EE
:10220000D901F3CF9D01DA0133832283608171818B
:10221000860F971F8217930769F4EC012881398193
:10222000260F371F2E5F3F4F318320838A819B818A
:1022300093838283452B29F4F093A205E093A105B3
:1022400042C01396FC93EE931297ED014991599178
:102250009E01240F351FE217F30771F480819181ED
:10226000840F951F029611969C938E938281938181
:1022700013969C938E931297E0E0F0E0D8011296AB
:102280008D919C911397009719F0F8018C01F6CF6E
:102290008D919C9198012E5F3F4F820F931F20914B
:1022A0009F053091A0052817390769F4309729F464
:1022B0001092A2051092A10502C0138212821093FF
:1022C000A00500939F05DF91CF911F910F91089575
:1022D00081E090E0F8940C949512FB01DC010D90E4
:1022E0000020E9F7119701900D920020E1F7089581
:1022F000FB01DC0101900D920020E1F708958F921F
:102300009F92AF92BF92CF92DF92EF92FF92CF93C4
:10231000DF93EC01688179818A819B816115710568
:102320008105910521F464E279ED8BE597E02DE1DB
:1023300033EF41E050E00E94321249015A019B0103
:10234000AC01A7EAB1E40E9451126B017C01ACEE32
:10235000B4EFA50194010E945F12DC01CB018C0D4A
:102360009D1DAE1DBF1DB7FF03C00197A109B04859
:1023700088839983AA83BB83BC01CD019F77DF91BA
:10238000CF91FF90EF90DF90CF90BF90AF909F9054
:102390008F9008950E947F11089588E091E00E9437
:1023A0007F110895609308017093090180930A01D9
:1023B00090930B010895BB274A3031F4992322F4FE
:1023C000BDE2909581959F4F0C940912BB27FA01AD
:1023D000A62F6217710581059105330B30FB66F05E
:1023E000AA27660F771F881F991FAA1FA21710F030
:1023F000A21B63953850A9F7A05DAA3308F0A95D28
:10240000A19336F7B111B1931082CA010C94221234
:10241000BB27FB015527AA27880F991FAA1FA417BE
:1024200010F0A41B83955051B9F7A05DAA3308F0B2
:10243000A95DA193009779F7B111B1931192CB01E6
:102440000C942212DC01FC01672F71917723E1F7D4
:10245000329704C07C916D9370836291AE17BF0771
:10246000C8F30895052E97FB1EF400940E944912AC
:1024700057FD07D00E94641207FC03D04EF40C9461
:10248000491250954095309521953F4F4F4F5F4FE2
:10249000089590958095709561957F4F8F4F9F4FD0
:1024A00008950E948612A59F900DB49F900DA49F41
:1024B000800D911D11240895B7FF0C9451120E94B4
:1024C0005112821B930B0895A1E21A2EAA1BBB1B6B
:1024D000FD010DC0AA1FBB1FEE1FFF1FA217B307F0
:1024E000E407F50720F0A21BB30BE40BF50B661F06
:1024F000771F881F991F1A9469F7609570958095CA
:1025000090959B01AC01BD01CF010895A29FB00140
:10251000B39FC001A39F700D811D1124911DB29F17
:0E252000700D811D1124911D0895F894FFCFB8
:10252E0001010000A305800001000000433A5C5544
:10253E00736572735C3636365C446F63756D656EAB
:10254E0074735C4172436F6E74726F6C2D72656C36
:10255E00656173655C7461736B5C476F5F4E6F474B
:10256E006F5C476F5F4E6F476F2E696E6F00000096
:10257E000000EB016701B4019201A60132020000D6
:10258E00010002000300040005000000010101012A
:10259E0001010101010000000D0A004172436F6E3E
:1025AE0074726F6C002D2D2D2D2D00556E74697467
:1025BE006C6564002D2D2D2D2D0A004172432D6268
:1025CE006700430053003A00200025004172432D5E
:0625DE00656E640024009C
:107E0000112484B714BE81FFF0D085E080938100F7
:107E100082E08093C00088E18093C10086E0809377
:107E2000C20080E18093C4008EE0C9D0259A86E02C
:107E300020E33CEF91E0309385002093840096BBD3
:107E4000B09BFECF1D9AA8958150A9F7CC24DD24C4
:107E500088248394B5E0AB2EA1E19A2EF3E0BF2EE7
:107E6000A2D0813461F49FD0082FAFD0023811F036
:107E7000013811F484E001C083E08DD089C08234E0
:107E800011F484E103C0853419F485E0A6D080C0E4
:107E9000853579F488D0E82EFF2485D0082F10E0AE
:107EA000102F00270E291F29000F111F8ED06801E7
:107EB0006FC0863521F484E090D080E0DECF843638
:107EC00009F040C070D06FD0082F6DD080E0C81688
:107ED00080E7D80618F4F601B7BEE895C0E0D1E017
:107EE00062D089930C17E1F7F0E0CF16F0E7DF06D8
:107EF00018F0F601B7BEE89568D007B600FCFDCFD4
:107F0000A601A0E0B1E02C9130E011968C91119780
:107F100090E0982F8827822B932B1296FA010C0160
:107F200087BEE89511244E5F5F4FF1E0A038BF0790
:107F300051F7F601A7BEE89507B600FCFDCF97BE46
:107F4000E89526C08437B1F42ED02DD0F82E2BD052
:107F50003CD0F601EF2C8F010F5F1F4F84911BD097
:107F6000EA94F801C1F70894C11CD11CFA94CF0C13
:107F7000D11C0EC0853739F428D08EE10CD085E9AC
:107F80000AD08FE07ACF813511F488E018D01DD067
:107F900080E101D065CF982F8091C00085FFFCCF94
:107FA0009093C60008958091C00087FFFCCF809118
:107FB000C00084FD01C0A8958091C6000895E0E648
:107FC000F0E098E1908380830895EDDF803219F02E
:107FD00088E0F5DFFFCF84E1DECF1F93182FE3DFCA
:107FE0001150E9F7F2DF1F91089580E0E8DFEE27F6
:047FF000FF270994CA
:027FFE00040479
:0400000300007E007B
:00000001FF
