:100000000C941E010C9446010C9446010C9446017C
:100010000C9446010C9446010C9446010C94460144
:100020000C9446010C9446010C9446010C94460134
:100030000C9446010C9446010C9446010C94460124
:100040000C941D040C9446010C942B080C94050888
:100050000C9446010C9446010C9446010C94460104
:100060000C9446010C944601000000002400270077
:100070002A0000000000250028002B0000000000DE
:1000800023002600290004040404040404040202DA
:100090000202020203030303030301020408102007
:1000A0004080010204081020010204081020000012
:1000B0000008000201000003040700000000000027
:1000C0000000404F5554313A23310A404F555432C5
:1000D0003A234E6F476F4375650A404F5554333A84
:1000E00023330A404F5554343A23476F4375650A0A
:1000F000404F5554353A234169727075660A404F36
:100100005554363A2357617465720A404F55543737
:100110003A23370A404F5554383A23380A40494E5B
:10012000313A23310A40494E323A234C69636B0A13
:1001300040494E333A23330A40494E343A23340A75
:1001400040494E353A23350A40494E363A23360A5D
:100150004043313A696E6974206C69636B730A407D
:10016000433153313A57616974206C69636B0A40BB
:10017000433153323A57617465720A404331533305
:100180003A0A4043323A476F20747269616C0A4000
:10019000433253313A74696D6520696E74657276C5
:1001A000616C0A40433253323A4375650A40433228
:1001B00053333A77616974206C69636B0A40433248
:1001C00053343A57617465720A40433253353A4D9D
:1001D0006973730A40433253363A0A4043333A4E06
:1001E0006F476F20747269616C0A40433353313A30
:1001F00074696D6520696E74657276616C0A40433E
:100200003353323A4375650A40433353333A776187
:100210006974206C69636B0A40433353343A416913
:1002200072707566660A40433353353A4D6973738D
:100230000A40433353363A0A00005D0811241FBEBA
:10024000CFEFD8E0DEBFCDBF25E0AEEAB1E001C020
:100250001D92A437B207E1F711E0A0E0B1E0EEE6AD
:10026000F3E202C005900D92AE3AB107D9F711E062
:10027000CEE1D1E004C02197FE010E94B20DCD3144
:10028000D107C9F70E940C090C94B5110C94000019
:10029000FC01918D828D981761F0828DDF01A80F8E
:1002A000B11D5D968C91928D9F5F9F73928F90E0B0
:1002B00008958FEF9FEF0895FC01918D828D98171F
:1002C00031F0828DE80FF11D858D90E008958FEF5C
:1002D0009FEF0895FC01918D228D892F90E0805C25
:1002E0009F4F821B91098F739927089580E090E0BA
:1002F000892B29F00E944C0781110C94000008956D
:10030000833081F028F4813099F08230A1F0089593
:100310008730A9F08830B9F08430D1F48091800022
:100320008F7D03C0809180008F7780938000089537
:1003300084B58F7702C084B58F7D84BD0895809188
:10034000B0008F7703C08091B0008F7D8093B000A4
:100350000895CF93DF93282F30E0F901E255FF4F46
:100360008491F901E656FF4FD491F901EA57FF4F06
:10037000C491CC2391F081110E948001EC2FF0E018
:10038000EE0FFF1FE458FF4FA591B491EC91ED23C0
:1003900081E090E021F480E002C080E090E0DF9115
:1003A000CF9108956DEC7CEC8CEC9DE308958091E9
:1003B000D5019091D601089581E090E00895809153
:1003C000D5019091D601089560E070E080EC9FE344
:1003D00008958091D1019091D20108958FE00E94FB
:1003E000A90121E0019709F020E0822F0895809172
:1003F000D3019091D401089560E070E080E090E432
:1004000008958091CF019091D001089581E090E00E
:1004100008958091CD019091CE01089561E27EE42E
:1004200080E090E00E94D307605C73468F4F9F4F3F
:100430000E94620E20E030E44CE156E40E94B80DC8
:1004400008956DEC7CEC8CEC9DE308958091C101E6
:100450009091C201089585E690E008958091E301AE
:100460009091E401089581E090E008958091E30186
:100470009091E401089560E070E080EC9FE30895BE
:100480008091DF019091E00108958FE00E94A90121
:1004900021E0019709F020E0822F08958091E10189
:1004A0009091E201089560E070E080E090E40895AA
:1004B0008091DD019091DE01089581E090E0089542
:1004C0008091DB019091DC01089561E27EE480E09F
:1004D00090E00E94D307605C73468F4F9F4F0E944D
:1004E000620E20E030E44CE156E40E94B80D08951D
:1004F00062E070E080E090E00E94D3076E5F7F4F83
:10050000660F771FFB01EF53FE4F808191810895A5
:1005100060E070E080E89FE308958091E7019091AA
:10052000E801089560E070E080E090E40895809133
:10053000EB019091EC01089584E090E008958091A2
:10054000E9019091EA0108958FE00E94A90121E05C
:10055000019709F020E0822F089580E090E008954F
:1005600060E070E0CB01089580E0089580E090E0C5
:10057000089508950E94ED1024E630E040E050E038
:100580000E94521161337105810591052CF060E0E4
:1005900070E080E490E404C060E070E080E090E40B
:1005A0000E942A0E660F771FFB01EF53FE4F8081DA
:1005B000918108950E94ED1024E630E040E050E083
:1005C0000E94521161337105810591052CF060E0A4
:1005D00070E080E490E404C060E070E080E090E4CB
:1005E0000E942A0E660F771FFB01EF53FE4F80819A
:1005F000918108952F923F924F925F926F927F92D6
:100600008F929F92AF92BF92CF92DF92EF92FF9222
:100610000F931F93CF93DF93CDB7DEB7E3970FB65A
:10062000F894DEBF0FBECDBF1B0129013A0167015F
:1006300078018090190290901A02A0901B02B0904D
:100640001C021982BC01CE0101960E948D104AE065
:10065000BE01675D7F4FC1010E94FB10BC01CE014E
:1006600001960E948D1064E771E0CE0101960E9410
:100670008D10C301B201681979098A099B092AE022
:10068000AE01475D5F4F0E940611BC01CE0101968D
:100690000E948D1066E771E0CE0101960E948D10D8
:1006A000C701B60164197509860997092AE0AE01E8
:1006B000475D5F4F0E940611BC01CE0101960E946A
:1006C0008D1061E871E0CE0101960E948D10CE017F
:1006D00001960E94C107E3960FB6F894DEBF0FBEE5
:1006E000CDBFDF91CF911F910F91FF90EF90DF90E1
:1006F000CF90BF90AF909F908F907F906F905F90C2
:100700004F903F902F900895FC01848DDF01A80F3A
:10071000B11DA35ABF4F2C91848D90E001968F7329
:100720009927848FA689B7892C93A089B1898C9148
:1007300080648C93938D848D981306C00288F3890E
:10074000E02D80818F7D808308951F93CF93DF9369
:10075000282F30E0F901E255FF4F8491F901E65668
:10076000FF4FD491F901EA57FF4FC491CC23C9F050
:10077000162F81110E948001EC2FF0E0EE0FFF1F79
:10078000EE58FF4FA591B4918FB7F894111105C0A1
:100790009C91ED2FE095E92302C0EC91ED2BEC93B9
:1007A0008FBFDF91CF911F910895CF93DF9390E09A
:1007B000FC01E656FF4F2491FC01EA57FF4F84915C
:1007C000882361F190E0880F991FFC01E859FF4FE1
:1007D000C591D491FC01EE58FF4FA591B4916111E0
:1007E00009C09FB7F8948881209582238883EC9173
:1007F0002E230BC0623061F49FB7F8943881822FAA
:10080000809583238883EC912E2B2C939FBF06C069
:100810008FB7F894E8812E2B28838FBFDF91CF917B
:1008200008952FB7F8946091BD017091BE01809139
:10083000BF019091C0012FBF08951F920F920FB674
:100840000F9211242F933F938F939F93AF93BF9356
:100850008091BD019091BE01A091BF01B091C001F6
:100860003091BC0123E0230F2D3720F40196A11D08
:10087000B11D05C026E8230F0296A11DB11D2093CE
:10088000BC018093BD019093BE01A093BF01B093C2
:10089000C0018091ED019091EE01A091EF01B09126
:1008A000F0010196A11DB11D8093ED019093EE0121
:1008B000A093EF01B093F001BF91AF919F918F9101
:1008C0003F912F910F900FBE0F901F9018956F9230
:1008D0007F928F929F92AF92BF92CF92DF92EF92D0
:1008E000FF920F931F93CF93DF93EC015B014A01BB
:1008F0000A811B818C819D810817190709F052C05C
:10090000780182E0E80EF11CFD82EC82E1E8EE164F
:10091000EFE3FE0620F4C701880F991F02C08FEF96
:100920009FEF0E945B0F6C01F1E8EF16FFE3FF06FB
:1009300020F4C701880F991F02C08FEF9FEF0E941C
:100940005B0F7C01D6013C0140E050E08E819F812D
:1009500040175107C9F0BA01660F771F9C01260F97
:10096000371FF901808191818D939D9388859985A9
:10097000680F791FFB0180819181F301819391932D
:100980003F014F5F5F4FE2CF009711F00E94F00FE1
:1009900088859985009711F00E94F00FCE82DF8242
:1009A000E886F9868A819B819C01220F331FEE81A4
:1009B000FF81E20FF31FB182A08248855985FA01B9
:1009C000E20FF31F9182808201969B838A83DF91DD
:1009D000CF911F910F91FF90EF90DF90CF90BF903C
:1009E000AF909F908F907F906F900895CF93DF93FB
:1009F000EC011982188281E090E09B838A839D83B9
:100A00008C8382E090E00E945B0F9F838E8382E064
:100A100090E00E945B0F99878887DF91CF910895BE
:100A20008F929F92AF92BF92CF92DF92EF92FF92FE
:100A30000F931F93CF93DF9300D000D01F92CDB7B9
:100A4000DEB78C018FE495E5A4E5B0E089839A8355
:100A5000AB83BC8380910101811107C0F801E85E7E
:100A6000FE4F8081811133C088C0109201018CE15A
:100A700090E06D830E945B0F6C018093BA01D0926D
:100A8000BB018EE090E00E945B0F5C018093B80197
:100A9000B092B90188E390E00E945B0F9093B70198
:100AA0008093B60188E390E00E945B0F9093B501BC
:100AB0008093B401D501F60180E090E06D811D9234
:100AC0008193919301968E309105C9F7C7CFC0905D
:100AD000B801D090B901C00ED11EF60180818111FC
:100AE00018C0662309F449C0000F111F000F111F21
:100AF0008091B6019091B701080F191F0E9411044F
:100B0000F801608371838283938381E0F60180839F
:100B100034C0611132C05801AA0CBB1CAA0CBB1C0A
:100B20008090B4019090B5018A0C9B1C0E94110426
:100B3000F4016083718382839383F6011082209194
:100B4000B6013091B701F901EA0DFB1D2081318119
:100B500042815381000F111FE091BA01F091BB0156
:100B6000E00FF11F0190F081E02D31977B018C01A6
:100B7000BF01CE0101960E94FA020F900F900F90D4
:100B80000F900F90DF91CF911F910F91FF90EF90F9
:100B9000DF90CF90BF90AF909F908F90089560E0CE
:100BA0008CE00E94A50360E08CE090E00E941005BC
:100BB00060E08DE00E94A50360E08DE090E00E947F
:100BC000100588E791E00E94F707FFCF4F925F92F0
:100BD0006F927F928F929F92AF92BF92CF92DF924D
:100BE000EF92FF920F931F93CF93DF9300D01F924A
:100BF000CDB7DEB789E49EE4A0E089839A83AB8316
:100C00008091000181110BC03CE0832E31E0932ED6
:100C1000A12CB12CC12CD12C7724739443C01092F9
:100C200000014090190250901A0260901B027090CF
:100C30001C028CE090E00E945B0F5C018093B2018B
:100C4000B092B30186E090E00E945B0F6C0180934C
:100C5000B001D092B10188E190E00E945B0F8093D7
:100C6000AE019093AF010CE011E0450156016C011B
:100C7000F801819191918F010E96F40181939193E6
:100C80004F0160E00E94D503F50111925F01F6016A
:100C900041925192619271926F01F1E008311F0708
:100CA00039F7B2CFE091B201F091B301C601880FDC
:100CB000991FE80FF91F80810E94A901662463949F
:100CC000892B09F4612C0E9411047B018C01E091B5
:100CD000B001F091B101EC0DFD1D808181110FC0BB
:100CE000662019F1A091AE01B091AF01AA0DBB1D14
:100CF000ED92FD920D931C931397708216C06110B4
:100D000014C01082E091AE01F091AF01EA0DFB1D1D
:100D10002081318142815381F4018081918101964A
:100D2000BC01CE0101960E94FA02FFEFCF1ADF0A42
:100D300084E0A80EB11CE2E08E0E911CF6E0CF1606
:100D4000D10409F0AFCF0F900F900F90DF91CF91AA
:100D50001F910F91FF90EF90DF90CF90BF90AF90D9
:100D60009F908F907F906F905F904F9008958F929B
:100D70009F92AF92BF92CF92DF92EF92FF92CF936A
:100D8000DF93EC014A015B0161E00E94A50361E091
:100D9000CE010E9410050E9411046B017C0120E02D
:100DA00030E04AE754E4C501B4010E94EE0E0E940F
:100DB000310EC60ED71EE81EF91E0E9411046C15D6
:100DC0007D058E059F0518F40E94E605F6CF60E0CC
:100DD0008C2F0E94A50360E0CE01DF91CF91FF90A0
:100DE000EF90DF90CF90BF90AF909F908F900C943A
:100DF000100540E050E060E07FE386E090E00C9476
:100E0000B70640E050E060E07FE383E090E00C94C0
:100E1000B7064AE959E969E97DE387E090E00C9477
:100E2000B70640E050E060E07FE385E090E00C949E
:100E3000B70648EB5EE165E87DE387E090E00C945F
:100E4000B706CF92DF92EF92FF920F931F93CF934B
:100E5000DF936C017A018B01C0E0D0E0CE15DF0595
:100E600089F0D8016D918D01D601ED91FC91019031
:100E7000F081E02DC6010995892B11F47E0102C095
:100E80002196ECCFC701DF91CF911F910F91FF9079
:100E9000EF90DF90CF9008958DE192E00E946A017B
:100EA00021E0892B09F420E0822F08950E94881008
:100EB000EF92FF920F931F93CF93DF93EC0181E0AA
:100EC000888F9B8D8C8D981305C0E889F989808166
:100ED00085FD24C0F62E0B8D10E00F5F1F4F0F73A2
:100EE0001127E02E8C8DE8120CC00FB607FCFACF4C
:100EF000E889F989808185FFF5CFCE010E948403BE
:100F0000F1CF8B8DFE01E80FF11DE35AFF4FF08208
:100F10000B8FEA89FB898081806207C0EE89FF8997
:100F20006083E889F98980818064808381E090E032
:100F3000DF91CF911F910F91FF90EF900895CF9384
:100F4000DF93EC01888D8823C9F0EA89FB898081D1
:100F500085FD05C0A889B9898C9186FD0FC00FB6A3
:100F600007FCF5CF808185FFF2CFA889B9898C91E4
:100F700085FFEDCFCE010E948403E7CFDF91CF91B3
:100F80000895009769F0FC0101900020E9F731977E
:100F9000AF01481B590BBC018DE192E00C94210775
:100FA00080E090E00895CF93DF9300D000D0CDB7DC
:100FB000DEB716161706180619067CF49B01AC015D
:100FC00069833A834B835C830E94ED1029813A81C7
:100FD0004B815C810E94521103C060E070E0CB0144
:100FE0000F900F900F900F90DF91CF910895CF93B6
:100FF000DF930E94C107EC0180E891E00E94C107E5
:101000008C0F9D1FDF91CF9108951F920F920FB605
:101010000F9211242F933F934F935F936F937F937E
:101020008F939F93AF93BF93EF93FF938DE192E0E4
:101030000E948403FF91EF91BF91AF919F918F9197
:101040007F916F915F914F913F912F910F900FBEC4
:101050000F901F9018951F920F920FB60F921124A8
:101060002F938F939F93EF93FF93E0912D02F09135
:101070002E028081E0913302F091340282FD12C091
:101080009081809136028F5F8F7320913702821793
:1010900051F0E0913602F0E0E35EFD4F958F8093D2
:1010A000360201C08081FF91EF919F918F912F9126
:1010B0000F900FBE0F901F9018954F925F926F92F6
:1010C0007F928F929F92AF92BF92CF92DF92EF92D8
:1010D000FF920F931F93CF93DF93109220021092F1
:1010E0001F0288EE93E0A0E0B0E08093210290938D
:1010F0002202A0932302B093240288E691E0909309
:101100001E0280931D0285EC90E090932A0280934A
:10111000290284EC90E090932C0280932B0280ECC7
:1011200090E090932E0280932D0281EC90E09093BA
:10113000300280932F0282EC90E0909332028093F1
:10114000310286EC90E09093340280933302109247
:101150003602109237021092380210923902CEEB0A
:10116000D2E00AEC12E088248A94982C99EB692E3C
:1011700092E0792E24EBC22E22E0D22E3DEAE32E1D
:1011800032E0F32E46EBA42E42E0B42E50EB452E77
:1011900052E0552E0E9411046C837D838E839F83C1
:1011A000188619861A861B86C8010E94F6049B823F
:1011B0008A821F8A1E8A198E188E198218827B8E47
:1011C0006A8E7D8E6C8EDF8ECE8EF801F58AE48A73
:1011D000B78AA68A538E428ED78EC68EF18EE08E47
:1011E000F58EE48EFDA6ECA6AE96025D1F4FF5E0EF
:1011F000C037DF0779F6DF91CF911F910F91FF90F4
:10120000EF90DF90CF90BF90AF909F908F907F90A6
:101210006F905F904F900895CF93DF93CDB7DEB777
:101220002B970FB6F894DEBF0FBECDBF789484B570
:10123000826084BD84B5816084BD85B5826085BDD2
:1012400085B5816085BD80916E00816080936E0060
:101250001092810080918100826080938100809152
:101260008100816080938100809180008160809303
:1012700080008091B10084608093B1008091B000C3
:1012800081608093B00080917A00846080937A00BE
:1012900080917A00826080937A0080917A008160E8
:1012A00080937A0080917A00806880937A0010920F
:1012B000C100E0912D02F0912E0282E08083E09146
:1012C0002902F0912A021082E0912B02F0912C0267
:1012D00087E0808310923502E0913102F091320272
:1012E00086E08083E0912F02F0913002808180615E
:1012F0008083E0912F02F0913002808188608083AA
:10130000E0912F02F0913002808180688083E0912B
:101310002F02F091300280818F7D808383E891E0FD
:101320000E94F70702EC10E0F8016491611138C0E7
:1013300061E082E00E94D50361E083E00E94D50372
:1013400061E084E00E94D50361E085E00E94D5035E
:1013500061E086E00E94D50361E087E00E94D5034A
:1013600061E088E00E94D50361E089E00E94D50336
:101370008EE390E00E945B0F8C0166E271E00E94B8
:101380009810F80101900020E9F73197E01BF10B6C
:10139000D80180E090E0C12CD12CE12CF12C19C0B7
:1013A000E0911D02F0911E020190F081E02D8DE18F
:1013B00092E009950F5F1F4F892B09F0B5CFB8CF89
:1013C0002D912C3551F02F3241F02E3209F46C0161
:1013D00001968E179F07A1F702C07C01F9CFF80193
:1013E000EC0DFD1D10828DE891E00E94C107EC1408
:1013F000FD041CF083E991E004C0C7010196800F51
:10140000911F0E94C1078CE991E00E94C10701155C
:10141000110519F0C8010E94F00F81E090E090934F
:10142000D5028093D4029093D7028093D6022EEBFC
:1014300032E03093E8012093E70190930303809317
:10144000020322E030E030930503209304032CEEE6
:1014500032E03093EA012093E901909331038093C5
:10146000300383E090E090933303809332038AE16A
:1014700093E09093EC018093EB01E8E4F3E0A9EDB5
:10148000B1E081E090E022E030E0378B268B918F55
:10149000808FED93FD930196BE9687309105A9F755
:1014A000ECE5F4E0ABECB1E081E090E023E030E08B
:1014B000378B268B918F808FED93FD930196BE968F
:1014C00087309105A9F78091BA029091BB02909361
:1014D000C2018093C1019093CA018093C901909386
:1014E000D8018093D7019093E6018093E5018EEBBC
:1014F00092E09093C4018093C301E090D901F090F1
:10150000DA01F092C601E092C5010091CB01109181
:10151000CC011093C8010093C7019093BD02809342
:10152000BC0284EA92E09093E9028093E8028FE99A
:1015300092E09093EB028093EA02AC0164EA72E0DD
:101540008AEC92E00E94670489E197E09093090396
:10155000809308038CE992E090930F0380930E032D
:1015600087E992E0909311038093100382E992E05F
:1015700090931303809312038DE892E090931503E8
:101580008093140388E892E0909341038093400392
:1015900088E792E0909343038093420385E692E0CC
:1015A000D70197969C938E93969780E692E09996B2
:1015B0009C938E939897E091DB01F091DC0181E19F
:1015C00097E0958F848F8DE592E093A382A388E5C1
:1015D00092E095A384A3E091DD01F091DE0183E523
:1015E00092E097A386A38EE492E091A780A785E47A
:1015F00092E093A782A780E492E095A784A7AC012C
:1016000065E472E0CF010C960E946704E091DF016F
:10161000F091E00189E097E0958F848F8BE392E071
:1016200097A386A386E392E091A780A7E091E101CA
:10163000F091E20183E392E093A382A38EE292E031
:1016400095A384A3E091E301F091E4018BE292E0A1
:1016500093A382A386E292E095A384A381E292E021
:1016600097A386A38AED92E091A780A78EE092E0EF
:10167000F80197A386A389E092E091A780A7E09163
:10168000CD01F091CE0181E097E0958F848F86E0C7
:1016900092E093A382A381E092E095A384A3E091DA
:1016A000CF01F091D0018CEF91E097A386A387EF53
:1016B00091E091A780A78EEE91E093A782A789EE93
:1016C00091E095A784A7AC016EEE71E0CF010C9676
:1016D0000E946704E091D101F091D20189EF96E078
:1016E000958F848F84EE91E097A386A38FED91E090
:1016F00091A780A7E091D301F091D4018CED91E006
:1017000093A382A387ED91E095A384A3E091D501F3
:10171000F091D60182ED91E097A386A38AEB92E047
:1017200091A780A78EE290E00E945B0F8C010E943F
:101730001104D80114966D937D938D939C93179704
:10174000F8011086118612861386C8010C960E9435
:10175000F6048FEF9FEFD80113969C938E93129708
:1017600057961C921E92569759961C921E92589705
:1017700011961C921E9289EB92E05B969C938E933D
:101780005A975D969C938E935C9724EB32E05F961C
:101790003C932E935E978DEA92E091969C938E9364
:1017A000909740EB52E097965C934E9396979B965A
:1017B0003C932E939A9795969C938E939497999693
:1017C0009C938E9398979D969C938E939C97109341
:1017D000BB020093BA028FEC95E093969C938E9394
:1017E000929761E08CE00E94D50361E08DE00E9459
:1017F000D50360E08CE00E94A50360E08CE090E0FF
:101800000E94100560E08DE00E94A50360E08DE07D
:1018100090E00E9410058DE192E00E946A01892B00
:10182000D1F38DE192E00E9448018236910599F74B
:101830008DE192E00E946A01892B29F08DE192E00E
:101840000E944801F5CF3FB7F8948091ED01909147
:10185000EE01A091EF01B091F00126B5A89B05C063
:101860002F3F19F00196A11DB11D3FBFBA2FA92F1F
:10187000982F8827820F911DA11DB11DBC01CD019C
:1018800052E0660F771F881F991F5A95D1F761158F
:1018900071058105910511F00E94F21083EA91E033
:1018A0000E94F7070E9411046093190270931A02B4
:1018B00080931B0290931C0261E08CE00E94A503C0
:1018C00061E08CE090E00E94100561E08DE00E94F4
:1018D000A50361E08DE090E00E9410050091BC023C
:1018E0001091BD020115110509F41BC1D80196968E
:1018F000ED91FC919797099520E030E04AE754E498
:101900000E94EE0E0E94310EF80160877187828777
:1019100093870E941104D80114966D937D938D9343
:101920009C9317975A96ED91FC915B970995D80176
:101930005C96ED91FC915D970995F801C480D58086
:10194000E680F7801092F1016AEA71E081EF91E0A0
:101950000E948D104AE0BE016F5F7F4FD8015696FE
:101960008D919C9157970E94FB10BC0181EF91E0F3
:101970000E948D106CEA71E081EF91E00E948D1061
:101980004AE0BE016F5F7F4FF801808D918D0E940C
:10199000FB10BC0181EF91E00E948D1064E771E0C3
:1019A00081EF91E00E948D108091190290911A02AE
:1019B000A0911B02B0911C02A7019601281B390BB4
:1019C0004A0B5B0BCA01B9012AE0AE014F5F5F4FC2
:1019D0000E940611BC0181EF91E00E948D1061E828
:1019E00071E081EF91E00E948D1081EF91E00E9403
:1019F000C1070E94E605D8015E96ED91FC915F97C4
:101A00000995882331F0D8019096ED91FC9191973A
:101A100093C0F80182819381019649F4D80192968E
:101A2000ED91FC9193970995F80193838283D801F6
:101A30008D919C911197019611969C938E9312967D
:101A40002D913C9113972115310501F182179307D0
:101A5000E9F49296ED91FC9193970995F80193839F
:101A600082831182108204A0F5A1E02D65C0F801E7
:101A700084859585668577859B012150310982177C
:101A8000930771F4158614860E94E605F801808597
:101A90009185A285B385892B8A2B8B2B41F323C09B
:101AA00001960E949E0D95878487880F991F028852
:101AB000F389E02DE80FF91F0190F081E02D0995E1
:101AC0008823A9F2D8011C96ED91FC911D97EE0F89
:101AD000FF1F54968D919C915597E80FF91F019027
:101AE000F081E02D29C00E941104D8011496CD90F8
:101AF000DD90ED90FC901797DC01CB018C199D09CE
:101B0000AE09BF09F801C084D184E284F3848C1546
:101B10009D05AE05BF0508F4AACF00A4F1A5E02DF0
:101B20000BC08091BA029091BB029093BD0280934A
:101B3000BC020E947601D2CE0995F7CFAA1BBB1B2F
:101B400051E107C0AA1FBB1FA617B70710F0A61BBD
:101B5000B70B881F991F5A95A9F780959095BC01DE
:101B6000CD010895EE0FFF1F0590F491E02D09942B
:101B70000E94CC0D0C94B40E0E94AD0E58F00E9441
:101B8000A60E40F029F45F3F29F00C949D0E5111F0
:101B90000C94E80E0C94A30E0E94C50E68F39923D2
:101BA000B1F3552391F3951B550BBB27AA27621759
:101BB0007307840738F09F5F5F4F220F331F441F66
:101BC000AA1FA9F335D00E2E3AF0E0E832D091509A
:101BD0005040E695001CCAF72BD0FE2F29D0660F87
:101BE000771F881FBB1F261737074807AB07B0E8CA
:101BF00009F0BB0B802DBF01FF2793585F4F3AF0D0
:101C00009E3F510578F00C949D0E0C94E80E5F3FBA
:101C1000E4F3983ED4F3869577956795B795F79555
:101C20009F5FC9F7880F911D9695879597F908953D
:101C3000E1E0660F771F881FBB1F621773078407D9
:101C4000BA0720F0621B730B840BBA0BEE1F88F7E8
:101C5000E09508950E94310E6894B1110C94E80E3D
:101C600008950E94CD0E88F09F5798F0B92F9927BC
:101C7000B751B0F0E1F0660F771F881F991F1AF077
:101C8000BA95C9F714C0B13091F00E94E70EB1E0E7
:101C900008950C94E70E672F782F8827B85F39F0E6
:101CA000B93FCCF3869577956795B395D9F73EF410
:101CB00090958095709561957F4F8F4F9F4F0895B8
:101CC000E89409C097FB3EF49095809570956195D6
:101CD0007F4F8F4F9F4F9923A9F0F92F96E9BB278C
:101CE0009395F695879577956795B795F111F8CF08
:101CF000FAF4BB0F11F460FF1BC06F5F7F4F8F4F73
:101D00009F4F16C0882311F096E911C0772321F068
:101D10009EE8872F762F05C0662371F096E8862F00
:101D200070E060E02AF09A95660F771F881FDAF757
:101D3000880F9695879597F9089597F99F6780E89A
:101D400070E060E008959FEF80EC089500240A940D
:101D50001616170618060906089500240A94121686
:101D60001306140605060895092E0394000C11F4B9
:101D7000882352F0BB0F40F4BF2B11F460FF04C066
:101D80006F5F7F4F8F4F9F4F089557FD9058440FBF
:101D9000551F59F05F3F71F04795880F97FB991FCA
:101DA00061F09F3F79F08795089512161306140687
:101DB000551FF2CF4695F1DF08C016161706180614
:101DC000991FF1CF86957105610508940895E894EF
:101DD000BB2766277727CB0197F908950E94010F4B
:101DE0000C94B40E0E94A60E38F00E94AD0E20F0A6
:101DF000952311F00C949D0E0C94A30E11240C94B9
:101E0000E80E0E94C50E70F3959FC1F3950F50E048
:101E1000551F629FF001729FBB27F00DB11D639F9C
:101E2000AA27F00DB11DAA1F649F6627B00DA11D42
:101E3000661F829F2227B00DA11D621F739FB00DE8
:101E4000A11D621F839FA00D611D221F749F332758
:101E5000A00D611D231F849F600D211D822F762FF1
:101E60006A2F11249F5750409AF0F1F088234AF0CE
:101E7000EE0FFF1FBB1F661F771F881F915050403A
:101E8000A9F79E3F510580F00C949D0E0C94E80E2E
:101E90005F3FE4F3983ED4F3869577956795B795C1
:101EA000F795E7959F5FC1F7FE2B880F911D9695DB
:101EB000879597F90895CF93DF938230910510F4B9
:101EC00082E090E0E0917205F091730520E030E04F
:101ED000C0E0D0E0309711F1408151814817590797
:101EE000C0F04817590761F482819381209719F057
:101EF0009B838A832BC0909373058093720526C0C1
:101F00002115310519F04217530718F49A01BE0143
:101F1000DF01EF010280F381E02DDCCF21153105D7
:101F200009F1281B390B2430310590F412968D915C
:101F30009C9113976115710521F0FB0193838283B6
:101F400004C09093730580937205FD01329644C0DE
:101F5000FD01E20FF31F81939193225031092D93DC
:101F60003C933AC02091700530917105232B41F4C8
:101F70002091040130910501309371052093700583
:101F800020910201309103012115310541F42DB753
:101F90003EB74091060150910701241B350BE0919B
:101FA0007005F0917105E217F307A0F42E1B3F0BAB
:101FB0002817390778F0AC014E5F5F4F24173507BB
:101FC00048F04E0F5F1F5093710540937005819349
:101FD000919302C0E0E0F0E0CF01DF91CF9108954E
:101FE0000F931F93CF93DF93009709F48CC0FC01EC
:101FF00032971382128200917205109173050115B8
:10200000110581F420813181820F931F2091700589
:10201000309171052817390779F5F0937105E09330
:10202000700571C0D80140E050E0AE17BF0750F412
:1020300012962D913C911397AD012115310509F1AF
:10204000D901F3CF9D01DA0133832283608171814D
:10205000860F971F8217930769F4EC012881398155
:10206000260F371F2E5F3F4F318320838A819B814C
:1020700093838283452B29F4F0937305E0937205D3
:1020800042C01396FC93EE931297ED01499159913A
:102090009E01240F351FE217F30771F480819181AF
:1020A000840F951F029611969C938E938281938143
:1020B00013969C938E931297E0E0F0E0D80112966D
:1020C0008D919C911397009719F0F8018C01F6CF30
:1020D0008D919C9198012E5F3F4F820F931F20910D
:1020E0007005309171052817390769F4309729F484
:1020F000109273051092720502C01382128210931F
:10210000710500937005DF91CF911F910F91089594
:1021100081E090E0F8940C94B511FB01DC010D9086
:102120000020E9F7119701900D920020E1F7089542
:10213000FB01DC0101900D920020E1F708958F92E0
:102140009F92AF92BF92CF92DF92EF92FF92CF9386
:10215000DF93EC01688179818A819B81611571052A
:102160008105910521F464E279ED8BE597E02DE19D
:1021700033EF41E050E00E94521149015A019B01A6
:10218000AC01A7EAB1E40E9471116B017C01ACEED5
:10219000B4EFA50194010E947F11DC01CB018C0DED
:1021A0009D1DAE1DBF1DB7FF03C00197A109B0481B
:1021B00088839983AA83BB83BC01CD019F77DF917C
:1021C000CF91FF90EF90DF90CF90BF90AF909F9016
:1021D0008F9008950E949F10089588E091E00E94DA
:1021E0009F100895609308017093090180930A017C
:1021F00090930B010895BB274A3031F4992322F4C0
:10220000BDE2909581959F4F0C942911BB27FA014F
:10221000A62F6217710581059105330B30FB66F01F
:10222000AA27660F771F881F991FAA1FA21710F0F1
:10223000A21B63953850A9F7A05DAA3308F0A95DE9
:10224000A19336F7B111B1931082CA010C944211D7
:10225000BB27FB015527AA27880F991FAA1FA41780
:1022600010F0A41B83955051B9F7A05DAA3308F074
:10227000A95DA193009779F7B111B1931192CB01A8
:102280000C944211DC01FC01672F71917723E1F777
:10229000329704C07C916D9370836291AE17BF0733
:1022A000C8F30895052E97FB1EF400940E9469114F
:1022B00057FD07D00E94841107FC03D04EF40C9404
:1022C000691150954095309521953F4F4F4F5F4F85
:1022D000089590958095709561957F4F8F4F9F4F92
:1022E00008950E94A611A59F900DB49F900DA49FE4
:1022F000800D911D11240895B7FF0C9471110E9457
:102300007111821B930B0895A1E21A2EAA1BBB1B0D
:10231000FD010DC0AA1FBB1FEE1FFF1FA217B307B1
:10232000E407F50720F0A21BB30BE40BF50B661FC7
:10233000771F881F991F1A9469F76095709580958B
:1023400090959B01AC01BD01CF010895A29FB00102
:10235000B39FC001A39F700D811D1124911DB29FD9
:0E236000700D811D1124911D0895F894FFCF7A
:10236E000101000074058000010000000000010062
:10237E00020003000400050000000101010101013B
:10238E00010101000000443A5C4769745F526573B5
:10239E00705C4172436F6E74726F6C5F67697468C4
:1023AE0075625F72656C656173655C7461736B5C9D
:1023BE00476F5F4E6F476F5C476F5F4E6F476F2E75
:1023CE00696E6F0000000000580721076A0148017E
:1023DE005C019F073A0020004172432D656E640038
:1023EE000D0A004172436F6E74726F6C002D2D2DAD
:1023FE002D2D00556E7469746C6564002D2D2D2D78
:0E240E002D0A004172432D6267004300530007
:00000001FF
