:020000040000FA
:100000000C9422010C944A010C944A010C944A016C
:100010000C944A010C944A010C944A010C944A0134
:100020000C944A010C944A010C944A010C944A0124
:100030000C944A010C944A010C944A010C944A0114
:100040000C94F5080C944A010C94C3080C949D0878
:100050000C944A010C944A010C944A010C944A01F4
:100060000C944A010C944A01404F5554313A2332C2
:10007000505F547269676765720A404F5554323A4F
:10008000234E6F476F4375650A404F5554333A23EB
:10009000330A404F5554343A23476F4375650A403D
:1000A0004F5554353A234169727075660A404F5571
:1000B00054363A2357617465720A404F5554373AA3
:1000C00023370A404F5554383A23380A40494E31B5
:1000D0003A23310A40494E323A234C69636B0A4055
:1000E000494E333A23330A40494E343A23340A40C6
:1000F000494E353A23350A40494E363A23360A40AE
:1001000043313A696E6974206C69636B730A4043CA
:100110003153313A57616974206C69636B0A40430B
:100120003153323A57617465720A40433153333A5E
:100130000A4043323A476F20747269616C0A404347
:100140003253313A74696D6520696E7465727661F7
:100150006C0A40433253323A4375650A4043325386
:10016000333A77616974206C69636B0A4043325398
:10017000343A57617465720A40433253353A4D69D7
:1001800073730A40433253363A0A4043333A4E6F50
:10019000476F20747269616C0A40433353313A747B
:1001A000696D6520696E74657276616C0A404333CF
:1001B00053323A4375650A40433353333A776169A2
:1001C00074206C69636B0A40433353343A4169725B
:1001D000707566660A40433353353A4D6973730A46
:1001E00040433353363A0A0000000000250028003F
:1001F0002B0000000000240027002A00000000005F
:100200002300260029000404040404040404020258
:100210000202020203030303030301020408102085
:100220004080010204081020010204081020000090
:1002300000080002010000030407000000000000A5
:1002400000003F0911241FBECFEFD8E0DEBFCDBFB5
:1002500011E0A0E0B1E0E2EEF7E202C005900D92FD
:10026000A43CB107D9F725E0A4ECB1E001C01D9290
:10027000AD3CB207E1F711E0C2E2D1E004C0219742
:10028000FE010E94B212C132D107C9F70E94010AD1
:100290000C94EF130C940000089580E0089590E012
:1002A00080E0089590E080E0089560E070E0CB0188
:1002B000089590E0FC01E65EFD4F24918A5F9D4F1A
:1002C000FC018491882399F090E0880F991FFC012C
:1002D000EE50FE4FA591B491FC01E851FE4F85917F
:1002E00094918FB7F894EC91E22BEC938FBF089523
:1002F0008091220290912302089568EB7EE185E8C7
:100300009DE3089584E090E0089580912402909107
:10031000250208958091200290912102089560E0C5
:1003200070E080E89FE30895809114029091150297
:10033000089581E090E0089580911602909117024F
:10034000089580911A0290911B02089580911802DD
:100350009091190208956AE979E989E99DE3089580
:1003600060E070E080EC9FE3089580911C02909122
:100370001D02089585E690E008958091FA0190911C
:10038000FB0108956DEC7CEC8CEC9DE3089580916D
:1003900006029091070208956AE077ED83E29CE3FC
:1003A00008958091080290910902089560E070E03C
:1003B00080E090E4089580910C0290910D020895E0
:1003C00080910A0290910B02089560E070E080E055
:1003D0009FE3089580910E0290910F020895AF92CD
:1003E000BF92CF92DF92EF92FF920F931F93CF9322
:1003F000DF936C017B018B01040F151FEB015E0184
:10040000AE18BF08C017D10759F06991D601ED9118
:10041000FC910190F081E02DC6010995892B79F7B7
:10042000C501DF91CF911F910F91FF90EF90DF9069
:10043000CF90BF90AF900895FC01538D448D252F30
:1004400030E0842F90E0821B930B541710F0CF966E
:10045000089501970895FC01918D828D981761F0A0
:10046000A28DAE0FBF2FB11D5D968C91928D9F5FB7
:100470009F73928F90E008958FEF9FEF0895FC0196
:10048000918D828D981731F0828DE80FF11D858D49
:1004900090E008958FEF9FEF0895FC01918D228DDC
:1004A000892F90E0805C9F4F821B91098F73992761
:1004B00008958CE592E00E944D0221E0892B09F419
:1004C00020E0822F089580E090E0892B29F00E949F
:1004D000590281110C9400000895FC01A48DA80F0D
:1004E000B92FB11DA35ABF4F2C91848D90E0019676
:1004F0008F739927848FA689B7892C93A089B18996
:100500008C91837080648C93938D848D981306C036
:100510000288F389E02D80818F7D80830895EF929A
:10052000FF920F931F93CF93DF93EC0181E0888FAD
:100530009B8D8C8D98131AC0E889F989808185FF7D
:1005400015C09FB7F894EE89FF896083E889F9891F
:1005500080818370806480839FBF81E090E0DF9121
:10056000CF911F910F91FF90EF900895F62E0B8D74
:1005700010E00F5F1F4F0F731127E02E8C8D8E112F
:100580000CC00FB607FCFACFE889F989808185FF96
:10059000F5CFCE010E946D02F1CFEB8DEC0FFD2F58
:1005A000F11DE35AFF4FF0829FB7F8940B8FEA8951
:1005B000FB8980818062CFCFCF93DF93EC01888D60
:1005C0008823B9F0AA89BB89E889F9898C9185FDCE
:1005D00003C0808186FD0DC00FB607FCF7CF8C915C
:1005E00085FFF2CF808185FFEDCFCE010E946D02A5
:1005F000E9CFDF91CF910895833081F028F48130E5
:1006000099F08230A9F008958730A9F08830C9F0B8
:100610008430B1F4809180008F7D03C08091800090
:100620008F7780938000089584B58F7784BD089577
:1006300084B58F7DFBCF8091B0008F778093B00021
:1006400008958091B0008F7DF9CFCF93DF93EDE3D4
:10065000F2E08491E9E2F2E0D491E5E1F2E0C491C4
:10066000CC23A1F081110E94FC02EC2FF0E0EE0FF0
:10067000FF1FE450FE4FA591B491EC91ED2381E072
:1006800090E009F480E0DF91CF91089580E090E060
:10069000FACF1F93CF93DF93282F30E0F901E25D6B
:1006A000FD4F8491F901E65EFD4FD491F901EA5FB7
:1006B000FD4FC491CC23A9F0162F81110E94FC029A
:1006C000EC2FF0E0EE0FFF1FE851FE4FA591B49123
:1006D0008FB7F894EC91111108C0D095DE23DC930C
:1006E0008FBFDF91CF911F910895DE2BF8CF2FB7E9
:1006F000F8946091F6017091F7018091F801909162
:10070000F9012FBF08956DEC7CEC8CEC9DE308950E
:1007100080910E0290910F02089581E090E008957B
:1007200060E070E080EC9FE308950E94250321E0E3
:10073000019709F020E0822F089581E090E008956C
:1007400060E070E080E09FE3089580911C0290914A
:100750001D02089581E090E008950E94250321E0A4
:10076000019709F020E0822F089560E070E080E0BA
:1007700090E408956AE077ED83E29CE3089560E0F9
:1007800070E080E09FE3089560E070E080E090E436
:1007900008950E94250321E0019709F020E0822FAF
:1007A0000895CF92DF92EF92FF92CF93DF93EC0107
:1007B000EB81FC8109956B017C0120E030E0A9010F
:1007C0000E94DA10181644F08FE6C82E82E1D82E67
:1007D00083E8E82E8AE3F82E20E030E04AE754E48C
:1007E000C701B6010E9439120E9458116F837887A1
:1007F00089879A871E8281E08A83DF91CF91FF905B
:10080000EF90DF90CF900895FC0101900020E9F770
:100810003197AF01481B590BBC018CE592E00C9459
:10082000EF01009711F00C94040490E080E008952B
:10083000CF93DF930E940404EC018EE791E00E94C5
:1008400004048C0F9D1FDF91CF9108958F929F928A
:10085000BF92CF92DF92EF92FF920F931F93CF93AD
:10086000DF93EC016B01B9808A81B8123DC002E0D0
:100870000B0D0A8310E0C801880F991F0E94B8125F
:100880007C01C8010E94B8128C01D7014C018B81F8
:100890009C8130E020E04B2D50E024173507B0F468
:1008A000B901660F771F680F791FFB0160817181A5
:1008B0006D937D936D817E81620F731FFB0160815B
:1008C000F40161934F012F5F3F4FE7CF009711F085
:1008D0000E9454138D819E81009711F00E94541341
:1008E000EB82FC820D831E838981282F30E0A901D1
:1008F000440F551FAB81BC81A40FB51FCD92DC9274
:10090000ED81FE81E20FF31F10828F5F8983DF91FB
:10091000CF911F910F91FF90EF90DF90CF90BF90FC
:100920009F908F9008956F927F928F929F92AF9237
:10093000BF92CF92DF92EF92FF920F931F93CF93CC
:10094000DF93EC015B014A01C9808A81C8123FC074
:1009500002E00C0D0A8310E0000F111FC8010E9475
:10096000B8127C01C8010E94B8128C01D7013C0169
:100970008B819C8130E020E0D12C2C153D05C8F402
:10098000B901660F771FAC01460F571FFA0140816E
:1009900051814D935D934D815E81460F571FFA0142
:1009A00040815181F301419351933F012F5F3F4FAC
:1009B000E4CF009711F00E9454138D819E8100971F
:1009C00011F00E945413EB82FC820D831E838981F7
:1009D000282F30E0220F331FEB81FC81E20FF31F41
:1009E000B182A0824D815E81240F351FF901918271
:1009F00080828F5F8983DF91CF911F910F91FF904C
:100A0000EF90DF90CF90BF90AF909F908F907F90AE
:100A10006F9008950F931F93CF93DF93CDB7DEB7F9
:100A20002A970FB6F894DEBF0FBECDBF8B01198297
:100A3000BC01CE0101960E94DD134AE0BE01685F51
:100A40007F4FC8010E942010BC01CE0101960E9478
:100A5000DD136FE771E0CE0101960E94DD13CE0138
:100A600001960E9411042A960FB6F894DEBF0FBEBD
:100A7000CDBFDF91CF911F910F9108952F923F929B
:100A80004F925F926F927F928F929F92AF92BF929E
:100A9000CF92DF92EF92FF920F931F93CF93DF934A
:100AA000CDB7DEB7E3970FB6F894DEBF0FBECDBF6C
:100AB0001B0129013A016701809054029090550270
:100AC000A0905602B09057021982BC01CE01019647
:100AD0000E94DD134AE0BE01675D7F4FC1010E94A5
:100AE0002010BC01CE0101960E94DD1361E871E087
:100AF000CE0101960E94DD13C301B2016819790984
:100B00008A099B092AE0AE01475D5F4F0E942B10C6
:100B1000BC01CE0101960E94DD1363E871E0CE01B5
:100B200001960E94DD13C801B60164197509860992
:100B300097092AE0AE01475D5F4F0E942B10BC0170
:100B4000CE0101960E94DD136FE771E0CE010196A0
:100B50000E94DD13CE0101960E941104E3960FB6A8
:100B6000F894DEBF0FBECDBFDF91CF911F910F91E3
:100B7000FF90EF90DF90CF90BF90AF909F908F90BD
:100B80007F906F905F904F903F902F9008958F923D
:100B90009F92AF92BF92CF92DF92EF92FF920F930C
:100BA0001F93CF93DF9300D000D0CDB7DEB78C0179
:100BB000B62E8091870190918801A0918901B09112
:100BC0008A0189839A83AB83BC8380910101882346
:100BD000A9F1109201018CE190E00E94B812982EC8
:100BE000A92E8093F3019093F4018EE090E00E948F
:100BF000B8126C018093F101D092F2018093EF0161
:100C0000D092F00188E390E00E94B8129093EE0138
:100C10008093ED0188E390E00E94B8129093EC017C
:100C20008093EB01D601E92DFA2D90E080E01D9232
:100C30008193919301968E309105C9F7F801E85E92
:100C4000FE4F8081882389F1C090F101D090F2019C
:100C5000C00ED11ED6018C91811138C0BB2029F164
:100C6000C801880F991F880F991FA090ED01B090BF
:100C7000EE01A80EB91E0E947703F501608371830F
:100C80008283938381E0D6018C93000F111FE09142
:100C9000F301F091F401E00FF11F60817181615067
:100CA000710985E891E00E940A050F900F900F905E
:100CB0000F90DF91CF911F910F91FF90EF90DF90F8
:100CC000CF90BF90AF909F908F900895B110EDCFCF
:100CD0004801880C991C880C991CA090EB01B090DD
:100CE000EC01A80CB91C0E947703F50160837183A5
:100CF00082839383D6011C92E091ED01F091EE0185
:100D0000E80DF91D2081318142815381000F111FAF
:100D1000E091F301F091F4010E0F1F1FD801ED9146
:100D2000FC9131977B018C01BF01CE0101960E949D
:100D30003E05BBCF60E08CE00E94490360E08CE0A0
:100D400090E00E94C70560E08DE00E94490360E0EA
:100D50008DE090E00E94C7058BE891E00E941804A6
:100D6000FFCF2F923F924F925F926F927F928F921E
:100D70009F92AF92BF92CF92DF92EF92FF920F932A
:100D80001F93CF93DF9300D000D01F92CDB7DEB773
:100D90008091950190919601A091970189839A8302
:100DA000AB8380910001882381F110920001809132
:100DB000540290915502A0915602B0915702E3ED72
:100DC000F1E081939193A193B19321E0EB3EF2077F
:100DD000C1F780912B02ECE0F1E0C12CD12C76011F
:100DE000C39431E0E831F30771F090813296B70196
:100DF000A60104C0440F551F661F771F9A95D2F7AE
:100E000040958423EECF80932B02D6B080912B02A5
:100E1000D8261091D201D11609F442C00E9477035E
:100E20001B012C0123EDA22E21E0B22E90E080E0E8
:100E30001D25E12FF0E0FD83EC836D2C712C4C011E
:100E4000FFEF8F1A9F0A2C813D81082E02C0359535
:100E500027950A94E2F720FF1AC0930102C0359546
:100E600027958A95E2F7F50120FF76C0208231822E
:100E700042825382F401EE0FFF1FE65FFE4F608156
:100E800071816F5F7F4F83E991E00E940A05F4E072
:100E9000AF0EB11CC4018630910589F6D092D20103
:100EA0008091D0019091D1010196823391050CF48B
:100EB00093C01092D1011092D0018CE592E00E9473
:100EC0004D023C01912C812CC12CD12C7601C39474
:100ED00011E0861497040CF083C08CE592E00E9428
:100EE0002B022091CE013091CF01A9014F5F5F4FBE
:100EF0008A3019F08B3309F066C04C535E4FFA010B
:100F000010828091C4018E3599F522303105E1F4CB
:100F1000A090C5018FEC8A0D8830B0F40A2C000C2B
:100F2000BB08FFE2AF1AB108E091EF01F091F001C8
:100F3000EA0DFB1D50805126652D8A2D0E94490324
:100F4000652DC5010E94C7051092CF011092CE01F8
:100F5000FFEF8F1A9F0ABDCF2081318142815381DB
:100F600082017101B401CE0101960E943E058FCF2E
:100F7000863251F72230310539F78091C5019FEC57
:100F8000980F983008F7082E000C990BC197909194
:100F90002B02B701A601082E04C0440F551F661F7F
:100FA000771F0A94D2F7292F30E002C03595279594
:100FB0008A95E2F720FD04C0492B40932B02C4CF51
:100FC00040954923FACF2C533E4FF901808350932B
:100FD000CF014093CE01BCCF9093D1018093D0013B
:100FE0000F900F900F900F900F90DF91CF911F9166
:100FF0000F91FF90EF90DF90CF90BF90AF909F90B8
:101000008F907F906F905F904F903F902F900895BA
:101010000E94C80F24E630E040E050E00E947710C4
:101020006133710574F060E070E080E490E40E9448
:101030005111660F771F66507E4FFB0180819181B1
:10104000089560E070E080E090E4F1CF0C9408082F
:101050000C9408080E94C80F21E23EE440E050E0F2
:101060000E947710605C73468F4F9F4F0E948911DA
:1010700020E030E44CE156E40E94DF1008950E9425
:10108000C80F21E23EE440E050E00E947710605C2F
:1010900073468F4F9F4F0E94891120E030E44CE14E
:1010A00056E40E94DF1008950E94C80F22E030E04D
:1010B00040E050E00E9477106E5F7F4F660F771F11
:1010C000FB01E650FE4F808191810895CF92DF921F
:1010D000EF92FF921F93CF93DF93EC016A017B01A4
:1010E0008E8181110CC011E01E8361E08D810E9410
:1010F00049038D8161E090E00E94C7051A838F81CA
:101100009885A985BA85C816D906EA06FB0698F01F
:1011100060E08D810E9449038D8160E090E00E9433
:10112000C7051A8280E0DF91CF911F91FF90EF9069
:10113000DF90CF90089581E0F6CF1F920F920FB607
:101140000F9211242F933F934F935F936F937F934D
:101150008F939F93AF93BF93EF93FF938CE592E0B0
:101160000E946D02FF91EF91BF91AF919F918F917E
:101170007F916F915F914F913F912F910F900FBE93
:101180000F901F9018951F920F920FB60F92112477
:101190002F938F939F93EF93FF93E0916C02F091C5
:1011A0006D028081E0917202F091730282FD1BC09A
:1011B0009081809175028F5F8F73209176028217E4
:1011C00041F0E0917502F0E0E45AFD4F958F809375
:1011D0007502FF91EF919F918F912F910F900FBE0C
:1011E0000F901F9018958081F4CF1F920F920FB629
:1011F0000F9211242F933F938F939F93AF93BF939D
:101200008091F6019091F701A091F801B091F90158
:101210003091F50123E0230F2D3758F50196A11DDC
:10122000B11D2093F5018093F6019093F701A093EF
:10123000F801B093F9018091260290912702A091C4
:101240002802B09129020196A11DB11D80932602AA
:1012500090932702A0932802B0932902BF91AF91E7
:101260009F918F913F912F910F900FBE0F901F90E4
:10127000189526E8230F0296A11DB11DD2CF5F92CB
:101280006F927F928F929F92AF92BF92CF92DF9296
:10129000EF92FF920F931F93CF93DF9310925F0211
:1012A00010925E0288EE93E0A0E0B0E080936002CE
:1012B00090936102A0936202B093630280E791E091
:1012C00090935D0280935C0285EC90E090936902BC
:1012D0008093680284EC90E090936B0280936A02A2
:1012E00080EC90E090936D0280936C0281EC90E032
:1012F00090936F0280936E0282EC90E09093710263
:101300008093700286EC90E0909373028093720257
:101310001092750210927602109277021092780263
:10132000C9EFD2E055245394AA24AA94BA2C9CE481
:10133000892E91E0992E2DE4E22E21E0F22E0FE489
:1013400011E032E5C32E31E0D32E45E5642E41E0B5
:10135000742E0E9477036C837D838E839F8318860F
:1013600019861A861B861C865D865E8682E090E062
:101370000E94B812988B8F8782E090E00E94B8128A
:101380009A8B898B1F8A588E598E82E090E00E943A
:10139000B8129B8F8A8F81E090E00E94B8129D8FD7
:1013A0008C8FBB82AA821B8A1C8A198218829E8A11
:1013B0008D8A9F8E8E8EF9A2E8A21BA30AA3DDA2BE
:1013C000CCA279A668A6FDA6ECA61FA30EA31BA718
:1013D0000AA71FA70EA7E09685E0C93CD80709F029
:1013E000B8CFDF91CF911F910F91FF90EF90DF90D9
:1013F000CF90BF90AF909F908F907F906F905F90B5
:101400000895CF93DF93CDB7DEB72B970FB6F8943F
:10141000DEBF0FBECDBF789484B5826084BD84B535
:10142000816084BD85B5826085BD85B5816085BDDF
:1014300080916E00816080936E0010928100809197
:10144000810082608093810080918100816080931F
:101450008100809180008160809380008091B10044
:1014600084608093B1008091B00081608093B0006F
:1014700080917A00846080937A0080917A00826003
:1014800080937A0080917A00816080937A008091C5
:101490007A00806880937A001092C100E0916C021B
:1014A000F0916D0282E08083E0916802F091690220
:1014B0001082E0916A02F0916B0287E080831092C3
:1014C0007402E0917002F091710286E08083E091F5
:1014D0006E02F0916F02808180618083E0916E02E4
:1014E000F0916F02808188608083E0916E02F091BC
:1014F0006F02808180688083E0916E02F0916F02BC
:1015000080818F7D808388E991E00E94180408E63D
:1015100010E0F8016491662341F08CE592E00E94AE
:101520008F020F5F1F4F892BA1F782E00E945901A4
:1015300083E00E94590184E00E94590185E00E94E5
:10154000590186E00E94590187E00E94590188E014
:101550000E94590189E00E9459018EE390E00E94A7
:10156000B8128C0166E271E00E94E813F801019064
:101570000020E9F73197E01BF10BD80190E080E003
:10158000D12CC12CF12CE12C8E179F0761F02D91ED
:101590002C3531F02F3221F02E3219F46C0101C0BC
:1015A0007C010196F1CFF801EC0DFD1D108282EA5D
:1015B00091E00E94110488EA91E0EC14FD0424F407
:1015C000C7010196800F911F0E94110481EB91E0E9
:1015D0000E9411040115110519F0C8010E9454134D
:1015E00081E080930C0380930D0329EF32E0309368
:1015F00021022093200280933C0392E090933D03CC
:1016000029E233E0309323022093220280936C037B
:1016100083E080936D0389E593E0909325028093A6
:101620002402E9E8F3E0A2E1B2E081E092E0938BEA
:10163000848BED93FD938F5FF0968730C1F7E9EAD5
:10164000F4E0A4E0B2E06624639413E0712E738AA0
:10165000648AED93FD936394F09627E06212F7CFCE
:1016600080915802909159029093FB018093FA0166
:1016700090930302809302029093110280931002D0
:1016800090931F0280931E0289EF92E09093FD01D8
:101690008093FC01A0901202B0901302B092FF015F
:1016A000A092FE01C0900402D0900502D0920102E7
:1016B000C092000290935B0280935A0289EC93E0FF
:1016C000909326038093250388E791E09093280365
:1016D00080932703AC0169EC73E085E093E00E94FE
:1016E00093048BE090E00E94B812FC01FF24F39475
:1016F000F2828DE791E094838383658208E611E0AE
:101700001183008316821782108611861286BF010C
:1017100080E493E00E94260482E891E090934E03D7
:1017200080934D0385E891E09093500380934F039D
:1017300084EC93E090935203809351038AE891E004
:1017400090935403809353038FE891E09093820326
:101750008093810384E598E09093840380938303CE
:101760008FE398E0D50199969C938E93989784E99E
:1017700091E09B969C938E939A97A0901402B090C0
:1017800015024501B7E18B0E911C8BE090E00E94A1
:10179000B812FC01F2828FEB93E09483838385E09F
:1017A0008583118300831682178210861186128624
:1017B000BF01C4010E9426048BE090E00E94B81291
:1017C000FC01F2828AEB93E094838383A2E0EA2E09
:1017D000E582118300831682178210861186128695
:1017E000BF01C4010E94260489E991E0F50195A397
:1017F00084A38CE991E097A386A3E0911602F0916F
:10180000170285EB93E091A780A781EA91E093A767
:1018100082A78DEA93E095A784A786EA91E097A72F
:1018200086A7AC016DEA73E0CF010C960E94930489
:10183000A0901802B09019028BE090E00E94B812BC
:10184000FC01F2828BEA91E09483838365821183A9
:10185000008316821782108611861286BF01C50189
:1018600047960E94260480EB91E0D50199969C93BF
:101870008E93989785EB91E09B969C938E939A9785
:10188000E0911A02F0911B028AEA93E095A384A3E7
:1018900085EA93E097A386A3E0911C02F0911D02D4
:1018A0008AEB91E095A384A38DEB91E097A386A3A7
:1018B00082EC91E091A780A786E298E093A782A7A7
:1018C0008AE298E0F60191A780A787EC91E093A7C0
:1018D00082A7C0900602D09007025601F7E1AF0E32
:1018E000B11C8BE090E00E94B812FC01F28280EA09
:1018F00093E0948383837582118300831682178219
:10190000108611861286BF01C5010E9426048BE055
:1019100090E00E94B812FC01F2828CEC91E094837A
:101920008383E582118300831682178210861186D5
:101930001286BF01C5010E9426048DE993E0D601FD
:1019400095969C938E93949781ED91E097969C93B6
:101950008E939697E0910802F091090286ED91E04E
:1019600091A780A78BED91E093A782A785E993E0EB
:1019700095A784A780EE91E097A786A7AC0165E9BB
:1019800073E0CF010C960E949304C0900A02D0909D
:101990000B028BE090E00E94B812FC01F28285EE0F
:1019A00091E09483838386E085831183008316828C
:1019B0001782108611861286BF01C60147960E94C3
:1019C000260480E993E0F60191A780A78AEE91E0D2
:1019D00093A782A7E0910C02F0910D028DE893E0AD
:1019E00095A384A388E893E097A386A3E0910E02D1
:1019F000F0910F0283E893E091A780A788E298E036
:101A000093A782A780E390E00E94B8128C010E9405
:101A10007703D80114966D937D938D939C931797BC
:101A2000F80110861186128613861486F586F686CE
:101A300082E090E00E94B812D80150969C938E9359
:101A40001F9782E090E00E94B812F801928B818B80
:101A5000178AF08EF18E82E090E00E94B812D801D1
:101A60005B969C938E935A9781E090E00E94B81207
:101A7000F801958F848F8FEF9FEF93838283138A72
:101A8000148A118210828CE491E0968B858B978F5B
:101A9000868F2DE431E031A320A38FE491E093A35E
:101AA00082A345E551E051A740A735A724A797A3F6
:101AB00086A393A782A797A786A71093590200939E
:101AC00058028AE996E095A384A38CE00E9459010C
:101AD0008DE00E94590160E08CE00E94490360E0C3
:101AE0008CE090E00E94C70560E08DE00E94490311
:101AF00060E08DE090E00E94C7058CE592E00E94D6
:101B00004D02892BD1F38CE592E00E942B028236A4
:101B1000910599F78CE592E00E944D02892B29F0FE
:101B20008CE592E00E942B02F5CF3FB7F8948091AC
:101B3000260290912702A0912802B091290226B591
:101B4000A89B05C02F3F19F00196A11DB11D3FBFF5
:101B5000BA2FA92F982F8827BC01CD01620F711DC4
:101B6000811D911DE2E0660F771F881F991FEA957E
:101B7000D1F7611571058105910511F00E941710CB
:101B800088EB91E00E9418040E947703609354024E
:101B900070935502809356029093570261E08CE057
:101BA0000E94490361E08CE090E00E94C70561E07B
:101BB0008DE00E94490361E08DE090E00E94C7053E
:101BC00060E0E62E60E0F62E00915A0210915B0272
:101BD00080915802909159020115110509F4ADC088
:101BE0000E947703D80114966D937D938D939C93F7
:101BF00017975596ED91FC910995D8015E96ED9158
:101C0000FC910995F8018789608D462F4150550B4D
:101C10008417150609F0A1C0178A812C912C540154
:101C2000712CF8018789608D462F4150550B841720
:101C3000150609F0A9C0178A0E947703D8011496E7
:101C40008D909D90AD90BC9017979B01AC01281989
:101C500039094A095B0949015A010E94B10671100C
:101C6000DFCFD80114964D905D906D907C901797C2
:101C70005496CC905497D12C5396AC90B12C109292
:101C80002C026FEB71E08CE292E00E94DD134AE0DF
:101C9000BE016F5F7F4FC5010E942010BC018CE226
:101CA00092E00E94DD1361EC71E08CE292E00E9410
:101CB000DD134AE0BE016F5F7F4FC6010E94201016
:101CC000BC018CE292E00E94DD1361E871E08CE2DD
:101CD00092E00E94DD138091540290915502A091F0
:101CE0005602B0915702A3019201281B390B4A0BEF
:101CF0005B0BCA01B9012AE0AE014F5F5F4F0E9442
:101D00002B10BC018CE292E00E94DD136FE771E0C2
:101D10008CE292E00E94DD138CE292E00E941104BA
:101D2000D8019096ED91FC910995882309F44FC054
:101D3000D8019296ED91FC91099590935B02809366
:101D40005A02E114F10409F43FCF0E94590288239A
:101D500009F43ACF0E94000037CF8F5F0E94A6128D
:101D6000978B892F90E0880F991F228D338D820FDA
:101D7000931FFC0180819181DC01ED91FC91028037
:101D8000F381E02D09953ECF8F5F0E94A612978BBD
:101D9000892F90E0880F991F228D338D820F931F1A
:101DA000FC01C080D180D60112968C9112978823B5
:101DB00049F0ED91FC910190F081E02DB501A40175
:101DC000C601099571102DCFF60172802ACFF80156
:101DD00082819381019641F4D8019496ED91FC9112
:101DE0000995F80193838283D8018D919C91119775
:101DF000019611969C938E9312962D913C91139778
:101E00002115310581F08217930769F49496ED91BD
:101E1000FC910995F801938382831182108206A0B8
:101E2000F7A1E02D89CFD8019896ED91FC91099505
:101E300020E030E04AE754E40E9439120E94581131
:101E4000F8016087718782879387F8018085918583
:101E5000A285B385892B8A2B8B2BE1F00E94770317
:101E6000D80114968D909D90AD90BC9017976819ED
:101E700079098A099B0918968D909D90AD90BC9028
:101E80001B97681579058A059B0520F09A96ED91B8
:101E9000FC9152CF96B180912B02892780932A0220
:101EA000F80184856585462F4150550B841715062A
:101EB00021F414860E94B106C8CF8F5F0E94A6123B
:101EC0009487892F90E0880F991F27853089820F8A
:101ED000931FDC01ED91FC910995882309F3F8012A
:101EE000848590E0880F991F21893289820F931F82
:101EF000DC01ED91FC9120CF8F929F92AF92BF9227
:101F0000CF92DF92EF92FF92CF93DF93EC01688143
:101F100079818A819B81611571058105910521F483
:101F200064E279ED8BE597E02DE133EF41E050E09D
:101F30000E94771049015A019B01AC01A7EAB1E464
:101F40000E9496106B017C01ACEEB4EFA5019401E8
:101F50000E94A410C60ED71EE81EF91EF7FE06C08A
:101F600081E0C81AD108E10880E8F80AC882D9825D
:101F7000EA82FB82C701B6019F77DF91CF91FF9084
:101F8000EF90DF90CF90BF90AF909F908F9008958B
:101F90008F929F92AF92BF92CF92DF92EF92FF9279
:101FA00060910201709103018091040190910501FB
:101FB000611571058105910521F464E279ED8BE5E8
:101FC00097E02DE133EF41E050E00E9477104901A6
:101FD0005A019B01AC01A7EAB1E40E9496106B0183
:101FE0007C01ACEEB4EFA50194010E94A410C60ED2
:101FF000D71EE81EF91EF7FE06C081E0C81AD108F8
:10200000E10880E8F80AC0920201D0920301E09250
:102010000401F0920501C701B6019F77FF90EF9090
:10202000DF90CF90BF90AF909F908F900895609376
:1020300002017093030180930401909305010895B8
:10204000BB274A3031F4992322F4BDE29095819563
:102050009F4F0C944E10BB27FA01A62F62177105F3
:1020600081059105330B30FB66F0AA27660F771FB9
:10207000881F991FAA1FA21710F0A21B6395385042
:10208000A9F7A05DAA3308F0A95DA19336F7B111B5
:10209000B1931082CA010C946710BB27FB0155272E
:1020A000AA27880F991FAA1FA41710F0A41B8395B5
:1020B0005051B9F7A05DAA3308F0A95DA19300972C
:1020C00079F7B111B1931192CB010C946710DC0137
:1020D000FC01672F71917723E1F7329704C07C915F
:1020E0006D9370836291AE17BF07C8F30895052EF4
:1020F00097FB1EF400940E948E1057FD07D00E949B
:10210000A91007FC03D04EF40C948E105095409506
:10211000309521953F4F4F4F5F4F08959095809593
:10212000709561957F4F8F4F9F4F08950E94CB1000
:10213000A59F900DB49F900DA49F800D911D11241B
:102140000895B7FF0C9496100E949610821B930B73
:102150000895A1E21A2EAA1BBB1BFD010DC0AA1FE8
:10216000BB1FEE1FFF1FA217B307E407F50720F000
:10217000A21BB30BE40BF50B661F771F881F991F7B
:102180001A9469F760957095809590959B01AC01C4
:10219000BD01CF010895A29FB001B39FC001A39FCD
:1021A000700D811D1124911DB29F700D811D112490
:1021B000911D08950E94C41108F481E008950E94C1
:1021C000F3100C94FF110E94F81158F00E94F111C5
:1021D00040F029F45F3F29F00C94E81151110C9460
:1021E00033120C94EE110E94101268F39923B1F38C
:1021F000552391F3951B550BBB27AA27621773072D
:10220000840738F09F5F5F4F220F331F441FAA1FC0
:10221000A9F335D00E2E3AF0E0E832D0915050407C
:10222000E695001CCAF72BD0FE2F29D0660F771F2A
:10223000881FBB1F261737074807AB07B0E809F010
:10224000BB0B802DBF01FF2793585F4F3AF09E3F95
:10225000510578F00C94E8110C9433125F3FE4F3CD
:10226000983ED4F3869577956795B795F7959F5FD8
:10227000C9F7880F911D9695879597F90895E1E024
:10228000660F771F881FBB1F621773078407BA0783
:1022900020F0621B730B840BBA0BEE1F88F7E095DE
:1022A00008950E9458116894B1110C943312089546
:1022B0000E94181288F09F5798F0B92F9927B751AC
:1022C000B0F0E1F0660F771F881F991F1AF0BA95DA
:1022D000C9F714C0B13091F00E943212B1E00895F4
:1022E0000C943212672F782F8827B85F39F0B93FE6
:1022F000CCF3869577956795B395D9F73EF490958D
:102300008095709561957F4F8F4F9F4F0895E8940A
:1023100009C097FB3EF490958095709561957F4F2D
:102320008F4F9F4F9923A9F0F92F96E9BB279395DB
:10233000F695879577956795B795F111F8CFFAF4EB
:10234000BB0F11F460FF1BC06F5F7F4F8F4F9F4F1C
:1023500016C0882311F096E911C0772321F09EE87A
:10236000872F762F05C0662371F096E8862F70E0E0
:1023700060E02AF09A95660F771F881FDAF7880FBA
:102380009695879597F90895990F0008550FAA0B10
:10239000E0E8FEEF16161706E807F907C0F0121678
:1023A0001306E407F50798F0621B730B840B950B7B
:1023B00039F40A2661F0232B242B252B21F40895D0
:1023C0000A2609F4A140A6958FEF811D811D08956D
:1023D00097F99F6780E870E060E008959FEF80ECD8
:1023E000089500240A94161617061806090608957B
:1023F00000240A9412161306140605060895092EE1
:102400000394000C11F4882352F0BB0F40F4BF2B4F
:1024100011F460FF04C06F5F7F4F8F4F9F4F08958F
:1024200057FD9058440F551F59F05F3F71F0479585
:10243000880F97FB991F61F09F3F79F0879508956A
:10244000121613061406551FF2CF4695F1DF08C089
:10245000161617061806991FF1CF869571056105A6
:1024600008940895E894BB2766277727CB0197F94E
:1024700008950E944C120C94FF110E94F11138F043
:102480000E94F81120F0952311F00C94E8110C949F
:10249000EE1111240C9433120E94101270F3959FC8
:1024A000C1F3950F50E0551F629FF001729FBB274B
:1024B000F00DB11D639FAA27F00DB11DAA1F649FE7
:1024C0006627B00DA11D661F829F2227B00DA11D9A
:1024D000621F739FB00DA11D621F839FA00D611D20
:1024E000221F749F3327A00D611D231F849F600D41
:1024F000211D822F762F6A2F11249F5750409AF06A
:10250000F1F088234AF0EE0FFF1FBB1F661F771FF5
:10251000881F91505040A9F79E3F510580F00C94C0
:10252000E8110C9433125F3FE4F3983ED4F38695A0
:1025300077956795B795F795E7959F5FC1F7FE2B60
:10254000880F911D9695879597F90895991B79E0C5
:1025500004C0991F961708F0961B881F7A95C9F733
:1025600080950895EE0FFF1F0590F491E02D0994DA
:102570000F931F93CF93DF938230910510F482E085
:1025800090E0E091CB05F091CC0530E020E0B0E0A8
:10259000A0E0309799F42115310509F44AC0281BB1
:1025A000390B24303105D8F58A819B81611571057D
:1025B00089F1FB0193838283FE0111C04081518127
:1025C0000281138148175907E0F04817590799F419
:1025D000109761F012960C93129713961C933296F3
:1025E000CF01DF91CF911F910F9108950093CB05FB
:1025F0001093CC05F4CF2115310551F04217530744
:1026000038F0A901DB019A01BD01DF01F801C1CF5A
:10261000EF01F9CF9093CC058093CB05CDCFFE0190
:10262000E20FF31F8193919322503109398328835C
:10263000D7CF2091C9053091CA05232B41F42091B1
:102640000801309109013093CA052093C9052091F2
:102650000601309107012115310541F42DB73EB730
:1026600040910A0150910B01241B350BE091C905E3
:10267000F091CA05E217F307A0F42E1B3F0B2817B1
:10268000390778F0AC014E5F5F4F2417350748F0EB
:102690004E0F5F1F5093CA054093C90581939193D4
:1026A0009FCFF0E0E0E09CCFCF93DF930097E9F07D
:1026B000FC01329713821282A091CB05B091CC0518
:1026C000ED0130E020E01097A1F420813181820FEC
:1026D000931F2091C9053091CA052817390709F0C1
:1026E00061C0F093CA05E093C905DF91CF910895C9
:1026F000EA01CE17DF07E8F54A815B819E014115AB
:102700005105B1F7E901FB83EA8349915991C40F5F
:10271000D51FEC17FD0761F4808191810296840F2B
:10272000951FE90199838883828193819B838A83A2
:10273000F0E0E0E012968D919C9113970097B9F527
:102740002D913C911197CD010296820F931F2091FC
:10275000C9053091CA052817390739F6309751F560
:102760001092CC051092CB05B093CA05A093C90571
:10277000BCCFD383C28340815181840F951FC8177A
:10278000D90761F44E5F5F4F88819981480F591FC7
:10279000518340838A819B819383828321153105F4
:1027A00009F0B0CFF093CC05E093CB059ECFFD01AF
:1027B000DC01C0CF13821282D7CFFB01DC010D9068
:1027C0000020E9F7119701900D920020E1F708959C
:1027D000FB01DC0101900D920020E1F70895F894CF
:1027E000FFCF0101010000000000CD0580000000C6
:1027F00001000200030004000500000001010101C6
:102800000101010101000000443A5C4769745F5214
:102810006573705C4172436F6E74726F6C5F676951
:10282000746875625F72656C656173655C74617311
:102830006B5C476F5F4E6F476F5C476F5F4E6F47D4
:102840006F2E696E6F00000000006608D103000063
:1028500000008F02EF011C02DC024D022B023F023E
:102860000D0A003A00200025004F555400417243E4
:102870002D656E64002400494E004172436F6E74F2
:10288000726F6C002D2D2D2D2D00556E7469746C9A
:102890006564002D2D2D2D2D0A004172432D626798
:0628A0000043005300009C
:107E0000112484B714BE81FFF0D085E080938100F7
:107E100082E08093C00088E18093C10086E0809377
:107E2000C20080E18093C4008EE0C9D0259A86E02C
:107E300020E33CEF91E0309385002093840096BBD3
:107E4000B09BFECF1D9AA8958150A9F7CC24DD24C4
:107E500088248394B5E0AB2EA1E19A2EF3E0BF2EE7
:107E6000A2D0813461F49FD0082FAFD0023811F036
:107E7000013811F484E001C083E08DD089C08234E0
:107E800011F484E103C0853419F485E0A6D080C0E4
:107E9000853579F488D0E82EFF2485D0082F10E0AE
:107EA000102F00270E291F29000F111F8ED06801E7
:107EB0006FC0863521F484E090D080E0DECF843638
:107EC00009F040C070D06FD0082F6DD080E0C81688
:107ED00080E7D80618F4F601B7BEE895C0E0D1E017
:107EE00062D089930C17E1F7F0E0CF16F0E7DF06D8
:107EF00018F0F601B7BEE89568D007B600FCFDCFD4
:107F0000A601A0E0B1E02C9130E011968C91119780
:107F100090E0982F8827822B932B1296FA010C0160
:107F200087BEE89511244E5F5F4FF1E0A038BF0790
:107F300051F7F601A7BEE89507B600FCFDCF97BE46
:107F4000E89526C08437B1F42ED02DD0F82E2BD052
:107F50003CD0F601EF2C8F010F5F1F4F84911BD097
:107F6000EA94F801C1F70894C11CD11CFA94CF0C13
:107F7000D11C0EC0853739F428D08EE10CD085E9AC
:107F80000AD08FE07ACF813511F488E018D01DD067
:107F900080E101D065CF982F8091C00085FFFCCF94
:107FA0009093C60008958091C00087FFFCCF809118
:107FB000C00084FD01C0A8958091C6000895E0E648
:107FC000F0E098E1908380830895EDDF803219F02E
:107FD00088E0F5DFFFCF84E1DECF1F93182FE3DFCA
:107FE0001150E9F7F2DF1F91089580E0E8DFEE27F6
:047FF000FF270994CA
:027FFE00040479
:00000001FF
