:100000000C941E010C9446010C9446010C9446017C
:100010000C9446010C9446010C9446010C94460144
:100020000C9446010C9446010C9446010C94460134
:100030000C9446010C9446010C9446010C94460124
:100040000C94AA070C9446010C9497060C94710624
:100050000C9446010C9446010C9446010C94460104
:100060000C9446010C944601404F5554313A2331CB
:100070000A404F5554323A234E6F476F4375650A15
:10008000404F5554333A23330A404F5554343A23A2
:10009000476F4375650A404F5554353A234169729D
:1000A0007075660A404F5554363A2357617465722D
:1000B0000A404F5554373A23370A404F5554383A7F
:1000C00023380A40494E313A23310A40494E323AE8
:1000D000234C69636B0A40494E333A23330A404943
:1000E0004E343A23340A40494E353A23350A4049C2
:1000F0004E363A23360A4043313A696E6974206CB1
:1001000069636B730A40433153313A576169742014
:100110006C69636B0A40433153323A5761746572BC
:100120000A40433153333A0A4043323A476F20740E
:100130007269616C0A40433253313A74696D6520CB
:10014000696E74657276616C0A40433253323A4389
:1001500075650A40433253333A77616974206C699C
:10016000636B0A40433253343A57617465720A40F4
:10017000433253353A4D6973730A40433253363A2A
:100180000A4043333A4E6F476F20747269616C0ABC
:1001900040433353313A74696D6520696E746572FA
:1001A00076616C0A40433353323A4375650A4043E3
:1001B0003353333A77616974206C69636B0A404347
:1001C0003353343A416972707566660A404333535B
:1001D000353A4D6973730A40433353363A0A000087
:1001E000000000250028002B00000000002400274C
:1001F000002A000000000023002600290004040457
:1002000004040404040202020202020303030303BF
:10021000030102040810204080010204081020019C
:10022000020408102000000008000201000003047E
:10023000070000000000000000007C0C11241FBE1D
:10024000CFEFD8E0DEBFCDBF11E0A0E0B1E0E8EE37
:10025000F2E202C005900D92A03AB107D9F725E06D
:10026000A0EAB1E001C01D92AA37B207E1F711E0A0
:10027000CEE1D1E004C02197FE010E943410CD31BF
:10028000D107C9F70E94F4070C9472110C94000076
:10029000089580E0089580E090E0089580E090E087
:1002A000089560E070E0CB0108958091EA0190919B
:1002B000EB01089584E090E008958091EC01909125
:1002C000ED01089560E070E080E090E40895809191
:1002D000E8019091E901089560E070E080E89FE313
:1002E00008958091DC019091DD01089581E090E016
:1002F00008958091DE019091DF0108958091E201DF
:100300009091E30108958091E0019091E1010895B9
:1003100060E070E080EC9FE308958091E4019091AB
:10032000E501089585E690E008958091C2019091DD
:10033000C30108956DEC7CEC8CEC9DE308958091F5
:10034000CE019091CF0108958091D0019091D1017B
:1003500008958091D4019091D50108958091D201A2
:100360009091D30108958091D6019091D70108957D
:10037000CF92DF92EF92FF920F931F93CF93DF9371
:100380006C017A018B01C0E0D0E0CE15DF0581F071
:10039000D8016D918D01D601ED91FC910190F08114
:1003A000E02DC6010995892B11F02196EECF7E0133
:1003B000C701DF91CF911F910F91FF90EF90DF90D8
:1003C000CF900895089580E090E00895FC01538D4A
:1003D000448D252F30E0842F90E0821B930B54171F
:1003E00010F0CF96089501970895FC01918D828DAC
:1003F000981761F0828DDF01A80FB11D5D968C9179
:10040000928D9F5F9F73928F90E008958FEF9FEF83
:100410000895FC01918D828D981731F0828DE80F3F
:10042000F11D858D90E008958FEF9FEF0895FC01F9
:10043000918D228D892F90E0805C9F4F821B9109C6
:100440008F739927089582E292E00E94170221E0BB
:10045000892B09F420E0822F0895FC01848DDF01AF
:10046000A80FB11DA35ABF4F2C91848D90E0019627
:100470008F739927848FA689B7892C93A089B18916
:100480008C91837080648C93938D848D981306C0B7
:100490000288F389E02D80818F7D80830895EF921B
:1004A000FF920F931F93CF93DF93EC0181E0888F2E
:1004B0009B8D8C8D981305C0E889F989808185FD15
:1004C00026C0F62E0B8D10E00F5F1F4F0F73112704
:1004D000E02E8C8DE8120CC00FB607FCFACFE8892D
:1004E000F989808185FFF5CFCE010E942D02F1CFE1
:1004F0008B8DFE01E80FF11DE35AFF4FF0829FB78D
:10050000F8940B8FEA89FB89808180620AC09FB7CB
:10051000F894EE89FF896083E889F9898081837086
:10052000806480839FBF81E090E0DF91CF911F9135
:100530000F91FF90EF900895CF93DF93EC01888D9A
:100540008823C9F0EA89FB89808185FD05C0A889D7
:10055000B9898C9186FD0FC00FB607FCF5CF80815D
:1005600085FFF2CFA889B9898C9185FFEDCFCE01A7
:100570000E942D02E7CFDF91CF91089580E090E0B7
:10058000892B29F00E94230281110C940000089508
:100590006DEC7CEC8CEC9DE308958091D6019091FC
:1005A000D701089581E090E0089560E070E080EC6C
:1005B0009FE3089560E070E080E090E4089581E0BA
:1005C00090E008958091E4019091E501089581E023
:1005D00090E0089560E070E080E090E408952F924C
:1005E0003F924F925F926F927F928F929F92AF92C3
:1005F000BF92CF92DF92EF92FF920F931F93CF9310
:10060000DF93CDB7DEB7E3970FB6F894DEBF0FBE2A
:10061000CDBF1B0129013A016701780180901602C4
:1006200090901702A0901802B09019021982BC0194
:10063000CE0101960E9460114AE0BE01675D7F4FC6
:10064000C1010E94C30DBC01CE0101960E94601140
:100650006EE571E0CE0101960E946011C301B20106
:10066000681979098A099B092AE0AE01475D5F4F45
:100670000E94CE0DBC01CE0101960E94601160E681
:1006800071E0CE0101960E946011C701B6016419A4
:100690007509860997092AE0AE01475D5F4F0E9400
:1006A000CE0DBC01CE0101960E9460116DE971E092
:1006B000CE0101960E946011CE0101960E94300782
:1006C000E3960FB6F894DEBF0FBECDBFDF91CF919A
:1006D0001F910F91FF90EF90DF90CF90BF90AF9060
:1006E0009F908F907F906F905F904F903F902F9052
:1006F00008952F923F924F925F926F927F928F92C6
:100700009F92AF92BF92CF92DF92EF92FF920F93A0
:100710001F93CF93DF9300D000D0CDB7DEB7809189
:10072000620190916301A091640189839A83AB83F4
:1007300080910001882381F11092000180911602BE
:1007400090911702A0911802B0911902E2EAF1E02B
:1007500081939193A193B19321E0EA3BF207C1F712
:100760008091A101ECE0F1E0812C912C5401839463
:1007700031E0E831F30719F48093A1010DC09081B5
:100780003296B501A40104C0440F551F661F771FA0
:100790009A95D2F7842BECCF86B18C83C090A001C0
:1007A000C8268091A101C82209F43FC00E949E077B
:1007B0001B012C0182EAA82E81E0B82E80E090E097
:1007C000D12CEC816E2E712C9C012F5F3F4F490183
:1007D0009601082E02C0359527950A94E2F720FF6E
:1007E0001AC0F30102C0F595E7958A95E2F7CF01AB
:1007F000F50180FF05C020823182428253820BC006
:10080000208131814281538182017101B401CE0185
:1008100001960E94EF02C401F4E0AF0EB11C8630D5
:10082000910591F62C812093A0010F900F900F90CD
:100830000F90DF91CF911F910F91FF90EF90DF907C
:10084000CF90BF90AF909F908F907F906F905F9070
:100850004F903F902F9008958F929F92AF92BF92AA
:10086000CF92DF92EF92FF920F931F93CF93DF937C
:1008700000D000D0CDB7DEB78C01B62E80916501D7
:1008800090916601A0916701B091680189839A8374
:10089000AB83BC8380910101811107C0F801E85E40
:1008A000FE4F8081811133C088C0109201018CE11C
:1008B00090E00E943A106C018093C001D092C10177
:1008C0008EE090E00E943A10982EA92E8093BE01EF
:1008D0009093BF0188E390E00E943A109093BD018D
:1008E0008093BC0188E390E00E943A109093BB0192
:1008F0008093BA01A92DBA2DF60180E090E01D92F7
:100900008193919301968E309105C9F7C7CFC0901E
:10091000BE01D090BF01C00ED11EF60180818111B1
:1009200018C0BB2009F449C0000F111F000F111F90
:100930008091BC019091BD01080F191F0E949E0774
:10094000F801608371838283938381E0F601808361
:1009500034C0B11032C05801AA0CBB1CAA0CBB1C7D
:100960008090BA019090BB018A0C9B1C0E949E074C
:10097000F4016083718382839383F6011082209156
:10098000BC013091BD01F901EA0DFB1D20813181CF
:1009900042815381000F111FE091C001F091C1010C
:1009A000E00FF11F0190F081E02D31977B018C0168
:1009B000BF01CE0101960E94EF020F900F900F90A1
:1009C0000F90DF91CF911F910F91FF90EF90DF90EB
:1009D000CF90BF90AF909F908F90089560E08CE093
:1009E0000E946F0760E08CE090E00E942C0460E0C1
:1009F0008DE00E946F0760E08DE090E00E942C0483
:100A000089E691E00E944207FFCF8F929F92AF92BA
:100A1000BF92CF92DF92EF92FF92CF93DF93EC01E0
:100A20004A015B0161E00E946F0761E0CE010E9414
:100A30002C040E949E076B017C0120E030E04AE715
:100A400054E4C501B4010E94B30F0E94F60EC60E15
:100A5000D71EE81EF91E0E949E076C157D058E05A7
:100A60009F0518F40E947903F6CF60E08C2F0E9456
:100A70006F0760E0CE01DF91CF91FF90EF90DF90A4
:100A8000CF90BF90AF909F908F900C942C0440E03B
:100A900050E060E07FE386E090E00C94050540E0E4
:100AA00050E060E07FE383E090E00C9405054AE9C4
:100AB00059E969E97DE387E090E00C94050540E0A1
:100AC00050E060E07FE385E090E00C94050548EBA2
:100AD0005EE165E87DE387E090E00C9405058F9288
:100AE0009F92AF92BF92CF92DF92EF92FF920F93BD
:100AF0001F93CF93DF93EC015B014A010A811B81B5
:100B00008C819D810817190709F051C0780182E096
:100B1000E80EF11CFD82EC82E1E8EE16EFE3FE0642
:100B200020F4C701880F991F02C08FEF9FEF0E942A
:100B30003A106C01F1E8EF16FFE3FF0620F4C7015D
:100B4000880F991F02C08FEF9FEF0E943A107C011F
:100B5000D601BC0120E030E08E819F812017310753
:100B6000C1F0A901440F551F840F951FFC0180811E
:100B700091818D939D9388859985480F591FFA011E
:100B800080819181FB0181939193BF012F5F3F4F42
:100B9000E3CF009711F00E94D210888599850097C5
:100BA00011F00E94D210CE82DF82E886F9868A8117
:100BB0009B819C01220F331FEE81FF81E20FF31F07
:100BC000B182A08248855985FA01E20FF31F918214
:100BD000808201969B838A83DF91CF911F910F9131
:100BE000FF90EF90DF90CF90BF90AF909F908F904D
:100BF00008950E945B110E946C0D24E630E040E0F5
:100C000050E00E941A0E613371052CF060E070E034
:100C100080E490E404C060E070E080E090E40E9432
:100C2000EF0E660F771FFB01EE53FE4F808191811F
:100C300008950C94FB050C94FB050E946C0D21E2B9
:100C40003EE440E050E00E941A0E605C73468F4F15
:100C50009F4F0E94270F20E030E44CE156E40E94B1
:100C60007D0E08950E946C0D21E23EE440E050E0CC
:100C70000E941A0E605C73468F4F9F4F0E94270F91
:100C800020E030E44CE156E40E947D0E08950E947D
:100C90006C0D22E030E040E050E00E941A0E6E5FE2
:100CA0007F4F660F771FFB01EE53FE4F80819181CE
:100CB00008950E940C0721E0019709F020E0822F9F
:100CC00008950E940C0721E0019709F020E0822F8F
:100CD00008950E940C0721E0019709F020E0822F7F
:100CE00008951F920F920FB60F9211242F933F93E6
:100CF0004F935F936F937F938F939F93AF93BF9324
:100D0000EF93FF9382E292E00E942D02FF91EF9118
:100D1000BF91AF919F918F917F916F915F914F9113
:100D20003F912F910F900FBE0F901F9018951F921B
:100D30000F920FB60F9211242F938F939F93EF93DF
:100D4000FF93E0913202F09133028081E09138020A
:100D5000F091390282FD12C0908180913B028F5F39
:100D60008F7320913C02821751F0E0913B02F0E03A
:100D7000EE5DFD4F958F80933B0201C08081FF9116
:100D8000EF919F918F912F910F900FBE0F901F9019
:100D90001895CF93DF93EC011982188281E090E0DF
:100DA0009B838A839D838C8382E090E00E943A102B
:100DB0009F838E8382E090E00E943A109987888713
:100DC000DF91CF910895833081F028F4813099F03C
:100DD0008230A1F008958730A9F08830B9F08430CE
:100DE000D1F4809180008F7D03C0809180008F7747
:100DF00080938000089584B58F7702C084B58F7D7D
:100E000084BD08958091B0008F7703C08091B000B9
:100E10008F7D8093B0000895CF93DF93E4E3F2E0F9
:100E20008491E0E2F2E0D491ECE0F2E0C491CC23D2
:100E300091F081110E94E306EC2FF0E0EE0FFF1F0E
:100E4000ED50FE4FA591B491EC91ED2381E090E03F
:100E500021F480E002C080E090E0DF91CF9108951E
:100E6000009769F0FC0101900020E9F73197AF018C
:100E7000481B590BBC0182E292E00C94B80180E05F
:100E800090E00895CF93DF930E943007EC018CE946
:100E900091E00E9430078C0F9D1FDF91CF91089544
:100EA00090E0FC01EF5EFD4F2491FC01E350FE4F0A
:100EB0008491882399F090E0880F991FFC01E751F5
:100EC000FE4FA591B491FC01E152FE4F85919491A2
:100ED0008FB7F894EC91E22BEC938FBF08951F939A
:100EE000CF93DF93282F30E0F901EB5DFD4F849124
:100EF000F901EF5EFD4FD491F901E350FE4FC4912B
:100F0000CC23C1F0162F81110E94E306EC2FF0E0F4
:100F1000EE0FFF1FE152FE4FA591B4919FB7F894D9
:100F2000111104C08C91D095D82302C0EC91DE2B16
:100F3000DC939FBFDF91CF911F9108952FB7F89455
:100F4000609172057091730580917405909175059B
:100F50002FBF08951F920F920FB60F9211242F9357
:100F60003F938F939F93AF93BF938091720590911E
:100F70007305A0917405B09175053091710523E05A
:100F8000230F2D3720F40196A11DB11D05C026E8C1
:100F9000230F0296A11DB11D209371058093720548
:100FA00090937305A0937405B093750580911E020C
:100FB00090911F02A0912002B09121020196A11DE3
:100FC000B11D80931E0290931F02A0932002B09344
:100FD0002102BF91AF919F918F913F912F910F90DF
:100FE0000FBE0F901F901895CF93DF93CDB7DEB74C
:100FF0002B970FB6F894DEBF0FBECDBF789484B5A3
:10100000826084BD84B5816084BD85B5826085BD04
:1010100085B5816085BD80916E00816080936E0092
:101020001092810080918100826080938100809184
:101030008100816080938100809180008160809335
:1010400080008091B10084608093B1008091B000F5
:1010500081608093B00080917A00846080937A00F0
:1010600080917A00826080937A0080917A0081601A
:1010700080937A0080917A00806880937A00109241
:10108000C100E0913202F091330282E08083E0916E
:101090002E02F0912F021082E0913002F091310285
:1010A00087E0808310923A02E0913602F091370295
:1010B00086E08083E0913402F09135028081806186
:1010C0008083E0913402F0913502808188608083D2
:1010D000E0913402F0913502808180688083E09154
:1010E0003402F091350280818F7D808381E791E029
:1010F0000E94420708E610E0F8016491611130C0D7
:1011000082E00E94500783E00E94500784E00E9422
:10111000500785E00E94500786E00E94500787E054
:101120000E94500788E00E94500789E00E94500703
:1011300086E290E00E943A108C0166E271E00E9423
:101140006B11F80101900020E9F73197E01BF10BDA
:10115000D80180E090E0C12CD12CE12CF12C12C000
:1011600082E292E00E944F020F5F1F4F892B21F60F
:10117000C7CF2D912C3551F02F3241F02E3209F48A
:101180006C010196E817F907A1F702C07C01F9CFBD
:10119000F801EC0DFD1D10828BE791E00E943007F5
:1011A000EC14FD041CF081E891E004C0C701019635
:1011B000800F911F0E9430078AE891E00E9430075B
:1011C0000115110519F0C8010E94D21081E090E0CC
:1011D0009093D6028093D5029093D8028093D70241
:1011E0002FEB32E03093E9012093E8019093040360
:1011F0008093030322E030E030930603209305033D
:101200002DEE32E03093EB012093EA01909332030C
:101210008093310383E090E0909334038093330311
:101220008BE193E09093ED018093EC01E9E4F3E02E
:10123000AAEDB1E081E090E022E030E0378B268B30
:10124000918F808FED93FD930196BE968730910527
:10125000A9F7EDE5F4E0ACECB1E081E090E023E04B
:1012600030E0378B268B918F808FED93FD93019625
:10127000BE9687309105A9F780911A0290911B02C2
:101280009093C3018093C2019093CB018093CA01D4
:101290009093D9018093D8019093E7018093E60160
:1012A0008FEB92E09093C5018093C401E090DA0146
:1012B000F090DB01F092C701E092C6010091CC01F1
:1012C0001091CD011093C9010093C80190931D02A4
:1012D00080931C0289E696E09093EA028093E902EB
:1012E00085E591E09093EC028093EB02AC0169E616
:1012F00076E08BEC92E00E946F0587E695E0909394
:101300000A03809309038AE591E090931003809388
:101310000F038DE591E0909312038093110382E611
:1013200091E0909314038093130387E691E09093E8
:101330001603809315038CE691E09093420380930B
:10134000410387E496E0909344038093430382E350
:1013500096E0D70197969C938E93969781E791E0BC
:1013600099969C938E939897E091DC01F091DD0122
:101370008FE595E0958F848F86E791E093A382A314
:1013800089E791E095A384A3E091DE01F091DF016C
:101390008AEE92E097A386A38EE791E091A780A7BB
:1013A00089E596E093A782A783E891E095A784A7B3
:1013B000AC0169E576E0CF010C960E946F05E091E3
:1013C000E001F091E10187E595E0958F848F88E851
:1013D00091E097A386A38DE891E091A780A7E09183
:1013E000E201F091E30187EE92E093A382A382EE03
:1013F00092E095A384A3E091E401F091E50182E9F4
:1014000091E093A382A385E991E095A384A38AE95F
:1014100091E097A386A389E196E091A780A78DE14B
:1014200096E0F80197A386A38FE991E091A780A7A2
:10143000E091CE01F091CF018FE495E0958F848FFC
:101440008FED92E093A382A384EA91E095A384A315
:10145000E091D001F091D1018AED92E097A386A3AB
:1014600089EA91E091A780A781E696E093A782A7F9
:101470008EEA91E095A784A7AC0161E676E0CF0102
:101480000C960E946F05E091D201F091D30187E4A0
:1014900095E0958F848F85ED92E097A386A383EBEB
:1014A00091E091A780A7E091D401F091D50182ED60
:1014B00092E093A382A38DEC92E095A384A3E091A4
:1014C000D601F091D70188EC92E097A386A38BE137
:1014D00096E091A780A78EE290E00E943A108C01DE
:1014E0000E949E07D80114966D937D938D939C93D3
:1014F0001797F8011086118612861386C8010C967C
:101500000E94C9068FEF9FEFD80113969C938E938C
:10151000129757961C921E92569759961C921E929D
:10152000589711961C921E9288E491E05B969C93CA
:101530008E935A975D969C938E935C9729E431E045
:101540005F963C932E935E978BE491E091969C93EB
:101550008E93909741E551E097965C934E939697C2
:101560009B963C932E939A9795969C938E939497E3
:1015700099969C938E9398979D969C938E939C9707
:1015800010931B0200931A028EEE94E093969C93A4
:101590008E9392978CE00E9450078DE00E94500736
:1015A00060E08CE00E946F0760E08CE090E00E94B9
:1015B0002C0460E08DE00E946F0760E08DE090E019
:1015C0000E942C0482E292E00E941702892BD1F340
:1015D00082E292E00E94F5018236910599F782E25B
:1015E00092E00E941702892B29F082E292E00E9489
:1015F000F501F5CF3FB7F89480911E0290911F023C
:10160000A0912002B091210226B5A89B05C02F3FD2
:1016100019F00196A11DB11D3FBFBA2FA92F982F18
:101620008827820F911DA11DB11DBC01CD0142E093
:10163000660F771F881F991F4A95D1F761157105AD
:101640008105910511F00E94BA0D81E991E00E9497
:1016500042070E949E0760931602709317028093C0
:1016600018029093190261E08CE00E946F0761E01C
:101670008CE090E00E942C0461E08DE00E946F07F6
:1016800061E08DE090E00E942C0400911C0210911A
:101690001D020115110509F41FC1D8019696ED919F
:1016A000FC919797099520E030E04AE754E40E94C6
:1016B000B30F0E94F60EF8016087718782879387C7
:1016C0000E949E07D80114966D937D938D939C93F1
:1016D00017975A96ED91FC915B970995D8015C9606
:1016E000ED91FC915D970995F801C480D580E68065
:1016F000F7801092EE0168E971E08EEE91E00E94B1
:1017000060114AE0BE016F5F7F4FD80156968D9100
:101710009C9157970E94C30DBC018EEE91E00E94F0
:1017200060116AE971E08EEE91E00E9460114AE07A
:10173000BE016F5F7F4FF801808D918D0E94C30DB8
:10174000BC018EEE91E00E9460116EE571E08EEEBC
:1017500091E00E9460118091160290911702A09171
:101760001802B0911902A7019601281B390B4A0BE8
:101770005B0BCA01B9012AE0AE014F5F5F4F0E94C7
:10178000CE0DBC018EEE91E00E9460116DE971E01A
:101790008EEE91E00E9460118EEE91E00E94300783
:1017A0000E947903D8015E96ED91FC915F970995AF
:1017B000882331F0D8019096ED91FC9191979AC0D1
:1017C000F80182819381019649F4D8019296ED91B6
:1017D000FC9193970995F80193838283D8018D91A9
:1017E0009C911197019611969C938E9312962D9130
:1017F0003C9113972115310509F440C082179307D6
:10180000E9F59296ED91FC9193970995F8019383F0
:1018100082831182108204A0F5A1E02D6BC00E948A
:101820009E07D8011496CD90DD90ED90FC9017970F
:10183000DC01CB018C199D09AE09BF09F801C084F8
:10184000D184E284F3848C159D05AE05BF0508F0B4
:101850004EC0D8011C968D919C911D971E966D913E
:101860007C911F979B01215031098217930781F4C6
:101870001D961C921E921C970E947903F801808588
:101880009185A285B385892B8A2B8B2B11F3C7CF2A
:1018900001960E942010F80195878487880F991F70
:1018A0000288F389E02DE80FF91F0190F081E02D07
:1018B0000995882371F2D8011C96ED91FC911D9732
:1018C000EE0FFF1F54968D919C915597E80FF91FCD
:1018D0000190F081E02D0EC080911A0290911B02C0
:1018E00090931D0280931C020E94BE02CECE00A4E3
:1018F000F1A5E02D0995F4CF6F927F928F929F9280
:10190000AF92BF92CF92DF92EF92FF920F931F930D
:10191000CF93DF93109225021092240288EE93E079
:10192000A0E0B0E08093260290932702A0932802C3
:10193000B093290280E591E09093230280932202E4
:1019400085EC90E090932F0280932E0284EC90E03F
:10195000909331028093300280EC90E090933302B8
:101960008093320281EC90E09093350280933402B0
:1019700082EC90E0909337028093360286EC90E000
:10198000909339028093380210923B0210923C02ED
:1019900010923D0210923E02CFEBD2E0AA24AA940C
:1019A000BA2C98E4892E91E0992E29E4E22E21E0C8
:1019B000F22E0BE411E03EE4C32E31E0D32E41E5DC
:1019C000642E41E0742E0E949E076C837D838E837B
:1019D0009F83188619861A861B86CE010C960E9454
:1019E000C906BB82AA821F8A1E8A198E188E198286
:1019F00018829B8E8A8E9D8E8C8EFF8EEE8E19A302
:101A000008A3DBA2CAA27FA26EA2FBA6EAA61DA320
:101A10000CA319A708A71DA70CA7AE9685E0C13790
:101A2000D80789F6DF91CF911F910F91FF90EF902A
:101A3000DF90CF90BF90AF909F908F907F906F90EE
:101A400008958F929F92AF92BF92CF92DF92EF92C2
:101A5000FF92CF93DF93EC01688179818A819B812A
:101A6000611571058105910521F464E279ED8BE53D
:101A700097E02DE133EF41E050E00E941A0E49015A
:101A80005A019B01AC01A7EAB1E40E94390E6B0137
:101A90007C01ACEEB4EFA50194010E94470EDC017D
:101AA000CB018C0D9D1DAE1DBF1DB7FF03C001975F
:101AB000A109B04888839983AA83BB83BC01CD0167
:101AC0009F77DF91CF91FF90EF90DF90CF90BF9005
:101AD000AF909F908F9008958F929F92AF92BF92F8
:101AE000CF92DF92EF92FF92609102017091030119
:101AF00080910401909105016115710581059105A1
:101B000021F464E279ED8BE597E02DE133EF41E0DC
:101B100050E00E941A0E49015A019B01AC01A7EA4C
:101B2000B1E40E94390E6B017C01ACEEB4EFA5016B
:101B300094010E94470EDC01CB018C0D9D1DAE1D52
:101B4000BF1DB7FF03C00197A109B04880930201F0
:101B500090930301A0930401B0930501BC01CD0152
:101B60009F77FF90EF90DF90CF90BF90AF909F90C6
:101B70008F90089560930201709303018093040194
:101B8000909305010895BB274A3031F4992322F43C
:101B9000BDE2909581959F4F0C94F10DBB27FA0102
:101BA000A62F6217710581059105330B30FB66F096
:101BB000AA27660F771F881F991FAA1FA21710F068
:101BC000A21B63953850A9F7A05DAA3308F0A95D60
:101BD000A19336F7B111B1931082CA010C940A0E89
:101BE000BB27FB015527AA27880F991FAA1FA417F7
:101BF00010F0A41B83955051B9F7A05DAA3308F0EB
:101C0000A95DA193009779F7B111B1931192CB011E
:101C10000C940A0EDC01FC01672F71917723E1F728
:101C2000329704C07C916D9370836291AE17BF07A9
:101C3000C8F30895052E97FB1EF400940E94310E00
:101C400057FD07D00E944C0E07FC03D04EF40C94B5
:101C5000310E50954095309521953F4F4F4F5F4F36
:101C6000089590958095709561957F4F8F4F9F4F08
:101C700008950E946E0EA59F900DB49F900DA49F95
:101C8000800D911D11240895B7FF0C94390E0E9408
:101C9000390E821B930B0895A1E21A2EAA1BBB1BBF
:101CA000FD010DC0AA1FBB1FEE1FFF1FA217B30728
:101CB000E407F50720F0A21BB30BE40BF50B661F3E
:101CC000771F881F991F1A9469F760957095809502
:101CD00090959B01AC01BD01CF010895A29FB00179
:101CE000B39FC001A39F700D811D1124911DB29F50
:101CF000700D811D1124911D08950E94910E0C9468
:101D0000790F0E94720F58F00E946B0F40F029F477
:101D10005F3F29F00C94620F51110C94AD0F0C949D
:101D2000680F0E948A0F68F39923B1F3552391F34A
:101D3000951B550BBB27AA2762177307840738F03A
:101D40009F5F5F4F220F331F441FAA1FA9F335D097
:101D50000E2E3AF0E0E832D091505040E695001C4B
:101D6000CAF72BD0FE2F29D0660F771F881FBB1F05
:101D7000261737074807AB07B0E809F0BB0B802DE3
:101D8000BF01FF2793585F4F3AF09E3F510578F00F
:101D90000C94620F0C94AD0F5F3FE4F3983ED4F3C4
:101DA000869577956795B795F7959F5FC9F7880FE3
:101DB000911D9695879597F90895E1E0660F771F35
:101DC000881FBB1F621773078407BA0720F0621BC6
:101DD000730B840BBA0BEE1F88F7E09508950E94F1
:101DE000F60E6894B1110C94AD0F08950E94920FF5
:101DF00088F09F5798F0B92F9927B751B0F0E1F0CC
:101E0000660F771F881F991F1AF0BA95C9F714C07B
:101E1000B13091F00E94AC0FB1E008950C94AC0F7A
:101E2000672F782F8827B85F39F0B93FCCF38695B4
:101E300077956795B395D9F73EF490958095709511
:101E400061957F4F8F4F9F4F0895E89409C097FB8E
:101E50003EF490958095709561957F4F8F4F9F4F81
:101E60009923A9F0F92F96E9BB279395F6958795C5
:101E700077956795B795F111F8CFFAF4BB0F11F488
:101E800060FF1BC06F5F7F4F8F4F9F4F16C088232F
:101E900011F096E911C0772321F09EE8872F762F65
:101EA00005C0662371F096E8862F70E060E02AF0A6
:101EB0009A95660F771F881FDAF7880F9695879592
:101EC00097F9089597F99F6780E870E060E00895BA
:101ED0009FEF80EC089500240A9416161706180642
:101EE0000906089500240A9412161306140605061E
:101EF0000895092E0394000C11F4882352F0BB0FAF
:101F000040F4BF2B11F460FF04C06F5F7F4F8F4F11
:101F10009F4F089557FD9058440F551F59F05F3F4C
:101F200071F04795880F97FB991F61F09F3F79F0FB
:101F300087950895121613061406551FF2CF46957D
:101F4000F1DF08C0161617061806991FF1CF8695FF
:101F50007105610508940895E894BB2766277727E3
:101F6000CB0197F908950E94C60F0C94790F0E9437
:101F70006B0F38F00E94720F20F0952311F00C9433
:101F8000620F0C94680F11240C94AD0F0E948A0FFD
:101F900070F3959FC1F3950F50E0551F629FF001BC
:101FA000729FBB27F00DB11D639FAA27F00DB11DD5
:101FB000AA1F649F6627B00DA11D661F829F22275E
:101FC000B00DA11D621F739FB00DA11D621F839FE5
:101FD000A00D611D221F749F3327A00D611D231FBB
:101FE000849F600D211D822F762F6A2F11249F5709
:101FF00050409AF0F1F088234AF0EE0FFF1FBB1F0C
:10200000661F771F881F91505040A9F79E3F5105CA
:1020100080F00C94620F0C94AD0F5F3FE4F3983E98
:10202000D4F3869577956795B795F795E7959F5F74
:10203000C1F7FE2B880F911D9695879597F9089506
:10204000AA1BBB1B51E107C0AA1FBB1FA617B707DE
:1020500010F0A61BB70B881F991F5A95A9F78095FA
:102060009095BC01CD010895EE0FFF1F0590F491EE
:10207000E02D09940F931F93CF93DF938230910546
:1020800010F482E090E0E0917805F091790520E08D
:1020900030E0A0E0B0E0309719F140815181028139
:1020A000138148175907C8F08417950769F41097EA
:1020B00031F012960C93129713961C9327C000933D
:1020C00078051093790522C02115310519F04217C2
:1020D000530718F49A01BD01EF01DF01F801DBCFCE
:1020E00021153105F9F0281B390B2430310580F416
:1020F0008A819B816115710521F0FB0193838283A5
:1021000004C09093790580937805FE01329644C00F
:10211000FE01E20FF31F819391932250310939831D
:1021200028833AC02091760530917705232B41F41E
:1021300020910801309109013093770520937605AD
:1021400020910601309107012115310541F42DB789
:102150003EB740910A0150910B01241B350BE091D1
:102160007605F0917705E217F307A0F42E1B3F0BDD
:102170002817390778F0AC014E5F5F4F24173507F9
:1021800048F04E0F5F1F509377054093760581937B
:10219000919302C0E0E0F0E0CF01DF91CF911F9179
:1021A0000F910895CF93DF93009709F481C0FC014C
:1021B000329713821282A0917805B0917905109719
:1021C00081F420813181820F931F20917605309117
:1021D00077052817390751F5F0937705E0937605D1
:1021E00067C0ED0120E030E0CE17DF0740F44A8100
:1021F0005B819E0141155105F1F0EA01F5CFD383D2
:10220000C28340815181840F951FC817D90759F4A3
:1022100088819981840F951F0296918380838A819A
:102220009B81938382832115310529F4F0937905ED
:10223000E09378053DC0E901FB83EA834991599118
:10224000C40FD51FEC17FD0761F480819181840FC5
:10225000951F0296E90199838883828193819B83EC
:102260008A83E0E0F0E012968D919C91139700979D
:1022700019F0FD01DC01F7CF8D919C9111979D0123
:102280002E5F3F4F820F931F209176053091770587
:102290002817390769F4309729F4109279051092BC
:1022A000780502C013821282B0937705A093760559
:1022B000DF91CF91089581E090E0F8940C94721131
:1022C000FB01DC010D900020E9F7119701900D92C0
:1022D0000020E1F70895FB01DC0101900D92002040
:0822E000E1F70895F894FFCF27
:1022E80001010100000000007A05800000000100E3
:1022F80002000300040005000000010101010101C2
:10230800010101000000463A5C4172436F6E74722D
:102318006F6C5C7461736B5C476F5F4E6F476F5C8B
:10232800476F5F4E6F476F2E696E6F0000000000A9
:102338004F02B801E6019C021702F50109023A00B2
:102348002000494E004F5554004172432D656E647C
:10235800004172436F6E74726F6C002D2D2D2D2D00
:1023680000556E7469746C6564002D2D2D2D2D0A31
:10237800004172432D626700430053000D0A0000BC
:00000001FF
